{
	"contracts/11_20.sol": {
		"Quiz12": {
			"abi": [
				{
					"inputs": [
						{
							"internalType": "uint256",
							"name": "a",
							"type": "uint256"
						},
						{
							"internalType": "uint256",
							"name": "b",
							"type": "uint256"
						},
						{
							"internalType": "uint256",
							"name": "c",
							"type": "uint256"
						}
					],
					"name": "add",
					"outputs": [
						{
							"internalType": "uint256",
							"name": "",
							"type": "uint256"
						}
					],
					"stateMutability": "pure",
					"type": "function"
				},
				{
					"inputs": [
						{
							"internalType": "uint256",
							"name": "a",
							"type": "uint256"
						},
						{
							"internalType": "uint256",
							"name": "b",
							"type": "uint256"
						},
						{
							"internalType": "uint256",
							"name": "c",
							"type": "uint256"
						}
					],
					"name": "addAndMultiply",
					"outputs": [
						{
							"internalType": "uint256",
							"name": "",
							"type": "uint256"
						}
					],
					"stateMutability": "pure",
					"type": "function"
				},
				{
					"inputs": [
						{
							"internalType": "uint256",
							"name": "a",
							"type": "uint256"
						},
						{
							"internalType": "uint256",
							"name": "b",
							"type": "uint256"
						},
						{
							"internalType": "uint256",
							"name": "c",
							"type": "uint256"
						}
					],
					"name": "multiply",
					"outputs": [
						{
							"internalType": "uint256",
							"name": "",
							"type": "uint256"
						}
					],
					"stateMutability": "pure",
					"type": "function"
				}
			],
			"devdoc": {
				"kind": "dev",
				"methods": {},
				"version": 1
			},
			"evm": {
				"assembly": "    /* \"contracts/11_20.sol\":376:878  contract Quiz12 {... */\n  mstore(0x40, 0x80)\n  callvalue\n  dup1\n  iszero\n  tag_1\n  jumpi\n  0x00\n  dup1\n  revert\ntag_1:\n  pop\n  dataSize(sub_0)\n  dup1\n  dataOffset(sub_0)\n  0x00\n  codecopy\n  0x00\n  return\nstop\n\nsub_0: assembly {\n        /* \"contracts/11_20.sol\":376:878  contract Quiz12 {... */\n      mstore(0x40, 0x80)\n      callvalue\n      dup1\n      iszero\n      tag_1\n      jumpi\n      0x00\n      dup1\n      revert\n    tag_1:\n      pop\n      jumpi(tag_2, lt(calldatasize, 0x04))\n      shr(0xe0, calldataload(0x00))\n      dup1\n      0x17699f22\n      eq\n      tag_3\n      jumpi\n      dup1\n      0x505fb46c\n      eq\n      tag_4\n      jumpi\n      dup1\n      0xb3a9b5f6\n      eq\n      tag_5\n      jumpi\n    tag_2:\n      0x00\n      dup1\n      revert\n        /* \"contracts/11_20.sol\":770:875  function addAndMultiply(uint a, uint b, uint c) public pure returns(uint) {... */\n    tag_3:\n      tag_6\n      0x04\n      dup1\n      calldatasize\n      sub\n      dup2\n      add\n      swap1\n      tag_7\n      swap2\n      swap1\n      tag_8\n      jump\t// in\n    tag_7:\n      tag_9\n      jump\t// in\n    tag_6:\n      mload(0x40)\n      tag_10\n      swap2\n      swap1\n      tag_11\n      jump\t// in\n    tag_10:\n      mload(0x40)\n      dup1\n      swap2\n      sub\n      swap1\n      return\n        /* \"contracts/11_20.sol\":557:651  function add(uint a, uint b, uint c) public pure returns(uint) {... */\n    tag_4:\n      tag_12\n      0x04\n      dup1\n      calldatasize\n      sub\n      dup2\n      add\n      swap1\n      tag_13\n      swap2\n      swap1\n      tag_8\n      jump\t// in\n    tag_13:\n      tag_14\n      jump\t// in\n    tag_12:\n      mload(0x40)\n      tag_15\n      swap2\n      swap1\n      tag_11\n      jump\t// in\n    tag_15:\n      mload(0x40)\n      dup1\n      swap2\n      sub\n      swap1\n      return\n        /* \"contracts/11_20.sol\":659:758  function multiply(uint a, uint b, uint c) public pure returns(uint) {... */\n    tag_5:\n      tag_16\n      0x04\n      dup1\n      calldatasize\n      sub\n      dup2\n      add\n      swap1\n      tag_17\n      swap2\n      swap1\n      tag_8\n      jump\t// in\n    tag_17:\n      tag_18\n      jump\t// in\n    tag_16:\n      mload(0x40)\n      tag_19\n      swap2\n      swap1\n      tag_11\n      jump\t// in\n    tag_19:\n      mload(0x40)\n      dup1\n      swap2\n      sub\n      swap1\n      return\n        /* \"contracts/11_20.sol\":770:875  function addAndMultiply(uint a, uint b, uint c) public pure returns(uint) {... */\n    tag_9:\n        /* \"contracts/11_20.sol\":838:842  uint */\n      0x00\n        /* \"contracts/11_20.sol\":866:867  c */\n      dup2\n        /* \"contracts/11_20.sol\":864:865  b */\n      dup4\n        /* \"contracts/11_20.sol\":862:863  a */\n      dup6\n        /* \"contracts/11_20.sol\":862:865  a*b */\n      tag_21\n      swap2\n      swap1\n      tag_22\n      jump\t// in\n    tag_21:\n        /* \"contracts/11_20.sol\":862:867  a*b+c */\n      tag_23\n      swap2\n      swap1\n      tag_24\n      jump\t// in\n    tag_23:\n        /* \"contracts/11_20.sol\":855:867  return a*b+c */\n      swap1\n      pop\n        /* \"contracts/11_20.sol\":770:875  function addAndMultiply(uint a, uint b, uint c) public pure returns(uint) {... */\n      swap4\n      swap3\n      pop\n      pop\n      pop\n      jump\t// out\n        /* \"contracts/11_20.sol\":557:651  function add(uint a, uint b, uint c) public pure returns(uint) {... */\n    tag_14:\n        /* \"contracts/11_20.sol\":614:618  uint */\n      0x00\n        /* \"contracts/11_20.sol\":642:643  c */\n      dup2\n        /* \"contracts/11_20.sol\":640:641  b */\n      dup4\n        /* \"contracts/11_20.sol\":638:639  a */\n      dup6\n        /* \"contracts/11_20.sol\":638:641  a+b */\n      tag_26\n      swap2\n      swap1\n      tag_24\n      jump\t// in\n    tag_26:\n        /* \"contracts/11_20.sol\":638:643  a+b+c */\n      tag_27\n      swap2\n      swap1\n      tag_24\n      jump\t// in\n    tag_27:\n        /* \"contracts/11_20.sol\":631:643  return a+b+c */\n      swap1\n      pop\n        /* \"contracts/11_20.sol\":557:651  function add(uint a, uint b, uint c) public pure returns(uint) {... */\n      swap4\n      swap3\n      pop\n      pop\n      pop\n      jump\t// out\n        /* \"contracts/11_20.sol\":659:758  function multiply(uint a, uint b, uint c) public pure returns(uint) {... */\n    tag_18:\n        /* \"contracts/11_20.sol\":721:725  uint */\n      0x00\n        /* \"contracts/11_20.sol\":749:750  c */\n      dup2\n        /* \"contracts/11_20.sol\":747:748  b */\n      dup4\n        /* \"contracts/11_20.sol\":745:746  a */\n      dup6\n        /* \"contracts/11_20.sol\":745:748  a*b */\n      tag_29\n      swap2\n      swap1\n      tag_22\n      jump\t// in\n    tag_29:\n        /* \"contracts/11_20.sol\":745:750  a*b*c */\n      tag_30\n      swap2\n      swap1\n      tag_22\n      jump\t// in\n    tag_30:\n        /* \"contracts/11_20.sol\":738:750  return a*b*c */\n      swap1\n      pop\n        /* \"contracts/11_20.sol\":659:758  function multiply(uint a, uint b, uint c) public pure returns(uint) {... */\n      swap4\n      swap3\n      pop\n      pop\n      pop\n      jump\t// out\n        /* \"#utility.yul\":88:205   */\n    tag_32:\n        /* \"#utility.yul\":197:198   */\n      0x00\n        /* \"#utility.yul\":194:195   */\n      dup1\n        /* \"#utility.yul\":187:199   */\n      revert\n        /* \"#utility.yul\":334:411   */\n    tag_34:\n        /* \"#utility.yul\":371:378   */\n      0x00\n        /* \"#utility.yul\":400:405   */\n      dup2\n        /* \"#utility.yul\":389:405   */\n      swap1\n      pop\n        /* \"#utility.yul\":334:411   */\n      swap2\n      swap1\n      pop\n      jump\t// out\n        /* \"#utility.yul\":417:539   */\n    tag_35:\n        /* \"#utility.yul\":490:514   */\n      tag_45\n        /* \"#utility.yul\":508:513   */\n      dup2\n        /* \"#utility.yul\":490:514   */\n      tag_34\n      jump\t// in\n    tag_45:\n        /* \"#utility.yul\":483:488   */\n      dup2\n        /* \"#utility.yul\":480:515   */\n      eq\n        /* \"#utility.yul\":470:533   */\n      tag_46\n      jumpi\n        /* \"#utility.yul\":529:530   */\n      0x00\n        /* \"#utility.yul\":526:527   */\n      dup1\n        /* \"#utility.yul\":519:531   */\n      revert\n        /* \"#utility.yul\":470:533   */\n    tag_46:\n        /* \"#utility.yul\":417:539   */\n      pop\n      jump\t// out\n        /* \"#utility.yul\":545:684   */\n    tag_36:\n        /* \"#utility.yul\":591:596   */\n      0x00\n        /* \"#utility.yul\":629:635   */\n      dup2\n        /* \"#utility.yul\":616:636   */\n      calldataload\n        /* \"#utility.yul\":607:636   */\n      swap1\n      pop\n        /* \"#utility.yul\":645:678   */\n      tag_48\n        /* \"#utility.yul\":672:677   */\n      dup2\n        /* \"#utility.yul\":645:678   */\n      tag_35\n      jump\t// in\n    tag_48:\n        /* \"#utility.yul\":545:684   */\n      swap3\n      swap2\n      pop\n      pop\n      jump\t// out\n        /* \"#utility.yul\":690:1309   */\n    tag_8:\n        /* \"#utility.yul\":767:773   */\n      0x00\n        /* \"#utility.yul\":775:781   */\n      dup1\n        /* \"#utility.yul\":783:789   */\n      0x00\n        /* \"#utility.yul\":832:834   */\n      0x60\n        /* \"#utility.yul\":820:829   */\n      dup5\n        /* \"#utility.yul\":811:818   */\n      dup7\n        /* \"#utility.yul\":807:830   */\n      sub\n        /* \"#utility.yul\":803:835   */\n      slt\n        /* \"#utility.yul\":800:919   */\n      iszero\n      tag_50\n      jumpi\n        /* \"#utility.yul\":838:917   */\n      tag_51\n      tag_32\n      jump\t// in\n    tag_51:\n        /* \"#utility.yul\":800:919   */\n    tag_50:\n        /* \"#utility.yul\":958:959   */\n      0x00\n        /* \"#utility.yul\":983:1036   */\n      tag_52\n        /* \"#utility.yul\":1028:1035   */\n      dup7\n        /* \"#utility.yul\":1019:1025   */\n      dup3\n        /* \"#utility.yul\":1008:1017   */\n      dup8\n        /* \"#utility.yul\":1004:1026   */\n      add\n        /* \"#utility.yul\":983:1036   */\n      tag_36\n      jump\t// in\n    tag_52:\n        /* \"#utility.yul\":973:1036   */\n      swap4\n      pop\n        /* \"#utility.yul\":929:1046   */\n      pop\n        /* \"#utility.yul\":1085:1087   */\n      0x20\n        /* \"#utility.yul\":1111:1164   */\n      tag_53\n        /* \"#utility.yul\":1156:1163   */\n      dup7\n        /* \"#utility.yul\":1147:1153   */\n      dup3\n        /* \"#utility.yul\":1136:1145   */\n      dup8\n        /* \"#utility.yul\":1132:1154   */\n      add\n        /* \"#utility.yul\":1111:1164   */\n      tag_36\n      jump\t// in\n    tag_53:\n        /* \"#utility.yul\":1101:1164   */\n      swap3\n      pop\n        /* \"#utility.yul\":1056:1174   */\n      pop\n        /* \"#utility.yul\":1213:1215   */\n      0x40\n        /* \"#utility.yul\":1239:1292   */\n      tag_54\n        /* \"#utility.yul\":1284:1291   */\n      dup7\n        /* \"#utility.yul\":1275:1281   */\n      dup3\n        /* \"#utility.yul\":1264:1273   */\n      dup8\n        /* \"#utility.yul\":1260:1282   */\n      add\n        /* \"#utility.yul\":1239:1292   */\n      tag_36\n      jump\t// in\n    tag_54:\n        /* \"#utility.yul\":1229:1292   */\n      swap2\n      pop\n        /* \"#utility.yul\":1184:1302   */\n      pop\n        /* \"#utility.yul\":690:1309   */\n      swap3\n      pop\n      swap3\n      pop\n      swap3\n      jump\t// out\n        /* \"#utility.yul\":1315:1433   */\n    tag_37:\n        /* \"#utility.yul\":1402:1426   */\n      tag_56\n        /* \"#utility.yul\":1420:1425   */\n      dup2\n        /* \"#utility.yul\":1402:1426   */\n      tag_34\n      jump\t// in\n    tag_56:\n        /* \"#utility.yul\":1397:1400   */\n      dup3\n        /* \"#utility.yul\":1390:1427   */\n      mstore\n        /* \"#utility.yul\":1315:1433   */\n      pop\n      pop\n      jump\t// out\n        /* \"#utility.yul\":1439:1661   */\n    tag_11:\n        /* \"#utility.yul\":1532:1536   */\n      0x00\n        /* \"#utility.yul\":1570:1572   */\n      0x20\n        /* \"#utility.yul\":1559:1568   */\n      dup3\n        /* \"#utility.yul\":1555:1573   */\n      add\n        /* \"#utility.yul\":1547:1573   */\n      swap1\n      pop\n        /* \"#utility.yul\":1583:1654   */\n      tag_58\n        /* \"#utility.yul\":1651:1652   */\n      0x00\n        /* \"#utility.yul\":1640:1649   */\n      dup4\n        /* \"#utility.yul\":1636:1653   */\n      add\n        /* \"#utility.yul\":1627:1633   */\n      dup5\n        /* \"#utility.yul\":1583:1654   */\n      tag_37\n      jump\t// in\n    tag_58:\n        /* \"#utility.yul\":1439:1661   */\n      swap3\n      swap2\n      pop\n      pop\n      jump\t// out\n        /* \"#utility.yul\":1667:1847   */\n    tag_38:\n        /* \"#utility.yul\":1715:1792   */\n      0x4e487b7100000000000000000000000000000000000000000000000000000000\n        /* \"#utility.yul\":1712:1713   */\n      0x00\n        /* \"#utility.yul\":1705:1793   */\n      mstore\n        /* \"#utility.yul\":1812:1816   */\n      0x11\n        /* \"#utility.yul\":1809:1810   */\n      0x04\n        /* \"#utility.yul\":1802:1817   */\n      mstore\n        /* \"#utility.yul\":1836:1840   */\n      0x24\n        /* \"#utility.yul\":1833:1834   */\n      0x00\n        /* \"#utility.yul\":1826:1841   */\n      revert\n        /* \"#utility.yul\":1853:2263   */\n    tag_22:\n        /* \"#utility.yul\":1893:1900   */\n      0x00\n        /* \"#utility.yul\":1916:1936   */\n      tag_61\n        /* \"#utility.yul\":1934:1935   */\n      dup3\n        /* \"#utility.yul\":1916:1936   */\n      tag_34\n      jump\t// in\n    tag_61:\n        /* \"#utility.yul\":1911:1936   */\n      swap2\n      pop\n        /* \"#utility.yul\":1950:1970   */\n      tag_62\n        /* \"#utility.yul\":1968:1969   */\n      dup4\n        /* \"#utility.yul\":1950:1970   */\n      tag_34\n      jump\t// in\n    tag_62:\n        /* \"#utility.yul\":1945:1970   */\n      swap3\n      pop\n        /* \"#utility.yul\":2005:2006   */\n      dup3\n        /* \"#utility.yul\":2002:2003   */\n      dup3\n        /* \"#utility.yul\":1998:2007   */\n      mul\n        /* \"#utility.yul\":2027:2057   */\n      tag_63\n        /* \"#utility.yul\":2045:2056   */\n      dup2\n        /* \"#utility.yul\":2027:2057   */\n      tag_34\n      jump\t// in\n    tag_63:\n        /* \"#utility.yul\":2016:2057   */\n      swap2\n      pop\n        /* \"#utility.yul\":2206:2207   */\n      dup3\n        /* \"#utility.yul\":2197:2204   */\n      dup3\n        /* \"#utility.yul\":2193:2208   */\n      div\n        /* \"#utility.yul\":2190:2191   */\n      dup5\n        /* \"#utility.yul\":2187:2209   */\n      eq\n        /* \"#utility.yul\":2167:2168   */\n      dup4\n        /* \"#utility.yul\":2160:2169   */\n      iszero\n        /* \"#utility.yul\":2140:2223   */\n      or\n        /* \"#utility.yul\":2117:2256   */\n      tag_64\n      jumpi\n        /* \"#utility.yul\":2236:2254   */\n      tag_65\n      tag_38\n      jump\t// in\n    tag_65:\n        /* \"#utility.yul\":2117:2256   */\n    tag_64:\n        /* \"#utility.yul\":1901:2263   */\n      pop\n        /* \"#utility.yul\":1853:2263   */\n      swap3\n      swap2\n      pop\n      pop\n      jump\t// out\n        /* \"#utility.yul\":2269:2460   */\n    tag_24:\n        /* \"#utility.yul\":2309:2312   */\n      0x00\n        /* \"#utility.yul\":2328:2348   */\n      tag_67\n        /* \"#utility.yul\":2346:2347   */\n      dup3\n        /* \"#utility.yul\":2328:2348   */\n      tag_34\n      jump\t// in\n    tag_67:\n        /* \"#utility.yul\":2323:2348   */\n      swap2\n      pop\n        /* \"#utility.yul\":2362:2382   */\n      tag_68\n        /* \"#utility.yul\":2380:2381   */\n      dup4\n        /* \"#utility.yul\":2362:2382   */\n      tag_34\n      jump\t// in\n    tag_68:\n        /* \"#utility.yul\":2357:2382   */\n      swap3\n      pop\n        /* \"#utility.yul\":2405:2406   */\n      dup3\n        /* \"#utility.yul\":2402:2403   */\n      dup3\n        /* \"#utility.yul\":2398:2407   */\n      add\n        /* \"#utility.yul\":2391:2407   */\n      swap1\n      pop\n        /* \"#utility.yul\":2426:2429   */\n      dup1\n        /* \"#utility.yul\":2423:2424   */\n      dup3\n        /* \"#utility.yul\":2420:2430   */\n      gt\n        /* \"#utility.yul\":2417:2453   */\n      iszero\n      tag_69\n      jumpi\n        /* \"#utility.yul\":2433:2451   */\n      tag_70\n      tag_38\n      jump\t// in\n    tag_70:\n        /* \"#utility.yul\":2417:2453   */\n    tag_69:\n        /* \"#utility.yul\":2269:2460   */\n      swap3\n      swap2\n      pop\n      pop\n      jump\t// out\n\n    auxdata: 0xa26469706673582212200d309dc56bb3bc77e3c9209816b77e43001e28e32a61c76a0ca8b4b496390d5864736f6c63430008120033\n}\n",
				"bytecode": {
					"linkReferences": {},
					"object": "608060405234801561001057600080fd5b506102cf806100206000396000f3fe608060405234801561001057600080fd5b50600436106100415760003560e01c806317699f2214610046578063505fb46c14610076578063b3a9b5f6146100a6575b600080fd5b610060600480360381019061005b9190610177565b6100d6565b60405161006d91906101d9565b60405180910390f35b610090600480360381019061008b9190610177565b6100f8565b60405161009d91906101d9565b60405180910390f35b6100c060048036038101906100bb9190610177565b61011a565b6040516100cd91906101d9565b60405180910390f35b60008183856100e59190610223565b6100ef9190610265565b90509392505050565b60008183856101079190610265565b6101119190610265565b90509392505050565b60008183856101299190610223565b6101339190610223565b90509392505050565b600080fd5b6000819050919050565b61015481610141565b811461015f57600080fd5b50565b6000813590506101718161014b565b92915050565b6000806000606084860312156101905761018f61013c565b5b600061019e86828701610162565b93505060206101af86828701610162565b92505060406101c086828701610162565b9150509250925092565b6101d381610141565b82525050565b60006020820190506101ee60008301846101ca565b92915050565b7f4e487b7100000000000000000000000000000000000000000000000000000000600052601160045260246000fd5b600061022e82610141565b915061023983610141565b925082820261024781610141565b9150828204841483151761025e5761025d6101f4565b5b5092915050565b600061027082610141565b915061027b83610141565b9250828201905080821115610293576102926101f4565b5b9291505056fea26469706673582212200d309dc56bb3bc77e3c9209816b77e43001e28e32a61c76a0ca8b4b496390d5864736f6c63430008120033",
					"opcodes": "PUSH1 0x80 PUSH1 0x40 MSTORE CALLVALUE DUP1 ISZERO PUSH2 0x10 JUMPI PUSH1 0x0 DUP1 REVERT JUMPDEST POP PUSH2 0x2CF DUP1 PUSH2 0x20 PUSH1 0x0 CODECOPY PUSH1 0x0 RETURN INVALID PUSH1 0x80 PUSH1 0x40 MSTORE CALLVALUE DUP1 ISZERO PUSH2 0x10 JUMPI PUSH1 0x0 DUP1 REVERT JUMPDEST POP PUSH1 0x4 CALLDATASIZE LT PUSH2 0x41 JUMPI PUSH1 0x0 CALLDATALOAD PUSH1 0xE0 SHR DUP1 PUSH4 0x17699F22 EQ PUSH2 0x46 JUMPI DUP1 PUSH4 0x505FB46C EQ PUSH2 0x76 JUMPI DUP1 PUSH4 0xB3A9B5F6 EQ PUSH2 0xA6 JUMPI JUMPDEST PUSH1 0x0 DUP1 REVERT JUMPDEST PUSH2 0x60 PUSH1 0x4 DUP1 CALLDATASIZE SUB DUP2 ADD SWAP1 PUSH2 0x5B SWAP2 SWAP1 PUSH2 0x177 JUMP JUMPDEST PUSH2 0xD6 JUMP JUMPDEST PUSH1 0x40 MLOAD PUSH2 0x6D SWAP2 SWAP1 PUSH2 0x1D9 JUMP JUMPDEST PUSH1 0x40 MLOAD DUP1 SWAP2 SUB SWAP1 RETURN JUMPDEST PUSH2 0x90 PUSH1 0x4 DUP1 CALLDATASIZE SUB DUP2 ADD SWAP1 PUSH2 0x8B SWAP2 SWAP1 PUSH2 0x177 JUMP JUMPDEST PUSH2 0xF8 JUMP JUMPDEST PUSH1 0x40 MLOAD PUSH2 0x9D SWAP2 SWAP1 PUSH2 0x1D9 JUMP JUMPDEST PUSH1 0x40 MLOAD DUP1 SWAP2 SUB SWAP1 RETURN JUMPDEST PUSH2 0xC0 PUSH1 0x4 DUP1 CALLDATASIZE SUB DUP2 ADD SWAP1 PUSH2 0xBB SWAP2 SWAP1 PUSH2 0x177 JUMP JUMPDEST PUSH2 0x11A JUMP JUMPDEST PUSH1 0x40 MLOAD PUSH2 0xCD SWAP2 SWAP1 PUSH2 0x1D9 JUMP JUMPDEST PUSH1 0x40 MLOAD DUP1 SWAP2 SUB SWAP1 RETURN JUMPDEST PUSH1 0x0 DUP2 DUP4 DUP6 PUSH2 0xE5 SWAP2 SWAP1 PUSH2 0x223 JUMP JUMPDEST PUSH2 0xEF SWAP2 SWAP1 PUSH2 0x265 JUMP JUMPDEST SWAP1 POP SWAP4 SWAP3 POP POP POP JUMP JUMPDEST PUSH1 0x0 DUP2 DUP4 DUP6 PUSH2 0x107 SWAP2 SWAP1 PUSH2 0x265 JUMP JUMPDEST PUSH2 0x111 SWAP2 SWAP1 PUSH2 0x265 JUMP JUMPDEST SWAP1 POP SWAP4 SWAP3 POP POP POP JUMP JUMPDEST PUSH1 0x0 DUP2 DUP4 DUP6 PUSH2 0x129 SWAP2 SWAP1 PUSH2 0x223 JUMP JUMPDEST PUSH2 0x133 SWAP2 SWAP1 PUSH2 0x223 JUMP JUMPDEST SWAP1 POP SWAP4 SWAP3 POP POP POP JUMP JUMPDEST PUSH1 0x0 DUP1 REVERT JUMPDEST PUSH1 0x0 DUP2 SWAP1 POP SWAP2 SWAP1 POP JUMP JUMPDEST PUSH2 0x154 DUP2 PUSH2 0x141 JUMP JUMPDEST DUP2 EQ PUSH2 0x15F JUMPI PUSH1 0x0 DUP1 REVERT JUMPDEST POP JUMP JUMPDEST PUSH1 0x0 DUP2 CALLDATALOAD SWAP1 POP PUSH2 0x171 DUP2 PUSH2 0x14B JUMP JUMPDEST SWAP3 SWAP2 POP POP JUMP JUMPDEST PUSH1 0x0 DUP1 PUSH1 0x0 PUSH1 0x60 DUP5 DUP7 SUB SLT ISZERO PUSH2 0x190 JUMPI PUSH2 0x18F PUSH2 0x13C JUMP JUMPDEST JUMPDEST PUSH1 0x0 PUSH2 0x19E DUP7 DUP3 DUP8 ADD PUSH2 0x162 JUMP JUMPDEST SWAP4 POP POP PUSH1 0x20 PUSH2 0x1AF DUP7 DUP3 DUP8 ADD PUSH2 0x162 JUMP JUMPDEST SWAP3 POP POP PUSH1 0x40 PUSH2 0x1C0 DUP7 DUP3 DUP8 ADD PUSH2 0x162 JUMP JUMPDEST SWAP2 POP POP SWAP3 POP SWAP3 POP SWAP3 JUMP JUMPDEST PUSH2 0x1D3 DUP2 PUSH2 0x141 JUMP JUMPDEST DUP3 MSTORE POP POP JUMP JUMPDEST PUSH1 0x0 PUSH1 0x20 DUP3 ADD SWAP1 POP PUSH2 0x1EE PUSH1 0x0 DUP4 ADD DUP5 PUSH2 0x1CA JUMP JUMPDEST SWAP3 SWAP2 POP POP JUMP JUMPDEST PUSH32 0x4E487B7100000000000000000000000000000000000000000000000000000000 PUSH1 0x0 MSTORE PUSH1 0x11 PUSH1 0x4 MSTORE PUSH1 0x24 PUSH1 0x0 REVERT JUMPDEST PUSH1 0x0 PUSH2 0x22E DUP3 PUSH2 0x141 JUMP JUMPDEST SWAP2 POP PUSH2 0x239 DUP4 PUSH2 0x141 JUMP JUMPDEST SWAP3 POP DUP3 DUP3 MUL PUSH2 0x247 DUP2 PUSH2 0x141 JUMP JUMPDEST SWAP2 POP DUP3 DUP3 DIV DUP5 EQ DUP4 ISZERO OR PUSH2 0x25E JUMPI PUSH2 0x25D PUSH2 0x1F4 JUMP JUMPDEST JUMPDEST POP SWAP3 SWAP2 POP POP JUMP JUMPDEST PUSH1 0x0 PUSH2 0x270 DUP3 PUSH2 0x141 JUMP JUMPDEST SWAP2 POP PUSH2 0x27B DUP4 PUSH2 0x141 JUMP JUMPDEST SWAP3 POP DUP3 DUP3 ADD SWAP1 POP DUP1 DUP3 GT ISZERO PUSH2 0x293 JUMPI PUSH2 0x292 PUSH2 0x1F4 JUMP JUMPDEST JUMPDEST SWAP3 SWAP2 POP POP JUMP INVALID LOG2 PUSH5 0x6970667358 0x22 SLT KECCAK256 0xD ADDRESS SWAP14 0xC5 PUSH12 0xB3BC77E3C9209816B77E4300 0x1E 0x28 0xE3 0x2A PUSH2 0xC76A 0xC 0xA8 0xB4 0xB4 SWAP7 CODECOPY 0xD PC PUSH5 0x736F6C6343 STOP ADDMOD SLT STOP CALLER "
				},
				"gasEstimates": {
					"creation": {
						"codeDepositCost": "143800",
						"executionCost": "190",
						"totalCost": "143990"
					},
					"external": {
						"add(uint256,uint256,uint256)": "infinite",
						"addAndMultiply(uint256,uint256,uint256)": "infinite",
						"multiply(uint256,uint256,uint256)": "infinite"
					}
				},
				"methodIdentifiers": {
					"add(uint256,uint256,uint256)": "505fb46c",
					"addAndMultiply(uint256,uint256,uint256)": "17699f22",
					"multiply(uint256,uint256,uint256)": "b3a9b5f6"
				}
			},
			"storageLayout": {
				"storage": [],
				"types": null
			},
			"userdoc": {
				"kind": "user",
				"methods": {},
				"version": 1
			}
		}
	}
}