{
	"contracts/11_20.sol": {
		"Quiz14": {
			"abi": [
				{
					"inputs": [
						{
							"internalType": "string",
							"name": "_name",
							"type": "string"
						},
						{
							"internalType": "string[]",
							"name": "_class",
							"type": "string[]"
						}
					],
					"name": "setStudent",
					"outputs": [],
					"stateMutability": "nonpayable",
					"type": "function"
				},
				{
					"inputs": [
						{
							"internalType": "uint256",
							"name": "",
							"type": "uint256"
						}
					],
					"name": "students",
					"outputs": [
						{
							"internalType": "uint256",
							"name": "number",
							"type": "uint256"
						},
						{
							"internalType": "string",
							"name": "name",
							"type": "string"
						}
					],
					"stateMutability": "view",
					"type": "function"
				}
			],
			"devdoc": {
				"kind": "dev",
				"methods": {},
				"version": 1
			},
			"evm": {
				"assembly": "    /* \"contracts/11_20.sol\":1295:1952  contract Quiz14 {... */\n  mstore(0x40, 0x80)\n  callvalue\n  dup1\n  iszero\n  tag_1\n  jumpi\n  0x00\n  dup1\n  revert\ntag_1:\n  pop\n  dataSize(sub_0)\n  dup1\n  dataOffset(sub_0)\n  0x00\n  codecopy\n  0x00\n  return\nstop\n\nsub_0: assembly {\n        /* \"contracts/11_20.sol\":1295:1952  contract Quiz14 {... */\n      mstore(0x40, 0x80)\n      callvalue\n      dup1\n      iszero\n      tag_1\n      jumpi\n      0x00\n      dup1\n      revert\n    tag_1:\n      pop\n      jumpi(tag_2, lt(calldatasize, 0x04))\n      shr(0xe0, calldataload(0x00))\n      dup1\n      0x06ead22e\n      eq\n      tag_3\n      jumpi\n      dup1\n      0x7283a069\n      eq\n      tag_4\n      jumpi\n    tag_2:\n      0x00\n      dup1\n      revert\n        /* \"contracts/11_20.sol\":1766:1791  Student[] public students */\n    tag_3:\n      tag_5\n      0x04\n      dup1\n      calldatasize\n      sub\n      dup2\n      add\n      swap1\n      tag_6\n      swap2\n      swap1\n      tag_7\n      jump\t// in\n    tag_6:\n      tag_8\n      jump\t// in\n    tag_5:\n      mload(0x40)\n      tag_9\n      swap3\n      swap2\n      swap1\n      tag_10\n      jump\t// in\n    tag_9:\n      mload(0x40)\n      dup1\n      swap2\n      sub\n      swap1\n      return\n        /* \"contracts/11_20.sol\":1800:1949  function setStudent(string memory _name, string[] memory _class) public {... */\n    tag_4:\n      tag_11\n      0x04\n      dup1\n      calldatasize\n      sub\n      dup2\n      add\n      swap1\n      tag_12\n      swap2\n      swap1\n      tag_13\n      jump\t// in\n    tag_12:\n      tag_14\n      jump\t// in\n    tag_11:\n      stop\n        /* \"contracts/11_20.sol\":1766:1791  Student[] public students */\n    tag_8:\n      0x00\n      dup2\n      dup2\n      sload\n      dup2\n      lt\n      tag_15\n      jumpi\n      0x00\n      dup1\n      revert\n    tag_15:\n      swap1\n      0x00\n      mstore\n      keccak256(0x00, 0x20)\n      swap1\n      0x03\n      mul\n      add\n      0x00\n      swap2\n      pop\n      swap1\n      pop\n      dup1\n      0x00\n      add\n      sload\n      swap1\n      dup1\n      0x01\n      add\n      dup1\n      sload\n      tag_17\n      swap1\n      tag_18\n      jump\t// in\n    tag_17:\n      dup1\n      0x1f\n      add\n      0x20\n      dup1\n      swap2\n      div\n      mul\n      0x20\n      add\n      mload(0x40)\n      swap1\n      dup2\n      add\n      0x40\n      mstore\n      dup1\n      swap3\n      swap2\n      swap1\n      dup2\n      dup2\n      mstore\n      0x20\n      add\n      dup3\n      dup1\n      sload\n      tag_19\n      swap1\n      tag_18\n      jump\t// in\n    tag_19:\n      dup1\n      iszero\n      tag_20\n      jumpi\n      dup1\n      0x1f\n      lt\n      tag_21\n      jumpi\n      0x0100\n      dup1\n      dup4\n      sload\n      div\n      mul\n      dup4\n      mstore\n      swap2\n      0x20\n      add\n      swap2\n      jump(tag_20)\n    tag_21:\n      dup3\n      add\n      swap2\n      swap1\n      0x00\n      mstore\n      keccak256(0x00, 0x20)\n      swap1\n    tag_22:\n      dup2\n      sload\n      dup2\n      mstore\n      swap1\n      0x01\n      add\n      swap1\n      0x20\n      add\n      dup1\n      dup4\n      gt\n      tag_22\n      jumpi\n      dup3\n      swap1\n      sub\n      0x1f\n      and\n      dup3\n      add\n      swap2\n    tag_20:\n      pop\n      pop\n      pop\n      pop\n      pop\n      swap1\n      pop\n      dup3\n      jump\t// out\n        /* \"contracts/11_20.sol\":1800:1949  function setStudent(string memory _name, string[] memory _class) public {... */\n    tag_14:\n        /* \"contracts/11_20.sol\":1883:1891  students */\n      0x00\n        /* \"contracts/11_20.sol\":1897:1940  Student(students.length + 1, _name, _class) */\n      mload(0x40)\n      dup1\n      0x60\n      add\n      0x40\n      mstore\n      dup1\n        /* \"contracts/11_20.sol\":1923:1924  1 */\n      0x01\n        /* \"contracts/11_20.sol\":1905:1913  students */\n      0x00\n        /* \"contracts/11_20.sol\":1905:1920  students.length */\n      dup1\n      sload\n      swap1\n      pop\n        /* \"contracts/11_20.sol\":1905:1924  students.length + 1 */\n      tag_24\n      swap2\n      swap1\n      tag_25\n      jump\t// in\n    tag_24:\n        /* \"contracts/11_20.sol\":1897:1940  Student(students.length + 1, _name, _class) */\n      dup2\n      mstore\n      0x20\n      add\n        /* \"contracts/11_20.sol\":1926:1931  _name */\n      dup5\n        /* \"contracts/11_20.sol\":1897:1940  Student(students.length + 1, _name, _class) */\n      dup2\n      mstore\n      0x20\n      add\n        /* \"contracts/11_20.sol\":1933:1939  _class */\n      dup4\n        /* \"contracts/11_20.sol\":1897:1940  Student(students.length + 1, _name, _class) */\n      dup2\n      mstore\n      pop\n        /* \"contracts/11_20.sol\":1883:1941  students.push(Student(students.length + 1, _name, _class)) */\n      swap1\n      dup1\n      0x01\n      dup2\n      sload\n      add\n      dup1\n      dup3\n      sstore\n      dup1\n      swap2\n      pop\n      pop\n      0x01\n      swap1\n      sub\n      swap1\n      0x00\n      mstore\n      keccak256(0x00, 0x20)\n      swap1\n      0x03\n      mul\n      add\n      0x00\n      swap1\n      swap2\n      swap1\n      swap2\n      swap1\n      swap2\n      pop\n      0x00\n      dup3\n      add\n      mload\n      dup2\n      0x00\n      add\n      sstore\n      0x20\n      dup3\n      add\n      mload\n      dup2\n      0x01\n      add\n      swap1\n      dup2\n      tag_27\n      swap2\n      swap1\n      tag_28\n      jump\t// in\n    tag_27:\n      pop\n      0x40\n      dup3\n      add\n      mload\n      dup2\n      0x02\n      add\n      swap1\n      dup1\n      mload\n      swap1\n      0x20\n      add\n      swap1\n      tag_29\n      swap3\n      swap2\n      swap1\n      tag_30\n      jump\t// in\n    tag_29:\n      pop\n      pop\n      pop\n        /* \"contracts/11_20.sol\":1800:1949  function setStudent(string memory _name, string[] memory _class) public {... */\n      pop\n      pop\n      jump\t// out\n    tag_30:\n      dup3\n      dup1\n      sload\n      dup3\n      dup3\n      sstore\n      swap1\n      0x00\n      mstore\n      keccak256(0x00, 0x20)\n      swap1\n      dup2\n      add\n      swap3\n      dup3\n      iszero\n      tag_31\n      jumpi\n      swap2\n      0x20\n      mul\n      dup3\n      add\n    tag_32:\n      dup3\n      dup2\n      gt\n      iszero\n      tag_33\n      jumpi\n      dup3\n      mload\n      dup3\n      swap1\n      dup2\n      tag_34\n      swap2\n      swap1\n      tag_28\n      jump\t// in\n    tag_34:\n      pop\n      swap2\n      0x20\n      add\n      swap2\n      swap1\n      0x01\n      add\n      swap1\n      jump(tag_32)\n    tag_33:\n    tag_31:\n      pop\n      swap1\n      pop\n      tag_35\n      swap2\n      swap1\n      tag_36\n      jump\t// in\n    tag_35:\n      pop\n      swap1\n      jump\t// out\n    tag_36:\n    tag_37:\n      dup1\n      dup3\n      gt\n      iszero\n      tag_38\n      jumpi\n      0x00\n      dup2\n      dup2\n      tag_39\n      swap2\n      swap1\n      tag_40\n      jump\t// in\n    tag_39:\n      pop\n      0x01\n      add\n      jump(tag_37)\n    tag_38:\n      pop\n      swap1\n      jump\t// out\n    tag_40:\n      pop\n      dup1\n      sload\n      tag_41\n      swap1\n      tag_18\n      jump\t// in\n    tag_41:\n      0x00\n      dup3\n      sstore\n      dup1\n      0x1f\n      lt\n      tag_43\n      jumpi\n      pop\n      jump(tag_42)\n    tag_43:\n      0x1f\n      add\n      0x20\n      swap1\n      div\n      swap1\n      0x00\n      mstore\n      keccak256(0x00, 0x20)\n      swap1\n      dup2\n      add\n      swap1\n      tag_44\n      swap2\n      swap1\n      tag_45\n      jump\t// in\n    tag_44:\n    tag_42:\n      pop\n      jump\t// out\n    tag_45:\n    tag_46:\n      dup1\n      dup3\n      gt\n      iszero\n      tag_47\n      jumpi\n      0x00\n      dup2\n      0x00\n      swap1\n      sstore\n      pop\n      0x01\n      add\n      jump(tag_46)\n    tag_47:\n      pop\n      swap1\n      jump\t// out\n        /* \"#utility.yul\":7:82   */\n    tag_48:\n        /* \"#utility.yul\":40:46   */\n      0x00\n        /* \"#utility.yul\":73:75   */\n      0x40\n        /* \"#utility.yul\":67:76   */\n      mload\n        /* \"#utility.yul\":57:76   */\n      swap1\n      pop\n        /* \"#utility.yul\":7:82   */\n      swap1\n      jump\t// out\n        /* \"#utility.yul\":88:205   */\n    tag_49:\n        /* \"#utility.yul\":197:198   */\n      0x00\n        /* \"#utility.yul\":194:195   */\n      dup1\n        /* \"#utility.yul\":187:199   */\n      revert\n        /* \"#utility.yul\":211:328   */\n    tag_50:\n        /* \"#utility.yul\":320:321   */\n      0x00\n        /* \"#utility.yul\":317:318   */\n      dup1\n        /* \"#utility.yul\":310:322   */\n      revert\n        /* \"#utility.yul\":334:411   */\n    tag_51:\n        /* \"#utility.yul\":371:378   */\n      0x00\n        /* \"#utility.yul\":400:405   */\n      dup2\n        /* \"#utility.yul\":389:405   */\n      swap1\n      pop\n        /* \"#utility.yul\":334:411   */\n      swap2\n      swap1\n      pop\n      jump\t// out\n        /* \"#utility.yul\":417:539   */\n    tag_52:\n        /* \"#utility.yul\":490:514   */\n      tag_96\n        /* \"#utility.yul\":508:513   */\n      dup2\n        /* \"#utility.yul\":490:514   */\n      tag_51\n      jump\t// in\n    tag_96:\n        /* \"#utility.yul\":483:488   */\n      dup2\n        /* \"#utility.yul\":480:515   */\n      eq\n        /* \"#utility.yul\":470:533   */\n      tag_97\n      jumpi\n        /* \"#utility.yul\":529:530   */\n      0x00\n        /* \"#utility.yul\":526:527   */\n      dup1\n        /* \"#utility.yul\":519:531   */\n      revert\n        /* \"#utility.yul\":470:533   */\n    tag_97:\n        /* \"#utility.yul\":417:539   */\n      pop\n      jump\t// out\n        /* \"#utility.yul\":545:684   */\n    tag_53:\n        /* \"#utility.yul\":591:596   */\n      0x00\n        /* \"#utility.yul\":629:635   */\n      dup2\n        /* \"#utility.yul\":616:636   */\n      calldataload\n        /* \"#utility.yul\":607:636   */\n      swap1\n      pop\n        /* \"#utility.yul\":645:678   */\n      tag_99\n        /* \"#utility.yul\":672:677   */\n      dup2\n        /* \"#utility.yul\":645:678   */\n      tag_52\n      jump\t// in\n    tag_99:\n        /* \"#utility.yul\":545:684   */\n      swap3\n      swap2\n      pop\n      pop\n      jump\t// out\n        /* \"#utility.yul\":690:1019   */\n    tag_7:\n        /* \"#utility.yul\":749:755   */\n      0x00\n        /* \"#utility.yul\":798:800   */\n      0x20\n        /* \"#utility.yul\":786:795   */\n      dup3\n        /* \"#utility.yul\":777:784   */\n      dup5\n        /* \"#utility.yul\":773:796   */\n      sub\n        /* \"#utility.yul\":769:801   */\n      slt\n        /* \"#utility.yul\":766:885   */\n      iszero\n      tag_101\n      jumpi\n        /* \"#utility.yul\":804:883   */\n      tag_102\n      tag_49\n      jump\t// in\n    tag_102:\n        /* \"#utility.yul\":766:885   */\n    tag_101:\n        /* \"#utility.yul\":924:925   */\n      0x00\n        /* \"#utility.yul\":949:1002   */\n      tag_103\n        /* \"#utility.yul\":994:1001   */\n      dup5\n        /* \"#utility.yul\":985:991   */\n      dup3\n        /* \"#utility.yul\":974:983   */\n      dup6\n        /* \"#utility.yul\":970:992   */\n      add\n        /* \"#utility.yul\":949:1002   */\n      tag_53\n      jump\t// in\n    tag_103:\n        /* \"#utility.yul\":939:1002   */\n      swap2\n      pop\n        /* \"#utility.yul\":895:1012   */\n      pop\n        /* \"#utility.yul\":690:1019   */\n      swap3\n      swap2\n      pop\n      pop\n      jump\t// out\n        /* \"#utility.yul\":1025:1143   */\n    tag_54:\n        /* \"#utility.yul\":1112:1136   */\n      tag_105\n        /* \"#utility.yul\":1130:1135   */\n      dup2\n        /* \"#utility.yul\":1112:1136   */\n      tag_51\n      jump\t// in\n    tag_105:\n        /* \"#utility.yul\":1107:1110   */\n      dup3\n        /* \"#utility.yul\":1100:1137   */\n      mstore\n        /* \"#utility.yul\":1025:1143   */\n      pop\n      pop\n      jump\t// out\n        /* \"#utility.yul\":1149:1248   */\n    tag_55:\n        /* \"#utility.yul\":1201:1207   */\n      0x00\n        /* \"#utility.yul\":1235:1240   */\n      dup2\n        /* \"#utility.yul\":1229:1241   */\n      mload\n        /* \"#utility.yul\":1219:1241   */\n      swap1\n      pop\n        /* \"#utility.yul\":1149:1248   */\n      swap2\n      swap1\n      pop\n      jump\t// out\n        /* \"#utility.yul\":1254:1423   */\n    tag_56:\n        /* \"#utility.yul\":1338:1349   */\n      0x00\n        /* \"#utility.yul\":1372:1378   */\n      dup3\n        /* \"#utility.yul\":1367:1370   */\n      dup3\n        /* \"#utility.yul\":1360:1379   */\n      mstore\n        /* \"#utility.yul\":1412:1416   */\n      0x20\n        /* \"#utility.yul\":1407:1410   */\n      dup3\n        /* \"#utility.yul\":1403:1417   */\n      add\n        /* \"#utility.yul\":1388:1417   */\n      swap1\n      pop\n        /* \"#utility.yul\":1254:1423   */\n      swap3\n      swap2\n      pop\n      pop\n      jump\t// out\n        /* \"#utility.yul\":1429:1675   */\n    tag_57:\n        /* \"#utility.yul\":1510:1511   */\n      0x00\n        /* \"#utility.yul\":1520:1633   */\n    tag_109:\n        /* \"#utility.yul\":1534:1540   */\n      dup4\n        /* \"#utility.yul\":1531:1532   */\n      dup2\n        /* \"#utility.yul\":1528:1541   */\n      lt\n        /* \"#utility.yul\":1520:1633   */\n      iszero\n      tag_111\n      jumpi\n        /* \"#utility.yul\":1619:1620   */\n      dup1\n        /* \"#utility.yul\":1614:1617   */\n      dup3\n        /* \"#utility.yul\":1610:1621   */\n      add\n        /* \"#utility.yul\":1604:1622   */\n      mload\n        /* \"#utility.yul\":1600:1601   */\n      dup2\n        /* \"#utility.yul\":1595:1598   */\n      dup5\n        /* \"#utility.yul\":1591:1602   */\n      add\n        /* \"#utility.yul\":1584:1623   */\n      mstore\n        /* \"#utility.yul\":1556:1558   */\n      0x20\n        /* \"#utility.yul\":1553:1554   */\n      dup2\n        /* \"#utility.yul\":1549:1559   */\n      add\n        /* \"#utility.yul\":1544:1559   */\n      swap1\n      pop\n        /* \"#utility.yul\":1520:1633   */\n      jump(tag_109)\n    tag_111:\n        /* \"#utility.yul\":1667:1668   */\n      0x00\n        /* \"#utility.yul\":1658:1664   */\n      dup5\n        /* \"#utility.yul\":1653:1656   */\n      dup5\n        /* \"#utility.yul\":1649:1665   */\n      add\n        /* \"#utility.yul\":1642:1669   */\n      mstore\n        /* \"#utility.yul\":1491:1675   */\n      pop\n        /* \"#utility.yul\":1429:1675   */\n      pop\n      pop\n      pop\n      jump\t// out\n        /* \"#utility.yul\":1681:1783   */\n    tag_58:\n        /* \"#utility.yul\":1722:1728   */\n      0x00\n        /* \"#utility.yul\":1773:1775   */\n      0x1f\n        /* \"#utility.yul\":1769:1776   */\n      not\n        /* \"#utility.yul\":1764:1766   */\n      0x1f\n        /* \"#utility.yul\":1757:1762   */\n      dup4\n        /* \"#utility.yul\":1753:1767   */\n      add\n        /* \"#utility.yul\":1749:1777   */\n      and\n        /* \"#utility.yul\":1739:1777   */\n      swap1\n      pop\n        /* \"#utility.yul\":1681:1783   */\n      swap2\n      swap1\n      pop\n      jump\t// out\n        /* \"#utility.yul\":1789:2166   */\n    tag_59:\n        /* \"#utility.yul\":1877:1880   */\n      0x00\n        /* \"#utility.yul\":1905:1944   */\n      tag_114\n        /* \"#utility.yul\":1938:1943   */\n      dup3\n        /* \"#utility.yul\":1905:1944   */\n      tag_55\n      jump\t// in\n    tag_114:\n        /* \"#utility.yul\":1960:2031   */\n      tag_115\n        /* \"#utility.yul\":2024:2030   */\n      dup2\n        /* \"#utility.yul\":2019:2022   */\n      dup6\n        /* \"#utility.yul\":1960:2031   */\n      tag_56\n      jump\t// in\n    tag_115:\n        /* \"#utility.yul\":1953:2031   */\n      swap4\n      pop\n        /* \"#utility.yul\":2040:2105   */\n      tag_116\n        /* \"#utility.yul\":2098:2104   */\n      dup2\n        /* \"#utility.yul\":2093:2096   */\n      dup6\n        /* \"#utility.yul\":2086:2090   */\n      0x20\n        /* \"#utility.yul\":2079:2084   */\n      dup7\n        /* \"#utility.yul\":2075:2091   */\n      add\n        /* \"#utility.yul\":2040:2105   */\n      tag_57\n      jump\t// in\n    tag_116:\n        /* \"#utility.yul\":2130:2159   */\n      tag_117\n        /* \"#utility.yul\":2152:2158   */\n      dup2\n        /* \"#utility.yul\":2130:2159   */\n      tag_58\n      jump\t// in\n    tag_117:\n        /* \"#utility.yul\":2125:2128   */\n      dup5\n        /* \"#utility.yul\":2121:2160   */\n      add\n        /* \"#utility.yul\":2114:2160   */\n      swap2\n      pop\n        /* \"#utility.yul\":1881:2166   */\n      pop\n        /* \"#utility.yul\":1789:2166   */\n      swap3\n      swap2\n      pop\n      pop\n      jump\t// out\n        /* \"#utility.yul\":2172:2595   */\n    tag_10:\n        /* \"#utility.yul\":2313:2317   */\n      0x00\n        /* \"#utility.yul\":2351:2353   */\n      0x40\n        /* \"#utility.yul\":2340:2349   */\n      dup3\n        /* \"#utility.yul\":2336:2354   */\n      add\n        /* \"#utility.yul\":2328:2354   */\n      swap1\n      pop\n        /* \"#utility.yul\":2364:2435   */\n      tag_119\n        /* \"#utility.yul\":2432:2433   */\n      0x00\n        /* \"#utility.yul\":2421:2430   */\n      dup4\n        /* \"#utility.yul\":2417:2434   */\n      add\n        /* \"#utility.yul\":2408:2414   */\n      dup6\n        /* \"#utility.yul\":2364:2435   */\n      tag_54\n      jump\t// in\n    tag_119:\n        /* \"#utility.yul\":2482:2491   */\n      dup2\n        /* \"#utility.yul\":2476:2480   */\n      dup2\n        /* \"#utility.yul\":2472:2492   */\n      sub\n        /* \"#utility.yul\":2467:2469   */\n      0x20\n        /* \"#utility.yul\":2456:2465   */\n      dup4\n        /* \"#utility.yul\":2452:2470   */\n      add\n        /* \"#utility.yul\":2445:2493   */\n      mstore\n        /* \"#utility.yul\":2510:2588   */\n      tag_120\n        /* \"#utility.yul\":2583:2587   */\n      dup2\n        /* \"#utility.yul\":2574:2580   */\n      dup5\n        /* \"#utility.yul\":2510:2588   */\n      tag_59\n      jump\t// in\n    tag_120:\n        /* \"#utility.yul\":2502:2588   */\n      swap1\n      pop\n        /* \"#utility.yul\":2172:2595   */\n      swap4\n      swap3\n      pop\n      pop\n      pop\n      jump\t// out\n        /* \"#utility.yul\":2601:2718   */\n    tag_60:\n        /* \"#utility.yul\":2710:2711   */\n      0x00\n        /* \"#utility.yul\":2707:2708   */\n      dup1\n        /* \"#utility.yul\":2700:2712   */\n      revert\n        /* \"#utility.yul\":2724:2841   */\n    tag_61:\n        /* \"#utility.yul\":2833:2834   */\n      0x00\n        /* \"#utility.yul\":2830:2831   */\n      dup1\n        /* \"#utility.yul\":2823:2835   */\n      revert\n        /* \"#utility.yul\":2847:3027   */\n    tag_62:\n        /* \"#utility.yul\":2895:2972   */\n      0x4e487b7100000000000000000000000000000000000000000000000000000000\n        /* \"#utility.yul\":2892:2893   */\n      0x00\n        /* \"#utility.yul\":2885:2973   */\n      mstore\n        /* \"#utility.yul\":2992:2996   */\n      0x41\n        /* \"#utility.yul\":2989:2990   */\n      0x04\n        /* \"#utility.yul\":2982:2997   */\n      mstore\n        /* \"#utility.yul\":3016:3020   */\n      0x24\n        /* \"#utility.yul\":3013:3014   */\n      0x00\n        /* \"#utility.yul\":3006:3021   */\n      revert\n        /* \"#utility.yul\":3033:3314   */\n    tag_63:\n        /* \"#utility.yul\":3116:3143   */\n      tag_125\n        /* \"#utility.yul\":3138:3142   */\n      dup3\n        /* \"#utility.yul\":3116:3143   */\n      tag_58\n      jump\t// in\n    tag_125:\n        /* \"#utility.yul\":3108:3114   */\n      dup2\n        /* \"#utility.yul\":3104:3144   */\n      add\n        /* \"#utility.yul\":3246:3252   */\n      dup2\n        /* \"#utility.yul\":3234:3244   */\n      dup2\n        /* \"#utility.yul\":3231:3253   */\n      lt\n        /* \"#utility.yul\":3210:3228   */\n      0xffffffffffffffff\n        /* \"#utility.yul\":3198:3208   */\n      dup3\n        /* \"#utility.yul\":3195:3229   */\n      gt\n        /* \"#utility.yul\":3192:3254   */\n      or\n        /* \"#utility.yul\":3189:3277   */\n      iszero\n      tag_126\n      jumpi\n        /* \"#utility.yul\":3257:3275   */\n      tag_127\n      tag_62\n      jump\t// in\n    tag_127:\n        /* \"#utility.yul\":3189:3277   */\n    tag_126:\n        /* \"#utility.yul\":3297:3307   */\n      dup1\n        /* \"#utility.yul\":3293:3295   */\n      0x40\n        /* \"#utility.yul\":3286:3308   */\n      mstore\n        /* \"#utility.yul\":3076:3314   */\n      pop\n        /* \"#utility.yul\":3033:3314   */\n      pop\n      pop\n      jump\t// out\n        /* \"#utility.yul\":3320:3449   */\n    tag_64:\n        /* \"#utility.yul\":3354:3360   */\n      0x00\n        /* \"#utility.yul\":3381:3401   */\n      tag_129\n      tag_48\n      jump\t// in\n    tag_129:\n        /* \"#utility.yul\":3371:3401   */\n      swap1\n      pop\n        /* \"#utility.yul\":3410:3443   */\n      tag_130\n        /* \"#utility.yul\":3438:3442   */\n      dup3\n        /* \"#utility.yul\":3430:3436   */\n      dup3\n        /* \"#utility.yul\":3410:3443   */\n      tag_63\n      jump\t// in\n    tag_130:\n        /* \"#utility.yul\":3320:3449   */\n      swap2\n      swap1\n      pop\n      jump\t// out\n        /* \"#utility.yul\":3455:3763   */\n    tag_65:\n        /* \"#utility.yul\":3517:3521   */\n      0x00\n        /* \"#utility.yul\":3607:3625   */\n      0xffffffffffffffff\n        /* \"#utility.yul\":3599:3605   */\n      dup3\n        /* \"#utility.yul\":3596:3626   */\n      gt\n        /* \"#utility.yul\":3593:3649   */\n      iszero\n      tag_132\n      jumpi\n        /* \"#utility.yul\":3629:3647   */\n      tag_133\n      tag_62\n      jump\t// in\n    tag_133:\n        /* \"#utility.yul\":3593:3649   */\n    tag_132:\n        /* \"#utility.yul\":3667:3696   */\n      tag_134\n        /* \"#utility.yul\":3689:3695   */\n      dup3\n        /* \"#utility.yul\":3667:3696   */\n      tag_58\n      jump\t// in\n    tag_134:\n        /* \"#utility.yul\":3659:3696   */\n      swap1\n      pop\n        /* \"#utility.yul\":3751:3755   */\n      0x20\n        /* \"#utility.yul\":3745:3749   */\n      dup2\n        /* \"#utility.yul\":3741:3756   */\n      add\n        /* \"#utility.yul\":3733:3756   */\n      swap1\n      pop\n        /* \"#utility.yul\":3455:3763   */\n      swap2\n      swap1\n      pop\n      jump\t// out\n        /* \"#utility.yul\":3769:3915   */\n    tag_66:\n        /* \"#utility.yul\":3866:3872   */\n      dup3\n        /* \"#utility.yul\":3861:3864   */\n      dup2\n        /* \"#utility.yul\":3856:3859   */\n      dup4\n        /* \"#utility.yul\":3843:3873   */\n      calldatacopy\n        /* \"#utility.yul\":3907:3908   */\n      0x00\n        /* \"#utility.yul\":3898:3904   */\n      dup4\n        /* \"#utility.yul\":3893:3896   */\n      dup4\n        /* \"#utility.yul\":3889:3905   */\n      add\n        /* \"#utility.yul\":3882:3909   */\n      mstore\n        /* \"#utility.yul\":3769:3915   */\n      pop\n      pop\n      pop\n      jump\t// out\n        /* \"#utility.yul\":3921:4346   */\n    tag_67:\n        /* \"#utility.yul\":3999:4004   */\n      0x00\n        /* \"#utility.yul\":4024:4090   */\n      tag_137\n        /* \"#utility.yul\":4040:4089   */\n      tag_138\n        /* \"#utility.yul\":4082:4088   */\n      dup5\n        /* \"#utility.yul\":4040:4089   */\n      tag_65\n      jump\t// in\n    tag_138:\n        /* \"#utility.yul\":4024:4090   */\n      tag_64\n      jump\t// in\n    tag_137:\n        /* \"#utility.yul\":4015:4090   */\n      swap1\n      pop\n        /* \"#utility.yul\":4113:4119   */\n      dup3\n        /* \"#utility.yul\":4106:4111   */\n      dup2\n        /* \"#utility.yul\":4099:4120   */\n      mstore\n        /* \"#utility.yul\":4151:4155   */\n      0x20\n        /* \"#utility.yul\":4144:4149   */\n      dup2\n        /* \"#utility.yul\":4140:4156   */\n      add\n        /* \"#utility.yul\":4189:4192   */\n      dup5\n        /* \"#utility.yul\":4180:4186   */\n      dup5\n        /* \"#utility.yul\":4175:4178   */\n      dup5\n        /* \"#utility.yul\":4171:4187   */\n      add\n        /* \"#utility.yul\":4168:4193   */\n      gt\n        /* \"#utility.yul\":4165:4277   */\n      iszero\n      tag_139\n      jumpi\n        /* \"#utility.yul\":4196:4275   */\n      tag_140\n      tag_61\n      jump\t// in\n    tag_140:\n        /* \"#utility.yul\":4165:4277   */\n    tag_139:\n        /* \"#utility.yul\":4286:4340   */\n      tag_141\n        /* \"#utility.yul\":4333:4339   */\n      dup5\n        /* \"#utility.yul\":4328:4331   */\n      dup3\n        /* \"#utility.yul\":4323:4326   */\n      dup6\n        /* \"#utility.yul\":4286:4340   */\n      tag_66\n      jump\t// in\n    tag_141:\n        /* \"#utility.yul\":4005:4346   */\n      pop\n        /* \"#utility.yul\":3921:4346   */\n      swap4\n      swap3\n      pop\n      pop\n      pop\n      jump\t// out\n        /* \"#utility.yul\":4366:4706   */\n    tag_68:\n        /* \"#utility.yul\":4422:4427   */\n      0x00\n        /* \"#utility.yul\":4471:4474   */\n      dup3\n        /* \"#utility.yul\":4464:4468   */\n      0x1f\n        /* \"#utility.yul\":4456:4462   */\n      dup4\n        /* \"#utility.yul\":4452:4469   */\n      add\n        /* \"#utility.yul\":4448:4475   */\n      slt\n        /* \"#utility.yul\":4438:4560   */\n      tag_143\n      jumpi\n        /* \"#utility.yul\":4479:4558   */\n      tag_144\n      tag_60\n      jump\t// in\n    tag_144:\n        /* \"#utility.yul\":4438:4560   */\n    tag_143:\n        /* \"#utility.yul\":4596:4602   */\n      dup2\n        /* \"#utility.yul\":4583:4603   */\n      calldataload\n        /* \"#utility.yul\":4621:4700   */\n      tag_145\n        /* \"#utility.yul\":4696:4699   */\n      dup5\n        /* \"#utility.yul\":4688:4694   */\n      dup3\n        /* \"#utility.yul\":4681:4685   */\n      0x20\n        /* \"#utility.yul\":4673:4679   */\n      dup7\n        /* \"#utility.yul\":4669:4686   */\n      add\n        /* \"#utility.yul\":4621:4700   */\n      tag_67\n      jump\t// in\n    tag_145:\n        /* \"#utility.yul\":4612:4700   */\n      swap2\n      pop\n        /* \"#utility.yul\":4428:4706   */\n      pop\n        /* \"#utility.yul\":4366:4706   */\n      swap3\n      swap2\n      pop\n      pop\n      jump\t// out\n        /* \"#utility.yul\":4712:5033   */\n    tag_69:\n        /* \"#utility.yul\":4799:4803   */\n      0x00\n        /* \"#utility.yul\":4889:4907   */\n      0xffffffffffffffff\n        /* \"#utility.yul\":4881:4887   */\n      dup3\n        /* \"#utility.yul\":4878:4908   */\n      gt\n        /* \"#utility.yul\":4875:4931   */\n      iszero\n      tag_147\n      jumpi\n        /* \"#utility.yul\":4911:4929   */\n      tag_148\n      tag_62\n      jump\t// in\n    tag_148:\n        /* \"#utility.yul\":4875:4931   */\n    tag_147:\n        /* \"#utility.yul\":4961:4965   */\n      0x20\n        /* \"#utility.yul\":4953:4959   */\n      dup3\n        /* \"#utility.yul\":4949:4966   */\n      mul\n        /* \"#utility.yul\":4941:4966   */\n      swap1\n      pop\n        /* \"#utility.yul\":5021:5025   */\n      0x20\n        /* \"#utility.yul\":5015:5019   */\n      dup2\n        /* \"#utility.yul\":5011:5026   */\n      add\n        /* \"#utility.yul\":5003:5026   */\n      swap1\n      pop\n        /* \"#utility.yul\":4712:5033   */\n      swap2\n      swap1\n      pop\n      jump\t// out\n        /* \"#utility.yul\":5039:5156   */\n    tag_70:\n        /* \"#utility.yul\":5148:5149   */\n      0x00\n        /* \"#utility.yul\":5145:5146   */\n      dup1\n        /* \"#utility.yul\":5138:5150   */\n      revert\n        /* \"#utility.yul\":5178:6123   */\n    tag_71:\n        /* \"#utility.yul\":5284:5289   */\n      0x00\n        /* \"#utility.yul\":5309:5400   */\n      tag_151\n        /* \"#utility.yul\":5325:5399   */\n      tag_152\n        /* \"#utility.yul\":5392:5398   */\n      dup5\n        /* \"#utility.yul\":5325:5399   */\n      tag_69\n      jump\t// in\n    tag_152:\n        /* \"#utility.yul\":5309:5400   */\n      tag_64\n      jump\t// in\n    tag_151:\n        /* \"#utility.yul\":5300:5400   */\n      swap1\n      pop\n        /* \"#utility.yul\":5420:5425   */\n      dup1\n        /* \"#utility.yul\":5449:5455   */\n      dup4\n        /* \"#utility.yul\":5442:5447   */\n      dup3\n        /* \"#utility.yul\":5435:5456   */\n      mstore\n        /* \"#utility.yul\":5483:5487   */\n      0x20\n        /* \"#utility.yul\":5476:5481   */\n      dup3\n        /* \"#utility.yul\":5472:5488   */\n      add\n        /* \"#utility.yul\":5465:5488   */\n      swap1\n      pop\n        /* \"#utility.yul\":5536:5540   */\n      0x20\n        /* \"#utility.yul\":5528:5534   */\n      dup5\n        /* \"#utility.yul\":5524:5541   */\n      mul\n        /* \"#utility.yul\":5516:5522   */\n      dup4\n        /* \"#utility.yul\":5512:5542   */\n      add\n        /* \"#utility.yul\":5565:5568   */\n      dup6\n        /* \"#utility.yul\":5557:5563   */\n      dup2\n        /* \"#utility.yul\":5554:5569   */\n      gt\n        /* \"#utility.yul\":5551:5673   */\n      iszero\n      tag_153\n      jumpi\n        /* \"#utility.yul\":5584:5663   */\n      tag_154\n      tag_70\n      jump\t// in\n    tag_154:\n        /* \"#utility.yul\":5551:5673   */\n    tag_153:\n        /* \"#utility.yul\":5699:5705   */\n      dup4\n        /* \"#utility.yul\":5682:6117   */\n    tag_155:\n        /* \"#utility.yul\":5716:5722   */\n      dup2\n        /* \"#utility.yul\":5711:5714   */\n      dup2\n        /* \"#utility.yul\":5708:5723   */\n      lt\n        /* \"#utility.yul\":5682:6117   */\n      iszero\n      tag_157\n      jumpi\n        /* \"#utility.yul\":5805:5808   */\n      dup1\n        /* \"#utility.yul\":5792:5809   */\n      calldataload\n        /* \"#utility.yul\":5841:5859   */\n      0xffffffffffffffff\n        /* \"#utility.yul\":5828:5839   */\n      dup2\n        /* \"#utility.yul\":5825:5860   */\n      gt\n        /* \"#utility.yul\":5822:5944   */\n      iszero\n      tag_158\n      jumpi\n        /* \"#utility.yul\":5863:5942   */\n      tag_159\n      tag_60\n      jump\t// in\n    tag_159:\n        /* \"#utility.yul\":5822:5944   */\n    tag_158:\n        /* \"#utility.yul\":5987:5998   */\n      dup1\n        /* \"#utility.yul\":5979:5985   */\n      dup7\n        /* \"#utility.yul\":5975:5999   */\n      add\n        /* \"#utility.yul\":6025:6072   */\n      tag_160\n        /* \"#utility.yul\":6068:6071   */\n      dup10\n        /* \"#utility.yul\":6056:6066   */\n      dup3\n        /* \"#utility.yul\":6025:6072   */\n      tag_68\n      jump\t// in\n    tag_160:\n        /* \"#utility.yul\":6020:6023   */\n      dup6\n        /* \"#utility.yul\":6013:6073   */\n      mstore\n        /* \"#utility.yul\":6102:6106   */\n      0x20\n        /* \"#utility.yul\":6097:6100   */\n      dup6\n        /* \"#utility.yul\":6093:6107   */\n      add\n        /* \"#utility.yul\":6086:6107   */\n      swap5\n      pop\n        /* \"#utility.yul\":5758:6117   */\n      pop\n      pop\n        /* \"#utility.yul\":5742:5746   */\n      0x20\n        /* \"#utility.yul\":5737:5740   */\n      dup2\n        /* \"#utility.yul\":5733:5747   */\n      add\n        /* \"#utility.yul\":5726:5747   */\n      swap1\n      pop\n        /* \"#utility.yul\":5682:6117   */\n      jump(tag_155)\n    tag_157:\n        /* \"#utility.yul\":5686:5707   */\n      pop\n        /* \"#utility.yul\":5290:6123   */\n      pop\n      pop\n        /* \"#utility.yul\":5178:6123   */\n      swap4\n      swap3\n      pop\n      pop\n      pop\n      jump\t// out\n        /* \"#utility.yul\":6145:6535   */\n    tag_72:\n        /* \"#utility.yul\":6226:6231   */\n      0x00\n        /* \"#utility.yul\":6275:6278   */\n      dup3\n        /* \"#utility.yul\":6268:6272   */\n      0x1f\n        /* \"#utility.yul\":6260:6266   */\n      dup4\n        /* \"#utility.yul\":6256:6273   */\n      add\n        /* \"#utility.yul\":6252:6279   */\n      slt\n        /* \"#utility.yul\":6242:6364   */\n      tag_162\n      jumpi\n        /* \"#utility.yul\":6283:6362   */\n      tag_163\n      tag_60\n      jump\t// in\n    tag_163:\n        /* \"#utility.yul\":6242:6364   */\n    tag_162:\n        /* \"#utility.yul\":6400:6406   */\n      dup2\n        /* \"#utility.yul\":6387:6407   */\n      calldataload\n        /* \"#utility.yul\":6425:6529   */\n      tag_164\n        /* \"#utility.yul\":6525:6528   */\n      dup5\n        /* \"#utility.yul\":6517:6523   */\n      dup3\n        /* \"#utility.yul\":6510:6514   */\n      0x20\n        /* \"#utility.yul\":6502:6508   */\n      dup7\n        /* \"#utility.yul\":6498:6515   */\n      add\n        /* \"#utility.yul\":6425:6529   */\n      tag_71\n      jump\t// in\n    tag_164:\n        /* \"#utility.yul\":6416:6529   */\n      swap2\n      pop\n        /* \"#utility.yul\":6232:6535   */\n      pop\n        /* \"#utility.yul\":6145:6535   */\n      swap3\n      swap2\n      pop\n      pop\n      jump\t// out\n        /* \"#utility.yul\":6541:7425   */\n    tag_13:\n        /* \"#utility.yul\":6654:6660   */\n      0x00\n        /* \"#utility.yul\":6662:6668   */\n      dup1\n        /* \"#utility.yul\":6711:6713   */\n      0x40\n        /* \"#utility.yul\":6699:6708   */\n      dup4\n        /* \"#utility.yul\":6690:6697   */\n      dup6\n        /* \"#utility.yul\":6686:6709   */\n      sub\n        /* \"#utility.yul\":6682:6714   */\n      slt\n        /* \"#utility.yul\":6679:6798   */\n      iszero\n      tag_166\n      jumpi\n        /* \"#utility.yul\":6717:6796   */\n      tag_167\n      tag_49\n      jump\t// in\n    tag_167:\n        /* \"#utility.yul\":6679:6798   */\n    tag_166:\n        /* \"#utility.yul\":6865:6866   */\n      0x00\n        /* \"#utility.yul\":6854:6863   */\n      dup4\n        /* \"#utility.yul\":6850:6867   */\n      add\n        /* \"#utility.yul\":6837:6868   */\n      calldataload\n        /* \"#utility.yul\":6895:6913   */\n      0xffffffffffffffff\n        /* \"#utility.yul\":6887:6893   */\n      dup2\n        /* \"#utility.yul\":6884:6914   */\n      gt\n        /* \"#utility.yul\":6881:6998   */\n      iszero\n      tag_168\n      jumpi\n        /* \"#utility.yul\":6917:6996   */\n      tag_169\n      tag_50\n      jump\t// in\n    tag_169:\n        /* \"#utility.yul\":6881:6998   */\n    tag_168:\n        /* \"#utility.yul\":7022:7085   */\n      tag_170\n        /* \"#utility.yul\":7077:7084   */\n      dup6\n        /* \"#utility.yul\":7068:7074   */\n      dup3\n        /* \"#utility.yul\":7057:7066   */\n      dup7\n        /* \"#utility.yul\":7053:7075   */\n      add\n        /* \"#utility.yul\":7022:7085   */\n      tag_68\n      jump\t// in\n    tag_170:\n        /* \"#utility.yul\":7012:7085   */\n      swap3\n      pop\n        /* \"#utility.yul\":6808:7095   */\n      pop\n        /* \"#utility.yul\":7162:7164   */\n      0x20\n        /* \"#utility.yul\":7151:7160   */\n      dup4\n        /* \"#utility.yul\":7147:7165   */\n      add\n        /* \"#utility.yul\":7134:7166   */\n      calldataload\n        /* \"#utility.yul\":7193:7211   */\n      0xffffffffffffffff\n        /* \"#utility.yul\":7185:7191   */\n      dup2\n        /* \"#utility.yul\":7182:7212   */\n      gt\n        /* \"#utility.yul\":7179:7296   */\n      iszero\n      tag_171\n      jumpi\n        /* \"#utility.yul\":7215:7294   */\n      tag_172\n      tag_50\n      jump\t// in\n    tag_172:\n        /* \"#utility.yul\":7179:7296   */\n    tag_171:\n        /* \"#utility.yul\":7320:7408   */\n      tag_173\n        /* \"#utility.yul\":7400:7407   */\n      dup6\n        /* \"#utility.yul\":7391:7397   */\n      dup3\n        /* \"#utility.yul\":7380:7389   */\n      dup7\n        /* \"#utility.yul\":7376:7398   */\n      add\n        /* \"#utility.yul\":7320:7408   */\n      tag_72\n      jump\t// in\n    tag_173:\n        /* \"#utility.yul\":7310:7408   */\n      swap2\n      pop\n        /* \"#utility.yul\":7105:7418   */\n      pop\n        /* \"#utility.yul\":6541:7425   */\n      swap3\n      pop\n      swap3\n      swap1\n      pop\n      jump\t// out\n        /* \"#utility.yul\":7431:7611   */\n    tag_73:\n        /* \"#utility.yul\":7479:7556   */\n      0x4e487b7100000000000000000000000000000000000000000000000000000000\n        /* \"#utility.yul\":7476:7477   */\n      0x00\n        /* \"#utility.yul\":7469:7557   */\n      mstore\n        /* \"#utility.yul\":7576:7580   */\n      0x22\n        /* \"#utility.yul\":7573:7574   */\n      0x04\n        /* \"#utility.yul\":7566:7581   */\n      mstore\n        /* \"#utility.yul\":7600:7604   */\n      0x24\n        /* \"#utility.yul\":7597:7598   */\n      0x00\n        /* \"#utility.yul\":7590:7605   */\n      revert\n        /* \"#utility.yul\":7617:7937   */\n    tag_18:\n        /* \"#utility.yul\":7661:7667   */\n      0x00\n        /* \"#utility.yul\":7698:7699   */\n      0x02\n        /* \"#utility.yul\":7692:7696   */\n      dup3\n        /* \"#utility.yul\":7688:7700   */\n      div\n        /* \"#utility.yul\":7678:7700   */\n      swap1\n      pop\n        /* \"#utility.yul\":7745:7746   */\n      0x01\n        /* \"#utility.yul\":7739:7743   */\n      dup3\n        /* \"#utility.yul\":7735:7747   */\n      and\n        /* \"#utility.yul\":7766:7784   */\n      dup1\n        /* \"#utility.yul\":7756:7837   */\n      tag_176\n      jumpi\n        /* \"#utility.yul\":7822:7826   */\n      0x7f\n        /* \"#utility.yul\":7814:7820   */\n      dup3\n        /* \"#utility.yul\":7810:7827   */\n      and\n        /* \"#utility.yul\":7800:7827   */\n      swap2\n      pop\n        /* \"#utility.yul\":7756:7837   */\n    tag_176:\n        /* \"#utility.yul\":7884:7886   */\n      0x20\n        /* \"#utility.yul\":7876:7882   */\n      dup3\n        /* \"#utility.yul\":7873:7887   */\n      lt\n        /* \"#utility.yul\":7853:7871   */\n      dup2\n        /* \"#utility.yul\":7850:7888   */\n      sub\n        /* \"#utility.yul\":7847:7931   */\n      tag_177\n      jumpi\n        /* \"#utility.yul\":7903:7921   */\n      tag_178\n      tag_73\n      jump\t// in\n    tag_178:\n        /* \"#utility.yul\":7847:7931   */\n    tag_177:\n        /* \"#utility.yul\":7668:7937   */\n      pop\n        /* \"#utility.yul\":7617:7937   */\n      swap2\n      swap1\n      pop\n      jump\t// out\n        /* \"#utility.yul\":7943:8123   */\n    tag_74:\n        /* \"#utility.yul\":7991:8068   */\n      0x4e487b7100000000000000000000000000000000000000000000000000000000\n        /* \"#utility.yul\":7988:7989   */\n      0x00\n        /* \"#utility.yul\":7981:8069   */\n      mstore\n        /* \"#utility.yul\":8088:8092   */\n      0x11\n        /* \"#utility.yul\":8085:8086   */\n      0x04\n        /* \"#utility.yul\":8078:8093   */\n      mstore\n        /* \"#utility.yul\":8112:8116   */\n      0x24\n        /* \"#utility.yul\":8109:8110   */\n      0x00\n        /* \"#utility.yul\":8102:8117   */\n      revert\n        /* \"#utility.yul\":8129:8320   */\n    tag_25:\n        /* \"#utility.yul\":8169:8172   */\n      0x00\n        /* \"#utility.yul\":8188:8208   */\n      tag_181\n        /* \"#utility.yul\":8206:8207   */\n      dup3\n        /* \"#utility.yul\":8188:8208   */\n      tag_51\n      jump\t// in\n    tag_181:\n        /* \"#utility.yul\":8183:8208   */\n      swap2\n      pop\n        /* \"#utility.yul\":8222:8242   */\n      tag_182\n        /* \"#utility.yul\":8240:8241   */\n      dup4\n        /* \"#utility.yul\":8222:8242   */\n      tag_51\n      jump\t// in\n    tag_182:\n        /* \"#utility.yul\":8217:8242   */\n      swap3\n      pop\n        /* \"#utility.yul\":8265:8266   */\n      dup3\n        /* \"#utility.yul\":8262:8263   */\n      dup3\n        /* \"#utility.yul\":8258:8267   */\n      add\n        /* \"#utility.yul\":8251:8267   */\n      swap1\n      pop\n        /* \"#utility.yul\":8286:8289   */\n      dup1\n        /* \"#utility.yul\":8283:8284   */\n      dup3\n        /* \"#utility.yul\":8280:8290   */\n      gt\n        /* \"#utility.yul\":8277:8313   */\n      iszero\n      tag_183\n      jumpi\n        /* \"#utility.yul\":8293:8311   */\n      tag_184\n      tag_74\n      jump\t// in\n    tag_184:\n        /* \"#utility.yul\":8277:8313   */\n    tag_183:\n        /* \"#utility.yul\":8129:8320   */\n      swap3\n      swap2\n      pop\n      pop\n      jump\t// out\n        /* \"#utility.yul\":8326:8467   */\n    tag_75:\n        /* \"#utility.yul\":8375:8379   */\n      0x00\n        /* \"#utility.yul\":8398:8401   */\n      dup2\n        /* \"#utility.yul\":8390:8401   */\n      swap1\n      pop\n        /* \"#utility.yul\":8421:8424   */\n      dup2\n        /* \"#utility.yul\":8418:8419   */\n      0x00\n        /* \"#utility.yul\":8411:8425   */\n      mstore\n        /* \"#utility.yul\":8455:8459   */\n      0x20\n        /* \"#utility.yul\":8452:8453   */\n      0x00\n        /* \"#utility.yul\":8442:8460   */\n      keccak256\n        /* \"#utility.yul\":8434:8460   */\n      swap1\n      pop\n        /* \"#utility.yul\":8326:8467   */\n      swap2\n      swap1\n      pop\n      jump\t// out\n        /* \"#utility.yul\":8473:8566   */\n    tag_76:\n        /* \"#utility.yul\":8510:8516   */\n      0x00\n        /* \"#utility.yul\":8557:8559   */\n      0x20\n        /* \"#utility.yul\":8552:8554   */\n      0x1f\n        /* \"#utility.yul\":8545:8550   */\n      dup4\n        /* \"#utility.yul\":8541:8555   */\n      add\n        /* \"#utility.yul\":8537:8560   */\n      div\n        /* \"#utility.yul\":8527:8560   */\n      swap1\n      pop\n        /* \"#utility.yul\":8473:8566   */\n      swap2\n      swap1\n      pop\n      jump\t// out\n        /* \"#utility.yul\":8572:8679   */\n    tag_77:\n        /* \"#utility.yul\":8616:8624   */\n      0x00\n        /* \"#utility.yul\":8666:8671   */\n      dup3\n        /* \"#utility.yul\":8660:8664   */\n      dup3\n        /* \"#utility.yul\":8656:8672   */\n      shl\n        /* \"#utility.yul\":8635:8672   */\n      swap1\n      pop\n        /* \"#utility.yul\":8572:8679   */\n      swap3\n      swap2\n      pop\n      pop\n      jump\t// out\n        /* \"#utility.yul\":8685:9078   */\n    tag_78:\n        /* \"#utility.yul\":8754:8760   */\n      0x00\n        /* \"#utility.yul\":8804:8805   */\n      0x08\n        /* \"#utility.yul\":8792:8802   */\n      dup4\n        /* \"#utility.yul\":8788:8806   */\n      mul\n        /* \"#utility.yul\":8827:8924   */\n      tag_189\n        /* \"#utility.yul\":8857:8923   */\n      0xffffffffffffffffffffffffffffffffffffffffffffffffffffffffffffffff\n        /* \"#utility.yul\":8846:8855   */\n      dup3\n        /* \"#utility.yul\":8827:8924   */\n      tag_77\n      jump\t// in\n    tag_189:\n        /* \"#utility.yul\":8945:8984   */\n      tag_190\n        /* \"#utility.yul\":8975:8983   */\n      dup7\n        /* \"#utility.yul\":8964:8973   */\n      dup4\n        /* \"#utility.yul\":8945:8984   */\n      tag_77\n      jump\t// in\n    tag_190:\n        /* \"#utility.yul\":8933:8984   */\n      swap6\n      pop\n        /* \"#utility.yul\":9017:9021   */\n      dup1\n        /* \"#utility.yul\":9013:9022   */\n      not\n        /* \"#utility.yul\":9006:9011   */\n      dup5\n        /* \"#utility.yul\":9002:9023   */\n      and\n        /* \"#utility.yul\":8993:9023   */\n      swap4\n      pop\n        /* \"#utility.yul\":9066:9070   */\n      dup1\n        /* \"#utility.yul\":9056:9064   */\n      dup7\n        /* \"#utility.yul\":9052:9071   */\n      and\n        /* \"#utility.yul\":9045:9050   */\n      dup5\n        /* \"#utility.yul\":9042:9072   */\n      or\n        /* \"#utility.yul\":9032:9072   */\n      swap3\n      pop\n        /* \"#utility.yul\":8761:9078   */\n      pop\n      pop\n        /* \"#utility.yul\":8685:9078   */\n      swap4\n      swap3\n      pop\n      pop\n      pop\n      jump\t// out\n        /* \"#utility.yul\":9084:9144   */\n    tag_79:\n        /* \"#utility.yul\":9112:9115   */\n      0x00\n        /* \"#utility.yul\":9133:9138   */\n      dup2\n        /* \"#utility.yul\":9126:9138   */\n      swap1\n      pop\n        /* \"#utility.yul\":9084:9144   */\n      swap2\n      swap1\n      pop\n      jump\t// out\n        /* \"#utility.yul\":9150:9292   */\n    tag_80:\n        /* \"#utility.yul\":9200:9209   */\n      0x00\n        /* \"#utility.yul\":9233:9286   */\n      tag_193\n        /* \"#utility.yul\":9251:9285   */\n      tag_194\n        /* \"#utility.yul\":9260:9284   */\n      tag_195\n        /* \"#utility.yul\":9278:9283   */\n      dup5\n        /* \"#utility.yul\":9260:9284   */\n      tag_51\n      jump\t// in\n    tag_195:\n        /* \"#utility.yul\":9251:9285   */\n      tag_79\n      jump\t// in\n    tag_194:\n        /* \"#utility.yul\":9233:9286   */\n      tag_51\n      jump\t// in\n    tag_193:\n        /* \"#utility.yul\":9220:9286   */\n      swap1\n      pop\n        /* \"#utility.yul\":9150:9292   */\n      swap2\n      swap1\n      pop\n      jump\t// out\n        /* \"#utility.yul\":9298:9373   */\n    tag_81:\n        /* \"#utility.yul\":9341:9344   */\n      0x00\n        /* \"#utility.yul\":9362:9367   */\n      dup2\n        /* \"#utility.yul\":9355:9367   */\n      swap1\n      pop\n        /* \"#utility.yul\":9298:9373   */\n      swap2\n      swap1\n      pop\n      jump\t// out\n        /* \"#utility.yul\":9379:9648   */\n    tag_82:\n        /* \"#utility.yul\":9489:9528   */\n      tag_198\n        /* \"#utility.yul\":9520:9527   */\n      dup4\n        /* \"#utility.yul\":9489:9528   */\n      tag_80\n      jump\t// in\n    tag_198:\n        /* \"#utility.yul\":9550:9641   */\n      tag_199\n        /* \"#utility.yul\":9599:9640   */\n      tag_200\n        /* \"#utility.yul\":9623:9639   */\n      dup3\n        /* \"#utility.yul\":9599:9640   */\n      tag_81\n      jump\t// in\n    tag_200:\n        /* \"#utility.yul\":9591:9597   */\n      dup5\n        /* \"#utility.yul\":9584:9588   */\n      dup5\n        /* \"#utility.yul\":9578:9589   */\n      sload\n        /* \"#utility.yul\":9550:9641   */\n      tag_78\n      jump\t// in\n    tag_199:\n        /* \"#utility.yul\":9544:9548   */\n      dup3\n        /* \"#utility.yul\":9537:9642   */\n      sstore\n        /* \"#utility.yul\":9455:9648   */\n      pop\n        /* \"#utility.yul\":9379:9648   */\n      pop\n      pop\n      pop\n      jump\t// out\n        /* \"#utility.yul\":9654:9727   */\n    tag_83:\n        /* \"#utility.yul\":9699:9702   */\n      0x00\n        /* \"#utility.yul\":9654:9727   */\n      swap1\n      jump\t// out\n        /* \"#utility.yul\":9733:9922   */\n    tag_84:\n        /* \"#utility.yul\":9810:9842   */\n      tag_203\n      tag_83\n      jump\t// in\n    tag_203:\n        /* \"#utility.yul\":9851:9916   */\n      tag_204\n        /* \"#utility.yul\":9909:9915   */\n      dup2\n        /* \"#utility.yul\":9901:9907   */\n      dup5\n        /* \"#utility.yul\":9895:9899   */\n      dup5\n        /* \"#utility.yul\":9851:9916   */\n      tag_82\n      jump\t// in\n    tag_204:\n        /* \"#utility.yul\":9786:9922   */\n      pop\n        /* \"#utility.yul\":9733:9922   */\n      pop\n      pop\n      jump\t// out\n        /* \"#utility.yul\":9928:10114   */\n    tag_85:\n        /* \"#utility.yul\":9988:10108   */\n    tag_206:\n        /* \"#utility.yul\":10005:10008   */\n      dup2\n        /* \"#utility.yul\":9998:10003   */\n      dup2\n        /* \"#utility.yul\":9995:10009   */\n      lt\n        /* \"#utility.yul\":9988:10108   */\n      iszero\n      tag_208\n      jumpi\n        /* \"#utility.yul\":10059:10098   */\n      tag_209\n        /* \"#utility.yul\":10096:10097   */\n      0x00\n        /* \"#utility.yul\":10089:10094   */\n      dup3\n        /* \"#utility.yul\":10059:10098   */\n      tag_84\n      jump\t// in\n    tag_209:\n        /* \"#utility.yul\":10032:10033   */\n      0x01\n        /* \"#utility.yul\":10025:10030   */\n      dup2\n        /* \"#utility.yul\":10021:10034   */\n      add\n        /* \"#utility.yul\":10012:10034   */\n      swap1\n      pop\n        /* \"#utility.yul\":9988:10108   */\n      jump(tag_206)\n    tag_208:\n        /* \"#utility.yul\":9928:10114   */\n      pop\n      pop\n      jump\t// out\n        /* \"#utility.yul\":10120:10663   */\n    tag_86:\n        /* \"#utility.yul\":10221:10223   */\n      0x1f\n        /* \"#utility.yul\":10216:10219   */\n      dup3\n        /* \"#utility.yul\":10213:10224   */\n      gt\n        /* \"#utility.yul\":10210:10656   */\n      iszero\n      tag_211\n      jumpi\n        /* \"#utility.yul\":10255:10293   */\n      tag_212\n        /* \"#utility.yul\":10287:10292   */\n      dup2\n        /* \"#utility.yul\":10255:10293   */\n      tag_75\n      jump\t// in\n    tag_212:\n        /* \"#utility.yul\":10339:10368   */\n      tag_213\n        /* \"#utility.yul\":10357:10367   */\n      dup5\n        /* \"#utility.yul\":10339:10368   */\n      tag_76\n      jump\t// in\n    tag_213:\n        /* \"#utility.yul\":10329:10337   */\n      dup2\n        /* \"#utility.yul\":10325:10369   */\n      add\n        /* \"#utility.yul\":10522:10524   */\n      0x20\n        /* \"#utility.yul\":10510:10520   */\n      dup6\n        /* \"#utility.yul\":10507:10525   */\n      lt\n        /* \"#utility.yul\":10504:10553   */\n      iszero\n      tag_214\n      jumpi\n        /* \"#utility.yul\":10543:10551   */\n      dup2\n        /* \"#utility.yul\":10528:10551   */\n      swap1\n      pop\n        /* \"#utility.yul\":10504:10553   */\n    tag_214:\n        /* \"#utility.yul\":10566:10646   */\n      tag_215\n        /* \"#utility.yul\":10622:10644   */\n      tag_216\n        /* \"#utility.yul\":10640:10643   */\n      dup6\n        /* \"#utility.yul\":10622:10644   */\n      tag_76\n      jump\t// in\n    tag_216:\n        /* \"#utility.yul\":10612:10620   */\n      dup4\n        /* \"#utility.yul\":10608:10645   */\n      add\n        /* \"#utility.yul\":10595:10606   */\n      dup3\n        /* \"#utility.yul\":10566:10646   */\n      tag_85\n      jump\t// in\n    tag_215:\n        /* \"#utility.yul\":10225:10656   */\n      pop\n      pop\n        /* \"#utility.yul\":10210:10656   */\n    tag_211:\n        /* \"#utility.yul\":10120:10663   */\n      pop\n      pop\n      pop\n      jump\t// out\n        /* \"#utility.yul\":10669:10786   */\n    tag_87:\n        /* \"#utility.yul\":10723:10731   */\n      0x00\n        /* \"#utility.yul\":10773:10778   */\n      dup3\n        /* \"#utility.yul\":10767:10771   */\n      dup3\n        /* \"#utility.yul\":10763:10779   */\n      shr\n        /* \"#utility.yul\":10742:10779   */\n      swap1\n      pop\n        /* \"#utility.yul\":10669:10786   */\n      swap3\n      swap2\n      pop\n      pop\n      jump\t// out\n        /* \"#utility.yul\":10792:10961   */\n    tag_88:\n        /* \"#utility.yul\":10836:10842   */\n      0x00\n        /* \"#utility.yul\":10869:10920   */\n      tag_219\n        /* \"#utility.yul\":10917:10918   */\n      0x00\n        /* \"#utility.yul\":10913:10919   */\n      not\n        /* \"#utility.yul\":10905:10910   */\n      dup5\n        /* \"#utility.yul\":10902:10903   */\n      0x08\n        /* \"#utility.yul\":10898:10911   */\n      mul\n        /* \"#utility.yul\":10869:10920   */\n      tag_87\n      jump\t// in\n    tag_219:\n        /* \"#utility.yul\":10865:10921   */\n      not\n        /* \"#utility.yul\":10950:10954   */\n      dup1\n        /* \"#utility.yul\":10944:10948   */\n      dup4\n        /* \"#utility.yul\":10940:10955   */\n      and\n        /* \"#utility.yul\":10930:10955   */\n      swap2\n      pop\n        /* \"#utility.yul\":10843:10961   */\n      pop\n        /* \"#utility.yul\":10792:10961   */\n      swap3\n      swap2\n      pop\n      pop\n      jump\t// out\n        /* \"#utility.yul\":10966:11261   */\n    tag_89:\n        /* \"#utility.yul\":11042:11046   */\n      0x00\n        /* \"#utility.yul\":11188:11217   */\n      tag_221\n        /* \"#utility.yul\":11213:11216   */\n      dup4\n        /* \"#utility.yul\":11207:11211   */\n      dup4\n        /* \"#utility.yul\":11188:11217   */\n      tag_88\n      jump\t// in\n    tag_221:\n        /* \"#utility.yul\":11180:11217   */\n      swap2\n      pop\n        /* \"#utility.yul\":11250:11253   */\n      dup3\n        /* \"#utility.yul\":11247:11248   */\n      0x02\n        /* \"#utility.yul\":11243:11254   */\n      mul\n        /* \"#utility.yul\":11237:11241   */\n      dup3\n        /* \"#utility.yul\":11234:11255   */\n      or\n        /* \"#utility.yul\":11226:11255   */\n      swap1\n      pop\n        /* \"#utility.yul\":10966:11261   */\n      swap3\n      swap2\n      pop\n      pop\n      jump\t// out\n        /* \"#utility.yul\":11266:12661   */\n    tag_28:\n        /* \"#utility.yul\":11383:11420   */\n      tag_223\n        /* \"#utility.yul\":11416:11419   */\n      dup3\n        /* \"#utility.yul\":11383:11420   */\n      tag_55\n      jump\t// in\n    tag_223:\n        /* \"#utility.yul\":11485:11503   */\n      0xffffffffffffffff\n        /* \"#utility.yul\":11477:11483   */\n      dup2\n        /* \"#utility.yul\":11474:11504   */\n      gt\n        /* \"#utility.yul\":11471:11527   */\n      iszero\n      tag_224\n      jumpi\n        /* \"#utility.yul\":11507:11525   */\n      tag_225\n      tag_62\n      jump\t// in\n    tag_225:\n        /* \"#utility.yul\":11471:11527   */\n    tag_224:\n        /* \"#utility.yul\":11551:11589   */\n      tag_226\n        /* \"#utility.yul\":11583:11587   */\n      dup3\n        /* \"#utility.yul\":11577:11588   */\n      sload\n        /* \"#utility.yul\":11551:11589   */\n      tag_18\n      jump\t// in\n    tag_226:\n        /* \"#utility.yul\":11636:11703   */\n      tag_227\n        /* \"#utility.yul\":11696:11702   */\n      dup3\n        /* \"#utility.yul\":11688:11694   */\n      dup3\n        /* \"#utility.yul\":11682:11686   */\n      dup6\n        /* \"#utility.yul\":11636:11703   */\n      tag_86\n      jump\t// in\n    tag_227:\n        /* \"#utility.yul\":11730:11731   */\n      0x00\n        /* \"#utility.yul\":11754:11758   */\n      0x20\n        /* \"#utility.yul\":11741:11758   */\n      swap1\n      pop\n        /* \"#utility.yul\":11786:11788   */\n      0x1f\n        /* \"#utility.yul\":11778:11784   */\n      dup4\n        /* \"#utility.yul\":11775:11789   */\n      gt\n        /* \"#utility.yul\":11803:11804   */\n      0x01\n        /* \"#utility.yul\":11798:12416   */\n      dup2\n      eq\n      tag_229\n      jumpi\n        /* \"#utility.yul\":12460:12461   */\n      0x00\n        /* \"#utility.yul\":12477:12483   */\n      dup5\n        /* \"#utility.yul\":12474:12551   */\n      iszero\n      tag_230\n      jumpi\n        /* \"#utility.yul\":12526:12535   */\n      dup3\n        /* \"#utility.yul\":12521:12524   */\n      dup8\n        /* \"#utility.yul\":12517:12536   */\n      add\n        /* \"#utility.yul\":12511:12537   */\n      mload\n        /* \"#utility.yul\":12502:12537   */\n      swap1\n      pop\n        /* \"#utility.yul\":12474:12551   */\n    tag_230:\n        /* \"#utility.yul\":12577:12644   */\n      tag_231\n        /* \"#utility.yul\":12637:12643   */\n      dup6\n        /* \"#utility.yul\":12630:12635   */\n      dup3\n        /* \"#utility.yul\":12577:12644   */\n      tag_89\n      jump\t// in\n    tag_231:\n        /* \"#utility.yul\":12571:12575   */\n      dup7\n        /* \"#utility.yul\":12564:12645   */\n      sstore\n        /* \"#utility.yul\":12433:12655   */\n      pop\n        /* \"#utility.yul\":11768:12655   */\n      jump(tag_228)\n        /* \"#utility.yul\":11798:12416   */\n    tag_229:\n        /* \"#utility.yul\":11850:11854   */\n      0x1f\n        /* \"#utility.yul\":11846:11855   */\n      not\n        /* \"#utility.yul\":11838:11844   */\n      dup5\n        /* \"#utility.yul\":11834:11856   */\n      and\n        /* \"#utility.yul\":11884:11921   */\n      tag_232\n        /* \"#utility.yul\":11916:11920   */\n      dup7\n        /* \"#utility.yul\":11884:11921   */\n      tag_75\n      jump\t// in\n    tag_232:\n        /* \"#utility.yul\":11943:11944   */\n      0x00\n        /* \"#utility.yul\":11957:12165   */\n    tag_233:\n        /* \"#utility.yul\":11971:11978   */\n      dup3\n        /* \"#utility.yul\":11968:11969   */\n      dup2\n        /* \"#utility.yul\":11965:11979   */\n      lt\n        /* \"#utility.yul\":11957:12165   */\n      iszero\n      tag_235\n      jumpi\n        /* \"#utility.yul\":12050:12059   */\n      dup5\n        /* \"#utility.yul\":12045:12048   */\n      dup10\n        /* \"#utility.yul\":12041:12060   */\n      add\n        /* \"#utility.yul\":12035:12061   */\n      mload\n        /* \"#utility.yul\":12027:12033   */\n      dup3\n        /* \"#utility.yul\":12020:12062   */\n      sstore\n        /* \"#utility.yul\":12101:12102   */\n      0x01\n        /* \"#utility.yul\":12093:12099   */\n      dup3\n        /* \"#utility.yul\":12089:12103   */\n      add\n        /* \"#utility.yul\":12079:12103   */\n      swap2\n      pop\n        /* \"#utility.yul\":12148:12150   */\n      0x20\n        /* \"#utility.yul\":12137:12146   */\n      dup6\n        /* \"#utility.yul\":12133:12151   */\n      add\n        /* \"#utility.yul\":12120:12151   */\n      swap5\n      pop\n        /* \"#utility.yul\":11994:11998   */\n      0x20\n        /* \"#utility.yul\":11991:11992   */\n      dup2\n        /* \"#utility.yul\":11987:11999   */\n      add\n        /* \"#utility.yul\":11982:11999   */\n      swap1\n      pop\n        /* \"#utility.yul\":11957:12165   */\n      jump(tag_233)\n    tag_235:\n        /* \"#utility.yul\":12193:12199   */\n      dup7\n        /* \"#utility.yul\":12184:12191   */\n      dup4\n        /* \"#utility.yul\":12181:12200   */\n      lt\n        /* \"#utility.yul\":12178:12357   */\n      iszero\n      tag_236\n      jumpi\n        /* \"#utility.yul\":12251:12260   */\n      dup5\n        /* \"#utility.yul\":12246:12249   */\n      dup10\n        /* \"#utility.yul\":12242:12261   */\n      add\n        /* \"#utility.yul\":12236:12262   */\n      mload\n        /* \"#utility.yul\":12294:12342   */\n      tag_237\n        /* \"#utility.yul\":12336:12340   */\n      0x1f\n        /* \"#utility.yul\":12328:12334   */\n      dup10\n        /* \"#utility.yul\":12324:12341   */\n      and\n        /* \"#utility.yul\":12313:12322   */\n      dup3\n        /* \"#utility.yul\":12294:12342   */\n      tag_88\n      jump\t// in\n    tag_237:\n        /* \"#utility.yul\":12286:12292   */\n      dup4\n        /* \"#utility.yul\":12279:12343   */\n      sstore\n        /* \"#utility.yul\":12201:12357   */\n      pop\n        /* \"#utility.yul\":12178:12357   */\n    tag_236:\n        /* \"#utility.yul\":12403:12404   */\n      0x01\n        /* \"#utility.yul\":12399:12400   */\n      0x02\n        /* \"#utility.yul\":12391:12397   */\n      dup9\n        /* \"#utility.yul\":12387:12401   */\n      mul\n        /* \"#utility.yul\":12383:12405   */\n      add\n        /* \"#utility.yul\":12377:12381   */\n      dup9\n        /* \"#utility.yul\":12370:12406   */\n      sstore\n        /* \"#utility.yul\":11805:12416   */\n      pop\n      pop\n      pop\n        /* \"#utility.yul\":11768:12655   */\n    tag_228:\n      pop\n        /* \"#utility.yul\":11358:12661   */\n      pop\n      pop\n      pop\n        /* \"#utility.yul\":11266:12661   */\n      pop\n      pop\n      jump\t// out\n\n    auxdata: 0xa2646970667358221220a9d22f4ade165e3f7f4bf2a7fa769745dd54cfb559b118431c0b0997d748906a64736f6c63430008120033\n}\n",
				"bytecode": {
					"linkReferences": {},
					"object": "608060405234801561001057600080fd5b50610a08806100206000396000f3fe608060405234801561001057600080fd5b50600436106100365760003560e01c806306ead22e1461003b5780637283a0691461006c575b600080fd5b61005560048036038101906100509190610302565b610088565b6040516100639291906103ce565b60405180910390f35b61008660048036038101906100819190610619565b610144565b005b6000818154811061009857600080fd5b90600052602060002090600302016000915090508060000154908060010180546100c1906106c0565b80601f01602080910402602001604051908101604052809291908181526020018280546100ed906106c0565b801561013a5780601f1061010f5761010080835404028352916020019161013a565b820191906000526020600020905b81548152906001019060200180831161011d57829003601f168201915b5050505050905082565b6000604051806060016040528060016000805490506101639190610720565b81526020018481526020018381525090806001815401808255809150506001900390600052602060002090600302016000909190919091506000820151816000015560208201518160010190816101ba9190610900565b5060408201518160020190805190602001906101d79291906101de565b5050505050565b828054828255906000526020600020908101928215610226579160200282015b828111156102255782518290816102159190610900565b50916020019190600101906101fe565b5b5090506102339190610237565b5090565b5b80821115610257576000818161024e919061025b565b50600101610238565b5090565b508054610267906106c0565b6000825580601f106102795750610298565b601f016020900490600052602060002090810190610297919061029b565b5b50565b5b808211156102b457600081600090555060010161029c565b5090565b6000604051905090565b600080fd5b600080fd5b6000819050919050565b6102df816102cc565b81146102ea57600080fd5b50565b6000813590506102fc816102d6565b92915050565b600060208284031215610318576103176102c2565b5b6000610326848285016102ed565b91505092915050565b610338816102cc565b82525050565b600081519050919050565b600082825260208201905092915050565b60005b8381101561037857808201518184015260208101905061035d565b60008484015250505050565b6000601f19601f8301169050919050565b60006103a08261033e565b6103aa8185610349565b93506103ba81856020860161035a565b6103c381610384565b840191505092915050565b60006040820190506103e3600083018561032f565b81810360208301526103f58184610395565b90509392505050565b600080fd5b600080fd5b7f4e487b7100000000000000000000000000000000000000000000000000000000600052604160045260246000fd5b61044082610384565b810181811067ffffffffffffffff8211171561045f5761045e610408565b5b80604052505050565b60006104726102b8565b905061047e8282610437565b919050565b600067ffffffffffffffff82111561049e5761049d610408565b5b6104a782610384565b9050602081019050919050565b82818337600083830152505050565b60006104d66104d184610483565b610468565b9050828152602081018484840111156104f2576104f1610403565b5b6104fd8482856104b4565b509392505050565b600082601f83011261051a576105196103fe565b5b813561052a8482602086016104c3565b91505092915050565b600067ffffffffffffffff82111561054e5761054d610408565b5b602082029050602081019050919050565b600080fd5b600061057761057284610533565b610468565b9050808382526020820190506020840283018581111561059a5761059961055f565b5b835b818110156105e157803567ffffffffffffffff8111156105bf576105be6103fe565b5b8086016105cc8982610505565b8552602085019450505060208101905061059c565b5050509392505050565b600082601f830112610600576105ff6103fe565b5b8135610610848260208601610564565b91505092915050565b600080604083850312156106305761062f6102c2565b5b600083013567ffffffffffffffff81111561064e5761064d6102c7565b5b61065a85828601610505565b925050602083013567ffffffffffffffff81111561067b5761067a6102c7565b5b610687858286016105eb565b9150509250929050565b7f4e487b7100000000000000000000000000000000000000000000000000000000600052602260045260246000fd5b600060028204905060018216806106d857607f821691505b6020821081036106eb576106ea610691565b5b50919050565b7f4e487b7100000000000000000000000000000000000000000000000000000000600052601160045260246000fd5b600061072b826102cc565b9150610736836102cc565b925082820190508082111561074e5761074d6106f1565b5b92915050565b60008190508160005260206000209050919050565b60006020601f8301049050919050565b600082821b905092915050565b6000600883026107b67fffffffffffffffffffffffffffffffffffffffffffffffffffffffffffffffff82610779565b6107c08683610779565b95508019841693508086168417925050509392505050565b6000819050919050565b60006107fd6107f86107f3846102cc565b6107d8565b6102cc565b9050919050565b6000819050919050565b610817836107e2565b61082b61082382610804565b848454610786565b825550505050565b600090565b610840610833565b61084b81848461080e565b505050565b5b8181101561086f57610864600082610838565b600181019050610851565b5050565b601f8211156108b45761088581610754565b61088e84610769565b8101602085101561089d578190505b6108b16108a985610769565b830182610850565b50505b505050565b600082821c905092915050565b60006108d7600019846008026108b9565b1980831691505092915050565b60006108f083836108c6565b9150826002028217905092915050565b6109098261033e565b67ffffffffffffffff81111561092257610921610408565b5b61092c82546106c0565b610937828285610873565b600060209050601f83116001811461096a5760008415610958578287015190505b61096285826108e4565b8655506109ca565b601f19841661097886610754565b60005b828110156109a05784890151825560018201915060208501945060208101905061097b565b868310156109bd57848901516109b9601f8916826108c6565b8355505b6001600288020188555050505b50505050505056fea2646970667358221220a9d22f4ade165e3f7f4bf2a7fa769745dd54cfb559b118431c0b0997d748906a64736f6c63430008120033",
					"opcodes": "PUSH1 0x80 PUSH1 0x40 MSTORE CALLVALUE DUP1 ISZERO PUSH2 0x10 JUMPI PUSH1 0x0 DUP1 REVERT JUMPDEST POP PUSH2 0xA08 DUP1 PUSH2 0x20 PUSH1 0x0 CODECOPY PUSH1 0x0 RETURN INVALID PUSH1 0x80 PUSH1 0x40 MSTORE CALLVALUE DUP1 ISZERO PUSH2 0x10 JUMPI PUSH1 0x0 DUP1 REVERT JUMPDEST POP PUSH1 0x4 CALLDATASIZE LT PUSH2 0x36 JUMPI PUSH1 0x0 CALLDATALOAD PUSH1 0xE0 SHR DUP1 PUSH4 0x6EAD22E EQ PUSH2 0x3B JUMPI DUP1 PUSH4 0x7283A069 EQ PUSH2 0x6C JUMPI JUMPDEST PUSH1 0x0 DUP1 REVERT JUMPDEST PUSH2 0x55 PUSH1 0x4 DUP1 CALLDATASIZE SUB DUP2 ADD SWAP1 PUSH2 0x50 SWAP2 SWAP1 PUSH2 0x302 JUMP JUMPDEST PUSH2 0x88 JUMP JUMPDEST PUSH1 0x40 MLOAD PUSH2 0x63 SWAP3 SWAP2 SWAP1 PUSH2 0x3CE JUMP JUMPDEST PUSH1 0x40 MLOAD DUP1 SWAP2 SUB SWAP1 RETURN JUMPDEST PUSH2 0x86 PUSH1 0x4 DUP1 CALLDATASIZE SUB DUP2 ADD SWAP1 PUSH2 0x81 SWAP2 SWAP1 PUSH2 0x619 JUMP JUMPDEST PUSH2 0x144 JUMP JUMPDEST STOP JUMPDEST PUSH1 0x0 DUP2 DUP2 SLOAD DUP2 LT PUSH2 0x98 JUMPI PUSH1 0x0 DUP1 REVERT JUMPDEST SWAP1 PUSH1 0x0 MSTORE PUSH1 0x20 PUSH1 0x0 KECCAK256 SWAP1 PUSH1 0x3 MUL ADD PUSH1 0x0 SWAP2 POP SWAP1 POP DUP1 PUSH1 0x0 ADD SLOAD SWAP1 DUP1 PUSH1 0x1 ADD DUP1 SLOAD PUSH2 0xC1 SWAP1 PUSH2 0x6C0 JUMP JUMPDEST DUP1 PUSH1 0x1F ADD PUSH1 0x20 DUP1 SWAP2 DIV MUL PUSH1 0x20 ADD PUSH1 0x40 MLOAD SWAP1 DUP2 ADD PUSH1 0x40 MSTORE DUP1 SWAP3 SWAP2 SWAP1 DUP2 DUP2 MSTORE PUSH1 0x20 ADD DUP3 DUP1 SLOAD PUSH2 0xED SWAP1 PUSH2 0x6C0 JUMP JUMPDEST DUP1 ISZERO PUSH2 0x13A JUMPI DUP1 PUSH1 0x1F LT PUSH2 0x10F JUMPI PUSH2 0x100 DUP1 DUP4 SLOAD DIV MUL DUP4 MSTORE SWAP2 PUSH1 0x20 ADD SWAP2 PUSH2 0x13A JUMP JUMPDEST DUP3 ADD SWAP2 SWAP1 PUSH1 0x0 MSTORE PUSH1 0x20 PUSH1 0x0 KECCAK256 SWAP1 JUMPDEST DUP2 SLOAD DUP2 MSTORE SWAP1 PUSH1 0x1 ADD SWAP1 PUSH1 0x20 ADD DUP1 DUP4 GT PUSH2 0x11D JUMPI DUP3 SWAP1 SUB PUSH1 0x1F AND DUP3 ADD SWAP2 JUMPDEST POP POP POP POP POP SWAP1 POP DUP3 JUMP JUMPDEST PUSH1 0x0 PUSH1 0x40 MLOAD DUP1 PUSH1 0x60 ADD PUSH1 0x40 MSTORE DUP1 PUSH1 0x1 PUSH1 0x0 DUP1 SLOAD SWAP1 POP PUSH2 0x163 SWAP2 SWAP1 PUSH2 0x720 JUMP JUMPDEST DUP2 MSTORE PUSH1 0x20 ADD DUP5 DUP2 MSTORE PUSH1 0x20 ADD DUP4 DUP2 MSTORE POP SWAP1 DUP1 PUSH1 0x1 DUP2 SLOAD ADD DUP1 DUP3 SSTORE DUP1 SWAP2 POP POP PUSH1 0x1 SWAP1 SUB SWAP1 PUSH1 0x0 MSTORE PUSH1 0x20 PUSH1 0x0 KECCAK256 SWAP1 PUSH1 0x3 MUL ADD PUSH1 0x0 SWAP1 SWAP2 SWAP1 SWAP2 SWAP1 SWAP2 POP PUSH1 0x0 DUP3 ADD MLOAD DUP2 PUSH1 0x0 ADD SSTORE PUSH1 0x20 DUP3 ADD MLOAD DUP2 PUSH1 0x1 ADD SWAP1 DUP2 PUSH2 0x1BA SWAP2 SWAP1 PUSH2 0x900 JUMP JUMPDEST POP PUSH1 0x40 DUP3 ADD MLOAD DUP2 PUSH1 0x2 ADD SWAP1 DUP1 MLOAD SWAP1 PUSH1 0x20 ADD SWAP1 PUSH2 0x1D7 SWAP3 SWAP2 SWAP1 PUSH2 0x1DE JUMP JUMPDEST POP POP POP POP POP JUMP JUMPDEST DUP3 DUP1 SLOAD DUP3 DUP3 SSTORE SWAP1 PUSH1 0x0 MSTORE PUSH1 0x20 PUSH1 0x0 KECCAK256 SWAP1 DUP2 ADD SWAP3 DUP3 ISZERO PUSH2 0x226 JUMPI SWAP2 PUSH1 0x20 MUL DUP3 ADD JUMPDEST DUP3 DUP2 GT ISZERO PUSH2 0x225 JUMPI DUP3 MLOAD DUP3 SWAP1 DUP2 PUSH2 0x215 SWAP2 SWAP1 PUSH2 0x900 JUMP JUMPDEST POP SWAP2 PUSH1 0x20 ADD SWAP2 SWAP1 PUSH1 0x1 ADD SWAP1 PUSH2 0x1FE JUMP JUMPDEST JUMPDEST POP SWAP1 POP PUSH2 0x233 SWAP2 SWAP1 PUSH2 0x237 JUMP JUMPDEST POP SWAP1 JUMP JUMPDEST JUMPDEST DUP1 DUP3 GT ISZERO PUSH2 0x257 JUMPI PUSH1 0x0 DUP2 DUP2 PUSH2 0x24E SWAP2 SWAP1 PUSH2 0x25B JUMP JUMPDEST POP PUSH1 0x1 ADD PUSH2 0x238 JUMP JUMPDEST POP SWAP1 JUMP JUMPDEST POP DUP1 SLOAD PUSH2 0x267 SWAP1 PUSH2 0x6C0 JUMP JUMPDEST PUSH1 0x0 DUP3 SSTORE DUP1 PUSH1 0x1F LT PUSH2 0x279 JUMPI POP PUSH2 0x298 JUMP JUMPDEST PUSH1 0x1F ADD PUSH1 0x20 SWAP1 DIV SWAP1 PUSH1 0x0 MSTORE PUSH1 0x20 PUSH1 0x0 KECCAK256 SWAP1 DUP2 ADD SWAP1 PUSH2 0x297 SWAP2 SWAP1 PUSH2 0x29B JUMP JUMPDEST JUMPDEST POP JUMP JUMPDEST JUMPDEST DUP1 DUP3 GT ISZERO PUSH2 0x2B4 JUMPI PUSH1 0x0 DUP2 PUSH1 0x0 SWAP1 SSTORE POP PUSH1 0x1 ADD PUSH2 0x29C JUMP JUMPDEST POP SWAP1 JUMP JUMPDEST PUSH1 0x0 PUSH1 0x40 MLOAD SWAP1 POP SWAP1 JUMP JUMPDEST PUSH1 0x0 DUP1 REVERT JUMPDEST PUSH1 0x0 DUP1 REVERT JUMPDEST PUSH1 0x0 DUP2 SWAP1 POP SWAP2 SWAP1 POP JUMP JUMPDEST PUSH2 0x2DF DUP2 PUSH2 0x2CC JUMP JUMPDEST DUP2 EQ PUSH2 0x2EA JUMPI PUSH1 0x0 DUP1 REVERT JUMPDEST POP JUMP JUMPDEST PUSH1 0x0 DUP2 CALLDATALOAD SWAP1 POP PUSH2 0x2FC DUP2 PUSH2 0x2D6 JUMP JUMPDEST SWAP3 SWAP2 POP POP JUMP JUMPDEST PUSH1 0x0 PUSH1 0x20 DUP3 DUP5 SUB SLT ISZERO PUSH2 0x318 JUMPI PUSH2 0x317 PUSH2 0x2C2 JUMP JUMPDEST JUMPDEST PUSH1 0x0 PUSH2 0x326 DUP5 DUP3 DUP6 ADD PUSH2 0x2ED JUMP JUMPDEST SWAP2 POP POP SWAP3 SWAP2 POP POP JUMP JUMPDEST PUSH2 0x338 DUP2 PUSH2 0x2CC JUMP JUMPDEST DUP3 MSTORE POP POP JUMP JUMPDEST PUSH1 0x0 DUP2 MLOAD SWAP1 POP SWAP2 SWAP1 POP JUMP JUMPDEST PUSH1 0x0 DUP3 DUP3 MSTORE PUSH1 0x20 DUP3 ADD SWAP1 POP SWAP3 SWAP2 POP POP JUMP JUMPDEST PUSH1 0x0 JUMPDEST DUP4 DUP2 LT ISZERO PUSH2 0x378 JUMPI DUP1 DUP3 ADD MLOAD DUP2 DUP5 ADD MSTORE PUSH1 0x20 DUP2 ADD SWAP1 POP PUSH2 0x35D JUMP JUMPDEST PUSH1 0x0 DUP5 DUP5 ADD MSTORE POP POP POP POP JUMP JUMPDEST PUSH1 0x0 PUSH1 0x1F NOT PUSH1 0x1F DUP4 ADD AND SWAP1 POP SWAP2 SWAP1 POP JUMP JUMPDEST PUSH1 0x0 PUSH2 0x3A0 DUP3 PUSH2 0x33E JUMP JUMPDEST PUSH2 0x3AA DUP2 DUP6 PUSH2 0x349 JUMP JUMPDEST SWAP4 POP PUSH2 0x3BA DUP2 DUP6 PUSH1 0x20 DUP7 ADD PUSH2 0x35A JUMP JUMPDEST PUSH2 0x3C3 DUP2 PUSH2 0x384 JUMP JUMPDEST DUP5 ADD SWAP2 POP POP SWAP3 SWAP2 POP POP JUMP JUMPDEST PUSH1 0x0 PUSH1 0x40 DUP3 ADD SWAP1 POP PUSH2 0x3E3 PUSH1 0x0 DUP4 ADD DUP6 PUSH2 0x32F JUMP JUMPDEST DUP2 DUP2 SUB PUSH1 0x20 DUP4 ADD MSTORE PUSH2 0x3F5 DUP2 DUP5 PUSH2 0x395 JUMP JUMPDEST SWAP1 POP SWAP4 SWAP3 POP POP POP JUMP JUMPDEST PUSH1 0x0 DUP1 REVERT JUMPDEST PUSH1 0x0 DUP1 REVERT JUMPDEST PUSH32 0x4E487B7100000000000000000000000000000000000000000000000000000000 PUSH1 0x0 MSTORE PUSH1 0x41 PUSH1 0x4 MSTORE PUSH1 0x24 PUSH1 0x0 REVERT JUMPDEST PUSH2 0x440 DUP3 PUSH2 0x384 JUMP JUMPDEST DUP2 ADD DUP2 DUP2 LT PUSH8 0xFFFFFFFFFFFFFFFF DUP3 GT OR ISZERO PUSH2 0x45F JUMPI PUSH2 0x45E PUSH2 0x408 JUMP JUMPDEST JUMPDEST DUP1 PUSH1 0x40 MSTORE POP POP POP JUMP JUMPDEST PUSH1 0x0 PUSH2 0x472 PUSH2 0x2B8 JUMP JUMPDEST SWAP1 POP PUSH2 0x47E DUP3 DUP3 PUSH2 0x437 JUMP JUMPDEST SWAP2 SWAP1 POP JUMP JUMPDEST PUSH1 0x0 PUSH8 0xFFFFFFFFFFFFFFFF DUP3 GT ISZERO PUSH2 0x49E JUMPI PUSH2 0x49D PUSH2 0x408 JUMP JUMPDEST JUMPDEST PUSH2 0x4A7 DUP3 PUSH2 0x384 JUMP JUMPDEST SWAP1 POP PUSH1 0x20 DUP2 ADD SWAP1 POP SWAP2 SWAP1 POP JUMP JUMPDEST DUP3 DUP2 DUP4 CALLDATACOPY PUSH1 0x0 DUP4 DUP4 ADD MSTORE POP POP POP JUMP JUMPDEST PUSH1 0x0 PUSH2 0x4D6 PUSH2 0x4D1 DUP5 PUSH2 0x483 JUMP JUMPDEST PUSH2 0x468 JUMP JUMPDEST SWAP1 POP DUP3 DUP2 MSTORE PUSH1 0x20 DUP2 ADD DUP5 DUP5 DUP5 ADD GT ISZERO PUSH2 0x4F2 JUMPI PUSH2 0x4F1 PUSH2 0x403 JUMP JUMPDEST JUMPDEST PUSH2 0x4FD DUP5 DUP3 DUP6 PUSH2 0x4B4 JUMP JUMPDEST POP SWAP4 SWAP3 POP POP POP JUMP JUMPDEST PUSH1 0x0 DUP3 PUSH1 0x1F DUP4 ADD SLT PUSH2 0x51A JUMPI PUSH2 0x519 PUSH2 0x3FE JUMP JUMPDEST JUMPDEST DUP2 CALLDATALOAD PUSH2 0x52A DUP5 DUP3 PUSH1 0x20 DUP7 ADD PUSH2 0x4C3 JUMP JUMPDEST SWAP2 POP POP SWAP3 SWAP2 POP POP JUMP JUMPDEST PUSH1 0x0 PUSH8 0xFFFFFFFFFFFFFFFF DUP3 GT ISZERO PUSH2 0x54E JUMPI PUSH2 0x54D PUSH2 0x408 JUMP JUMPDEST JUMPDEST PUSH1 0x20 DUP3 MUL SWAP1 POP PUSH1 0x20 DUP2 ADD SWAP1 POP SWAP2 SWAP1 POP JUMP JUMPDEST PUSH1 0x0 DUP1 REVERT JUMPDEST PUSH1 0x0 PUSH2 0x577 PUSH2 0x572 DUP5 PUSH2 0x533 JUMP JUMPDEST PUSH2 0x468 JUMP JUMPDEST SWAP1 POP DUP1 DUP4 DUP3 MSTORE PUSH1 0x20 DUP3 ADD SWAP1 POP PUSH1 0x20 DUP5 MUL DUP4 ADD DUP6 DUP2 GT ISZERO PUSH2 0x59A JUMPI PUSH2 0x599 PUSH2 0x55F JUMP JUMPDEST JUMPDEST DUP4 JUMPDEST DUP2 DUP2 LT ISZERO PUSH2 0x5E1 JUMPI DUP1 CALLDATALOAD PUSH8 0xFFFFFFFFFFFFFFFF DUP2 GT ISZERO PUSH2 0x5BF JUMPI PUSH2 0x5BE PUSH2 0x3FE JUMP JUMPDEST JUMPDEST DUP1 DUP7 ADD PUSH2 0x5CC DUP10 DUP3 PUSH2 0x505 JUMP JUMPDEST DUP6 MSTORE PUSH1 0x20 DUP6 ADD SWAP5 POP POP POP PUSH1 0x20 DUP2 ADD SWAP1 POP PUSH2 0x59C JUMP JUMPDEST POP POP POP SWAP4 SWAP3 POP POP POP JUMP JUMPDEST PUSH1 0x0 DUP3 PUSH1 0x1F DUP4 ADD SLT PUSH2 0x600 JUMPI PUSH2 0x5FF PUSH2 0x3FE JUMP JUMPDEST JUMPDEST DUP2 CALLDATALOAD PUSH2 0x610 DUP5 DUP3 PUSH1 0x20 DUP7 ADD PUSH2 0x564 JUMP JUMPDEST SWAP2 POP POP SWAP3 SWAP2 POP POP JUMP JUMPDEST PUSH1 0x0 DUP1 PUSH1 0x40 DUP4 DUP6 SUB SLT ISZERO PUSH2 0x630 JUMPI PUSH2 0x62F PUSH2 0x2C2 JUMP JUMPDEST JUMPDEST PUSH1 0x0 DUP4 ADD CALLDATALOAD PUSH8 0xFFFFFFFFFFFFFFFF DUP2 GT ISZERO PUSH2 0x64E JUMPI PUSH2 0x64D PUSH2 0x2C7 JUMP JUMPDEST JUMPDEST PUSH2 0x65A DUP6 DUP3 DUP7 ADD PUSH2 0x505 JUMP JUMPDEST SWAP3 POP POP PUSH1 0x20 DUP4 ADD CALLDATALOAD PUSH8 0xFFFFFFFFFFFFFFFF DUP2 GT ISZERO PUSH2 0x67B JUMPI PUSH2 0x67A PUSH2 0x2C7 JUMP JUMPDEST JUMPDEST PUSH2 0x687 DUP6 DUP3 DUP7 ADD PUSH2 0x5EB JUMP JUMPDEST SWAP2 POP POP SWAP3 POP SWAP3 SWAP1 POP JUMP JUMPDEST PUSH32 0x4E487B7100000000000000000000000000000000000000000000000000000000 PUSH1 0x0 MSTORE PUSH1 0x22 PUSH1 0x4 MSTORE PUSH1 0x24 PUSH1 0x0 REVERT JUMPDEST PUSH1 0x0 PUSH1 0x2 DUP3 DIV SWAP1 POP PUSH1 0x1 DUP3 AND DUP1 PUSH2 0x6D8 JUMPI PUSH1 0x7F DUP3 AND SWAP2 POP JUMPDEST PUSH1 0x20 DUP3 LT DUP2 SUB PUSH2 0x6EB JUMPI PUSH2 0x6EA PUSH2 0x691 JUMP JUMPDEST JUMPDEST POP SWAP2 SWAP1 POP JUMP JUMPDEST PUSH32 0x4E487B7100000000000000000000000000000000000000000000000000000000 PUSH1 0x0 MSTORE PUSH1 0x11 PUSH1 0x4 MSTORE PUSH1 0x24 PUSH1 0x0 REVERT JUMPDEST PUSH1 0x0 PUSH2 0x72B DUP3 PUSH2 0x2CC JUMP JUMPDEST SWAP2 POP PUSH2 0x736 DUP4 PUSH2 0x2CC JUMP JUMPDEST SWAP3 POP DUP3 DUP3 ADD SWAP1 POP DUP1 DUP3 GT ISZERO PUSH2 0x74E JUMPI PUSH2 0x74D PUSH2 0x6F1 JUMP JUMPDEST JUMPDEST SWAP3 SWAP2 POP POP JUMP JUMPDEST PUSH1 0x0 DUP2 SWAP1 POP DUP2 PUSH1 0x0 MSTORE PUSH1 0x20 PUSH1 0x0 KECCAK256 SWAP1 POP SWAP2 SWAP1 POP JUMP JUMPDEST PUSH1 0x0 PUSH1 0x20 PUSH1 0x1F DUP4 ADD DIV SWAP1 POP SWAP2 SWAP1 POP JUMP JUMPDEST PUSH1 0x0 DUP3 DUP3 SHL SWAP1 POP SWAP3 SWAP2 POP POP JUMP JUMPDEST PUSH1 0x0 PUSH1 0x8 DUP4 MUL PUSH2 0x7B6 PUSH32 0xFFFFFFFFFFFFFFFFFFFFFFFFFFFFFFFFFFFFFFFFFFFFFFFFFFFFFFFFFFFFFFFF DUP3 PUSH2 0x779 JUMP JUMPDEST PUSH2 0x7C0 DUP7 DUP4 PUSH2 0x779 JUMP JUMPDEST SWAP6 POP DUP1 NOT DUP5 AND SWAP4 POP DUP1 DUP7 AND DUP5 OR SWAP3 POP POP POP SWAP4 SWAP3 POP POP POP JUMP JUMPDEST PUSH1 0x0 DUP2 SWAP1 POP SWAP2 SWAP1 POP JUMP JUMPDEST PUSH1 0x0 PUSH2 0x7FD PUSH2 0x7F8 PUSH2 0x7F3 DUP5 PUSH2 0x2CC JUMP JUMPDEST PUSH2 0x7D8 JUMP JUMPDEST PUSH2 0x2CC JUMP JUMPDEST SWAP1 POP SWAP2 SWAP1 POP JUMP JUMPDEST PUSH1 0x0 DUP2 SWAP1 POP SWAP2 SWAP1 POP JUMP JUMPDEST PUSH2 0x817 DUP4 PUSH2 0x7E2 JUMP JUMPDEST PUSH2 0x82B PUSH2 0x823 DUP3 PUSH2 0x804 JUMP JUMPDEST DUP5 DUP5 SLOAD PUSH2 0x786 JUMP JUMPDEST DUP3 SSTORE POP POP POP POP JUMP JUMPDEST PUSH1 0x0 SWAP1 JUMP JUMPDEST PUSH2 0x840 PUSH2 0x833 JUMP JUMPDEST PUSH2 0x84B DUP2 DUP5 DUP5 PUSH2 0x80E JUMP JUMPDEST POP POP POP JUMP JUMPDEST JUMPDEST DUP2 DUP2 LT ISZERO PUSH2 0x86F JUMPI PUSH2 0x864 PUSH1 0x0 DUP3 PUSH2 0x838 JUMP JUMPDEST PUSH1 0x1 DUP2 ADD SWAP1 POP PUSH2 0x851 JUMP JUMPDEST POP POP JUMP JUMPDEST PUSH1 0x1F DUP3 GT ISZERO PUSH2 0x8B4 JUMPI PUSH2 0x885 DUP2 PUSH2 0x754 JUMP JUMPDEST PUSH2 0x88E DUP5 PUSH2 0x769 JUMP JUMPDEST DUP2 ADD PUSH1 0x20 DUP6 LT ISZERO PUSH2 0x89D JUMPI DUP2 SWAP1 POP JUMPDEST PUSH2 0x8B1 PUSH2 0x8A9 DUP6 PUSH2 0x769 JUMP JUMPDEST DUP4 ADD DUP3 PUSH2 0x850 JUMP JUMPDEST POP POP JUMPDEST POP POP POP JUMP JUMPDEST PUSH1 0x0 DUP3 DUP3 SHR SWAP1 POP SWAP3 SWAP2 POP POP JUMP JUMPDEST PUSH1 0x0 PUSH2 0x8D7 PUSH1 0x0 NOT DUP5 PUSH1 0x8 MUL PUSH2 0x8B9 JUMP JUMPDEST NOT DUP1 DUP4 AND SWAP2 POP POP SWAP3 SWAP2 POP POP JUMP JUMPDEST PUSH1 0x0 PUSH2 0x8F0 DUP4 DUP4 PUSH2 0x8C6 JUMP JUMPDEST SWAP2 POP DUP3 PUSH1 0x2 MUL DUP3 OR SWAP1 POP SWAP3 SWAP2 POP POP JUMP JUMPDEST PUSH2 0x909 DUP3 PUSH2 0x33E JUMP JUMPDEST PUSH8 0xFFFFFFFFFFFFFFFF DUP2 GT ISZERO PUSH2 0x922 JUMPI PUSH2 0x921 PUSH2 0x408 JUMP JUMPDEST JUMPDEST PUSH2 0x92C DUP3 SLOAD PUSH2 0x6C0 JUMP JUMPDEST PUSH2 0x937 DUP3 DUP3 DUP6 PUSH2 0x873 JUMP JUMPDEST PUSH1 0x0 PUSH1 0x20 SWAP1 POP PUSH1 0x1F DUP4 GT PUSH1 0x1 DUP2 EQ PUSH2 0x96A JUMPI PUSH1 0x0 DUP5 ISZERO PUSH2 0x958 JUMPI DUP3 DUP8 ADD MLOAD SWAP1 POP JUMPDEST PUSH2 0x962 DUP6 DUP3 PUSH2 0x8E4 JUMP JUMPDEST DUP7 SSTORE POP PUSH2 0x9CA JUMP JUMPDEST PUSH1 0x1F NOT DUP5 AND PUSH2 0x978 DUP7 PUSH2 0x754 JUMP JUMPDEST PUSH1 0x0 JUMPDEST DUP3 DUP2 LT ISZERO PUSH2 0x9A0 JUMPI DUP5 DUP10 ADD MLOAD DUP3 SSTORE PUSH1 0x1 DUP3 ADD SWAP2 POP PUSH1 0x20 DUP6 ADD SWAP5 POP PUSH1 0x20 DUP2 ADD SWAP1 POP PUSH2 0x97B JUMP JUMPDEST DUP7 DUP4 LT ISZERO PUSH2 0x9BD JUMPI DUP5 DUP10 ADD MLOAD PUSH2 0x9B9 PUSH1 0x1F DUP10 AND DUP3 PUSH2 0x8C6 JUMP JUMPDEST DUP4 SSTORE POP JUMPDEST PUSH1 0x1 PUSH1 0x2 DUP9 MUL ADD DUP9 SSTORE POP POP POP JUMPDEST POP POP POP POP POP POP JUMP INVALID LOG2 PUSH5 0x6970667358 0x22 SLT KECCAK256 0xA9 0xD2 0x2F 0x4A 0xDE AND 0x5E EXTCODEHASH PUSH32 0x4BF2A7FA769745DD54CFB559B118431C0B0997D748906A64736F6C6343000812 STOP CALLER "
				},
				"gasEstimates": {
					"creation": {
						"codeDepositCost": "513600",
						"executionCost": "549",
						"totalCost": "514149"
					},
					"external": {
						"setStudent(string,string[])": "infinite",
						"students(uint256)": "infinite"
					}
				},
				"methodIdentifiers": {
					"setStudent(string,string[])": "7283a069",
					"students(uint256)": "06ead22e"
				}
			},
			"storageLayout": {
				"storage": [
					{
						"astId": 129,
						"contract": "contracts/11_20.sol:Quiz14",
						"label": "students",
						"offset": 0,
						"slot": "0",
						"type": "t_array(t_struct(Student)125_storage)dyn_storage"
					}
				],
				"types": {
					"t_array(t_string_storage)dyn_storage": {
						"base": "t_string_storage",
						"encoding": "dynamic_array",
						"label": "string[]",
						"numberOfBytes": "32"
					},
					"t_array(t_struct(Student)125_storage)dyn_storage": {
						"base": "t_struct(Student)125_storage",
						"encoding": "dynamic_array",
						"label": "struct Quiz14.Student[]",
						"numberOfBytes": "32"
					},
					"t_string_storage": {
						"encoding": "bytes",
						"label": "string",
						"numberOfBytes": "32"
					},
					"t_struct(Student)125_storage": {
						"encoding": "inplace",
						"label": "struct Quiz14.Student",
						"members": [
							{
								"astId": 119,
								"contract": "contracts/11_20.sol:Quiz14",
								"label": "number",
								"offset": 0,
								"slot": "0",
								"type": "t_uint256"
							},
							{
								"astId": 121,
								"contract": "contracts/11_20.sol:Quiz14",
								"label": "name",
								"offset": 0,
								"slot": "1",
								"type": "t_string_storage"
							},
							{
								"astId": 124,
								"contract": "contracts/11_20.sol:Quiz14",
								"label": "class",
								"offset": 0,
								"slot": "2",
								"type": "t_array(t_string_storage)dyn_storage"
							}
						],
						"numberOfBytes": "96"
					},
					"t_uint256": {
						"encoding": "inplace",
						"label": "uint256",
						"numberOfBytes": "32"
					}
				}
			},
			"userdoc": {
				"kind": "user",
				"methods": {},
				"version": 1
			}
		}
	}
}