{
	"contracts/11_20.sol": {
		"Quiz18": {
			"abi": [
				{
					"inputs": [
						{
							"internalType": "string",
							"name": "name",
							"type": "string"
						}
					],
					"name": "getBirth",
					"outputs": [
						{
							"internalType": "uint256",
							"name": "",
							"type": "uint256"
						}
					],
					"stateMutability": "view",
					"type": "function"
				},
				{
					"inputs": [
						{
							"internalType": "string",
							"name": "name",
							"type": "string"
						},
						{
							"internalType": "uint256",
							"name": "birth",
							"type": "uint256"
						}
					],
					"name": "setBirth",
					"outputs": [],
					"stateMutability": "nonpayable",
					"type": "function"
				}
			],
			"devdoc": {
				"kind": "dev",
				"methods": {},
				"version": 1
			},
			"evm": {
				"assembly": "    /* \"contracts/11_20.sol\":3211:3681  contract Quiz18 {... */\n  mstore(0x40, 0x80)\n  callvalue\n  dup1\n  iszero\n  tag_1\n  jumpi\n  0x00\n  dup1\n  revert\ntag_1:\n  pop\n  dataSize(sub_0)\n  dup1\n  dataOffset(sub_0)\n  0x00\n  codecopy\n  0x00\n  return\nstop\n\nsub_0: assembly {\n        /* \"contracts/11_20.sol\":3211:3681  contract Quiz18 {... */\n      mstore(0x40, 0x80)\n      callvalue\n      dup1\n      iszero\n      tag_1\n      jumpi\n      0x00\n      dup1\n      revert\n    tag_1:\n      pop\n      jumpi(tag_2, lt(calldatasize, 0x04))\n      shr(0xe0, calldataload(0x00))\n      dup1\n      0x3448b2e1\n      eq\n      tag_3\n      jumpi\n      dup1\n      0x458cd3bb\n      eq\n      tag_4\n      jumpi\n    tag_2:\n      0x00\n      dup1\n      revert\n        /* \"contracts/11_20.sol\":3577:3678  function getBirth(string memory name) public view returns(uint) {... */\n    tag_3:\n      tag_5\n      0x04\n      dup1\n      calldatasize\n      sub\n      dup2\n      add\n      swap1\n      tag_6\n      swap2\n      swap1\n      tag_7\n      jump\t// in\n    tag_6:\n      tag_8\n      jump\t// in\n    tag_5:\n      mload(0x40)\n      tag_9\n      swap2\n      swap1\n      tag_10\n      jump\t// in\n    tag_9:\n      mload(0x40)\n      dup1\n      swap2\n      sub\n      swap1\n      return\n        /* \"contracts/11_20.sol\":3474:3569  function setBirth(string memory name, uint birth) public {... */\n    tag_4:\n      tag_11\n      0x04\n      dup1\n      calldatasize\n      sub\n      dup2\n      add\n      swap1\n      tag_12\n      swap2\n      swap1\n      tag_13\n      jump\t// in\n    tag_12:\n      tag_14\n      jump\t// in\n    tag_11:\n      stop\n        /* \"contracts/11_20.sol\":3577:3678  function getBirth(string memory name) public view returns(uint) {... */\n    tag_8:\n        /* \"contracts/11_20.sol\":3635:3639  uint */\n      0x00\n        /* \"contracts/11_20.sol\":3659:3664  Birth */\n      dup1\n        /* \"contracts/11_20.sol\":3665:3669  name */\n      dup3\n        /* \"contracts/11_20.sol\":3659:3670  Birth[name] */\n      mload(0x40)\n      tag_16\n      swap2\n      swap1\n      tag_17\n      jump\t// in\n    tag_16:\n      swap1\n      dup2\n      mstore\n      0x20\n      add\n      mload(0x40)\n      dup1\n      swap2\n      sub\n      swap1\n      keccak256\n      sload\n        /* \"contracts/11_20.sol\":3652:3670  return Birth[name] */\n      swap1\n      pop\n        /* \"contracts/11_20.sol\":3577:3678  function getBirth(string memory name) public view returns(uint) {... */\n      swap2\n      swap1\n      pop\n      jump\t// out\n        /* \"contracts/11_20.sol\":3474:3569  function setBirth(string memory name, uint birth) public {... */\n    tag_14:\n        /* \"contracts/11_20.sol\":3556:3561  birth */\n      dup1\n        /* \"contracts/11_20.sol\":3542:3547  Birth */\n      0x00\n        /* \"contracts/11_20.sol\":3548:3552  name */\n      dup4\n        /* \"contracts/11_20.sol\":3542:3553  Birth[name] */\n      mload(0x40)\n      tag_19\n      swap2\n      swap1\n      tag_17\n      jump\t// in\n    tag_19:\n      swap1\n      dup2\n      mstore\n      0x20\n      add\n      mload(0x40)\n      dup1\n      swap2\n      sub\n      swap1\n      keccak256\n        /* \"contracts/11_20.sol\":3542:3561  Birth[name] = birth */\n      dup2\n      swap1\n      sstore\n      pop\n        /* \"contracts/11_20.sol\":3474:3569  function setBirth(string memory name, uint birth) public {... */\n      pop\n      pop\n      jump\t// out\n        /* \"#utility.yul\":7:82   */\n    tag_20:\n        /* \"#utility.yul\":40:46   */\n      0x00\n        /* \"#utility.yul\":73:75   */\n      0x40\n        /* \"#utility.yul\":67:76   */\n      mload\n        /* \"#utility.yul\":57:76   */\n      swap1\n      pop\n        /* \"#utility.yul\":7:82   */\n      swap1\n      jump\t// out\n        /* \"#utility.yul\":88:205   */\n    tag_21:\n        /* \"#utility.yul\":197:198   */\n      0x00\n        /* \"#utility.yul\":194:195   */\n      dup1\n        /* \"#utility.yul\":187:199   */\n      revert\n        /* \"#utility.yul\":211:328   */\n    tag_22:\n        /* \"#utility.yul\":320:321   */\n      0x00\n        /* \"#utility.yul\":317:318   */\n      dup1\n        /* \"#utility.yul\":310:322   */\n      revert\n        /* \"#utility.yul\":334:451   */\n    tag_23:\n        /* \"#utility.yul\":443:444   */\n      0x00\n        /* \"#utility.yul\":440:441   */\n      dup1\n        /* \"#utility.yul\":433:445   */\n      revert\n        /* \"#utility.yul\":457:574   */\n    tag_24:\n        /* \"#utility.yul\":566:567   */\n      0x00\n        /* \"#utility.yul\":563:564   */\n      dup1\n        /* \"#utility.yul\":556:568   */\n      revert\n        /* \"#utility.yul\":580:682   */\n    tag_25:\n        /* \"#utility.yul\":621:627   */\n      0x00\n        /* \"#utility.yul\":672:674   */\n      0x1f\n        /* \"#utility.yul\":668:675   */\n      not\n        /* \"#utility.yul\":663:665   */\n      0x1f\n        /* \"#utility.yul\":656:661   */\n      dup4\n        /* \"#utility.yul\":652:666   */\n      add\n        /* \"#utility.yul\":648:676   */\n      and\n        /* \"#utility.yul\":638:676   */\n      swap1\n      pop\n        /* \"#utility.yul\":580:682   */\n      swap2\n      swap1\n      pop\n      jump\t// out\n        /* \"#utility.yul\":688:868   */\n    tag_26:\n        /* \"#utility.yul\":736:813   */\n      0x4e487b7100000000000000000000000000000000000000000000000000000000\n        /* \"#utility.yul\":733:734   */\n      0x00\n        /* \"#utility.yul\":726:814   */\n      mstore\n        /* \"#utility.yul\":833:837   */\n      0x41\n        /* \"#utility.yul\":830:831   */\n      0x04\n        /* \"#utility.yul\":823:838   */\n      mstore\n        /* \"#utility.yul\":857:861   */\n      0x24\n        /* \"#utility.yul\":854:855   */\n      0x00\n        /* \"#utility.yul\":847:862   */\n      revert\n        /* \"#utility.yul\":874:1155   */\n    tag_27:\n        /* \"#utility.yul\":957:984   */\n      tag_50\n        /* \"#utility.yul\":979:983   */\n      dup3\n        /* \"#utility.yul\":957:984   */\n      tag_25\n      jump\t// in\n    tag_50:\n        /* \"#utility.yul\":949:955   */\n      dup2\n        /* \"#utility.yul\":945:985   */\n      add\n        /* \"#utility.yul\":1087:1093   */\n      dup2\n        /* \"#utility.yul\":1075:1085   */\n      dup2\n        /* \"#utility.yul\":1072:1094   */\n      lt\n        /* \"#utility.yul\":1051:1069   */\n      0xffffffffffffffff\n        /* \"#utility.yul\":1039:1049   */\n      dup3\n        /* \"#utility.yul\":1036:1070   */\n      gt\n        /* \"#utility.yul\":1033:1095   */\n      or\n        /* \"#utility.yul\":1030:1118   */\n      iszero\n      tag_51\n      jumpi\n        /* \"#utility.yul\":1098:1116   */\n      tag_52\n      tag_26\n      jump\t// in\n    tag_52:\n        /* \"#utility.yul\":1030:1118   */\n    tag_51:\n        /* \"#utility.yul\":1138:1148   */\n      dup1\n        /* \"#utility.yul\":1134:1136   */\n      0x40\n        /* \"#utility.yul\":1127:1149   */\n      mstore\n        /* \"#utility.yul\":917:1155   */\n      pop\n        /* \"#utility.yul\":874:1155   */\n      pop\n      pop\n      jump\t// out\n        /* \"#utility.yul\":1161:1290   */\n    tag_28:\n        /* \"#utility.yul\":1195:1201   */\n      0x00\n        /* \"#utility.yul\":1222:1242   */\n      tag_54\n      tag_20\n      jump\t// in\n    tag_54:\n        /* \"#utility.yul\":1212:1242   */\n      swap1\n      pop\n        /* \"#utility.yul\":1251:1284   */\n      tag_55\n        /* \"#utility.yul\":1279:1283   */\n      dup3\n        /* \"#utility.yul\":1271:1277   */\n      dup3\n        /* \"#utility.yul\":1251:1284   */\n      tag_27\n      jump\t// in\n    tag_55:\n        /* \"#utility.yul\":1161:1290   */\n      swap2\n      swap1\n      pop\n      jump\t// out\n        /* \"#utility.yul\":1296:1604   */\n    tag_29:\n        /* \"#utility.yul\":1358:1362   */\n      0x00\n        /* \"#utility.yul\":1448:1466   */\n      0xffffffffffffffff\n        /* \"#utility.yul\":1440:1446   */\n      dup3\n        /* \"#utility.yul\":1437:1467   */\n      gt\n        /* \"#utility.yul\":1434:1490   */\n      iszero\n      tag_57\n      jumpi\n        /* \"#utility.yul\":1470:1488   */\n      tag_58\n      tag_26\n      jump\t// in\n    tag_58:\n        /* \"#utility.yul\":1434:1490   */\n    tag_57:\n        /* \"#utility.yul\":1508:1537   */\n      tag_59\n        /* \"#utility.yul\":1530:1536   */\n      dup3\n        /* \"#utility.yul\":1508:1537   */\n      tag_25\n      jump\t// in\n    tag_59:\n        /* \"#utility.yul\":1500:1537   */\n      swap1\n      pop\n        /* \"#utility.yul\":1592:1596   */\n      0x20\n        /* \"#utility.yul\":1586:1590   */\n      dup2\n        /* \"#utility.yul\":1582:1597   */\n      add\n        /* \"#utility.yul\":1574:1597   */\n      swap1\n      pop\n        /* \"#utility.yul\":1296:1604   */\n      swap2\n      swap1\n      pop\n      jump\t// out\n        /* \"#utility.yul\":1610:1756   */\n    tag_30:\n        /* \"#utility.yul\":1707:1713   */\n      dup3\n        /* \"#utility.yul\":1702:1705   */\n      dup2\n        /* \"#utility.yul\":1697:1700   */\n      dup4\n        /* \"#utility.yul\":1684:1714   */\n      calldatacopy\n        /* \"#utility.yul\":1748:1749   */\n      0x00\n        /* \"#utility.yul\":1739:1745   */\n      dup4\n        /* \"#utility.yul\":1734:1737   */\n      dup4\n        /* \"#utility.yul\":1730:1746   */\n      add\n        /* \"#utility.yul\":1723:1750   */\n      mstore\n        /* \"#utility.yul\":1610:1756   */\n      pop\n      pop\n      pop\n      jump\t// out\n        /* \"#utility.yul\":1762:2187   */\n    tag_31:\n        /* \"#utility.yul\":1840:1845   */\n      0x00\n        /* \"#utility.yul\":1865:1931   */\n      tag_62\n        /* \"#utility.yul\":1881:1930   */\n      tag_63\n        /* \"#utility.yul\":1923:1929   */\n      dup5\n        /* \"#utility.yul\":1881:1930   */\n      tag_29\n      jump\t// in\n    tag_63:\n        /* \"#utility.yul\":1865:1931   */\n      tag_28\n      jump\t// in\n    tag_62:\n        /* \"#utility.yul\":1856:1931   */\n      swap1\n      pop\n        /* \"#utility.yul\":1954:1960   */\n      dup3\n        /* \"#utility.yul\":1947:1952   */\n      dup2\n        /* \"#utility.yul\":1940:1961   */\n      mstore\n        /* \"#utility.yul\":1992:1996   */\n      0x20\n        /* \"#utility.yul\":1985:1990   */\n      dup2\n        /* \"#utility.yul\":1981:1997   */\n      add\n        /* \"#utility.yul\":2030:2033   */\n      dup5\n        /* \"#utility.yul\":2021:2027   */\n      dup5\n        /* \"#utility.yul\":2016:2019   */\n      dup5\n        /* \"#utility.yul\":2012:2028   */\n      add\n        /* \"#utility.yul\":2009:2034   */\n      gt\n        /* \"#utility.yul\":2006:2118   */\n      iszero\n      tag_64\n      jumpi\n        /* \"#utility.yul\":2037:2116   */\n      tag_65\n      tag_24\n      jump\t// in\n    tag_65:\n        /* \"#utility.yul\":2006:2118   */\n    tag_64:\n        /* \"#utility.yul\":2127:2181   */\n      tag_66\n        /* \"#utility.yul\":2174:2180   */\n      dup5\n        /* \"#utility.yul\":2169:2172   */\n      dup3\n        /* \"#utility.yul\":2164:2167   */\n      dup6\n        /* \"#utility.yul\":2127:2181   */\n      tag_30\n      jump\t// in\n    tag_66:\n        /* \"#utility.yul\":1846:2187   */\n      pop\n        /* \"#utility.yul\":1762:2187   */\n      swap4\n      swap3\n      pop\n      pop\n      pop\n      jump\t// out\n        /* \"#utility.yul\":2207:2547   */\n    tag_32:\n        /* \"#utility.yul\":2263:2268   */\n      0x00\n        /* \"#utility.yul\":2312:2315   */\n      dup3\n        /* \"#utility.yul\":2305:2309   */\n      0x1f\n        /* \"#utility.yul\":2297:2303   */\n      dup4\n        /* \"#utility.yul\":2293:2310   */\n      add\n        /* \"#utility.yul\":2289:2316   */\n      slt\n        /* \"#utility.yul\":2279:2401   */\n      tag_68\n      jumpi\n        /* \"#utility.yul\":2320:2399   */\n      tag_69\n      tag_23\n      jump\t// in\n    tag_69:\n        /* \"#utility.yul\":2279:2401   */\n    tag_68:\n        /* \"#utility.yul\":2437:2443   */\n      dup2\n        /* \"#utility.yul\":2424:2444   */\n      calldataload\n        /* \"#utility.yul\":2462:2541   */\n      tag_70\n        /* \"#utility.yul\":2537:2540   */\n      dup5\n        /* \"#utility.yul\":2529:2535   */\n      dup3\n        /* \"#utility.yul\":2522:2526   */\n      0x20\n        /* \"#utility.yul\":2514:2520   */\n      dup7\n        /* \"#utility.yul\":2510:2527   */\n      add\n        /* \"#utility.yul\":2462:2541   */\n      tag_31\n      jump\t// in\n    tag_70:\n        /* \"#utility.yul\":2453:2541   */\n      swap2\n      pop\n        /* \"#utility.yul\":2269:2547   */\n      pop\n        /* \"#utility.yul\":2207:2547   */\n      swap3\n      swap2\n      pop\n      pop\n      jump\t// out\n        /* \"#utility.yul\":2553:3062   */\n    tag_7:\n        /* \"#utility.yul\":2622:2628   */\n      0x00\n        /* \"#utility.yul\":2671:2673   */\n      0x20\n        /* \"#utility.yul\":2659:2668   */\n      dup3\n        /* \"#utility.yul\":2650:2657   */\n      dup5\n        /* \"#utility.yul\":2646:2669   */\n      sub\n        /* \"#utility.yul\":2642:2674   */\n      slt\n        /* \"#utility.yul\":2639:2758   */\n      iszero\n      tag_72\n      jumpi\n        /* \"#utility.yul\":2677:2756   */\n      tag_73\n      tag_21\n      jump\t// in\n    tag_73:\n        /* \"#utility.yul\":2639:2758   */\n    tag_72:\n        /* \"#utility.yul\":2825:2826   */\n      0x00\n        /* \"#utility.yul\":2814:2823   */\n      dup3\n        /* \"#utility.yul\":2810:2827   */\n      add\n        /* \"#utility.yul\":2797:2828   */\n      calldataload\n        /* \"#utility.yul\":2855:2873   */\n      0xffffffffffffffff\n        /* \"#utility.yul\":2847:2853   */\n      dup2\n        /* \"#utility.yul\":2844:2874   */\n      gt\n        /* \"#utility.yul\":2841:2958   */\n      iszero\n      tag_74\n      jumpi\n        /* \"#utility.yul\":2877:2956   */\n      tag_75\n      tag_22\n      jump\t// in\n    tag_75:\n        /* \"#utility.yul\":2841:2958   */\n    tag_74:\n        /* \"#utility.yul\":2982:3045   */\n      tag_76\n        /* \"#utility.yul\":3037:3044   */\n      dup5\n        /* \"#utility.yul\":3028:3034   */\n      dup3\n        /* \"#utility.yul\":3017:3026   */\n      dup6\n        /* \"#utility.yul\":3013:3035   */\n      add\n        /* \"#utility.yul\":2982:3045   */\n      tag_32\n      jump\t// in\n    tag_76:\n        /* \"#utility.yul\":2972:3045   */\n      swap2\n      pop\n        /* \"#utility.yul\":2768:3055   */\n      pop\n        /* \"#utility.yul\":2553:3062   */\n      swap3\n      swap2\n      pop\n      pop\n      jump\t// out\n        /* \"#utility.yul\":3068:3145   */\n    tag_33:\n        /* \"#utility.yul\":3105:3112   */\n      0x00\n        /* \"#utility.yul\":3134:3139   */\n      dup2\n        /* \"#utility.yul\":3123:3139   */\n      swap1\n      pop\n        /* \"#utility.yul\":3068:3145   */\n      swap2\n      swap1\n      pop\n      jump\t// out\n        /* \"#utility.yul\":3151:3269   */\n    tag_34:\n        /* \"#utility.yul\":3238:3262   */\n      tag_79\n        /* \"#utility.yul\":3256:3261   */\n      dup2\n        /* \"#utility.yul\":3238:3262   */\n      tag_33\n      jump\t// in\n    tag_79:\n        /* \"#utility.yul\":3233:3236   */\n      dup3\n        /* \"#utility.yul\":3226:3263   */\n      mstore\n        /* \"#utility.yul\":3151:3269   */\n      pop\n      pop\n      jump\t// out\n        /* \"#utility.yul\":3275:3497   */\n    tag_10:\n        /* \"#utility.yul\":3368:3372   */\n      0x00\n        /* \"#utility.yul\":3406:3408   */\n      0x20\n        /* \"#utility.yul\":3395:3404   */\n      dup3\n        /* \"#utility.yul\":3391:3409   */\n      add\n        /* \"#utility.yul\":3383:3409   */\n      swap1\n      pop\n        /* \"#utility.yul\":3419:3490   */\n      tag_81\n        /* \"#utility.yul\":3487:3488   */\n      0x00\n        /* \"#utility.yul\":3476:3485   */\n      dup4\n        /* \"#utility.yul\":3472:3489   */\n      add\n        /* \"#utility.yul\":3463:3469   */\n      dup5\n        /* \"#utility.yul\":3419:3490   */\n      tag_34\n      jump\t// in\n    tag_81:\n        /* \"#utility.yul\":3275:3497   */\n      swap3\n      swap2\n      pop\n      pop\n      jump\t// out\n        /* \"#utility.yul\":3503:3625   */\n    tag_35:\n        /* \"#utility.yul\":3576:3600   */\n      tag_83\n        /* \"#utility.yul\":3594:3599   */\n      dup2\n        /* \"#utility.yul\":3576:3600   */\n      tag_33\n      jump\t// in\n    tag_83:\n        /* \"#utility.yul\":3569:3574   */\n      dup2\n        /* \"#utility.yul\":3566:3601   */\n      eq\n        /* \"#utility.yul\":3556:3619   */\n      tag_84\n      jumpi\n        /* \"#utility.yul\":3615:3616   */\n      0x00\n        /* \"#utility.yul\":3612:3613   */\n      dup1\n        /* \"#utility.yul\":3605:3617   */\n      revert\n        /* \"#utility.yul\":3556:3619   */\n    tag_84:\n        /* \"#utility.yul\":3503:3625   */\n      pop\n      jump\t// out\n        /* \"#utility.yul\":3631:3770   */\n    tag_36:\n        /* \"#utility.yul\":3677:3682   */\n      0x00\n        /* \"#utility.yul\":3715:3721   */\n      dup2\n        /* \"#utility.yul\":3702:3722   */\n      calldataload\n        /* \"#utility.yul\":3693:3722   */\n      swap1\n      pop\n        /* \"#utility.yul\":3731:3764   */\n      tag_86\n        /* \"#utility.yul\":3758:3763   */\n      dup2\n        /* \"#utility.yul\":3731:3764   */\n      tag_35\n      jump\t// in\n    tag_86:\n        /* \"#utility.yul\":3631:3770   */\n      swap3\n      swap2\n      pop\n      pop\n      jump\t// out\n        /* \"#utility.yul\":3776:4430   */\n    tag_13:\n        /* \"#utility.yul\":3854:3860   */\n      0x00\n        /* \"#utility.yul\":3862:3868   */\n      dup1\n        /* \"#utility.yul\":3911:3913   */\n      0x40\n        /* \"#utility.yul\":3899:3908   */\n      dup4\n        /* \"#utility.yul\":3890:3897   */\n      dup6\n        /* \"#utility.yul\":3886:3909   */\n      sub\n        /* \"#utility.yul\":3882:3914   */\n      slt\n        /* \"#utility.yul\":3879:3998   */\n      iszero\n      tag_88\n      jumpi\n        /* \"#utility.yul\":3917:3996   */\n      tag_89\n      tag_21\n      jump\t// in\n    tag_89:\n        /* \"#utility.yul\":3879:3998   */\n    tag_88:\n        /* \"#utility.yul\":4065:4066   */\n      0x00\n        /* \"#utility.yul\":4054:4063   */\n      dup4\n        /* \"#utility.yul\":4050:4067   */\n      add\n        /* \"#utility.yul\":4037:4068   */\n      calldataload\n        /* \"#utility.yul\":4095:4113   */\n      0xffffffffffffffff\n        /* \"#utility.yul\":4087:4093   */\n      dup2\n        /* \"#utility.yul\":4084:4114   */\n      gt\n        /* \"#utility.yul\":4081:4198   */\n      iszero\n      tag_90\n      jumpi\n        /* \"#utility.yul\":4117:4196   */\n      tag_91\n      tag_22\n      jump\t// in\n    tag_91:\n        /* \"#utility.yul\":4081:4198   */\n    tag_90:\n        /* \"#utility.yul\":4222:4285   */\n      tag_92\n        /* \"#utility.yul\":4277:4284   */\n      dup6\n        /* \"#utility.yul\":4268:4274   */\n      dup3\n        /* \"#utility.yul\":4257:4266   */\n      dup7\n        /* \"#utility.yul\":4253:4275   */\n      add\n        /* \"#utility.yul\":4222:4285   */\n      tag_32\n      jump\t// in\n    tag_92:\n        /* \"#utility.yul\":4212:4285   */\n      swap3\n      pop\n        /* \"#utility.yul\":4008:4295   */\n      pop\n        /* \"#utility.yul\":4334:4336   */\n      0x20\n        /* \"#utility.yul\":4360:4413   */\n      tag_93\n        /* \"#utility.yul\":4405:4412   */\n      dup6\n        /* \"#utility.yul\":4396:4402   */\n      dup3\n        /* \"#utility.yul\":4385:4394   */\n      dup7\n        /* \"#utility.yul\":4381:4403   */\n      add\n        /* \"#utility.yul\":4360:4413   */\n      tag_36\n      jump\t// in\n    tag_93:\n        /* \"#utility.yul\":4350:4413   */\n      swap2\n      pop\n        /* \"#utility.yul\":4305:4423   */\n      pop\n        /* \"#utility.yul\":3776:4430   */\n      swap3\n      pop\n      swap3\n      swap1\n      pop\n      jump\t// out\n        /* \"#utility.yul\":4436:4535   */\n    tag_37:\n        /* \"#utility.yul\":4488:4494   */\n      0x00\n        /* \"#utility.yul\":4522:4527   */\n      dup2\n        /* \"#utility.yul\":4516:4528   */\n      mload\n        /* \"#utility.yul\":4506:4528   */\n      swap1\n      pop\n        /* \"#utility.yul\":4436:4535   */\n      swap2\n      swap1\n      pop\n      jump\t// out\n        /* \"#utility.yul\":4541:4689   */\n    tag_38:\n        /* \"#utility.yul\":4643:4654   */\n      0x00\n        /* \"#utility.yul\":4680:4683   */\n      dup2\n        /* \"#utility.yul\":4665:4683   */\n      swap1\n      pop\n        /* \"#utility.yul\":4541:4689   */\n      swap3\n      swap2\n      pop\n      pop\n      jump\t// out\n        /* \"#utility.yul\":4695:4941   */\n    tag_39:\n        /* \"#utility.yul\":4776:4777   */\n      0x00\n        /* \"#utility.yul\":4786:4899   */\n    tag_97:\n        /* \"#utility.yul\":4800:4806   */\n      dup4\n        /* \"#utility.yul\":4797:4798   */\n      dup2\n        /* \"#utility.yul\":4794:4807   */\n      lt\n        /* \"#utility.yul\":4786:4899   */\n      iszero\n      tag_99\n      jumpi\n        /* \"#utility.yul\":4885:4886   */\n      dup1\n        /* \"#utility.yul\":4880:4883   */\n      dup3\n        /* \"#utility.yul\":4876:4887   */\n      add\n        /* \"#utility.yul\":4870:4888   */\n      mload\n        /* \"#utility.yul\":4866:4867   */\n      dup2\n        /* \"#utility.yul\":4861:4864   */\n      dup5\n        /* \"#utility.yul\":4857:4868   */\n      add\n        /* \"#utility.yul\":4850:4889   */\n      mstore\n        /* \"#utility.yul\":4822:4824   */\n      0x20\n        /* \"#utility.yul\":4819:4820   */\n      dup2\n        /* \"#utility.yul\":4815:4825   */\n      add\n        /* \"#utility.yul\":4810:4825   */\n      swap1\n      pop\n        /* \"#utility.yul\":4786:4899   */\n      jump(tag_97)\n    tag_99:\n        /* \"#utility.yul\":4933:4934   */\n      0x00\n        /* \"#utility.yul\":4924:4930   */\n      dup5\n        /* \"#utility.yul\":4919:4922   */\n      dup5\n        /* \"#utility.yul\":4915:4931   */\n      add\n        /* \"#utility.yul\":4908:4935   */\n      mstore\n        /* \"#utility.yul\":4757:4941   */\n      pop\n        /* \"#utility.yul\":4695:4941   */\n      pop\n      pop\n      pop\n      jump\t// out\n        /* \"#utility.yul\":4947:5337   */\n    tag_40:\n        /* \"#utility.yul\":5053:5056   */\n      0x00\n        /* \"#utility.yul\":5081:5120   */\n      tag_101\n        /* \"#utility.yul\":5114:5119   */\n      dup3\n        /* \"#utility.yul\":5081:5120   */\n      tag_37\n      jump\t// in\n    tag_101:\n        /* \"#utility.yul\":5136:5225   */\n      tag_102\n        /* \"#utility.yul\":5218:5224   */\n      dup2\n        /* \"#utility.yul\":5213:5216   */\n      dup6\n        /* \"#utility.yul\":5136:5225   */\n      tag_38\n      jump\t// in\n    tag_102:\n        /* \"#utility.yul\":5129:5225   */\n      swap4\n      pop\n        /* \"#utility.yul\":5234:5299   */\n      tag_103\n        /* \"#utility.yul\":5292:5298   */\n      dup2\n        /* \"#utility.yul\":5287:5290   */\n      dup6\n        /* \"#utility.yul\":5280:5284   */\n      0x20\n        /* \"#utility.yul\":5273:5278   */\n      dup7\n        /* \"#utility.yul\":5269:5285   */\n      add\n        /* \"#utility.yul\":5234:5299   */\n      tag_39\n      jump\t// in\n    tag_103:\n        /* \"#utility.yul\":5324:5330   */\n      dup1\n        /* \"#utility.yul\":5319:5322   */\n      dup5\n        /* \"#utility.yul\":5315:5331   */\n      add\n        /* \"#utility.yul\":5308:5331   */\n      swap2\n      pop\n        /* \"#utility.yul\":5057:5337   */\n      pop\n        /* \"#utility.yul\":4947:5337   */\n      swap3\n      swap2\n      pop\n      pop\n      jump\t// out\n        /* \"#utility.yul\":5343:5618   */\n    tag_17:\n        /* \"#utility.yul\":5475:5478   */\n      0x00\n        /* \"#utility.yul\":5497:5592   */\n      tag_105\n        /* \"#utility.yul\":5588:5591   */\n      dup3\n        /* \"#utility.yul\":5579:5585   */\n      dup5\n        /* \"#utility.yul\":5497:5592   */\n      tag_40\n      jump\t// in\n    tag_105:\n        /* \"#utility.yul\":5490:5592   */\n      swap2\n      pop\n        /* \"#utility.yul\":5609:5612   */\n      dup2\n        /* \"#utility.yul\":5602:5612   */\n      swap1\n      pop\n        /* \"#utility.yul\":5343:5618   */\n      swap3\n      swap2\n      pop\n      pop\n      jump\t// out\n\n    auxdata: 0xa2646970667358221220cec282752d29738dd5d0fae5647be92c1d91f09863d2e8bf88a0e55a333c862e64736f6c63430008120033\n}\n",
				"bytecode": {
					"linkReferences": {},
					"object": "608060405234801561001057600080fd5b506103f2806100206000396000f3fe608060405234801561001057600080fd5b50600436106100365760003560e01c80633448b2e11461003b578063458cd3bb1461006b575b600080fd5b6100556004803603810190610050919061022f565b610087565b6040516100629190610291565b60405180910390f35b610085600480360381019061008091906102d8565b6100ae565b005b6000808260405161009891906103a5565b9081526020016040518091039020549050919050565b806000836040516100bf91906103a5565b9081526020016040518091039020819055505050565b6000604051905090565b600080fd5b600080fd5b600080fd5b600080fd5b6000601f19601f8301169050919050565b7f4e487b7100000000000000000000000000000000000000000000000000000000600052604160045260246000fd5b61013c826100f3565b810181811067ffffffffffffffff8211171561015b5761015a610104565b5b80604052505050565b600061016e6100d5565b905061017a8282610133565b919050565b600067ffffffffffffffff82111561019a57610199610104565b5b6101a3826100f3565b9050602081019050919050565b82818337600083830152505050565b60006101d26101cd8461017f565b610164565b9050828152602081018484840111156101ee576101ed6100ee565b5b6101f98482856101b0565b509392505050565b600082601f830112610216576102156100e9565b5b81356102268482602086016101bf565b91505092915050565b600060208284031215610245576102446100df565b5b600082013567ffffffffffffffff811115610263576102626100e4565b5b61026f84828501610201565b91505092915050565b6000819050919050565b61028b81610278565b82525050565b60006020820190506102a66000830184610282565b92915050565b6102b581610278565b81146102c057600080fd5b50565b6000813590506102d2816102ac565b92915050565b600080604083850312156102ef576102ee6100df565b5b600083013567ffffffffffffffff81111561030d5761030c6100e4565b5b61031985828601610201565b925050602061032a858286016102c3565b9150509250929050565b600081519050919050565b600081905092915050565b60005b8381101561036857808201518184015260208101905061034d565b60008484015250505050565b600061037f82610334565b610389818561033f565b935061039981856020860161034a565b80840191505092915050565b60006103b18284610374565b91508190509291505056fea2646970667358221220cec282752d29738dd5d0fae5647be92c1d91f09863d2e8bf88a0e55a333c862e64736f6c63430008120033",
					"opcodes": "PUSH1 0x80 PUSH1 0x40 MSTORE CALLVALUE DUP1 ISZERO PUSH2 0x10 JUMPI PUSH1 0x0 DUP1 REVERT JUMPDEST POP PUSH2 0x3F2 DUP1 PUSH2 0x20 PUSH1 0x0 CODECOPY PUSH1 0x0 RETURN INVALID PUSH1 0x80 PUSH1 0x40 MSTORE CALLVALUE DUP1 ISZERO PUSH2 0x10 JUMPI PUSH1 0x0 DUP1 REVERT JUMPDEST POP PUSH1 0x4 CALLDATASIZE LT PUSH2 0x36 JUMPI PUSH1 0x0 CALLDATALOAD PUSH1 0xE0 SHR DUP1 PUSH4 0x3448B2E1 EQ PUSH2 0x3B JUMPI DUP1 PUSH4 0x458CD3BB EQ PUSH2 0x6B JUMPI JUMPDEST PUSH1 0x0 DUP1 REVERT JUMPDEST PUSH2 0x55 PUSH1 0x4 DUP1 CALLDATASIZE SUB DUP2 ADD SWAP1 PUSH2 0x50 SWAP2 SWAP1 PUSH2 0x22F JUMP JUMPDEST PUSH2 0x87 JUMP JUMPDEST PUSH1 0x40 MLOAD PUSH2 0x62 SWAP2 SWAP1 PUSH2 0x291 JUMP JUMPDEST PUSH1 0x40 MLOAD DUP1 SWAP2 SUB SWAP1 RETURN JUMPDEST PUSH2 0x85 PUSH1 0x4 DUP1 CALLDATASIZE SUB DUP2 ADD SWAP1 PUSH2 0x80 SWAP2 SWAP1 PUSH2 0x2D8 JUMP JUMPDEST PUSH2 0xAE JUMP JUMPDEST STOP JUMPDEST PUSH1 0x0 DUP1 DUP3 PUSH1 0x40 MLOAD PUSH2 0x98 SWAP2 SWAP1 PUSH2 0x3A5 JUMP JUMPDEST SWAP1 DUP2 MSTORE PUSH1 0x20 ADD PUSH1 0x40 MLOAD DUP1 SWAP2 SUB SWAP1 KECCAK256 SLOAD SWAP1 POP SWAP2 SWAP1 POP JUMP JUMPDEST DUP1 PUSH1 0x0 DUP4 PUSH1 0x40 MLOAD PUSH2 0xBF SWAP2 SWAP1 PUSH2 0x3A5 JUMP JUMPDEST SWAP1 DUP2 MSTORE PUSH1 0x20 ADD PUSH1 0x40 MLOAD DUP1 SWAP2 SUB SWAP1 KECCAK256 DUP2 SWAP1 SSTORE POP POP POP JUMP JUMPDEST PUSH1 0x0 PUSH1 0x40 MLOAD SWAP1 POP SWAP1 JUMP JUMPDEST PUSH1 0x0 DUP1 REVERT JUMPDEST PUSH1 0x0 DUP1 REVERT JUMPDEST PUSH1 0x0 DUP1 REVERT JUMPDEST PUSH1 0x0 DUP1 REVERT JUMPDEST PUSH1 0x0 PUSH1 0x1F NOT PUSH1 0x1F DUP4 ADD AND SWAP1 POP SWAP2 SWAP1 POP JUMP JUMPDEST PUSH32 0x4E487B7100000000000000000000000000000000000000000000000000000000 PUSH1 0x0 MSTORE PUSH1 0x41 PUSH1 0x4 MSTORE PUSH1 0x24 PUSH1 0x0 REVERT JUMPDEST PUSH2 0x13C DUP3 PUSH2 0xF3 JUMP JUMPDEST DUP2 ADD DUP2 DUP2 LT PUSH8 0xFFFFFFFFFFFFFFFF DUP3 GT OR ISZERO PUSH2 0x15B JUMPI PUSH2 0x15A PUSH2 0x104 JUMP JUMPDEST JUMPDEST DUP1 PUSH1 0x40 MSTORE POP POP POP JUMP JUMPDEST PUSH1 0x0 PUSH2 0x16E PUSH2 0xD5 JUMP JUMPDEST SWAP1 POP PUSH2 0x17A DUP3 DUP3 PUSH2 0x133 JUMP JUMPDEST SWAP2 SWAP1 POP JUMP JUMPDEST PUSH1 0x0 PUSH8 0xFFFFFFFFFFFFFFFF DUP3 GT ISZERO PUSH2 0x19A JUMPI PUSH2 0x199 PUSH2 0x104 JUMP JUMPDEST JUMPDEST PUSH2 0x1A3 DUP3 PUSH2 0xF3 JUMP JUMPDEST SWAP1 POP PUSH1 0x20 DUP2 ADD SWAP1 POP SWAP2 SWAP1 POP JUMP JUMPDEST DUP3 DUP2 DUP4 CALLDATACOPY PUSH1 0x0 DUP4 DUP4 ADD MSTORE POP POP POP JUMP JUMPDEST PUSH1 0x0 PUSH2 0x1D2 PUSH2 0x1CD DUP5 PUSH2 0x17F JUMP JUMPDEST PUSH2 0x164 JUMP JUMPDEST SWAP1 POP DUP3 DUP2 MSTORE PUSH1 0x20 DUP2 ADD DUP5 DUP5 DUP5 ADD GT ISZERO PUSH2 0x1EE JUMPI PUSH2 0x1ED PUSH2 0xEE JUMP JUMPDEST JUMPDEST PUSH2 0x1F9 DUP5 DUP3 DUP6 PUSH2 0x1B0 JUMP JUMPDEST POP SWAP4 SWAP3 POP POP POP JUMP JUMPDEST PUSH1 0x0 DUP3 PUSH1 0x1F DUP4 ADD SLT PUSH2 0x216 JUMPI PUSH2 0x215 PUSH2 0xE9 JUMP JUMPDEST JUMPDEST DUP2 CALLDATALOAD PUSH2 0x226 DUP5 DUP3 PUSH1 0x20 DUP7 ADD PUSH2 0x1BF JUMP JUMPDEST SWAP2 POP POP SWAP3 SWAP2 POP POP JUMP JUMPDEST PUSH1 0x0 PUSH1 0x20 DUP3 DUP5 SUB SLT ISZERO PUSH2 0x245 JUMPI PUSH2 0x244 PUSH2 0xDF JUMP JUMPDEST JUMPDEST PUSH1 0x0 DUP3 ADD CALLDATALOAD PUSH8 0xFFFFFFFFFFFFFFFF DUP2 GT ISZERO PUSH2 0x263 JUMPI PUSH2 0x262 PUSH2 0xE4 JUMP JUMPDEST JUMPDEST PUSH2 0x26F DUP5 DUP3 DUP6 ADD PUSH2 0x201 JUMP JUMPDEST SWAP2 POP POP SWAP3 SWAP2 POP POP JUMP JUMPDEST PUSH1 0x0 DUP2 SWAP1 POP SWAP2 SWAP1 POP JUMP JUMPDEST PUSH2 0x28B DUP2 PUSH2 0x278 JUMP JUMPDEST DUP3 MSTORE POP POP JUMP JUMPDEST PUSH1 0x0 PUSH1 0x20 DUP3 ADD SWAP1 POP PUSH2 0x2A6 PUSH1 0x0 DUP4 ADD DUP5 PUSH2 0x282 JUMP JUMPDEST SWAP3 SWAP2 POP POP JUMP JUMPDEST PUSH2 0x2B5 DUP2 PUSH2 0x278 JUMP JUMPDEST DUP2 EQ PUSH2 0x2C0 JUMPI PUSH1 0x0 DUP1 REVERT JUMPDEST POP JUMP JUMPDEST PUSH1 0x0 DUP2 CALLDATALOAD SWAP1 POP PUSH2 0x2D2 DUP2 PUSH2 0x2AC JUMP JUMPDEST SWAP3 SWAP2 POP POP JUMP JUMPDEST PUSH1 0x0 DUP1 PUSH1 0x40 DUP4 DUP6 SUB SLT ISZERO PUSH2 0x2EF JUMPI PUSH2 0x2EE PUSH2 0xDF JUMP JUMPDEST JUMPDEST PUSH1 0x0 DUP4 ADD CALLDATALOAD PUSH8 0xFFFFFFFFFFFFFFFF DUP2 GT ISZERO PUSH2 0x30D JUMPI PUSH2 0x30C PUSH2 0xE4 JUMP JUMPDEST JUMPDEST PUSH2 0x319 DUP6 DUP3 DUP7 ADD PUSH2 0x201 JUMP JUMPDEST SWAP3 POP POP PUSH1 0x20 PUSH2 0x32A DUP6 DUP3 DUP7 ADD PUSH2 0x2C3 JUMP JUMPDEST SWAP2 POP POP SWAP3 POP SWAP3 SWAP1 POP JUMP JUMPDEST PUSH1 0x0 DUP2 MLOAD SWAP1 POP SWAP2 SWAP1 POP JUMP JUMPDEST PUSH1 0x0 DUP2 SWAP1 POP SWAP3 SWAP2 POP POP JUMP JUMPDEST PUSH1 0x0 JUMPDEST DUP4 DUP2 LT ISZERO PUSH2 0x368 JUMPI DUP1 DUP3 ADD MLOAD DUP2 DUP5 ADD MSTORE PUSH1 0x20 DUP2 ADD SWAP1 POP PUSH2 0x34D JUMP JUMPDEST PUSH1 0x0 DUP5 DUP5 ADD MSTORE POP POP POP POP JUMP JUMPDEST PUSH1 0x0 PUSH2 0x37F DUP3 PUSH2 0x334 JUMP JUMPDEST PUSH2 0x389 DUP2 DUP6 PUSH2 0x33F JUMP JUMPDEST SWAP4 POP PUSH2 0x399 DUP2 DUP6 PUSH1 0x20 DUP7 ADD PUSH2 0x34A JUMP JUMPDEST DUP1 DUP5 ADD SWAP2 POP POP SWAP3 SWAP2 POP POP JUMP JUMPDEST PUSH1 0x0 PUSH2 0x3B1 DUP3 DUP5 PUSH2 0x374 JUMP JUMPDEST SWAP2 POP DUP2 SWAP1 POP SWAP3 SWAP2 POP POP JUMP INVALID LOG2 PUSH5 0x6970667358 0x22 SLT KECCAK256 0xCE 0xC2 DUP3 PUSH22 0x2D29738DD5D0FAE5647BE92C1D91F09863D2E8BF88A0 0xE5 GAS CALLER EXTCODECOPY DUP7 0x2E PUSH5 0x736F6C6343 STOP ADDMOD SLT STOP CALLER "
				},
				"gasEstimates": {
					"creation": {
						"codeDepositCost": "202000",
						"executionCost": "245",
						"totalCost": "202245"
					},
					"external": {
						"getBirth(string)": "infinite",
						"setBirth(string,uint256)": "infinite"
					}
				},
				"methodIdentifiers": {
					"getBirth(string)": "3448b2e1",
					"setBirth(string,uint256)": "458cd3bb"
				}
			},
			"storageLayout": {
				"storage": [
					{
						"astId": 259,
						"contract": "contracts/11_20.sol:Quiz18",
						"label": "Birth",
						"offset": 0,
						"slot": "0",
						"type": "t_mapping(t_string_memory_ptr,t_uint256)"
					}
				],
				"types": {
					"t_mapping(t_string_memory_ptr,t_uint256)": {
						"encoding": "mapping",
						"key": "t_string_memory_ptr",
						"label": "mapping(string => uint256)",
						"numberOfBytes": "32",
						"value": "t_uint256"
					},
					"t_string_memory_ptr": {
						"encoding": "bytes",
						"label": "string",
						"numberOfBytes": "32"
					},
					"t_uint256": {
						"encoding": "inplace",
						"label": "uint256",
						"numberOfBytes": "32"
					}
				}
			},
			"userdoc": {
				"kind": "user",
				"methods": {},
				"version": 1
			}
		}
	}
}