{
	"contracts/61_70.sol": {
		"Quiz62": {
			"abi": [
				{
					"inputs": [
						{
							"internalType": "uint256",
							"name": "a",
							"type": "uint256"
						},
						{
							"internalType": "uint256",
							"name": "b",
							"type": "uint256"
						}
					],
					"name": "AB",
					"outputs": [
						{
							"internalType": "uint256",
							"name": "",
							"type": "uint256"
						}
					],
					"stateMutability": "pure",
					"type": "function"
				},
				{
					"inputs": [
						{
							"internalType": "uint256",
							"name": "a",
							"type": "uint256"
						},
						{
							"internalType": "uint256",
							"name": "b",
							"type": "uint256"
						}
					],
					"name": "add",
					"outputs": [
						{
							"internalType": "uint256",
							"name": "",
							"type": "uint256"
						}
					],
					"stateMutability": "pure",
					"type": "function"
				},
				{
					"inputs": [
						{
							"internalType": "uint256",
							"name": "a",
							"type": "uint256"
						},
						{
							"internalType": "uint256",
							"name": "b",
							"type": "uint256"
						}
					],
					"name": "multiply",
					"outputs": [
						{
							"internalType": "uint256",
							"name": "",
							"type": "uint256"
						}
					],
					"stateMutability": "pure",
					"type": "function"
				}
			],
			"devdoc": {
				"kind": "dev",
				"methods": {},
				"version": 1
			},
			"evm": {
				"assembly": "    /* \"contracts/61_70.sol\":248:939  contract Quiz62{... */\n  mstore(0x40, 0x80)\n  callvalue\n  dup1\n  iszero\n  tag_1\n  jumpi\n  0x00\n  dup1\n  revert\ntag_1:\n  pop\n  dataSize(sub_0)\n  dup1\n  dataOffset(sub_0)\n  0x00\n  codecopy\n  0x00\n  return\nstop\n\nsub_0: assembly {\n        /* \"contracts/61_70.sol\":248:939  contract Quiz62{... */\n      mstore(0x40, 0x80)\n      callvalue\n      dup1\n      iszero\n      tag_1\n      jumpi\n      0x00\n      dup1\n      revert\n    tag_1:\n      pop\n      jumpi(tag_2, lt(calldatasize, 0x04))\n      shr(0xe0, calldataload(0x00))\n      dup1\n      0x165c4a16\n      eq\n      tag_3\n      jumpi\n      dup1\n      0x771602f7\n      eq\n      tag_4\n      jumpi\n      dup1\n      0x8b7a026d\n      eq\n      tag_5\n      jumpi\n    tag_2:\n      0x00\n      dup1\n      revert\n        /* \"contracts/61_70.sol\":725:830  function multiply(uint a, uint b) public pure notOverTen(a,b) returns(uint) {... */\n    tag_3:\n      tag_6\n      0x04\n      dup1\n      calldatasize\n      sub\n      dup2\n      add\n      swap1\n      tag_7\n      swap2\n      swap1\n      tag_8\n      jump\t// in\n    tag_7:\n      tag_9\n      jump\t// in\n    tag_6:\n      mload(0x40)\n      tag_10\n      swap2\n      swap1\n      tag_11\n      jump\t// in\n    tag_10:\n      mload(0x40)\n      dup1\n      swap2\n      sub\n      swap1\n      return\n        /* \"contracts/61_70.sol\":619:719  function add(uint a, uint b) public pure notOverTen(a,b) returns(uint) {... */\n    tag_4:\n      tag_12\n      0x04\n      dup1\n      calldatasize\n      sub\n      dup2\n      add\n      swap1\n      tag_13\n      swap2\n      swap1\n      tag_8\n      jump\t// in\n    tag_13:\n      tag_14\n      jump\t// in\n    tag_12:\n      mload(0x40)\n      tag_15\n      swap2\n      swap1\n      tag_11\n      jump\t// in\n    tag_15:\n      mload(0x40)\n      dup1\n      swap2\n      sub\n      swap1\n      return\n        /* \"contracts/61_70.sol\":836:936  function AB(uint a, uint b) public pure notOverTen(a,b) returns(uint) {... */\n    tag_5:\n      tag_16\n      0x04\n      dup1\n      calldatasize\n      sub\n      dup2\n      add\n      swap1\n      tag_17\n      swap2\n      swap1\n      tag_8\n      jump\t// in\n    tag_17:\n      tag_18\n      jump\t// in\n    tag_16:\n      mload(0x40)\n      tag_19\n      swap2\n      swap1\n      tag_11\n      jump\t// in\n    tag_19:\n      mload(0x40)\n      dup1\n      swap2\n      sub\n      swap1\n      return\n        /* \"contracts/61_70.sol\":725:830  function multiply(uint a, uint b) public pure notOverTen(a,b) returns(uint) {... */\n    tag_9:\n        /* \"contracts/61_70.sol\":795:799  uint */\n      0x00\n        /* \"contracts/61_70.sol\":782:783  a */\n      dup3\n        /* \"contracts/61_70.sol\":784:785  b */\n      dup3\n        /* \"contracts/61_70.sol\":580:582  10 */\n      0x0a\n        /* \"contracts/61_70.sol\":578:579  a */\n      dup3\n        /* \"contracts/61_70.sol\":578:582  a<10 */\n      lt\n        /* \"contracts/61_70.sol\":578:590  a<10 && b<10 */\n      dup1\n      iszero\n      tag_21\n      jumpi\n      pop\n        /* \"contracts/61_70.sol\":588:590  10 */\n      0x0a\n        /* \"contracts/61_70.sol\":586:587  b */\n      dup2\n        /* \"contracts/61_70.sol\":586:590  b<10 */\n      lt\n        /* \"contracts/61_70.sol\":578:590  a<10 && b<10 */\n    tag_21:\n        /* \"contracts/61_70.sol\":570:591  require(a<10 && b<10) */\n      tag_22\n      jumpi\n      0x00\n      dup1\n      revert\n    tag_22:\n        /* \"contracts/61_70.sol\":821:822  b */\n      dup4\n        /* \"contracts/61_70.sol\":819:820  a */\n      dup6\n        /* \"contracts/61_70.sol\":819:822  a*b */\n      tag_24\n      swap2\n      swap1\n      tag_25\n      jump\t// in\n    tag_24:\n        /* \"contracts/61_70.sol\":812:822  return a*b */\n      swap3\n      pop\n        /* \"contracts/61_70.sol\":725:830  function multiply(uint a, uint b) public pure notOverTen(a,b) returns(uint) {... */\n      pop\n      pop\n      swap3\n      swap2\n      pop\n      pop\n      jump\t// out\n        /* \"contracts/61_70.sol\":619:719  function add(uint a, uint b) public pure notOverTen(a,b) returns(uint) {... */\n    tag_14:\n        /* \"contracts/61_70.sol\":684:688  uint */\n      0x00\n        /* \"contracts/61_70.sol\":671:672  a */\n      dup3\n        /* \"contracts/61_70.sol\":673:674  b */\n      dup3\n        /* \"contracts/61_70.sol\":580:582  10 */\n      0x0a\n        /* \"contracts/61_70.sol\":578:579  a */\n      dup3\n        /* \"contracts/61_70.sol\":578:582  a<10 */\n      lt\n        /* \"contracts/61_70.sol\":578:590  a<10 && b<10 */\n      dup1\n      iszero\n      tag_27\n      jumpi\n      pop\n        /* \"contracts/61_70.sol\":588:590  10 */\n      0x0a\n        /* \"contracts/61_70.sol\":586:587  b */\n      dup2\n        /* \"contracts/61_70.sol\":586:590  b<10 */\n      lt\n        /* \"contracts/61_70.sol\":578:590  a<10 && b<10 */\n    tag_27:\n        /* \"contracts/61_70.sol\":570:591  require(a<10 && b<10) */\n      tag_28\n      jumpi\n      0x00\n      dup1\n      revert\n    tag_28:\n        /* \"contracts/61_70.sol\":710:711  b */\n      dup4\n        /* \"contracts/61_70.sol\":708:709  a */\n      dup6\n        /* \"contracts/61_70.sol\":708:711  a+b */\n      tag_30\n      swap2\n      swap1\n      tag_31\n      jump\t// in\n    tag_30:\n        /* \"contracts/61_70.sol\":701:711  return a+b */\n      swap3\n      pop\n        /* \"contracts/61_70.sol\":619:719  function add(uint a, uint b) public pure notOverTen(a,b) returns(uint) {... */\n      pop\n      pop\n      swap3\n      swap2\n      pop\n      pop\n      jump\t// out\n        /* \"contracts/61_70.sol\":836:936  function AB(uint a, uint b) public pure notOverTen(a,b) returns(uint) {... */\n    tag_18:\n        /* \"contracts/61_70.sol\":900:904  uint */\n      0x00\n        /* \"contracts/61_70.sol\":887:888  a */\n      dup3\n        /* \"contracts/61_70.sol\":889:890  b */\n      dup3\n        /* \"contracts/61_70.sol\":580:582  10 */\n      0x0a\n        /* \"contracts/61_70.sol\":578:579  a */\n      dup3\n        /* \"contracts/61_70.sol\":578:582  a<10 */\n      lt\n        /* \"contracts/61_70.sol\":578:590  a<10 && b<10 */\n      dup1\n      iszero\n      tag_33\n      jumpi\n      pop\n        /* \"contracts/61_70.sol\":588:590  10 */\n      0x0a\n        /* \"contracts/61_70.sol\":586:587  b */\n      dup2\n        /* \"contracts/61_70.sol\":586:590  b<10 */\n      lt\n        /* \"contracts/61_70.sol\":578:590  a<10 && b<10 */\n    tag_33:\n        /* \"contracts/61_70.sol\":570:591  require(a<10 && b<10) */\n      tag_34\n      jumpi\n      0x00\n      dup1\n      revert\n    tag_34:\n        /* \"contracts/61_70.sol\":927:928  b */\n      dup4\n        /* \"contracts/61_70.sol\":924:925  a */\n      dup6\n        /* \"contracts/61_70.sol\":924:928  a**b */\n      tag_36\n      swap2\n      swap1\n      tag_37\n      jump\t// in\n    tag_36:\n        /* \"contracts/61_70.sol\":917:928  return a**b */\n      swap3\n      pop\n        /* \"contracts/61_70.sol\":836:936  function AB(uint a, uint b) public pure notOverTen(a,b) returns(uint) {... */\n      pop\n      pop\n      swap3\n      swap2\n      pop\n      pop\n      jump\t// out\n        /* \"#utility.yul\":88:205   */\n    tag_39:\n        /* \"#utility.yul\":197:198   */\n      0x00\n        /* \"#utility.yul\":194:195   */\n      dup1\n        /* \"#utility.yul\":187:199   */\n      revert\n        /* \"#utility.yul\":334:411   */\n    tag_41:\n        /* \"#utility.yul\":371:378   */\n      0x00\n        /* \"#utility.yul\":400:405   */\n      dup2\n        /* \"#utility.yul\":389:405   */\n      swap1\n      pop\n        /* \"#utility.yul\":334:411   */\n      swap2\n      swap1\n      pop\n      jump\t// out\n        /* \"#utility.yul\":417:539   */\n    tag_42:\n        /* \"#utility.yul\":490:514   */\n      tag_55\n        /* \"#utility.yul\":508:513   */\n      dup2\n        /* \"#utility.yul\":490:514   */\n      tag_41\n      jump\t// in\n    tag_55:\n        /* \"#utility.yul\":483:488   */\n      dup2\n        /* \"#utility.yul\":480:515   */\n      eq\n        /* \"#utility.yul\":470:533   */\n      tag_56\n      jumpi\n        /* \"#utility.yul\":529:530   */\n      0x00\n        /* \"#utility.yul\":526:527   */\n      dup1\n        /* \"#utility.yul\":519:531   */\n      revert\n        /* \"#utility.yul\":470:533   */\n    tag_56:\n        /* \"#utility.yul\":417:539   */\n      pop\n      jump\t// out\n        /* \"#utility.yul\":545:684   */\n    tag_43:\n        /* \"#utility.yul\":591:596   */\n      0x00\n        /* \"#utility.yul\":629:635   */\n      dup2\n        /* \"#utility.yul\":616:636   */\n      calldataload\n        /* \"#utility.yul\":607:636   */\n      swap1\n      pop\n        /* \"#utility.yul\":645:678   */\n      tag_58\n        /* \"#utility.yul\":672:677   */\n      dup2\n        /* \"#utility.yul\":645:678   */\n      tag_42\n      jump\t// in\n    tag_58:\n        /* \"#utility.yul\":545:684   */\n      swap3\n      swap2\n      pop\n      pop\n      jump\t// out\n        /* \"#utility.yul\":690:1164   */\n    tag_8:\n        /* \"#utility.yul\":758:764   */\n      0x00\n        /* \"#utility.yul\":766:772   */\n      dup1\n        /* \"#utility.yul\":815:817   */\n      0x40\n        /* \"#utility.yul\":803:812   */\n      dup4\n        /* \"#utility.yul\":794:801   */\n      dup6\n        /* \"#utility.yul\":790:813   */\n      sub\n        /* \"#utility.yul\":786:818   */\n      slt\n        /* \"#utility.yul\":783:902   */\n      iszero\n      tag_60\n      jumpi\n        /* \"#utility.yul\":821:900   */\n      tag_61\n      tag_39\n      jump\t// in\n    tag_61:\n        /* \"#utility.yul\":783:902   */\n    tag_60:\n        /* \"#utility.yul\":941:942   */\n      0x00\n        /* \"#utility.yul\":966:1019   */\n      tag_62\n        /* \"#utility.yul\":1011:1018   */\n      dup6\n        /* \"#utility.yul\":1002:1008   */\n      dup3\n        /* \"#utility.yul\":991:1000   */\n      dup7\n        /* \"#utility.yul\":987:1009   */\n      add\n        /* \"#utility.yul\":966:1019   */\n      tag_43\n      jump\t// in\n    tag_62:\n        /* \"#utility.yul\":956:1019   */\n      swap3\n      pop\n        /* \"#utility.yul\":912:1029   */\n      pop\n        /* \"#utility.yul\":1068:1070   */\n      0x20\n        /* \"#utility.yul\":1094:1147   */\n      tag_63\n        /* \"#utility.yul\":1139:1146   */\n      dup6\n        /* \"#utility.yul\":1130:1136   */\n      dup3\n        /* \"#utility.yul\":1119:1128   */\n      dup7\n        /* \"#utility.yul\":1115:1137   */\n      add\n        /* \"#utility.yul\":1094:1147   */\n      tag_43\n      jump\t// in\n    tag_63:\n        /* \"#utility.yul\":1084:1147   */\n      swap2\n      pop\n        /* \"#utility.yul\":1039:1157   */\n      pop\n        /* \"#utility.yul\":690:1164   */\n      swap3\n      pop\n      swap3\n      swap1\n      pop\n      jump\t// out\n        /* \"#utility.yul\":1170:1288   */\n    tag_44:\n        /* \"#utility.yul\":1257:1281   */\n      tag_65\n        /* \"#utility.yul\":1275:1280   */\n      dup2\n        /* \"#utility.yul\":1257:1281   */\n      tag_41\n      jump\t// in\n    tag_65:\n        /* \"#utility.yul\":1252:1255   */\n      dup3\n        /* \"#utility.yul\":1245:1282   */\n      mstore\n        /* \"#utility.yul\":1170:1288   */\n      pop\n      pop\n      jump\t// out\n        /* \"#utility.yul\":1294:1516   */\n    tag_11:\n        /* \"#utility.yul\":1387:1391   */\n      0x00\n        /* \"#utility.yul\":1425:1427   */\n      0x20\n        /* \"#utility.yul\":1414:1423   */\n      dup3\n        /* \"#utility.yul\":1410:1428   */\n      add\n        /* \"#utility.yul\":1402:1428   */\n      swap1\n      pop\n        /* \"#utility.yul\":1438:1509   */\n      tag_67\n        /* \"#utility.yul\":1506:1507   */\n      0x00\n        /* \"#utility.yul\":1495:1504   */\n      dup4\n        /* \"#utility.yul\":1491:1508   */\n      add\n        /* \"#utility.yul\":1482:1488   */\n      dup5\n        /* \"#utility.yul\":1438:1509   */\n      tag_44\n      jump\t// in\n    tag_67:\n        /* \"#utility.yul\":1294:1516   */\n      swap3\n      swap2\n      pop\n      pop\n      jump\t// out\n        /* \"#utility.yul\":1522:1702   */\n    tag_45:\n        /* \"#utility.yul\":1570:1647   */\n      0x4e487b7100000000000000000000000000000000000000000000000000000000\n        /* \"#utility.yul\":1567:1568   */\n      0x00\n        /* \"#utility.yul\":1560:1648   */\n      mstore\n        /* \"#utility.yul\":1667:1671   */\n      0x11\n        /* \"#utility.yul\":1664:1665   */\n      0x04\n        /* \"#utility.yul\":1657:1672   */\n      mstore\n        /* \"#utility.yul\":1691:1695   */\n      0x24\n        /* \"#utility.yul\":1688:1689   */\n      0x00\n        /* \"#utility.yul\":1681:1696   */\n      revert\n        /* \"#utility.yul\":1708:2118   */\n    tag_25:\n        /* \"#utility.yul\":1748:1755   */\n      0x00\n        /* \"#utility.yul\":1771:1791   */\n      tag_70\n        /* \"#utility.yul\":1789:1790   */\n      dup3\n        /* \"#utility.yul\":1771:1791   */\n      tag_41\n      jump\t// in\n    tag_70:\n        /* \"#utility.yul\":1766:1791   */\n      swap2\n      pop\n        /* \"#utility.yul\":1805:1825   */\n      tag_71\n        /* \"#utility.yul\":1823:1824   */\n      dup4\n        /* \"#utility.yul\":1805:1825   */\n      tag_41\n      jump\t// in\n    tag_71:\n        /* \"#utility.yul\":1800:1825   */\n      swap3\n      pop\n        /* \"#utility.yul\":1860:1861   */\n      dup3\n        /* \"#utility.yul\":1857:1858   */\n      dup3\n        /* \"#utility.yul\":1853:1862   */\n      mul\n        /* \"#utility.yul\":1882:1912   */\n      tag_72\n        /* \"#utility.yul\":1900:1911   */\n      dup2\n        /* \"#utility.yul\":1882:1912   */\n      tag_41\n      jump\t// in\n    tag_72:\n        /* \"#utility.yul\":1871:1912   */\n      swap2\n      pop\n        /* \"#utility.yul\":2061:2062   */\n      dup3\n        /* \"#utility.yul\":2052:2059   */\n      dup3\n        /* \"#utility.yul\":2048:2063   */\n      div\n        /* \"#utility.yul\":2045:2046   */\n      dup5\n        /* \"#utility.yul\":2042:2064   */\n      eq\n        /* \"#utility.yul\":2022:2023   */\n      dup4\n        /* \"#utility.yul\":2015:2024   */\n      iszero\n        /* \"#utility.yul\":1995:2078   */\n      or\n        /* \"#utility.yul\":1972:2111   */\n      tag_73\n      jumpi\n        /* \"#utility.yul\":2091:2109   */\n      tag_74\n      tag_45\n      jump\t// in\n    tag_74:\n        /* \"#utility.yul\":1972:2111   */\n    tag_73:\n        /* \"#utility.yul\":1756:2118   */\n      pop\n        /* \"#utility.yul\":1708:2118   */\n      swap3\n      swap2\n      pop\n      pop\n      jump\t// out\n        /* \"#utility.yul\":2124:2315   */\n    tag_31:\n        /* \"#utility.yul\":2164:2167   */\n      0x00\n        /* \"#utility.yul\":2183:2203   */\n      tag_76\n        /* \"#utility.yul\":2201:2202   */\n      dup3\n        /* \"#utility.yul\":2183:2203   */\n      tag_41\n      jump\t// in\n    tag_76:\n        /* \"#utility.yul\":2178:2203   */\n      swap2\n      pop\n        /* \"#utility.yul\":2217:2237   */\n      tag_77\n        /* \"#utility.yul\":2235:2236   */\n      dup4\n        /* \"#utility.yul\":2217:2237   */\n      tag_41\n      jump\t// in\n    tag_77:\n        /* \"#utility.yul\":2212:2237   */\n      swap3\n      pop\n        /* \"#utility.yul\":2260:2261   */\n      dup3\n        /* \"#utility.yul\":2257:2258   */\n      dup3\n        /* \"#utility.yul\":2253:2262   */\n      add\n        /* \"#utility.yul\":2246:2262   */\n      swap1\n      pop\n        /* \"#utility.yul\":2281:2284   */\n      dup1\n        /* \"#utility.yul\":2278:2279   */\n      dup3\n        /* \"#utility.yul\":2275:2285   */\n      gt\n        /* \"#utility.yul\":2272:2308   */\n      iszero\n      tag_78\n      jumpi\n        /* \"#utility.yul\":2288:2306   */\n      tag_79\n      tag_45\n      jump\t// in\n    tag_79:\n        /* \"#utility.yul\":2272:2308   */\n    tag_78:\n        /* \"#utility.yul\":2124:2315   */\n      swap3\n      swap2\n      pop\n      pop\n      jump\t// out\n        /* \"#utility.yul\":2321:2423   */\n    tag_46:\n        /* \"#utility.yul\":2363:2371   */\n      0x00\n        /* \"#utility.yul\":2410:2415   */\n      dup2\n        /* \"#utility.yul\":2407:2408   */\n      0x01\n        /* \"#utility.yul\":2403:2416   */\n      shr\n        /* \"#utility.yul\":2382:2416   */\n      swap1\n      pop\n        /* \"#utility.yul\":2321:2423   */\n      swap2\n      swap1\n      pop\n      jump\t// out\n        /* \"#utility.yul\":2429:3277   */\n    tag_47:\n        /* \"#utility.yul\":2490:2495   */\n      0x00\n        /* \"#utility.yul\":2497:2501   */\n      dup1\n        /* \"#utility.yul\":2521:2527   */\n      dup3\n        /* \"#utility.yul\":2512:2527   */\n      swap2\n      pop\n        /* \"#utility.yul\":2545:2550   */\n      dup4\n        /* \"#utility.yul\":2536:2550   */\n      swap1\n      pop\n        /* \"#utility.yul\":2559:3271   */\n    tag_82:\n        /* \"#utility.yul\":2580:2581   */\n      0x01\n        /* \"#utility.yul\":2570:2578   */\n      dup6\n        /* \"#utility.yul\":2567:2582   */\n      gt\n        /* \"#utility.yul\":2559:3271   */\n      iszero\n      tag_84\n      jumpi\n        /* \"#utility.yul\":2675:2679   */\n      dup1\n        /* \"#utility.yul\":2670:2673   */\n      dup7\n        /* \"#utility.yul\":2666:2680   */\n      div\n        /* \"#utility.yul\":2660:2664   */\n      dup2\n        /* \"#utility.yul\":2657:2681   */\n      gt\n        /* \"#utility.yul\":2654:2704   */\n      iszero\n      tag_85\n      jumpi\n        /* \"#utility.yul\":2684:2702   */\n      tag_86\n      tag_45\n      jump\t// in\n    tag_86:\n        /* \"#utility.yul\":2654:2704   */\n    tag_85:\n        /* \"#utility.yul\":2734:2735   */\n      0x01\n        /* \"#utility.yul\":2724:2732   */\n      dup6\n        /* \"#utility.yul\":2720:2736   */\n      and\n        /* \"#utility.yul\":2717:3168   */\n      iszero\n      tag_87\n      jumpi\n        /* \"#utility.yul\":3149:3153   */\n      dup1\n        /* \"#utility.yul\":3142:3147   */\n      dup3\n        /* \"#utility.yul\":3138:3154   */\n      mul\n        /* \"#utility.yul\":3129:3154   */\n      swap2\n      pop\n        /* \"#utility.yul\":2717:3168   */\n    tag_87:\n        /* \"#utility.yul\":3199:3203   */\n      dup1\n        /* \"#utility.yul\":3193:3197   */\n      dup2\n        /* \"#utility.yul\":3189:3204   */\n      mul\n        /* \"#utility.yul\":3181:3204   */\n      swap1\n      pop\n        /* \"#utility.yul\":3229:3261   */\n      tag_88\n        /* \"#utility.yul\":3252:3260   */\n      dup6\n        /* \"#utility.yul\":3229:3261   */\n      tag_46\n      jump\t// in\n    tag_88:\n        /* \"#utility.yul\":3217:3261   */\n      swap5\n      pop\n        /* \"#utility.yul\":2559:3271   */\n      jump(tag_82)\n    tag_84:\n        /* \"#utility.yul\":2429:3277   */\n      swap5\n      pop\n      swap5\n      swap3\n      pop\n      pop\n      pop\n      jump\t// out\n        /* \"#utility.yul\":3283:4356   */\n    tag_48:\n        /* \"#utility.yul\":3337:3342   */\n      0x00\n        /* \"#utility.yul\":3528:3536   */\n      dup3\n        /* \"#utility.yul\":3518:3558   */\n      tag_90\n      jumpi\n        /* \"#utility.yul\":3549:3550   */\n      0x01\n        /* \"#utility.yul\":3540:3550   */\n      swap1\n      pop\n        /* \"#utility.yul\":3551:3556   */\n      jump(tag_89)\n        /* \"#utility.yul\":3518:3558   */\n    tag_90:\n        /* \"#utility.yul\":3577:3581   */\n      dup2\n        /* \"#utility.yul\":3567:3603   */\n      tag_91\n      jumpi\n        /* \"#utility.yul\":3594:3595   */\n      0x00\n        /* \"#utility.yul\":3585:3595   */\n      swap1\n      pop\n        /* \"#utility.yul\":3596:3601   */\n      jump(tag_89)\n        /* \"#utility.yul\":3567:3603   */\n    tag_91:\n        /* \"#utility.yul\":3663:3667   */\n      dup2\n        /* \"#utility.yul\":3711:3712   */\n      0x01\n        /* \"#utility.yul\":3706:3733   */\n      dup2\n      eq\n      tag_93\n      jumpi\n        /* \"#utility.yul\":3747:3748   */\n      0x02\n        /* \"#utility.yul\":3742:3933   */\n      dup2\n      eq\n      tag_94\n      jumpi\n        /* \"#utility.yul\":3656:3933   */\n      jump(tag_92)\n        /* \"#utility.yul\":3706:3733   */\n    tag_93:\n        /* \"#utility.yul\":3724:3725   */\n      0x01\n        /* \"#utility.yul\":3715:3725   */\n      swap2\n      pop\n        /* \"#utility.yul\":3726:3731   */\n      pop\n      jump(tag_89)\n        /* \"#utility.yul\":3742:3933   */\n    tag_94:\n        /* \"#utility.yul\":3787:3790   */\n      0xff\n        /* \"#utility.yul\":3777:3785   */\n      dup5\n        /* \"#utility.yul\":3774:3791   */\n      gt\n        /* \"#utility.yul\":3771:3814   */\n      iszero\n      tag_95\n      jumpi\n        /* \"#utility.yul\":3794:3812   */\n      tag_96\n      tag_45\n      jump\t// in\n    tag_96:\n        /* \"#utility.yul\":3771:3814   */\n    tag_95:\n        /* \"#utility.yul\":3843:3851   */\n      dup4\n        /* \"#utility.yul\":3840:3841   */\n      0x02\n        /* \"#utility.yul\":3836:3852   */\n      exp\n        /* \"#utility.yul\":3827:3852   */\n      swap2\n      pop\n        /* \"#utility.yul\":3878:3881   */\n      dup5\n        /* \"#utility.yul\":3871:3876   */\n      dup3\n        /* \"#utility.yul\":3868:3882   */\n      gt\n        /* \"#utility.yul\":3865:3905   */\n      iszero\n      tag_97\n      jumpi\n        /* \"#utility.yul\":3885:3903   */\n      tag_98\n      tag_45\n      jump\t// in\n    tag_98:\n        /* \"#utility.yul\":3865:3905   */\n    tag_97:\n        /* \"#utility.yul\":3918:3923   */\n      pop\n      jump(tag_89)\n        /* \"#utility.yul\":3656:3933   */\n    tag_92:\n      pop\n        /* \"#utility.yul\":4042:4044   */\n      0x20\n        /* \"#utility.yul\":4032:4040   */\n      dup4\n        /* \"#utility.yul\":4029:4045   */\n      lt\n        /* \"#utility.yul\":4023:4026   */\n      0x0133\n        /* \"#utility.yul\":4017:4021   */\n      dup4\n        /* \"#utility.yul\":4014:4027   */\n      lt\n        /* \"#utility.yul\":4010:4046   */\n      and\n        /* \"#utility.yul\":3992:3994   */\n      0x4e\n        /* \"#utility.yul\":3982:3990   */\n      dup5\n        /* \"#utility.yul\":3979:3995   */\n      lt\n        /* \"#utility.yul\":3974:3976   */\n      0x0b\n        /* \"#utility.yul\":3968:3972   */\n      dup5\n        /* \"#utility.yul\":3965:3977   */\n      lt\n        /* \"#utility.yul\":3961:3996   */\n      and\n        /* \"#utility.yul\":3945:4056   */\n      or\n        /* \"#utility.yul\":3942:4188   */\n      iszero\n      tag_99\n      jumpi\n        /* \"#utility.yul\":4098:4106   */\n      dup3\n        /* \"#utility.yul\":4092:4096   */\n      dup3\n        /* \"#utility.yul\":4088:4107   */\n      exp\n        /* \"#utility.yul\":4079:4107   */\n      swap1\n      pop\n        /* \"#utility.yul\":4133:4136   */\n      dup4\n        /* \"#utility.yul\":4126:4131   */\n      dup2\n        /* \"#utility.yul\":4123:4137   */\n      gt\n        /* \"#utility.yul\":4120:4160   */\n      iszero\n      tag_100\n      jumpi\n        /* \"#utility.yul\":4140:4158   */\n      tag_101\n      tag_45\n      jump\t// in\n    tag_101:\n        /* \"#utility.yul\":4120:4160   */\n    tag_100:\n        /* \"#utility.yul\":4173:4178   */\n      jump(tag_89)\n        /* \"#utility.yul\":3942:4188   */\n    tag_99:\n        /* \"#utility.yul\":4213:4255   */\n      tag_102\n        /* \"#utility.yul\":4251:4254   */\n      dup5\n        /* \"#utility.yul\":4241:4249   */\n      dup5\n        /* \"#utility.yul\":4235:4239   */\n      dup5\n        /* \"#utility.yul\":4232:4233   */\n      0x01\n        /* \"#utility.yul\":4213:4255   */\n      tag_47\n      jump\t// in\n    tag_102:\n        /* \"#utility.yul\":4198:4255   */\n      swap3\n      pop\n      swap1\n      pop\n        /* \"#utility.yul\":4287:4291   */\n      dup2\n        /* \"#utility.yul\":4282:4285   */\n      dup5\n        /* \"#utility.yul\":4278:4292   */\n      div\n        /* \"#utility.yul\":4271:4276   */\n      dup2\n        /* \"#utility.yul\":4268:4293   */\n      gt\n        /* \"#utility.yul\":4265:4316   */\n      iszero\n      tag_103\n      jumpi\n        /* \"#utility.yul\":4296:4314   */\n      tag_104\n      tag_45\n      jump\t// in\n    tag_104:\n        /* \"#utility.yul\":4265:4316   */\n    tag_103:\n        /* \"#utility.yul\":4345:4349   */\n      dup2\n        /* \"#utility.yul\":4338:4343   */\n      dup2\n        /* \"#utility.yul\":4334:4350   */\n      mul\n        /* \"#utility.yul\":4325:4350   */\n      swap1\n      pop\n        /* \"#utility.yul\":3283:4356   */\n    tag_89:\n      swap4\n      swap3\n      pop\n      pop\n      pop\n      jump\t// out\n        /* \"#utility.yul\":4362:4647   */\n    tag_37:\n        /* \"#utility.yul\":4422:4427   */\n      0x00\n        /* \"#utility.yul\":4446:4469   */\n      tag_106\n        /* \"#utility.yul\":4464:4468   */\n      dup3\n        /* \"#utility.yul\":4446:4469   */\n      tag_41\n      jump\t// in\n    tag_106:\n        /* \"#utility.yul\":4438:4469   */\n      swap2\n      pop\n        /* \"#utility.yul\":4490:4517   */\n      tag_107\n        /* \"#utility.yul\":4508:4516   */\n      dup4\n        /* \"#utility.yul\":4490:4517   */\n      tag_41\n      jump\t// in\n    tag_107:\n        /* \"#utility.yul\":4478:4517   */\n      swap3\n      pop\n        /* \"#utility.yul\":4536:4640   */\n      tag_108\n        /* \"#utility.yul\":4573:4639   */\n      0xffffffffffffffffffffffffffffffffffffffffffffffffffffffffffffffff\n        /* \"#utility.yul\":4563:4571   */\n      dup5\n        /* \"#utility.yul\":4557:4561   */\n      dup5\n        /* \"#utility.yul\":4536:4640   */\n      tag_48\n      jump\t// in\n    tag_108:\n        /* \"#utility.yul\":4527:4640   */\n      swap1\n      pop\n        /* \"#utility.yul\":4362:4647   */\n      swap3\n      swap2\n      pop\n      pop\n      jump\t// out\n\n    auxdata: 0xa264697066735822122002dfcb66d3d212ba1b7bfe76d5fd80266122e9a541a0f3ddeb0378ef0275c08364736f6c63430008120033\n}\n",
				"bytecode": {
					"linkReferences": {},
					"object": "608060405234801561001057600080fd5b5061046d806100206000396000f3fe608060405234801561001057600080fd5b50600436106100415760003560e01c8063165c4a1614610046578063771602f7146100765780638b7a026d146100a6575b600080fd5b610060600480360381019061005b91906101aa565b6100d6565b60405161006d91906101f9565b60405180910390f35b610090600480360381019061008b91906101aa565b610109565b60405161009d91906101f9565b60405180910390f35b6100c060048036038101906100bb91906101aa565b61013c565b6040516100cd91906101f9565b60405180910390f35b60008282600a821080156100ea5750600a81105b6100f357600080fd5b83856100ff9190610243565b9250505092915050565b60008282600a8210801561011d5750600a81105b61012657600080fd5b83856101329190610285565b9250505092915050565b60008282600a821080156101505750600a81105b61015957600080fd5b838561016591906103ec565b9250505092915050565b600080fd5b6000819050919050565b61018781610174565b811461019257600080fd5b50565b6000813590506101a48161017e565b92915050565b600080604083850312156101c1576101c061016f565b5b60006101cf85828601610195565b92505060206101e085828601610195565b9150509250929050565b6101f381610174565b82525050565b600060208201905061020e60008301846101ea565b92915050565b7f4e487b7100000000000000000000000000000000000000000000000000000000600052601160045260246000fd5b600061024e82610174565b915061025983610174565b925082820261026781610174565b9150828204841483151761027e5761027d610214565b5b5092915050565b600061029082610174565b915061029b83610174565b92508282019050808211156102b3576102b2610214565b5b92915050565b60008160011c9050919050565b6000808291508390505b6001851115610310578086048111156102ec576102eb610214565b5b60018516156102fb5780820291505b8081029050610309856102b9565b94506102d0565b94509492505050565b60008261032957600190506103e5565b8161033757600090506103e5565b816001811461034d576002811461035757610386565b60019150506103e5565b60ff84111561036957610368610214565b5b8360020a9150848211156103805761037f610214565b5b506103e5565b5060208310610133831016604e8410600b84101617156103bb5782820a9050838111156103b6576103b5610214565b5b6103e5565b6103c884848460016102c6565b925090508184048111156103df576103de610214565b5b81810290505b9392505050565b60006103f782610174565b915061040283610174565b925061042f7fffffffffffffffffffffffffffffffffffffffffffffffffffffffffffffffff8484610319565b90509291505056fea264697066735822122002dfcb66d3d212ba1b7bfe76d5fd80266122e9a541a0f3ddeb0378ef0275c08364736f6c63430008120033",
					"opcodes": "PUSH1 0x80 PUSH1 0x40 MSTORE CALLVALUE DUP1 ISZERO PUSH2 0x10 JUMPI PUSH1 0x0 DUP1 REVERT JUMPDEST POP PUSH2 0x46D DUP1 PUSH2 0x20 PUSH1 0x0 CODECOPY PUSH1 0x0 RETURN INVALID PUSH1 0x80 PUSH1 0x40 MSTORE CALLVALUE DUP1 ISZERO PUSH2 0x10 JUMPI PUSH1 0x0 DUP1 REVERT JUMPDEST POP PUSH1 0x4 CALLDATASIZE LT PUSH2 0x41 JUMPI PUSH1 0x0 CALLDATALOAD PUSH1 0xE0 SHR DUP1 PUSH4 0x165C4A16 EQ PUSH2 0x46 JUMPI DUP1 PUSH4 0x771602F7 EQ PUSH2 0x76 JUMPI DUP1 PUSH4 0x8B7A026D EQ PUSH2 0xA6 JUMPI JUMPDEST PUSH1 0x0 DUP1 REVERT JUMPDEST PUSH2 0x60 PUSH1 0x4 DUP1 CALLDATASIZE SUB DUP2 ADD SWAP1 PUSH2 0x5B SWAP2 SWAP1 PUSH2 0x1AA JUMP JUMPDEST PUSH2 0xD6 JUMP JUMPDEST PUSH1 0x40 MLOAD PUSH2 0x6D SWAP2 SWAP1 PUSH2 0x1F9 JUMP JUMPDEST PUSH1 0x40 MLOAD DUP1 SWAP2 SUB SWAP1 RETURN JUMPDEST PUSH2 0x90 PUSH1 0x4 DUP1 CALLDATASIZE SUB DUP2 ADD SWAP1 PUSH2 0x8B SWAP2 SWAP1 PUSH2 0x1AA JUMP JUMPDEST PUSH2 0x109 JUMP JUMPDEST PUSH1 0x40 MLOAD PUSH2 0x9D SWAP2 SWAP1 PUSH2 0x1F9 JUMP JUMPDEST PUSH1 0x40 MLOAD DUP1 SWAP2 SUB SWAP1 RETURN JUMPDEST PUSH2 0xC0 PUSH1 0x4 DUP1 CALLDATASIZE SUB DUP2 ADD SWAP1 PUSH2 0xBB SWAP2 SWAP1 PUSH2 0x1AA JUMP JUMPDEST PUSH2 0x13C JUMP JUMPDEST PUSH1 0x40 MLOAD PUSH2 0xCD SWAP2 SWAP1 PUSH2 0x1F9 JUMP JUMPDEST PUSH1 0x40 MLOAD DUP1 SWAP2 SUB SWAP1 RETURN JUMPDEST PUSH1 0x0 DUP3 DUP3 PUSH1 0xA DUP3 LT DUP1 ISZERO PUSH2 0xEA JUMPI POP PUSH1 0xA DUP2 LT JUMPDEST PUSH2 0xF3 JUMPI PUSH1 0x0 DUP1 REVERT JUMPDEST DUP4 DUP6 PUSH2 0xFF SWAP2 SWAP1 PUSH2 0x243 JUMP JUMPDEST SWAP3 POP POP POP SWAP3 SWAP2 POP POP JUMP JUMPDEST PUSH1 0x0 DUP3 DUP3 PUSH1 0xA DUP3 LT DUP1 ISZERO PUSH2 0x11D JUMPI POP PUSH1 0xA DUP2 LT JUMPDEST PUSH2 0x126 JUMPI PUSH1 0x0 DUP1 REVERT JUMPDEST DUP4 DUP6 PUSH2 0x132 SWAP2 SWAP1 PUSH2 0x285 JUMP JUMPDEST SWAP3 POP POP POP SWAP3 SWAP2 POP POP JUMP JUMPDEST PUSH1 0x0 DUP3 DUP3 PUSH1 0xA DUP3 LT DUP1 ISZERO PUSH2 0x150 JUMPI POP PUSH1 0xA DUP2 LT JUMPDEST PUSH2 0x159 JUMPI PUSH1 0x0 DUP1 REVERT JUMPDEST DUP4 DUP6 PUSH2 0x165 SWAP2 SWAP1 PUSH2 0x3EC JUMP JUMPDEST SWAP3 POP POP POP SWAP3 SWAP2 POP POP JUMP JUMPDEST PUSH1 0x0 DUP1 REVERT JUMPDEST PUSH1 0x0 DUP2 SWAP1 POP SWAP2 SWAP1 POP JUMP JUMPDEST PUSH2 0x187 DUP2 PUSH2 0x174 JUMP JUMPDEST DUP2 EQ PUSH2 0x192 JUMPI PUSH1 0x0 DUP1 REVERT JUMPDEST POP JUMP JUMPDEST PUSH1 0x0 DUP2 CALLDATALOAD SWAP1 POP PUSH2 0x1A4 DUP2 PUSH2 0x17E JUMP JUMPDEST SWAP3 SWAP2 POP POP JUMP JUMPDEST PUSH1 0x0 DUP1 PUSH1 0x40 DUP4 DUP6 SUB SLT ISZERO PUSH2 0x1C1 JUMPI PUSH2 0x1C0 PUSH2 0x16F JUMP JUMPDEST JUMPDEST PUSH1 0x0 PUSH2 0x1CF DUP6 DUP3 DUP7 ADD PUSH2 0x195 JUMP JUMPDEST SWAP3 POP POP PUSH1 0x20 PUSH2 0x1E0 DUP6 DUP3 DUP7 ADD PUSH2 0x195 JUMP JUMPDEST SWAP2 POP POP SWAP3 POP SWAP3 SWAP1 POP JUMP JUMPDEST PUSH2 0x1F3 DUP2 PUSH2 0x174 JUMP JUMPDEST DUP3 MSTORE POP POP JUMP JUMPDEST PUSH1 0x0 PUSH1 0x20 DUP3 ADD SWAP1 POP PUSH2 0x20E PUSH1 0x0 DUP4 ADD DUP5 PUSH2 0x1EA JUMP JUMPDEST SWAP3 SWAP2 POP POP JUMP JUMPDEST PUSH32 0x4E487B7100000000000000000000000000000000000000000000000000000000 PUSH1 0x0 MSTORE PUSH1 0x11 PUSH1 0x4 MSTORE PUSH1 0x24 PUSH1 0x0 REVERT JUMPDEST PUSH1 0x0 PUSH2 0x24E DUP3 PUSH2 0x174 JUMP JUMPDEST SWAP2 POP PUSH2 0x259 DUP4 PUSH2 0x174 JUMP JUMPDEST SWAP3 POP DUP3 DUP3 MUL PUSH2 0x267 DUP2 PUSH2 0x174 JUMP JUMPDEST SWAP2 POP DUP3 DUP3 DIV DUP5 EQ DUP4 ISZERO OR PUSH2 0x27E JUMPI PUSH2 0x27D PUSH2 0x214 JUMP JUMPDEST JUMPDEST POP SWAP3 SWAP2 POP POP JUMP JUMPDEST PUSH1 0x0 PUSH2 0x290 DUP3 PUSH2 0x174 JUMP JUMPDEST SWAP2 POP PUSH2 0x29B DUP4 PUSH2 0x174 JUMP JUMPDEST SWAP3 POP DUP3 DUP3 ADD SWAP1 POP DUP1 DUP3 GT ISZERO PUSH2 0x2B3 JUMPI PUSH2 0x2B2 PUSH2 0x214 JUMP JUMPDEST JUMPDEST SWAP3 SWAP2 POP POP JUMP JUMPDEST PUSH1 0x0 DUP2 PUSH1 0x1 SHR SWAP1 POP SWAP2 SWAP1 POP JUMP JUMPDEST PUSH1 0x0 DUP1 DUP3 SWAP2 POP DUP4 SWAP1 POP JUMPDEST PUSH1 0x1 DUP6 GT ISZERO PUSH2 0x310 JUMPI DUP1 DUP7 DIV DUP2 GT ISZERO PUSH2 0x2EC JUMPI PUSH2 0x2EB PUSH2 0x214 JUMP JUMPDEST JUMPDEST PUSH1 0x1 DUP6 AND ISZERO PUSH2 0x2FB JUMPI DUP1 DUP3 MUL SWAP2 POP JUMPDEST DUP1 DUP2 MUL SWAP1 POP PUSH2 0x309 DUP6 PUSH2 0x2B9 JUMP JUMPDEST SWAP5 POP PUSH2 0x2D0 JUMP JUMPDEST SWAP5 POP SWAP5 SWAP3 POP POP POP JUMP JUMPDEST PUSH1 0x0 DUP3 PUSH2 0x329 JUMPI PUSH1 0x1 SWAP1 POP PUSH2 0x3E5 JUMP JUMPDEST DUP2 PUSH2 0x337 JUMPI PUSH1 0x0 SWAP1 POP PUSH2 0x3E5 JUMP JUMPDEST DUP2 PUSH1 0x1 DUP2 EQ PUSH2 0x34D JUMPI PUSH1 0x2 DUP2 EQ PUSH2 0x357 JUMPI PUSH2 0x386 JUMP JUMPDEST PUSH1 0x1 SWAP2 POP POP PUSH2 0x3E5 JUMP JUMPDEST PUSH1 0xFF DUP5 GT ISZERO PUSH2 0x369 JUMPI PUSH2 0x368 PUSH2 0x214 JUMP JUMPDEST JUMPDEST DUP4 PUSH1 0x2 EXP SWAP2 POP DUP5 DUP3 GT ISZERO PUSH2 0x380 JUMPI PUSH2 0x37F PUSH2 0x214 JUMP JUMPDEST JUMPDEST POP PUSH2 0x3E5 JUMP JUMPDEST POP PUSH1 0x20 DUP4 LT PUSH2 0x133 DUP4 LT AND PUSH1 0x4E DUP5 LT PUSH1 0xB DUP5 LT AND OR ISZERO PUSH2 0x3BB JUMPI DUP3 DUP3 EXP SWAP1 POP DUP4 DUP2 GT ISZERO PUSH2 0x3B6 JUMPI PUSH2 0x3B5 PUSH2 0x214 JUMP JUMPDEST JUMPDEST PUSH2 0x3E5 JUMP JUMPDEST PUSH2 0x3C8 DUP5 DUP5 DUP5 PUSH1 0x1 PUSH2 0x2C6 JUMP JUMPDEST SWAP3 POP SWAP1 POP DUP2 DUP5 DIV DUP2 GT ISZERO PUSH2 0x3DF JUMPI PUSH2 0x3DE PUSH2 0x214 JUMP JUMPDEST JUMPDEST DUP2 DUP2 MUL SWAP1 POP JUMPDEST SWAP4 SWAP3 POP POP POP JUMP JUMPDEST PUSH1 0x0 PUSH2 0x3F7 DUP3 PUSH2 0x174 JUMP JUMPDEST SWAP2 POP PUSH2 0x402 DUP4 PUSH2 0x174 JUMP JUMPDEST SWAP3 POP PUSH2 0x42F PUSH32 0xFFFFFFFFFFFFFFFFFFFFFFFFFFFFFFFFFFFFFFFFFFFFFFFFFFFFFFFFFFFFFFFF DUP5 DUP5 PUSH2 0x319 JUMP JUMPDEST SWAP1 POP SWAP3 SWAP2 POP POP JUMP INVALID LOG2 PUSH5 0x6970667358 0x22 SLT KECCAK256 MUL 0xDF 0xCB PUSH7 0xD3D212BA1B7BFE PUSH23 0xD5FD80266122E9A541A0F3DDEB0378EF0275C08364736F PUSH13 0x63430008120033000000000000 "
				},
				"gasEstimates": {
					"creation": {
						"codeDepositCost": "226600",
						"executionCost": "269",
						"totalCost": "226869"
					},
					"external": {
						"AB(uint256,uint256)": "infinite",
						"add(uint256,uint256)": "infinite",
						"multiply(uint256,uint256)": "infinite"
					}
				},
				"methodIdentifiers": {
					"AB(uint256,uint256)": "8b7a026d",
					"add(uint256,uint256)": "771602f7",
					"multiply(uint256,uint256)": "165c4a16"
				}
			},
			"storageLayout": {
				"storage": [],
				"types": null
			},
			"userdoc": {
				"kind": "user",
				"methods": {},
				"version": 1
			}
		}
	}
}