{
	"contracts/31_40.sol": {
		"Quiz40": {
			"abi": [
				{
					"inputs": [],
					"name": "getArray",
					"outputs": [
						{
							"internalType": "uint256[]",
							"name": "",
							"type": "uint256[]"
						}
					],
					"stateMutability": "view",
					"type": "function"
				},
				{
					"inputs": [
						{
							"internalType": "uint256",
							"name": "n",
							"type": "uint256"
						}
					],
					"name": "setArray",
					"outputs": [],
					"stateMutability": "nonpayable",
					"type": "function"
				},
				{
					"inputs": [],
					"name": "sorting",
					"outputs": [
						{
							"internalType": "uint256[]",
							"name": "",
							"type": "uint256[]"
						},
						{
							"internalType": "uint256[]",
							"name": "",
							"type": "uint256[]"
						}
					],
					"stateMutability": "view",
					"type": "function"
				}
			],
			"devdoc": {
				"kind": "dev",
				"methods": {},
				"version": 1
			},
			"evm": {
				"assembly": "    /* \"contracts/31_40.sol\":6493:7906  contract Quiz40 {... */\n  mstore(0x40, 0x80)\n  callvalue\n  dup1\n  iszero\n  tag_1\n  jumpi\n  0x00\n  dup1\n  revert\ntag_1:\n  pop\n  dataSize(sub_0)\n  dup1\n  dataOffset(sub_0)\n  0x00\n  codecopy\n  0x00\n  return\nstop\n\nsub_0: assembly {\n        /* \"contracts/31_40.sol\":6493:7906  contract Quiz40 {... */\n      mstore(0x40, 0x80)\n      callvalue\n      dup1\n      iszero\n      tag_1\n      jumpi\n      0x00\n      dup1\n      revert\n    tag_1:\n      pop\n      jumpi(tag_2, lt(calldatasize, 0x04))\n      shr(0xe0, calldataload(0x00))\n      dup1\n      0x3c9fab6b\n      eq\n      tag_3\n      jumpi\n      dup1\n      0xd504ea1d\n      eq\n      tag_4\n      jumpi\n      dup1\n      0xfb8333eb\n      eq\n      tag_5\n      jumpi\n    tag_2:\n      0x00\n      dup1\n      revert\n        /* \"contracts/31_40.sol\":7087:7903  function sorting() public view returns(uint[] memory, uint[] memory) {... */\n    tag_3:\n      tag_6\n      tag_7\n      jump\t// in\n    tag_6:\n      mload(0x40)\n      tag_8\n      swap3\n      swap2\n      swap1\n      tag_9\n      jump\t// in\n    tag_8:\n      mload(0x40)\n      dup1\n      swap2\n      sub\n      swap1\n      return\n        /* \"contracts/31_40.sol\":6993:7079  function getArray() public view returns(uint[] memory) {... */\n    tag_4:\n      tag_10\n      tag_11\n      jump\t// in\n    tag_10:\n      mload(0x40)\n      tag_12\n      swap2\n      swap1\n      tag_13\n      jump\t// in\n    tag_12:\n      mload(0x40)\n      dup1\n      swap2\n      sub\n      swap1\n      return\n        /* \"contracts/31_40.sol\":6920:6985  function setArray(uint n) public {... */\n    tag_5:\n      tag_14\n      0x04\n      dup1\n      calldatasize\n      sub\n      dup2\n      add\n      swap1\n      tag_15\n      swap2\n      swap1\n      tag_16\n      jump\t// in\n    tag_15:\n      tag_17\n      jump\t// in\n    tag_14:\n      stop\n        /* \"contracts/31_40.sol\":7087:7903  function sorting() public view returns(uint[] memory, uint[] memory) {... */\n    tag_7:\n        /* \"contracts/31_40.sol\":7126:7139  uint[] memory */\n      0x60\n        /* \"contracts/31_40.sol\":7141:7154  uint[] memory */\n      dup1\n        /* \"contracts/31_40.sol\":7167:7190  uint[] memory copyArray */\n      0x00\n        /* \"contracts/31_40.sol\":7193:7198  array */\n      dup1\n        /* \"contracts/31_40.sol\":7167:7198  uint[] memory copyArray = array */\n      dup1\n      sload\n      dup1\n      0x20\n      mul\n      0x20\n      add\n      mload(0x40)\n      swap1\n      dup2\n      add\n      0x40\n      mstore\n      dup1\n      swap3\n      swap2\n      swap1\n      dup2\n      dup2\n      mstore\n      0x20\n      add\n      dup3\n      dup1\n      sload\n      dup1\n      iszero\n      tag_19\n      jumpi\n      0x20\n      mul\n      dup3\n      add\n      swap2\n      swap1\n      0x00\n      mstore\n      keccak256(0x00, 0x20)\n      swap1\n    tag_20:\n      dup2\n      sload\n      dup2\n      mstore\n      0x20\n      add\n      swap1\n      0x01\n      add\n      swap1\n      dup1\n      dup4\n      gt\n      tag_20\n      jumpi\n    tag_19:\n      pop\n      pop\n      pop\n      pop\n      pop\n      swap1\n      pop\n        /* \"contracts/31_40.sol\":7213:7219  uint i */\n      0x00\n        /* \"contracts/31_40.sol\":7209:7493  for(uint i = 0; i < copyArray.length-1; i++) {... */\n    tag_21:\n        /* \"contracts/31_40.sol\":7246:7247  1 */\n      0x01\n        /* \"contracts/31_40.sol\":7229:7238  copyArray */\n      dup3\n        /* \"contracts/31_40.sol\":7229:7245  copyArray.length */\n      mload\n        /* \"contracts/31_40.sol\":7229:7247  copyArray.length-1 */\n      tag_24\n      swap2\n      swap1\n      tag_25\n      jump\t// in\n    tag_24:\n        /* \"contracts/31_40.sol\":7225:7226  i */\n      dup2\n        /* \"contracts/31_40.sol\":7225:7247  i < copyArray.length-1 */\n      lt\n        /* \"contracts/31_40.sol\":7209:7493  for(uint i = 0; i < copyArray.length-1; i++) {... */\n      iszero\n      tag_22\n      jumpi\n        /* \"contracts/31_40.sol\":7273:7279  uint j */\n      0x00\n        /* \"contracts/31_40.sol\":7284:7285  1 */\n      0x01\n        /* \"contracts/31_40.sol\":7282:7283  i */\n      dup3\n        /* \"contracts/31_40.sol\":7282:7285  i+1 */\n      tag_29\n      swap2\n      swap1\n      tag_30\n      jump\t// in\n    tag_29:\n        /* \"contracts/31_40.sol\":7273:7285  uint j = i+1 */\n      swap1\n      pop\n        /* \"contracts/31_40.sol\":7269:7482  for(uint j = i+1; j < copyArray.length; j++) {... */\n    tag_26:\n        /* \"contracts/31_40.sol\":7291:7300  copyArray */\n      dup3\n        /* \"contracts/31_40.sol\":7291:7307  copyArray.length */\n      mload\n        /* \"contracts/31_40.sol\":7287:7288  j */\n      dup2\n        /* \"contracts/31_40.sol\":7287:7307  j < copyArray.length */\n      lt\n        /* \"contracts/31_40.sol\":7269:7482  for(uint j = i+1; j < copyArray.length; j++) {... */\n      iszero\n      tag_27\n      jumpi\n        /* \"contracts/31_40.sol\":7351:7360  copyArray */\n      dup3\n        /* \"contracts/31_40.sol\":7361:7362  j */\n      dup2\n        /* \"contracts/31_40.sol\":7351:7363  copyArray[j] */\n      dup2\n      mload\n      dup2\n      lt\n      tag_31\n      jumpi\n      tag_32\n      tag_33\n      jump\t// in\n    tag_32:\n    tag_31:\n      0x20\n      mul\n      0x20\n      add\n      add\n      mload\n        /* \"contracts/31_40.sol\":7336:7345  copyArray */\n      dup4\n        /* \"contracts/31_40.sol\":7346:7347  i */\n      dup4\n        /* \"contracts/31_40.sol\":7336:7348  copyArray[i] */\n      dup2\n      mload\n      dup2\n      lt\n      tag_34\n      jumpi\n      tag_35\n      tag_33\n      jump\t// in\n    tag_35:\n    tag_34:\n      0x20\n      mul\n      0x20\n      add\n      add\n      mload\n        /* \"contracts/31_40.sol\":7336:7363  copyArray[i] > copyArray[j] */\n      gt\n        /* \"contracts/31_40.sol\":7333:7467  if(copyArray[i] > copyArray[j]) {... */\n      iszero\n      tag_36\n      jumpi\n        /* \"contracts/31_40.sol\":7420:7429  copyArray */\n      dup3\n        /* \"contracts/31_40.sol\":7430:7431  j */\n      dup2\n        /* \"contracts/31_40.sol\":7420:7432  copyArray[j] */\n      dup2\n      mload\n      dup2\n      lt\n      tag_37\n      jumpi\n      tag_38\n      tag_33\n      jump\t// in\n    tag_38:\n    tag_37:\n      0x20\n      mul\n      0x20\n      add\n      add\n      mload\n        /* \"contracts/31_40.sol\":7434:7443  copyArray */\n      dup4\n        /* \"contracts/31_40.sol\":7444:7445  i */\n      dup4\n        /* \"contracts/31_40.sol\":7434:7446  copyArray[i] */\n      dup2\n      mload\n      dup2\n      lt\n      tag_39\n      jumpi\n      tag_40\n      tag_33\n      jump\t// in\n    tag_40:\n    tag_39:\n      0x20\n      mul\n      0x20\n      add\n      add\n      mload\n        /* \"contracts/31_40.sol\":7389:7398  copyArray */\n      dup5\n        /* \"contracts/31_40.sol\":7399:7400  i */\n      dup5\n        /* \"contracts/31_40.sol\":7389:7401  copyArray[i] */\n      dup2\n      mload\n      dup2\n      lt\n      tag_41\n      jumpi\n      tag_42\n      tag_33\n      jump\t// in\n    tag_42:\n    tag_41:\n      0x20\n      mul\n      0x20\n      add\n      add\n        /* \"contracts/31_40.sol\":7403:7412  copyArray */\n      dup6\n        /* \"contracts/31_40.sol\":7413:7414  j */\n      dup5\n        /* \"contracts/31_40.sol\":7403:7415  copyArray[j] */\n      dup2\n      mload\n      dup2\n      lt\n      tag_43\n      jumpi\n      tag_44\n      tag_33\n      jump\t// in\n    tag_44:\n    tag_43:\n      0x20\n      mul\n      0x20\n      add\n      add\n        /* \"contracts/31_40.sol\":7388:7447  (copyArray[i], copyArray[j]) = (copyArray[j], copyArray[i]) */\n      dup3\n      dup2\n      mstore\n      pop\n      dup3\n      dup2\n      mstore\n      pop\n      pop\n      pop\n        /* \"contracts/31_40.sol\":7333:7467  if(copyArray[i] > copyArray[j]) {... */\n    tag_36:\n        /* \"contracts/31_40.sol\":7309:7312  j++ */\n      dup1\n      dup1\n      tag_45\n      swap1\n      tag_46\n      jump\t// in\n    tag_45:\n      swap2\n      pop\n      pop\n        /* \"contracts/31_40.sol\":7269:7482  for(uint j = i+1; j < copyArray.length; j++) {... */\n      jump(tag_26)\n    tag_27:\n      pop\n        /* \"contracts/31_40.sol\":7249:7252  i++ */\n      dup1\n      dup1\n      tag_47\n      swap1\n      tag_46\n      jump\t// in\n    tag_47:\n      swap2\n      pop\n      pop\n        /* \"contracts/31_40.sol\":7209:7493  for(uint i = 0; i < copyArray.length-1; i++) {... */\n      jump(tag_21)\n    tag_22:\n      pop\n        /* \"contracts/31_40.sol\":7503:7526  uint[] memory middleNum */\n      0x60\n        /* \"contracts/31_40.sol\":7562:7563  0 */\n      0x00\n        /* \"contracts/31_40.sol\":7557:7558  2 */\n      0x02\n        /* \"contracts/31_40.sol\":7540:7549  copyArray */\n      dup4\n        /* \"contracts/31_40.sol\":7540:7556  copyArray.length */\n      mload\n        /* \"contracts/31_40.sol\":7540:7558  copyArray.length%2 */\n      tag_48\n      swap2\n      swap1\n      tag_49\n      jump\t// in\n    tag_48:\n        /* \"contracts/31_40.sol\":7540:7563  copyArray.length%2 == 0 */\n      sub\n        /* \"contracts/31_40.sol\":7537:7854  if(copyArray.length%2 == 0) {... */\n      tag_50\n      jumpi\n        /* \"contracts/31_40.sol\":7603:7604  2 */\n      0x02\n        /* \"contracts/31_40.sol\":7592:7605  new uint[](2) */\n      0xffffffffffffffff\n      dup2\n      gt\n      iszero\n      tag_51\n      jumpi\n      tag_52\n      tag_53\n      jump\t// in\n    tag_52:\n    tag_51:\n      mload(0x40)\n      swap1\n      dup1\n      dup3\n      mstore\n      dup1\n      0x20\n      mul\n      0x20\n      add\n      dup3\n      add\n      0x40\n      mstore\n      dup1\n      iszero\n      tag_54\n      jumpi\n      dup2\n      0x20\n      add\n      0x20\n      dup3\n      mul\n      dup1\n      calldatasize\n      dup4\n      calldatacopy\n      dup1\n      dup3\n      add\n      swap2\n      pop\n      pop\n      swap1\n      pop\n    tag_54:\n      pop\n        /* \"contracts/31_40.sol\":7580:7605  middleNum = new uint[](2) */\n      swap1\n      pop\n        /* \"contracts/31_40.sol\":7635:7644  copyArray */\n      dup2\n        /* \"contracts/31_40.sol\":7664:7665  1 */\n      0x01\n        /* \"contracts/31_40.sol\":7662:7663  2 */\n      0x02\n        /* \"contracts/31_40.sol\":7645:7654  copyArray */\n      dup5\n        /* \"contracts/31_40.sol\":7645:7661  copyArray.length */\n      mload\n        /* \"contracts/31_40.sol\":7645:7663  copyArray.length/2 */\n      tag_55\n      swap2\n      swap1\n      tag_56\n      jump\t// in\n    tag_55:\n        /* \"contracts/31_40.sol\":7645:7665  copyArray.length/2-1 */\n      tag_57\n      swap2\n      swap1\n      tag_25\n      jump\t// in\n    tag_57:\n        /* \"contracts/31_40.sol\":7635:7666  copyArray[copyArray.length/2-1] */\n      dup2\n      mload\n      dup2\n      lt\n      tag_58\n      jumpi\n      tag_59\n      tag_33\n      jump\t// in\n    tag_59:\n    tag_58:\n      0x20\n      mul\n      0x20\n      add\n      add\n      mload\n        /* \"contracts/31_40.sol\":7620:7629  middleNum */\n      dup2\n        /* \"contracts/31_40.sol\":7630:7631  0 */\n      0x00\n        /* \"contracts/31_40.sol\":7620:7632  middleNum[0] */\n      dup2\n      mload\n      dup2\n      lt\n      tag_60\n      jumpi\n      tag_61\n      tag_33\n      jump\t// in\n    tag_61:\n    tag_60:\n      0x20\n      mul\n      0x20\n      add\n      add\n        /* \"contracts/31_40.sol\":7620:7666  middleNum[0] = copyArray[copyArray.length/2-1] */\n      dup2\n      dup2\n      mstore\n      pop\n      pop\n        /* \"contracts/31_40.sol\":7696:7705  copyArray */\n      dup2\n        /* \"contracts/31_40.sol\":7723:7724  2 */\n      0x02\n        /* \"contracts/31_40.sol\":7706:7715  copyArray */\n      dup4\n        /* \"contracts/31_40.sol\":7706:7722  copyArray.length */\n      mload\n        /* \"contracts/31_40.sol\":7706:7724  copyArray.length/2 */\n      tag_62\n      swap2\n      swap1\n      tag_56\n      jump\t// in\n    tag_62:\n        /* \"contracts/31_40.sol\":7696:7725  copyArray[copyArray.length/2] */\n      dup2\n      mload\n      dup2\n      lt\n      tag_63\n      jumpi\n      tag_64\n      tag_33\n      jump\t// in\n    tag_64:\n    tag_63:\n      0x20\n      mul\n      0x20\n      add\n      add\n      mload\n        /* \"contracts/31_40.sol\":7681:7690  middleNum */\n      dup2\n        /* \"contracts/31_40.sol\":7691:7692  1 */\n      0x01\n        /* \"contracts/31_40.sol\":7681:7693  middleNum[1] */\n      dup2\n      mload\n      dup2\n      lt\n      tag_65\n      jumpi\n      tag_66\n      tag_33\n      jump\t// in\n    tag_66:\n    tag_65:\n      0x20\n      mul\n      0x20\n      add\n      add\n        /* \"contracts/31_40.sol\":7681:7725  middleNum[1] = copyArray[copyArray.length/2] */\n      dup2\n      dup2\n      mstore\n      pop\n      pop\n        /* \"contracts/31_40.sol\":7537:7854  if(copyArray.length%2 == 0) {... */\n      jump(tag_67)\n    tag_50:\n        /* \"contracts/31_40.sol\":7781:7782  1 */\n      0x01\n        /* \"contracts/31_40.sol\":7770:7783  new uint[](1) */\n      0xffffffffffffffff\n      dup2\n      gt\n      iszero\n      tag_68\n      jumpi\n      tag_69\n      tag_53\n      jump\t// in\n    tag_69:\n    tag_68:\n      mload(0x40)\n      swap1\n      dup1\n      dup3\n      mstore\n      dup1\n      0x20\n      mul\n      0x20\n      add\n      dup3\n      add\n      0x40\n      mstore\n      dup1\n      iszero\n      tag_70\n      jumpi\n      dup2\n      0x20\n      add\n      0x20\n      dup3\n      mul\n      dup1\n      calldatasize\n      dup4\n      calldatacopy\n      dup1\n      dup3\n      add\n      swap2\n      pop\n      pop\n      swap1\n      pop\n    tag_70:\n      pop\n        /* \"contracts/31_40.sol\":7758:7783  middleNum = new uint[](1) */\n      swap1\n      pop\n        /* \"contracts/31_40.sol\":7813:7822  copyArray */\n      dup2\n        /* \"contracts/31_40.sol\":7840:7841  2 */\n      0x02\n        /* \"contracts/31_40.sol\":7823:7832  copyArray */\n      dup4\n        /* \"contracts/31_40.sol\":7823:7839  copyArray.length */\n      mload\n        /* \"contracts/31_40.sol\":7823:7841  copyArray.length/2 */\n      tag_71\n      swap2\n      swap1\n      tag_56\n      jump\t// in\n    tag_71:\n        /* \"contracts/31_40.sol\":7813:7842  copyArray[copyArray.length/2] */\n      dup2\n      mload\n      dup2\n      lt\n      tag_72\n      jumpi\n      tag_73\n      tag_33\n      jump\t// in\n    tag_73:\n    tag_72:\n      0x20\n      mul\n      0x20\n      add\n      add\n      mload\n        /* \"contracts/31_40.sol\":7798:7807  middleNum */\n      dup2\n        /* \"contracts/31_40.sol\":7808:7809  0 */\n      0x00\n        /* \"contracts/31_40.sol\":7798:7810  middleNum[0] */\n      dup2\n      mload\n      dup2\n      lt\n      tag_74\n      jumpi\n      tag_75\n      tag_33\n      jump\t// in\n    tag_75:\n    tag_74:\n      0x20\n      mul\n      0x20\n      add\n      add\n        /* \"contracts/31_40.sol\":7798:7842  middleNum[0] = copyArray[copyArray.length/2] */\n      dup2\n      dup2\n      mstore\n      pop\n      pop\n        /* \"contracts/31_40.sol\":7537:7854  if(copyArray.length%2 == 0) {... */\n    tag_67:\n        /* \"contracts/31_40.sol\":7874:7883  copyArray */\n      dup2\n        /* \"contracts/31_40.sol\":7885:7894  middleNum */\n      dup2\n        /* \"contracts/31_40.sol\":7866:7895  return (copyArray, middleNum) */\n      swap4\n      pop\n      swap4\n      pop\n      pop\n      pop\n        /* \"contracts/31_40.sol\":7087:7903  function sorting() public view returns(uint[] memory, uint[] memory) {... */\n      swap1\n      swap2\n      jump\t// out\n        /* \"contracts/31_40.sol\":6993:7079  function getArray() public view returns(uint[] memory) {... */\n    tag_11:\n        /* \"contracts/31_40.sol\":7033:7046  uint[] memory */\n      0x60\n        /* \"contracts/31_40.sol\":7066:7071  array */\n      0x00\n        /* \"contracts/31_40.sol\":7059:7071  return array */\n      dup1\n      sload\n      dup1\n      0x20\n      mul\n      0x20\n      add\n      mload(0x40)\n      swap1\n      dup2\n      add\n      0x40\n      mstore\n      dup1\n      swap3\n      swap2\n      swap1\n      dup2\n      dup2\n      mstore\n      0x20\n      add\n      dup3\n      dup1\n      sload\n      dup1\n      iszero\n      tag_77\n      jumpi\n      0x20\n      mul\n      dup3\n      add\n      swap2\n      swap1\n      0x00\n      mstore\n      keccak256(0x00, 0x20)\n      swap1\n    tag_78:\n      dup2\n      sload\n      dup2\n      mstore\n      0x20\n      add\n      swap1\n      0x01\n      add\n      swap1\n      dup1\n      dup4\n      gt\n      tag_78\n      jumpi\n    tag_77:\n      pop\n      pop\n      pop\n      pop\n      pop\n      swap1\n      pop\n        /* \"contracts/31_40.sol\":6993:7079  function getArray() public view returns(uint[] memory) {... */\n      swap1\n      jump\t// out\n        /* \"contracts/31_40.sol\":6920:6985  function setArray(uint n) public {... */\n    tag_17:\n        /* \"contracts/31_40.sol\":6964:6969  array */\n      0x00\n        /* \"contracts/31_40.sol\":6975:6976  n */\n      dup2\n        /* \"contracts/31_40.sol\":6964:6977  array.push(n) */\n      swap1\n      dup1\n      0x01\n      dup2\n      sload\n      add\n      dup1\n      dup3\n      sstore\n      dup1\n      swap2\n      pop\n      pop\n      0x01\n      swap1\n      sub\n      swap1\n      0x00\n      mstore\n      keccak256(0x00, 0x20)\n      add\n      0x00\n      swap1\n      swap2\n      swap1\n      swap2\n      swap1\n      swap2\n      pop\n      sstore\n        /* \"contracts/31_40.sol\":6920:6985  function setArray(uint n) public {... */\n      pop\n      jump\t// out\n        /* \"#utility.yul\":7:121   */\n    tag_81:\n        /* \"#utility.yul\":74:80   */\n      0x00\n        /* \"#utility.yul\":108:113   */\n      dup2\n        /* \"#utility.yul\":102:114   */\n      mload\n        /* \"#utility.yul\":92:114   */\n      swap1\n      pop\n        /* \"#utility.yul\":7:121   */\n      swap2\n      swap1\n      pop\n      jump\t// out\n        /* \"#utility.yul\":127:311   */\n    tag_82:\n        /* \"#utility.yul\":226:237   */\n      0x00\n        /* \"#utility.yul\":260:266   */\n      dup3\n        /* \"#utility.yul\":255:258   */\n      dup3\n        /* \"#utility.yul\":248:267   */\n      mstore\n        /* \"#utility.yul\":300:304   */\n      0x20\n        /* \"#utility.yul\":295:298   */\n      dup3\n        /* \"#utility.yul\":291:305   */\n      add\n        /* \"#utility.yul\":276:305   */\n      swap1\n      pop\n        /* \"#utility.yul\":127:311   */\n      swap3\n      swap2\n      pop\n      pop\n      jump\t// out\n        /* \"#utility.yul\":317:449   */\n    tag_83:\n        /* \"#utility.yul\":384:388   */\n      0x00\n        /* \"#utility.yul\":407:410   */\n      dup2\n        /* \"#utility.yul\":399:410   */\n      swap1\n      pop\n        /* \"#utility.yul\":437:441   */\n      0x20\n        /* \"#utility.yul\":432:435   */\n      dup3\n        /* \"#utility.yul\":428:442   */\n      add\n        /* \"#utility.yul\":420:442   */\n      swap1\n      pop\n        /* \"#utility.yul\":317:449   */\n      swap2\n      swap1\n      pop\n      jump\t// out\n        /* \"#utility.yul\":455:532   */\n    tag_84:\n        /* \"#utility.yul\":492:499   */\n      0x00\n        /* \"#utility.yul\":521:526   */\n      dup2\n        /* \"#utility.yul\":510:526   */\n      swap1\n      pop\n        /* \"#utility.yul\":455:532   */\n      swap2\n      swap1\n      pop\n      jump\t// out\n        /* \"#utility.yul\":538:646   */\n    tag_85:\n        /* \"#utility.yul\":615:639   */\n      tag_102\n        /* \"#utility.yul\":633:638   */\n      dup2\n        /* \"#utility.yul\":615:639   */\n      tag_84\n      jump\t// in\n    tag_102:\n        /* \"#utility.yul\":610:613   */\n      dup3\n        /* \"#utility.yul\":603:640   */\n      mstore\n        /* \"#utility.yul\":538:646   */\n      pop\n      pop\n      jump\t// out\n        /* \"#utility.yul\":652:831   */\n    tag_86:\n        /* \"#utility.yul\":721:731   */\n      0x00\n        /* \"#utility.yul\":742:788   */\n      tag_104\n        /* \"#utility.yul\":784:787   */\n      dup4\n        /* \"#utility.yul\":776:782   */\n      dup4\n        /* \"#utility.yul\":742:788   */\n      tag_85\n      jump\t// in\n    tag_104:\n        /* \"#utility.yul\":820:824   */\n      0x20\n        /* \"#utility.yul\":815:818   */\n      dup4\n        /* \"#utility.yul\":811:825   */\n      add\n        /* \"#utility.yul\":797:825   */\n      swap1\n      pop\n        /* \"#utility.yul\":652:831   */\n      swap3\n      swap2\n      pop\n      pop\n      jump\t// out\n        /* \"#utility.yul\":837:950   */\n    tag_87:\n        /* \"#utility.yul\":907:911   */\n      0x00\n        /* \"#utility.yul\":939:943   */\n      0x20\n        /* \"#utility.yul\":934:937   */\n      dup3\n        /* \"#utility.yul\":930:944   */\n      add\n        /* \"#utility.yul\":922:944   */\n      swap1\n      pop\n        /* \"#utility.yul\":837:950   */\n      swap2\n      swap1\n      pop\n      jump\t// out\n        /* \"#utility.yul\":986:1718   */\n    tag_88:\n        /* \"#utility.yul\":1105:1108   */\n      0x00\n        /* \"#utility.yul\":1134:1188   */\n      tag_107\n        /* \"#utility.yul\":1182:1187   */\n      dup3\n        /* \"#utility.yul\":1134:1188   */\n      tag_81\n      jump\t// in\n    tag_107:\n        /* \"#utility.yul\":1204:1290   */\n      tag_108\n        /* \"#utility.yul\":1283:1289   */\n      dup2\n        /* \"#utility.yul\":1278:1281   */\n      dup6\n        /* \"#utility.yul\":1204:1290   */\n      tag_82\n      jump\t// in\n    tag_108:\n        /* \"#utility.yul\":1197:1290   */\n      swap4\n      pop\n        /* \"#utility.yul\":1314:1370   */\n      tag_109\n        /* \"#utility.yul\":1364:1369   */\n      dup4\n        /* \"#utility.yul\":1314:1370   */\n      tag_83\n      jump\t// in\n    tag_109:\n        /* \"#utility.yul\":1393:1400   */\n      dup1\n        /* \"#utility.yul\":1424:1425   */\n      0x00\n        /* \"#utility.yul\":1409:1693   */\n    tag_110:\n        /* \"#utility.yul\":1434:1440   */\n      dup4\n        /* \"#utility.yul\":1431:1432   */\n      dup2\n        /* \"#utility.yul\":1428:1441   */\n      lt\n        /* \"#utility.yul\":1409:1693   */\n      iszero\n      tag_112\n      jumpi\n        /* \"#utility.yul\":1510:1516   */\n      dup2\n        /* \"#utility.yul\":1504:1517   */\n      mload\n        /* \"#utility.yul\":1537:1600   */\n      tag_113\n        /* \"#utility.yul\":1596:1599   */\n      dup9\n        /* \"#utility.yul\":1581:1594   */\n      dup3\n        /* \"#utility.yul\":1537:1600   */\n      tag_86\n      jump\t// in\n    tag_113:\n        /* \"#utility.yul\":1530:1600   */\n      swap8\n      pop\n        /* \"#utility.yul\":1623:1683   */\n      tag_114\n        /* \"#utility.yul\":1676:1682   */\n      dup4\n        /* \"#utility.yul\":1623:1683   */\n      tag_87\n      jump\t// in\n    tag_114:\n        /* \"#utility.yul\":1613:1683   */\n      swap3\n      pop\n        /* \"#utility.yul\":1469:1693   */\n      pop\n        /* \"#utility.yul\":1456:1457   */\n      0x01\n        /* \"#utility.yul\":1453:1454   */\n      dup2\n        /* \"#utility.yul\":1449:1458   */\n      add\n        /* \"#utility.yul\":1444:1458   */\n      swap1\n      pop\n        /* \"#utility.yul\":1409:1693   */\n      jump(tag_110)\n    tag_112:\n        /* \"#utility.yul\":1413:1427   */\n      pop\n        /* \"#utility.yul\":1709:1712   */\n      dup6\n        /* \"#utility.yul\":1702:1712   */\n      swap4\n      pop\n        /* \"#utility.yul\":1110:1718   */\n      pop\n      pop\n      pop\n        /* \"#utility.yul\":986:1718   */\n      swap3\n      swap2\n      pop\n      pop\n      jump\t// out\n        /* \"#utility.yul\":1724:2358   */\n    tag_9:\n        /* \"#utility.yul\":1945:1949   */\n      0x00\n        /* \"#utility.yul\":1983:1985   */\n      0x40\n        /* \"#utility.yul\":1972:1981   */\n      dup3\n        /* \"#utility.yul\":1968:1986   */\n      add\n        /* \"#utility.yul\":1960:1986   */\n      swap1\n      pop\n        /* \"#utility.yul\":2032:2041   */\n      dup2\n        /* \"#utility.yul\":2026:2030   */\n      dup2\n        /* \"#utility.yul\":2022:2042   */\n      sub\n        /* \"#utility.yul\":2018:2019   */\n      0x00\n        /* \"#utility.yul\":2007:2016   */\n      dup4\n        /* \"#utility.yul\":2003:2020   */\n      add\n        /* \"#utility.yul\":1996:2043   */\n      mstore\n        /* \"#utility.yul\":2060:2168   */\n      tag_116\n        /* \"#utility.yul\":2163:2167   */\n      dup2\n        /* \"#utility.yul\":2154:2160   */\n      dup6\n        /* \"#utility.yul\":2060:2168   */\n      tag_88\n      jump\t// in\n    tag_116:\n        /* \"#utility.yul\":2052:2168   */\n      swap1\n      pop\n        /* \"#utility.yul\":2215:2224   */\n      dup2\n        /* \"#utility.yul\":2209:2213   */\n      dup2\n        /* \"#utility.yul\":2205:2225   */\n      sub\n        /* \"#utility.yul\":2200:2202   */\n      0x20\n        /* \"#utility.yul\":2189:2198   */\n      dup4\n        /* \"#utility.yul\":2185:2203   */\n      add\n        /* \"#utility.yul\":2178:2226   */\n      mstore\n        /* \"#utility.yul\":2243:2351   */\n      tag_117\n        /* \"#utility.yul\":2346:2350   */\n      dup2\n        /* \"#utility.yul\":2337:2343   */\n      dup5\n        /* \"#utility.yul\":2243:2351   */\n      tag_88\n      jump\t// in\n    tag_117:\n        /* \"#utility.yul\":2235:2351   */\n      swap1\n      pop\n        /* \"#utility.yul\":1724:2358   */\n      swap4\n      swap3\n      pop\n      pop\n      pop\n      jump\t// out\n        /* \"#utility.yul\":2364:2737   */\n    tag_13:\n        /* \"#utility.yul\":2507:2511   */\n      0x00\n        /* \"#utility.yul\":2545:2547   */\n      0x20\n        /* \"#utility.yul\":2534:2543   */\n      dup3\n        /* \"#utility.yul\":2530:2548   */\n      add\n        /* \"#utility.yul\":2522:2548   */\n      swap1\n      pop\n        /* \"#utility.yul\":2594:2603   */\n      dup2\n        /* \"#utility.yul\":2588:2592   */\n      dup2\n        /* \"#utility.yul\":2584:2604   */\n      sub\n        /* \"#utility.yul\":2580:2581   */\n      0x00\n        /* \"#utility.yul\":2569:2578   */\n      dup4\n        /* \"#utility.yul\":2565:2582   */\n      add\n        /* \"#utility.yul\":2558:2605   */\n      mstore\n        /* \"#utility.yul\":2622:2730   */\n      tag_119\n        /* \"#utility.yul\":2725:2729   */\n      dup2\n        /* \"#utility.yul\":2716:2722   */\n      dup5\n        /* \"#utility.yul\":2622:2730   */\n      tag_88\n      jump\t// in\n    tag_119:\n        /* \"#utility.yul\":2614:2730   */\n      swap1\n      pop\n        /* \"#utility.yul\":2364:2737   */\n      swap3\n      swap2\n      pop\n      pop\n      jump\t// out\n        /* \"#utility.yul\":2824:2941   */\n    tag_90:\n        /* \"#utility.yul\":2933:2934   */\n      0x00\n        /* \"#utility.yul\":2930:2931   */\n      dup1\n        /* \"#utility.yul\":2923:2935   */\n      revert\n        /* \"#utility.yul\":3070:3192   */\n    tag_92:\n        /* \"#utility.yul\":3143:3167   */\n      tag_124\n        /* \"#utility.yul\":3161:3166   */\n      dup2\n        /* \"#utility.yul\":3143:3167   */\n      tag_84\n      jump\t// in\n    tag_124:\n        /* \"#utility.yul\":3136:3141   */\n      dup2\n        /* \"#utility.yul\":3133:3168   */\n      eq\n        /* \"#utility.yul\":3123:3186   */\n      tag_125\n      jumpi\n        /* \"#utility.yul\":3182:3183   */\n      0x00\n        /* \"#utility.yul\":3179:3180   */\n      dup1\n        /* \"#utility.yul\":3172:3184   */\n      revert\n        /* \"#utility.yul\":3123:3186   */\n    tag_125:\n        /* \"#utility.yul\":3070:3192   */\n      pop\n      jump\t// out\n        /* \"#utility.yul\":3198:3337   */\n    tag_93:\n        /* \"#utility.yul\":3244:3249   */\n      0x00\n        /* \"#utility.yul\":3282:3288   */\n      dup2\n        /* \"#utility.yul\":3269:3289   */\n      calldataload\n        /* \"#utility.yul\":3260:3289   */\n      swap1\n      pop\n        /* \"#utility.yul\":3298:3331   */\n      tag_127\n        /* \"#utility.yul\":3325:3330   */\n      dup2\n        /* \"#utility.yul\":3298:3331   */\n      tag_92\n      jump\t// in\n    tag_127:\n        /* \"#utility.yul\":3198:3337   */\n      swap3\n      swap2\n      pop\n      pop\n      jump\t// out\n        /* \"#utility.yul\":3343:3672   */\n    tag_16:\n        /* \"#utility.yul\":3402:3408   */\n      0x00\n        /* \"#utility.yul\":3451:3453   */\n      0x20\n        /* \"#utility.yul\":3439:3448   */\n      dup3\n        /* \"#utility.yul\":3430:3437   */\n      dup5\n        /* \"#utility.yul\":3426:3449   */\n      sub\n        /* \"#utility.yul\":3422:3454   */\n      slt\n        /* \"#utility.yul\":3419:3538   */\n      iszero\n      tag_129\n      jumpi\n        /* \"#utility.yul\":3457:3536   */\n      tag_130\n      tag_90\n      jump\t// in\n    tag_130:\n        /* \"#utility.yul\":3419:3538   */\n    tag_129:\n        /* \"#utility.yul\":3577:3578   */\n      0x00\n        /* \"#utility.yul\":3602:3655   */\n      tag_131\n        /* \"#utility.yul\":3647:3654   */\n      dup5\n        /* \"#utility.yul\":3638:3644   */\n      dup3\n        /* \"#utility.yul\":3627:3636   */\n      dup6\n        /* \"#utility.yul\":3623:3645   */\n      add\n        /* \"#utility.yul\":3602:3655   */\n      tag_93\n      jump\t// in\n    tag_131:\n        /* \"#utility.yul\":3592:3655   */\n      swap2\n      pop\n        /* \"#utility.yul\":3548:3665   */\n      pop\n        /* \"#utility.yul\":3343:3672   */\n      swap3\n      swap2\n      pop\n      pop\n      jump\t// out\n        /* \"#utility.yul\":3678:3858   */\n    tag_94:\n        /* \"#utility.yul\":3726:3803   */\n      0x4e487b7100000000000000000000000000000000000000000000000000000000\n        /* \"#utility.yul\":3723:3724   */\n      0x00\n        /* \"#utility.yul\":3716:3804   */\n      mstore\n        /* \"#utility.yul\":3823:3827   */\n      0x11\n        /* \"#utility.yul\":3820:3821   */\n      0x04\n        /* \"#utility.yul\":3813:3828   */\n      mstore\n        /* \"#utility.yul\":3847:3851   */\n      0x24\n        /* \"#utility.yul\":3844:3845   */\n      0x00\n        /* \"#utility.yul\":3837:3852   */\n      revert\n        /* \"#utility.yul\":3864:4058   */\n    tag_25:\n        /* \"#utility.yul\":3904:3908   */\n      0x00\n        /* \"#utility.yul\":3924:3944   */\n      tag_134\n        /* \"#utility.yul\":3942:3943   */\n      dup3\n        /* \"#utility.yul\":3924:3944   */\n      tag_84\n      jump\t// in\n    tag_134:\n        /* \"#utility.yul\":3919:3944   */\n      swap2\n      pop\n        /* \"#utility.yul\":3958:3978   */\n      tag_135\n        /* \"#utility.yul\":3976:3977   */\n      dup4\n        /* \"#utility.yul\":3958:3978   */\n      tag_84\n      jump\t// in\n    tag_135:\n        /* \"#utility.yul\":3953:3978   */\n      swap3\n      pop\n        /* \"#utility.yul\":4002:4003   */\n      dup3\n        /* \"#utility.yul\":3999:4000   */\n      dup3\n        /* \"#utility.yul\":3995:4004   */\n      sub\n        /* \"#utility.yul\":3987:4004   */\n      swap1\n      pop\n        /* \"#utility.yul\":4026:4027   */\n      dup2\n        /* \"#utility.yul\":4020:4024   */\n      dup2\n        /* \"#utility.yul\":4017:4028   */\n      gt\n        /* \"#utility.yul\":4014:4051   */\n      iszero\n      tag_136\n      jumpi\n        /* \"#utility.yul\":4031:4049   */\n      tag_137\n      tag_94\n      jump\t// in\n    tag_137:\n        /* \"#utility.yul\":4014:4051   */\n    tag_136:\n        /* \"#utility.yul\":3864:4058   */\n      swap3\n      swap2\n      pop\n      pop\n      jump\t// out\n        /* \"#utility.yul\":4064:4255   */\n    tag_30:\n        /* \"#utility.yul\":4104:4107   */\n      0x00\n        /* \"#utility.yul\":4123:4143   */\n      tag_139\n        /* \"#utility.yul\":4141:4142   */\n      dup3\n        /* \"#utility.yul\":4123:4143   */\n      tag_84\n      jump\t// in\n    tag_139:\n        /* \"#utility.yul\":4118:4143   */\n      swap2\n      pop\n        /* \"#utility.yul\":4157:4177   */\n      tag_140\n        /* \"#utility.yul\":4175:4176   */\n      dup4\n        /* \"#utility.yul\":4157:4177   */\n      tag_84\n      jump\t// in\n    tag_140:\n        /* \"#utility.yul\":4152:4177   */\n      swap3\n      pop\n        /* \"#utility.yul\":4200:4201   */\n      dup3\n        /* \"#utility.yul\":4197:4198   */\n      dup3\n        /* \"#utility.yul\":4193:4202   */\n      add\n        /* \"#utility.yul\":4186:4202   */\n      swap1\n      pop\n        /* \"#utility.yul\":4221:4224   */\n      dup1\n        /* \"#utility.yul\":4218:4219   */\n      dup3\n        /* \"#utility.yul\":4215:4225   */\n      gt\n        /* \"#utility.yul\":4212:4248   */\n      iszero\n      tag_141\n      jumpi\n        /* \"#utility.yul\":4228:4246   */\n      tag_142\n      tag_94\n      jump\t// in\n    tag_142:\n        /* \"#utility.yul\":4212:4248   */\n    tag_141:\n        /* \"#utility.yul\":4064:4255   */\n      swap3\n      swap2\n      pop\n      pop\n      jump\t// out\n        /* \"#utility.yul\":4261:4441   */\n    tag_33:\n        /* \"#utility.yul\":4309:4386   */\n      0x4e487b7100000000000000000000000000000000000000000000000000000000\n        /* \"#utility.yul\":4306:4307   */\n      0x00\n        /* \"#utility.yul\":4299:4387   */\n      mstore\n        /* \"#utility.yul\":4406:4410   */\n      0x32\n        /* \"#utility.yul\":4403:4404   */\n      0x04\n        /* \"#utility.yul\":4396:4411   */\n      mstore\n        /* \"#utility.yul\":4430:4434   */\n      0x24\n        /* \"#utility.yul\":4427:4428   */\n      0x00\n        /* \"#utility.yul\":4420:4435   */\n      revert\n        /* \"#utility.yul\":4447:4680   */\n    tag_46:\n        /* \"#utility.yul\":4486:4489   */\n      0x00\n        /* \"#utility.yul\":4509:4533   */\n      tag_145\n        /* \"#utility.yul\":4527:4532   */\n      dup3\n        /* \"#utility.yul\":4509:4533   */\n      tag_84\n      jump\t// in\n    tag_145:\n        /* \"#utility.yul\":4500:4533   */\n      swap2\n      pop\n        /* \"#utility.yul\":4555:4621   */\n      0xffffffffffffffffffffffffffffffffffffffffffffffffffffffffffffffff\n        /* \"#utility.yul\":4548:4553   */\n      dup3\n        /* \"#utility.yul\":4545:4622   */\n      sub\n        /* \"#utility.yul\":4542:4645   */\n      tag_146\n      jumpi\n        /* \"#utility.yul\":4625:4643   */\n      tag_147\n      tag_94\n      jump\t// in\n    tag_147:\n        /* \"#utility.yul\":4542:4645   */\n    tag_146:\n        /* \"#utility.yul\":4672:4673   */\n      0x01\n        /* \"#utility.yul\":4665:4670   */\n      dup3\n        /* \"#utility.yul\":4661:4674   */\n      add\n        /* \"#utility.yul\":4654:4674   */\n      swap1\n      pop\n        /* \"#utility.yul\":4447:4680   */\n      swap2\n      swap1\n      pop\n      jump\t// out\n        /* \"#utility.yul\":4686:4866   */\n    tag_95:\n        /* \"#utility.yul\":4734:4811   */\n      0x4e487b7100000000000000000000000000000000000000000000000000000000\n        /* \"#utility.yul\":4731:4732   */\n      0x00\n        /* \"#utility.yul\":4724:4812   */\n      mstore\n        /* \"#utility.yul\":4831:4835   */\n      0x12\n        /* \"#utility.yul\":4828:4829   */\n      0x04\n        /* \"#utility.yul\":4821:4836   */\n      mstore\n        /* \"#utility.yul\":4855:4859   */\n      0x24\n        /* \"#utility.yul\":4852:4853   */\n      0x00\n        /* \"#utility.yul\":4845:4860   */\n      revert\n        /* \"#utility.yul\":4872:5048   */\n    tag_49:\n        /* \"#utility.yul\":4904:4905   */\n      0x00\n        /* \"#utility.yul\":4921:4941   */\n      tag_150\n        /* \"#utility.yul\":4939:4940   */\n      dup3\n        /* \"#utility.yul\":4921:4941   */\n      tag_84\n      jump\t// in\n    tag_150:\n        /* \"#utility.yul\":4916:4941   */\n      swap2\n      pop\n        /* \"#utility.yul\":4955:4975   */\n      tag_151\n        /* \"#utility.yul\":4973:4974   */\n      dup4\n        /* \"#utility.yul\":4955:4975   */\n      tag_84\n      jump\t// in\n    tag_151:\n        /* \"#utility.yul\":4950:4975   */\n      swap3\n      pop\n        /* \"#utility.yul\":4994:4995   */\n      dup3\n        /* \"#utility.yul\":4984:5019   */\n      tag_152\n      jumpi\n        /* \"#utility.yul\":4999:5017   */\n      tag_153\n      tag_95\n      jump\t// in\n    tag_153:\n        /* \"#utility.yul\":4984:5019   */\n    tag_152:\n        /* \"#utility.yul\":5040:5041   */\n      dup3\n        /* \"#utility.yul\":5037:5038   */\n      dup3\n        /* \"#utility.yul\":5033:5042   */\n      mod\n        /* \"#utility.yul\":5028:5042   */\n      swap1\n      pop\n        /* \"#utility.yul\":4872:5048   */\n      swap3\n      swap2\n      pop\n      pop\n      jump\t// out\n        /* \"#utility.yul\":5054:5234   */\n    tag_53:\n        /* \"#utility.yul\":5102:5179   */\n      0x4e487b7100000000000000000000000000000000000000000000000000000000\n        /* \"#utility.yul\":5099:5100   */\n      0x00\n        /* \"#utility.yul\":5092:5180   */\n      mstore\n        /* \"#utility.yul\":5199:5203   */\n      0x41\n        /* \"#utility.yul\":5196:5197   */\n      0x04\n        /* \"#utility.yul\":5189:5204   */\n      mstore\n        /* \"#utility.yul\":5223:5227   */\n      0x24\n        /* \"#utility.yul\":5220:5221   */\n      0x00\n        /* \"#utility.yul\":5213:5228   */\n      revert\n        /* \"#utility.yul\":5240:5425   */\n    tag_56:\n        /* \"#utility.yul\":5280:5281   */\n      0x00\n        /* \"#utility.yul\":5297:5317   */\n      tag_156\n        /* \"#utility.yul\":5315:5316   */\n      dup3\n        /* \"#utility.yul\":5297:5317   */\n      tag_84\n      jump\t// in\n    tag_156:\n        /* \"#utility.yul\":5292:5317   */\n      swap2\n      pop\n        /* \"#utility.yul\":5331:5351   */\n      tag_157\n        /* \"#utility.yul\":5349:5350   */\n      dup4\n        /* \"#utility.yul\":5331:5351   */\n      tag_84\n      jump\t// in\n    tag_157:\n        /* \"#utility.yul\":5326:5351   */\n      swap3\n      pop\n        /* \"#utility.yul\":5370:5371   */\n      dup3\n        /* \"#utility.yul\":5360:5395   */\n      tag_158\n      jumpi\n        /* \"#utility.yul\":5375:5393   */\n      tag_159\n      tag_95\n      jump\t// in\n    tag_159:\n        /* \"#utility.yul\":5360:5395   */\n    tag_158:\n        /* \"#utility.yul\":5417:5418   */\n      dup3\n        /* \"#utility.yul\":5414:5415   */\n      dup3\n        /* \"#utility.yul\":5410:5419   */\n      div\n        /* \"#utility.yul\":5405:5419   */\n      swap1\n      pop\n        /* \"#utility.yul\":5240:5425   */\n      swap3\n      swap2\n      pop\n      pop\n      jump\t// out\n\n    auxdata: 0xa2646970667358221220d251af475083d66ceb926bf66b183166de3cb9c3316ec22b4271cc77e28a786164736f6c63430008120033\n}\n",
				"bytecode": {
					"linkReferences": {},
					"object": "608060405234801561001057600080fd5b506107ae806100206000396000f3fe608060405234801561001057600080fd5b50600436106100415760003560e01c80633c9fab6b14610046578063d504ea1d14610065578063fb8333eb14610083575b600080fd5b61004e61009f565b60405161005c9291906104f3565b60405180910390f35b61006d6103a7565b60405161007a919061052a565b60405180910390f35b61009d6004803603810190610098919061057d565b6103ff565b005b6060806000808054806020026020016040519081016040528092919081815260200182805480156100ef57602002820191906000526020600020905b8154815260200190600101908083116100db575b5050505050905060005b6001825161010791906105d9565b81101561020157600060018261011d919061060d565b90505b82518110156101ed5782818151811061013c5761013b610641565b5b602002602001015183838151811061015757610156610641565b5b602002602001015111156101da5782818151811061017857610177610641565b5b602002602001015183838151811061019357610192610641565b5b60200260200101518484815181106101ae576101ad610641565b5b602002602001018584815181106101c8576101c7610641565b5b60200260200101828152508281525050505b80806101e590610670565b915050610120565b5080806101f990610670565b9150506100f9565b50606060006002835161021491906106e7565b0361030657600267ffffffffffffffff81111561023457610233610718565b5b6040519080825280602002602001820160405280156102625781602001602082028036833780820191505090505b509050816001600284516102769190610747565b61028091906105d9565b8151811061029157610290610641565b5b6020026020010151816000815181106102ad576102ac610641565b5b60200260200101818152505081600283516102c89190610747565b815181106102d9576102d8610641565b5b6020026020010151816001815181106102f5576102f4610641565b5b60200260200101818152505061039b565b600167ffffffffffffffff81111561032157610320610718565b5b60405190808252806020026020018201604052801561034f5781602001602082028036833780820191505090505b50905081600283516103619190610747565b8151811061037257610371610641565b5b60200260200101518160008151811061038e5761038d610641565b5b6020026020010181815250505b81819350935050509091565b606060008054806020026020016040519081016040528092919081815260200182805480156103f557602002820191906000526020600020905b8154815260200190600101908083116103e1575b5050505050905090565b600081908060018154018082558091505060019003906000526020600020016000909190919091505550565b600081519050919050565b600082825260208201905092915050565b6000819050602082019050919050565b6000819050919050565b61046a81610457565b82525050565b600061047c8383610461565b60208301905092915050565b6000602082019050919050565b60006104a08261042b565b6104aa8185610436565b93506104b583610447565b8060005b838110156104e65781516104cd8882610470565b97506104d883610488565b9250506001810190506104b9565b5085935050505092915050565b6000604082019050818103600083015261050d8185610495565b905081810360208301526105218184610495565b90509392505050565b600060208201905081810360008301526105448184610495565b905092915050565b600080fd5b61055a81610457565b811461056557600080fd5b50565b60008135905061057781610551565b92915050565b6000602082840312156105935761059261054c565b5b60006105a184828501610568565b91505092915050565b7f4e487b7100000000000000000000000000000000000000000000000000000000600052601160045260246000fd5b60006105e482610457565b91506105ef83610457565b9250828203905081811115610607576106066105aa565b5b92915050565b600061061882610457565b915061062383610457565b925082820190508082111561063b5761063a6105aa565b5b92915050565b7f4e487b7100000000000000000000000000000000000000000000000000000000600052603260045260246000fd5b600061067b82610457565b91507fffffffffffffffffffffffffffffffffffffffffffffffffffffffffffffffff82036106ad576106ac6105aa565b5b600182019050919050565b7f4e487b7100000000000000000000000000000000000000000000000000000000600052601260045260246000fd5b60006106f282610457565b91506106fd83610457565b92508261070d5761070c6106b8565b5b828206905092915050565b7f4e487b7100000000000000000000000000000000000000000000000000000000600052604160045260246000fd5b600061075282610457565b915061075d83610457565b92508261076d5761076c6106b8565b5b82820490509291505056fea2646970667358221220d251af475083d66ceb926bf66b183166de3cb9c3316ec22b4271cc77e28a786164736f6c63430008120033",
					"opcodes": "PUSH1 0x80 PUSH1 0x40 MSTORE CALLVALUE DUP1 ISZERO PUSH2 0x10 JUMPI PUSH1 0x0 DUP1 REVERT JUMPDEST POP PUSH2 0x7AE DUP1 PUSH2 0x20 PUSH1 0x0 CODECOPY PUSH1 0x0 RETURN INVALID PUSH1 0x80 PUSH1 0x40 MSTORE CALLVALUE DUP1 ISZERO PUSH2 0x10 JUMPI PUSH1 0x0 DUP1 REVERT JUMPDEST POP PUSH1 0x4 CALLDATASIZE LT PUSH2 0x41 JUMPI PUSH1 0x0 CALLDATALOAD PUSH1 0xE0 SHR DUP1 PUSH4 0x3C9FAB6B EQ PUSH2 0x46 JUMPI DUP1 PUSH4 0xD504EA1D EQ PUSH2 0x65 JUMPI DUP1 PUSH4 0xFB8333EB EQ PUSH2 0x83 JUMPI JUMPDEST PUSH1 0x0 DUP1 REVERT JUMPDEST PUSH2 0x4E PUSH2 0x9F JUMP JUMPDEST PUSH1 0x40 MLOAD PUSH2 0x5C SWAP3 SWAP2 SWAP1 PUSH2 0x4F3 JUMP JUMPDEST PUSH1 0x40 MLOAD DUP1 SWAP2 SUB SWAP1 RETURN JUMPDEST PUSH2 0x6D PUSH2 0x3A7 JUMP JUMPDEST PUSH1 0x40 MLOAD PUSH2 0x7A SWAP2 SWAP1 PUSH2 0x52A JUMP JUMPDEST PUSH1 0x40 MLOAD DUP1 SWAP2 SUB SWAP1 RETURN JUMPDEST PUSH2 0x9D PUSH1 0x4 DUP1 CALLDATASIZE SUB DUP2 ADD SWAP1 PUSH2 0x98 SWAP2 SWAP1 PUSH2 0x57D JUMP JUMPDEST PUSH2 0x3FF JUMP JUMPDEST STOP JUMPDEST PUSH1 0x60 DUP1 PUSH1 0x0 DUP1 DUP1 SLOAD DUP1 PUSH1 0x20 MUL PUSH1 0x20 ADD PUSH1 0x40 MLOAD SWAP1 DUP2 ADD PUSH1 0x40 MSTORE DUP1 SWAP3 SWAP2 SWAP1 DUP2 DUP2 MSTORE PUSH1 0x20 ADD DUP3 DUP1 SLOAD DUP1 ISZERO PUSH2 0xEF JUMPI PUSH1 0x20 MUL DUP3 ADD SWAP2 SWAP1 PUSH1 0x0 MSTORE PUSH1 0x20 PUSH1 0x0 KECCAK256 SWAP1 JUMPDEST DUP2 SLOAD DUP2 MSTORE PUSH1 0x20 ADD SWAP1 PUSH1 0x1 ADD SWAP1 DUP1 DUP4 GT PUSH2 0xDB JUMPI JUMPDEST POP POP POP POP POP SWAP1 POP PUSH1 0x0 JUMPDEST PUSH1 0x1 DUP3 MLOAD PUSH2 0x107 SWAP2 SWAP1 PUSH2 0x5D9 JUMP JUMPDEST DUP2 LT ISZERO PUSH2 0x201 JUMPI PUSH1 0x0 PUSH1 0x1 DUP3 PUSH2 0x11D SWAP2 SWAP1 PUSH2 0x60D JUMP JUMPDEST SWAP1 POP JUMPDEST DUP3 MLOAD DUP2 LT ISZERO PUSH2 0x1ED JUMPI DUP3 DUP2 DUP2 MLOAD DUP2 LT PUSH2 0x13C JUMPI PUSH2 0x13B PUSH2 0x641 JUMP JUMPDEST JUMPDEST PUSH1 0x20 MUL PUSH1 0x20 ADD ADD MLOAD DUP4 DUP4 DUP2 MLOAD DUP2 LT PUSH2 0x157 JUMPI PUSH2 0x156 PUSH2 0x641 JUMP JUMPDEST JUMPDEST PUSH1 0x20 MUL PUSH1 0x20 ADD ADD MLOAD GT ISZERO PUSH2 0x1DA JUMPI DUP3 DUP2 DUP2 MLOAD DUP2 LT PUSH2 0x178 JUMPI PUSH2 0x177 PUSH2 0x641 JUMP JUMPDEST JUMPDEST PUSH1 0x20 MUL PUSH1 0x20 ADD ADD MLOAD DUP4 DUP4 DUP2 MLOAD DUP2 LT PUSH2 0x193 JUMPI PUSH2 0x192 PUSH2 0x641 JUMP JUMPDEST JUMPDEST PUSH1 0x20 MUL PUSH1 0x20 ADD ADD MLOAD DUP5 DUP5 DUP2 MLOAD DUP2 LT PUSH2 0x1AE JUMPI PUSH2 0x1AD PUSH2 0x641 JUMP JUMPDEST JUMPDEST PUSH1 0x20 MUL PUSH1 0x20 ADD ADD DUP6 DUP5 DUP2 MLOAD DUP2 LT PUSH2 0x1C8 JUMPI PUSH2 0x1C7 PUSH2 0x641 JUMP JUMPDEST JUMPDEST PUSH1 0x20 MUL PUSH1 0x20 ADD ADD DUP3 DUP2 MSTORE POP DUP3 DUP2 MSTORE POP POP POP JUMPDEST DUP1 DUP1 PUSH2 0x1E5 SWAP1 PUSH2 0x670 JUMP JUMPDEST SWAP2 POP POP PUSH2 0x120 JUMP JUMPDEST POP DUP1 DUP1 PUSH2 0x1F9 SWAP1 PUSH2 0x670 JUMP JUMPDEST SWAP2 POP POP PUSH2 0xF9 JUMP JUMPDEST POP PUSH1 0x60 PUSH1 0x0 PUSH1 0x2 DUP4 MLOAD PUSH2 0x214 SWAP2 SWAP1 PUSH2 0x6E7 JUMP JUMPDEST SUB PUSH2 0x306 JUMPI PUSH1 0x2 PUSH8 0xFFFFFFFFFFFFFFFF DUP2 GT ISZERO PUSH2 0x234 JUMPI PUSH2 0x233 PUSH2 0x718 JUMP JUMPDEST JUMPDEST PUSH1 0x40 MLOAD SWAP1 DUP1 DUP3 MSTORE DUP1 PUSH1 0x20 MUL PUSH1 0x20 ADD DUP3 ADD PUSH1 0x40 MSTORE DUP1 ISZERO PUSH2 0x262 JUMPI DUP2 PUSH1 0x20 ADD PUSH1 0x20 DUP3 MUL DUP1 CALLDATASIZE DUP4 CALLDATACOPY DUP1 DUP3 ADD SWAP2 POP POP SWAP1 POP JUMPDEST POP SWAP1 POP DUP2 PUSH1 0x1 PUSH1 0x2 DUP5 MLOAD PUSH2 0x276 SWAP2 SWAP1 PUSH2 0x747 JUMP JUMPDEST PUSH2 0x280 SWAP2 SWAP1 PUSH2 0x5D9 JUMP JUMPDEST DUP2 MLOAD DUP2 LT PUSH2 0x291 JUMPI PUSH2 0x290 PUSH2 0x641 JUMP JUMPDEST JUMPDEST PUSH1 0x20 MUL PUSH1 0x20 ADD ADD MLOAD DUP2 PUSH1 0x0 DUP2 MLOAD DUP2 LT PUSH2 0x2AD JUMPI PUSH2 0x2AC PUSH2 0x641 JUMP JUMPDEST JUMPDEST PUSH1 0x20 MUL PUSH1 0x20 ADD ADD DUP2 DUP2 MSTORE POP POP DUP2 PUSH1 0x2 DUP4 MLOAD PUSH2 0x2C8 SWAP2 SWAP1 PUSH2 0x747 JUMP JUMPDEST DUP2 MLOAD DUP2 LT PUSH2 0x2D9 JUMPI PUSH2 0x2D8 PUSH2 0x641 JUMP JUMPDEST JUMPDEST PUSH1 0x20 MUL PUSH1 0x20 ADD ADD MLOAD DUP2 PUSH1 0x1 DUP2 MLOAD DUP2 LT PUSH2 0x2F5 JUMPI PUSH2 0x2F4 PUSH2 0x641 JUMP JUMPDEST JUMPDEST PUSH1 0x20 MUL PUSH1 0x20 ADD ADD DUP2 DUP2 MSTORE POP POP PUSH2 0x39B JUMP JUMPDEST PUSH1 0x1 PUSH8 0xFFFFFFFFFFFFFFFF DUP2 GT ISZERO PUSH2 0x321 JUMPI PUSH2 0x320 PUSH2 0x718 JUMP JUMPDEST JUMPDEST PUSH1 0x40 MLOAD SWAP1 DUP1 DUP3 MSTORE DUP1 PUSH1 0x20 MUL PUSH1 0x20 ADD DUP3 ADD PUSH1 0x40 MSTORE DUP1 ISZERO PUSH2 0x34F JUMPI DUP2 PUSH1 0x20 ADD PUSH1 0x20 DUP3 MUL DUP1 CALLDATASIZE DUP4 CALLDATACOPY DUP1 DUP3 ADD SWAP2 POP POP SWAP1 POP JUMPDEST POP SWAP1 POP DUP2 PUSH1 0x2 DUP4 MLOAD PUSH2 0x361 SWAP2 SWAP1 PUSH2 0x747 JUMP JUMPDEST DUP2 MLOAD DUP2 LT PUSH2 0x372 JUMPI PUSH2 0x371 PUSH2 0x641 JUMP JUMPDEST JUMPDEST PUSH1 0x20 MUL PUSH1 0x20 ADD ADD MLOAD DUP2 PUSH1 0x0 DUP2 MLOAD DUP2 LT PUSH2 0x38E JUMPI PUSH2 0x38D PUSH2 0x641 JUMP JUMPDEST JUMPDEST PUSH1 0x20 MUL PUSH1 0x20 ADD ADD DUP2 DUP2 MSTORE POP POP JUMPDEST DUP2 DUP2 SWAP4 POP SWAP4 POP POP POP SWAP1 SWAP2 JUMP JUMPDEST PUSH1 0x60 PUSH1 0x0 DUP1 SLOAD DUP1 PUSH1 0x20 MUL PUSH1 0x20 ADD PUSH1 0x40 MLOAD SWAP1 DUP2 ADD PUSH1 0x40 MSTORE DUP1 SWAP3 SWAP2 SWAP1 DUP2 DUP2 MSTORE PUSH1 0x20 ADD DUP3 DUP1 SLOAD DUP1 ISZERO PUSH2 0x3F5 JUMPI PUSH1 0x20 MUL DUP3 ADD SWAP2 SWAP1 PUSH1 0x0 MSTORE PUSH1 0x20 PUSH1 0x0 KECCAK256 SWAP1 JUMPDEST DUP2 SLOAD DUP2 MSTORE PUSH1 0x20 ADD SWAP1 PUSH1 0x1 ADD SWAP1 DUP1 DUP4 GT PUSH2 0x3E1 JUMPI JUMPDEST POP POP POP POP POP SWAP1 POP SWAP1 JUMP JUMPDEST PUSH1 0x0 DUP2 SWAP1 DUP1 PUSH1 0x1 DUP2 SLOAD ADD DUP1 DUP3 SSTORE DUP1 SWAP2 POP POP PUSH1 0x1 SWAP1 SUB SWAP1 PUSH1 0x0 MSTORE PUSH1 0x20 PUSH1 0x0 KECCAK256 ADD PUSH1 0x0 SWAP1 SWAP2 SWAP1 SWAP2 SWAP1 SWAP2 POP SSTORE POP JUMP JUMPDEST PUSH1 0x0 DUP2 MLOAD SWAP1 POP SWAP2 SWAP1 POP JUMP JUMPDEST PUSH1 0x0 DUP3 DUP3 MSTORE PUSH1 0x20 DUP3 ADD SWAP1 POP SWAP3 SWAP2 POP POP JUMP JUMPDEST PUSH1 0x0 DUP2 SWAP1 POP PUSH1 0x20 DUP3 ADD SWAP1 POP SWAP2 SWAP1 POP JUMP JUMPDEST PUSH1 0x0 DUP2 SWAP1 POP SWAP2 SWAP1 POP JUMP JUMPDEST PUSH2 0x46A DUP2 PUSH2 0x457 JUMP JUMPDEST DUP3 MSTORE POP POP JUMP JUMPDEST PUSH1 0x0 PUSH2 0x47C DUP4 DUP4 PUSH2 0x461 JUMP JUMPDEST PUSH1 0x20 DUP4 ADD SWAP1 POP SWAP3 SWAP2 POP POP JUMP JUMPDEST PUSH1 0x0 PUSH1 0x20 DUP3 ADD SWAP1 POP SWAP2 SWAP1 POP JUMP JUMPDEST PUSH1 0x0 PUSH2 0x4A0 DUP3 PUSH2 0x42B JUMP JUMPDEST PUSH2 0x4AA DUP2 DUP6 PUSH2 0x436 JUMP JUMPDEST SWAP4 POP PUSH2 0x4B5 DUP4 PUSH2 0x447 JUMP JUMPDEST DUP1 PUSH1 0x0 JUMPDEST DUP4 DUP2 LT ISZERO PUSH2 0x4E6 JUMPI DUP2 MLOAD PUSH2 0x4CD DUP9 DUP3 PUSH2 0x470 JUMP JUMPDEST SWAP8 POP PUSH2 0x4D8 DUP4 PUSH2 0x488 JUMP JUMPDEST SWAP3 POP POP PUSH1 0x1 DUP2 ADD SWAP1 POP PUSH2 0x4B9 JUMP JUMPDEST POP DUP6 SWAP4 POP POP POP POP SWAP3 SWAP2 POP POP JUMP JUMPDEST PUSH1 0x0 PUSH1 0x40 DUP3 ADD SWAP1 POP DUP2 DUP2 SUB PUSH1 0x0 DUP4 ADD MSTORE PUSH2 0x50D DUP2 DUP6 PUSH2 0x495 JUMP JUMPDEST SWAP1 POP DUP2 DUP2 SUB PUSH1 0x20 DUP4 ADD MSTORE PUSH2 0x521 DUP2 DUP5 PUSH2 0x495 JUMP JUMPDEST SWAP1 POP SWAP4 SWAP3 POP POP POP JUMP JUMPDEST PUSH1 0x0 PUSH1 0x20 DUP3 ADD SWAP1 POP DUP2 DUP2 SUB PUSH1 0x0 DUP4 ADD MSTORE PUSH2 0x544 DUP2 DUP5 PUSH2 0x495 JUMP JUMPDEST SWAP1 POP SWAP3 SWAP2 POP POP JUMP JUMPDEST PUSH1 0x0 DUP1 REVERT JUMPDEST PUSH2 0x55A DUP2 PUSH2 0x457 JUMP JUMPDEST DUP2 EQ PUSH2 0x565 JUMPI PUSH1 0x0 DUP1 REVERT JUMPDEST POP JUMP JUMPDEST PUSH1 0x0 DUP2 CALLDATALOAD SWAP1 POP PUSH2 0x577 DUP2 PUSH2 0x551 JUMP JUMPDEST SWAP3 SWAP2 POP POP JUMP JUMPDEST PUSH1 0x0 PUSH1 0x20 DUP3 DUP5 SUB SLT ISZERO PUSH2 0x593 JUMPI PUSH2 0x592 PUSH2 0x54C JUMP JUMPDEST JUMPDEST PUSH1 0x0 PUSH2 0x5A1 DUP5 DUP3 DUP6 ADD PUSH2 0x568 JUMP JUMPDEST SWAP2 POP POP SWAP3 SWAP2 POP POP JUMP JUMPDEST PUSH32 0x4E487B7100000000000000000000000000000000000000000000000000000000 PUSH1 0x0 MSTORE PUSH1 0x11 PUSH1 0x4 MSTORE PUSH1 0x24 PUSH1 0x0 REVERT JUMPDEST PUSH1 0x0 PUSH2 0x5E4 DUP3 PUSH2 0x457 JUMP JUMPDEST SWAP2 POP PUSH2 0x5EF DUP4 PUSH2 0x457 JUMP JUMPDEST SWAP3 POP DUP3 DUP3 SUB SWAP1 POP DUP2 DUP2 GT ISZERO PUSH2 0x607 JUMPI PUSH2 0x606 PUSH2 0x5AA JUMP JUMPDEST JUMPDEST SWAP3 SWAP2 POP POP JUMP JUMPDEST PUSH1 0x0 PUSH2 0x618 DUP3 PUSH2 0x457 JUMP JUMPDEST SWAP2 POP PUSH2 0x623 DUP4 PUSH2 0x457 JUMP JUMPDEST SWAP3 POP DUP3 DUP3 ADD SWAP1 POP DUP1 DUP3 GT ISZERO PUSH2 0x63B JUMPI PUSH2 0x63A PUSH2 0x5AA JUMP JUMPDEST JUMPDEST SWAP3 SWAP2 POP POP JUMP JUMPDEST PUSH32 0x4E487B7100000000000000000000000000000000000000000000000000000000 PUSH1 0x0 MSTORE PUSH1 0x32 PUSH1 0x4 MSTORE PUSH1 0x24 PUSH1 0x0 REVERT JUMPDEST PUSH1 0x0 PUSH2 0x67B DUP3 PUSH2 0x457 JUMP JUMPDEST SWAP2 POP PUSH32 0xFFFFFFFFFFFFFFFFFFFFFFFFFFFFFFFFFFFFFFFFFFFFFFFFFFFFFFFFFFFFFFFF DUP3 SUB PUSH2 0x6AD JUMPI PUSH2 0x6AC PUSH2 0x5AA JUMP JUMPDEST JUMPDEST PUSH1 0x1 DUP3 ADD SWAP1 POP SWAP2 SWAP1 POP JUMP JUMPDEST PUSH32 0x4E487B7100000000000000000000000000000000000000000000000000000000 PUSH1 0x0 MSTORE PUSH1 0x12 PUSH1 0x4 MSTORE PUSH1 0x24 PUSH1 0x0 REVERT JUMPDEST PUSH1 0x0 PUSH2 0x6F2 DUP3 PUSH2 0x457 JUMP JUMPDEST SWAP2 POP PUSH2 0x6FD DUP4 PUSH2 0x457 JUMP JUMPDEST SWAP3 POP DUP3 PUSH2 0x70D JUMPI PUSH2 0x70C PUSH2 0x6B8 JUMP JUMPDEST JUMPDEST DUP3 DUP3 MOD SWAP1 POP SWAP3 SWAP2 POP POP JUMP JUMPDEST PUSH32 0x4E487B7100000000000000000000000000000000000000000000000000000000 PUSH1 0x0 MSTORE PUSH1 0x41 PUSH1 0x4 MSTORE PUSH1 0x24 PUSH1 0x0 REVERT JUMPDEST PUSH1 0x0 PUSH2 0x752 DUP3 PUSH2 0x457 JUMP JUMPDEST SWAP2 POP PUSH2 0x75D DUP4 PUSH2 0x457 JUMP JUMPDEST SWAP3 POP DUP3 PUSH2 0x76D JUMPI PUSH2 0x76C PUSH2 0x6B8 JUMP JUMPDEST JUMPDEST DUP3 DUP3 DIV SWAP1 POP SWAP3 SWAP2 POP POP JUMP INVALID LOG2 PUSH5 0x6970667358 0x22 SLT KECCAK256 0xD2 MLOAD 0xAF SELFBALANCE POP DUP4 0xD6 PUSH13 0xEB926BF66B183166DE3CB9C331 PUSH15 0xC22B4271CC77E28A786164736F6C63 NUMBER STOP ADDMOD SLT STOP CALLER "
				},
				"gasEstimates": {
					"creation": {
						"codeDepositCost": "393200",
						"executionCost": "430",
						"totalCost": "393630"
					},
					"external": {
						"getArray()": "infinite",
						"setArray(uint256)": "46851",
						"sorting()": "infinite"
					}
				},
				"methodIdentifiers": {
					"getArray()": "d504ea1d",
					"setArray(uint256)": "fb8333eb",
					"sorting()": "3c9fab6b"
				}
			},
			"storageLayout": {
				"storage": [
					{
						"astId": 537,
						"contract": "contracts/31_40.sol:Quiz40",
						"label": "array",
						"offset": 0,
						"slot": "0",
						"type": "t_array(t_uint256)dyn_storage"
					}
				],
				"types": {
					"t_array(t_uint256)dyn_storage": {
						"base": "t_uint256",
						"encoding": "dynamic_array",
						"label": "uint256[]",
						"numberOfBytes": "32"
					},
					"t_uint256": {
						"encoding": "inplace",
						"label": "uint256",
						"numberOfBytes": "32"
					}
				}
			},
			"userdoc": {
				"kind": "user",
				"methods": {},
				"version": 1
			}
		}
	}
}