{
	"contracts/31_40.sol": {
		"Quiz32": {
			"abi": [
				{
					"inputs": [],
					"name": "getArray",
					"outputs": [
						{
							"internalType": "uint256[]",
							"name": "",
							"type": "uint256[]"
						}
					],
					"stateMutability": "view",
					"type": "function"
				},
				{
					"inputs": [
						{
							"internalType": "uint256",
							"name": "n",
							"type": "uint256"
						}
					],
					"name": "setArray",
					"outputs": [],
					"stateMutability": "nonpayable",
					"type": "function"
				}
			],
			"devdoc": {
				"kind": "dev",
				"methods": {},
				"version": 1
			},
			"evm": {
				"assembly": "    /* \"contracts/31_40.sol\":528:1007  contract Quiz32 {... */\n  mstore(0x40, 0x80)\n  callvalue\n  dup1\n  iszero\n  tag_1\n  jumpi\n  0x00\n  dup1\n  revert\ntag_1:\n  pop\n  dataSize(sub_0)\n  dup1\n  dataOffset(sub_0)\n  0x00\n  codecopy\n  0x00\n  return\nstop\n\nsub_0: assembly {\n        /* \"contracts/31_40.sol\":528:1007  contract Quiz32 {... */\n      mstore(0x40, 0x80)\n      callvalue\n      dup1\n      iszero\n      tag_1\n      jumpi\n      0x00\n      dup1\n      revert\n    tag_1:\n      pop\n      jumpi(tag_2, lt(calldatasize, 0x04))\n      shr(0xe0, calldataload(0x00))\n      dup1\n      0xd504ea1d\n      eq\n      tag_3\n      jumpi\n      dup1\n      0xfb8333eb\n      eq\n      tag_4\n      jumpi\n    tag_2:\n      0x00\n      dup1\n      revert\n        /* \"contracts/31_40.sol\":918:1004  function getArray() public view returns(uint[] memory) {... */\n    tag_3:\n      tag_5\n      tag_6\n      jump\t// in\n    tag_5:\n      mload(0x40)\n      tag_7\n      swap2\n      swap1\n      tag_8\n      jump\t// in\n    tag_7:\n      mload(0x40)\n      dup1\n      swap2\n      sub\n      swap1\n      return\n        /* \"contracts/31_40.sol\":804:910  function setArray(uint n) public {... */\n    tag_4:\n      tag_9\n      0x04\n      dup1\n      calldatasize\n      sub\n      dup2\n      add\n      swap1\n      tag_10\n      swap2\n      swap1\n      tag_11\n      jump\t// in\n    tag_10:\n      tag_12\n      jump\t// in\n    tag_9:\n      stop\n        /* \"contracts/31_40.sol\":918:1004  function getArray() public view returns(uint[] memory) {... */\n    tag_6:\n        /* \"contracts/31_40.sol\":958:971  uint[] memory */\n      0x60\n        /* \"contracts/31_40.sol\":991:996  array */\n      0x00\n        /* \"contracts/31_40.sol\":984:996  return array */\n      dup1\n      sload\n      dup1\n      0x20\n      mul\n      0x20\n      add\n      mload(0x40)\n      swap1\n      dup2\n      add\n      0x40\n      mstore\n      dup1\n      swap3\n      swap2\n      swap1\n      dup2\n      dup2\n      mstore\n      0x20\n      add\n      dup3\n      dup1\n      sload\n      dup1\n      iszero\n      tag_14\n      jumpi\n      0x20\n      mul\n      dup3\n      add\n      swap2\n      swap1\n      0x00\n      mstore\n      keccak256(0x00, 0x20)\n      swap1\n    tag_15:\n      dup2\n      sload\n      dup2\n      mstore\n      0x20\n      add\n      swap1\n      0x01\n      add\n      swap1\n      dup1\n      dup4\n      gt\n      tag_15\n      jumpi\n    tag_14:\n      pop\n      pop\n      pop\n      pop\n      pop\n      swap1\n      pop\n        /* \"contracts/31_40.sol\":918:1004  function getArray() public view returns(uint[] memory) {... */\n      swap1\n      jump\t// out\n        /* \"contracts/31_40.sol\":804:910  function setArray(uint n) public {... */\n    tag_12:\n        /* \"contracts/31_40.sol\":863:864  0 */\n      0x00\n        /* \"contracts/31_40.sol\":858:859  3 */\n      0x03\n        /* \"contracts/31_40.sol\":856:857  n */\n      dup3\n        /* \"contracts/31_40.sol\":856:859  n%3 */\n      tag_17\n      swap2\n      swap1\n      tag_18\n      jump\t// in\n    tag_17:\n        /* \"contracts/31_40.sol\":856:864  n%3 == 0 */\n      eq\n        /* \"contracts/31_40.sol\":856:877  n%3 == 0 && n%10 != 0 */\n      dup1\n      iszero\n      tag_19\n      jumpi\n      pop\n        /* \"contracts/31_40.sol\":876:877  0 */\n      0x00\n        /* \"contracts/31_40.sol\":870:872  10 */\n      0x0a\n        /* \"contracts/31_40.sol\":868:869  n */\n      dup3\n        /* \"contracts/31_40.sol\":868:872  n%10 */\n      tag_20\n      swap2\n      swap1\n      tag_18\n      jump\t// in\n    tag_20:\n        /* \"contracts/31_40.sol\":868:877  n%10 != 0 */\n      eq\n      iszero\n        /* \"contracts/31_40.sol\":856:877  n%3 == 0 && n%10 != 0 */\n    tag_19:\n        /* \"contracts/31_40.sol\":848:878  require(n%3 == 0 && n%10 != 0) */\n      tag_21\n      jumpi\n      0x00\n      dup1\n      revert\n    tag_21:\n        /* \"contracts/31_40.sol\":889:894  array */\n      0x00\n        /* \"contracts/31_40.sol\":900:901  n */\n      dup2\n        /* \"contracts/31_40.sol\":889:902  array.push(n) */\n      swap1\n      dup1\n      0x01\n      dup2\n      sload\n      add\n      dup1\n      dup3\n      sstore\n      dup1\n      swap2\n      pop\n      pop\n      0x01\n      swap1\n      sub\n      swap1\n      0x00\n      mstore\n      keccak256(0x00, 0x20)\n      add\n      0x00\n      swap1\n      swap2\n      swap1\n      swap2\n      swap1\n      swap2\n      pop\n      sstore\n        /* \"contracts/31_40.sol\":804:910  function setArray(uint n) public {... */\n      pop\n      jump\t// out\n        /* \"#utility.yul\":7:121   */\n    tag_23:\n        /* \"#utility.yul\":74:80   */\n      0x00\n        /* \"#utility.yul\":108:113   */\n      dup2\n        /* \"#utility.yul\":102:114   */\n      mload\n        /* \"#utility.yul\":92:114   */\n      swap1\n      pop\n        /* \"#utility.yul\":7:121   */\n      swap2\n      swap1\n      pop\n      jump\t// out\n        /* \"#utility.yul\":127:311   */\n    tag_24:\n        /* \"#utility.yul\":226:237   */\n      0x00\n        /* \"#utility.yul\":260:266   */\n      dup3\n        /* \"#utility.yul\":255:258   */\n      dup3\n        /* \"#utility.yul\":248:267   */\n      mstore\n        /* \"#utility.yul\":300:304   */\n      0x20\n        /* \"#utility.yul\":295:298   */\n      dup3\n        /* \"#utility.yul\":291:305   */\n      add\n        /* \"#utility.yul\":276:305   */\n      swap1\n      pop\n        /* \"#utility.yul\":127:311   */\n      swap3\n      swap2\n      pop\n      pop\n      jump\t// out\n        /* \"#utility.yul\":317:449   */\n    tag_25:\n        /* \"#utility.yul\":384:388   */\n      0x00\n        /* \"#utility.yul\":407:410   */\n      dup2\n        /* \"#utility.yul\":399:410   */\n      swap1\n      pop\n        /* \"#utility.yul\":437:441   */\n      0x20\n        /* \"#utility.yul\":432:435   */\n      dup3\n        /* \"#utility.yul\":428:442   */\n      add\n        /* \"#utility.yul\":420:442   */\n      swap1\n      pop\n        /* \"#utility.yul\":317:449   */\n      swap2\n      swap1\n      pop\n      jump\t// out\n        /* \"#utility.yul\":455:532   */\n    tag_26:\n        /* \"#utility.yul\":492:499   */\n      0x00\n        /* \"#utility.yul\":521:526   */\n      dup2\n        /* \"#utility.yul\":510:526   */\n      swap1\n      pop\n        /* \"#utility.yul\":455:532   */\n      swap2\n      swap1\n      pop\n      jump\t// out\n        /* \"#utility.yul\":538:646   */\n    tag_27:\n        /* \"#utility.yul\":615:639   */\n      tag_43\n        /* \"#utility.yul\":633:638   */\n      dup2\n        /* \"#utility.yul\":615:639   */\n      tag_26\n      jump\t// in\n    tag_43:\n        /* \"#utility.yul\":610:613   */\n      dup3\n        /* \"#utility.yul\":603:640   */\n      mstore\n        /* \"#utility.yul\":538:646   */\n      pop\n      pop\n      jump\t// out\n        /* \"#utility.yul\":652:831   */\n    tag_28:\n        /* \"#utility.yul\":721:731   */\n      0x00\n        /* \"#utility.yul\":742:788   */\n      tag_45\n        /* \"#utility.yul\":784:787   */\n      dup4\n        /* \"#utility.yul\":776:782   */\n      dup4\n        /* \"#utility.yul\":742:788   */\n      tag_27\n      jump\t// in\n    tag_45:\n        /* \"#utility.yul\":820:824   */\n      0x20\n        /* \"#utility.yul\":815:818   */\n      dup4\n        /* \"#utility.yul\":811:825   */\n      add\n        /* \"#utility.yul\":797:825   */\n      swap1\n      pop\n        /* \"#utility.yul\":652:831   */\n      swap3\n      swap2\n      pop\n      pop\n      jump\t// out\n        /* \"#utility.yul\":837:950   */\n    tag_29:\n        /* \"#utility.yul\":907:911   */\n      0x00\n        /* \"#utility.yul\":939:943   */\n      0x20\n        /* \"#utility.yul\":934:937   */\n      dup3\n        /* \"#utility.yul\":930:944   */\n      add\n        /* \"#utility.yul\":922:944   */\n      swap1\n      pop\n        /* \"#utility.yul\":837:950   */\n      swap2\n      swap1\n      pop\n      jump\t// out\n        /* \"#utility.yul\":986:1718   */\n    tag_30:\n        /* \"#utility.yul\":1105:1108   */\n      0x00\n        /* \"#utility.yul\":1134:1188   */\n      tag_48\n        /* \"#utility.yul\":1182:1187   */\n      dup3\n        /* \"#utility.yul\":1134:1188   */\n      tag_23\n      jump\t// in\n    tag_48:\n        /* \"#utility.yul\":1204:1290   */\n      tag_49\n        /* \"#utility.yul\":1283:1289   */\n      dup2\n        /* \"#utility.yul\":1278:1281   */\n      dup6\n        /* \"#utility.yul\":1204:1290   */\n      tag_24\n      jump\t// in\n    tag_49:\n        /* \"#utility.yul\":1197:1290   */\n      swap4\n      pop\n        /* \"#utility.yul\":1314:1370   */\n      tag_50\n        /* \"#utility.yul\":1364:1369   */\n      dup4\n        /* \"#utility.yul\":1314:1370   */\n      tag_25\n      jump\t// in\n    tag_50:\n        /* \"#utility.yul\":1393:1400   */\n      dup1\n        /* \"#utility.yul\":1424:1425   */\n      0x00\n        /* \"#utility.yul\":1409:1693   */\n    tag_51:\n        /* \"#utility.yul\":1434:1440   */\n      dup4\n        /* \"#utility.yul\":1431:1432   */\n      dup2\n        /* \"#utility.yul\":1428:1441   */\n      lt\n        /* \"#utility.yul\":1409:1693   */\n      iszero\n      tag_53\n      jumpi\n        /* \"#utility.yul\":1510:1516   */\n      dup2\n        /* \"#utility.yul\":1504:1517   */\n      mload\n        /* \"#utility.yul\":1537:1600   */\n      tag_54\n        /* \"#utility.yul\":1596:1599   */\n      dup9\n        /* \"#utility.yul\":1581:1594   */\n      dup3\n        /* \"#utility.yul\":1537:1600   */\n      tag_28\n      jump\t// in\n    tag_54:\n        /* \"#utility.yul\":1530:1600   */\n      swap8\n      pop\n        /* \"#utility.yul\":1623:1683   */\n      tag_55\n        /* \"#utility.yul\":1676:1682   */\n      dup4\n        /* \"#utility.yul\":1623:1683   */\n      tag_29\n      jump\t// in\n    tag_55:\n        /* \"#utility.yul\":1613:1683   */\n      swap3\n      pop\n        /* \"#utility.yul\":1469:1693   */\n      pop\n        /* \"#utility.yul\":1456:1457   */\n      0x01\n        /* \"#utility.yul\":1453:1454   */\n      dup2\n        /* \"#utility.yul\":1449:1458   */\n      add\n        /* \"#utility.yul\":1444:1458   */\n      swap1\n      pop\n        /* \"#utility.yul\":1409:1693   */\n      jump(tag_51)\n    tag_53:\n        /* \"#utility.yul\":1413:1427   */\n      pop\n        /* \"#utility.yul\":1709:1712   */\n      dup6\n        /* \"#utility.yul\":1702:1712   */\n      swap4\n      pop\n        /* \"#utility.yul\":1110:1718   */\n      pop\n      pop\n      pop\n        /* \"#utility.yul\":986:1718   */\n      swap3\n      swap2\n      pop\n      pop\n      jump\t// out\n        /* \"#utility.yul\":1724:2097   */\n    tag_8:\n        /* \"#utility.yul\":1867:1871   */\n      0x00\n        /* \"#utility.yul\":1905:1907   */\n      0x20\n        /* \"#utility.yul\":1894:1903   */\n      dup3\n        /* \"#utility.yul\":1890:1908   */\n      add\n        /* \"#utility.yul\":1882:1908   */\n      swap1\n      pop\n        /* \"#utility.yul\":1954:1963   */\n      dup2\n        /* \"#utility.yul\":1948:1952   */\n      dup2\n        /* \"#utility.yul\":1944:1964   */\n      sub\n        /* \"#utility.yul\":1940:1941   */\n      0x00\n        /* \"#utility.yul\":1929:1938   */\n      dup4\n        /* \"#utility.yul\":1925:1942   */\n      add\n        /* \"#utility.yul\":1918:1965   */\n      mstore\n        /* \"#utility.yul\":1982:2090   */\n      tag_57\n        /* \"#utility.yul\":2085:2089   */\n      dup2\n        /* \"#utility.yul\":2076:2082   */\n      dup5\n        /* \"#utility.yul\":1982:2090   */\n      tag_30\n      jump\t// in\n    tag_57:\n        /* \"#utility.yul\":1974:2090   */\n      swap1\n      pop\n        /* \"#utility.yul\":1724:2097   */\n      swap3\n      swap2\n      pop\n      pop\n      jump\t// out\n        /* \"#utility.yul\":2184:2301   */\n    tag_32:\n        /* \"#utility.yul\":2293:2294   */\n      0x00\n        /* \"#utility.yul\":2290:2291   */\n      dup1\n        /* \"#utility.yul\":2283:2295   */\n      revert\n        /* \"#utility.yul\":2430:2552   */\n    tag_34:\n        /* \"#utility.yul\":2503:2527   */\n      tag_62\n        /* \"#utility.yul\":2521:2526   */\n      dup2\n        /* \"#utility.yul\":2503:2527   */\n      tag_26\n      jump\t// in\n    tag_62:\n        /* \"#utility.yul\":2496:2501   */\n      dup2\n        /* \"#utility.yul\":2493:2528   */\n      eq\n        /* \"#utility.yul\":2483:2546   */\n      tag_63\n      jumpi\n        /* \"#utility.yul\":2542:2543   */\n      0x00\n        /* \"#utility.yul\":2539:2540   */\n      dup1\n        /* \"#utility.yul\":2532:2544   */\n      revert\n        /* \"#utility.yul\":2483:2546   */\n    tag_63:\n        /* \"#utility.yul\":2430:2552   */\n      pop\n      jump\t// out\n        /* \"#utility.yul\":2558:2697   */\n    tag_35:\n        /* \"#utility.yul\":2604:2609   */\n      0x00\n        /* \"#utility.yul\":2642:2648   */\n      dup2\n        /* \"#utility.yul\":2629:2649   */\n      calldataload\n        /* \"#utility.yul\":2620:2649   */\n      swap1\n      pop\n        /* \"#utility.yul\":2658:2691   */\n      tag_65\n        /* \"#utility.yul\":2685:2690   */\n      dup2\n        /* \"#utility.yul\":2658:2691   */\n      tag_34\n      jump\t// in\n    tag_65:\n        /* \"#utility.yul\":2558:2697   */\n      swap3\n      swap2\n      pop\n      pop\n      jump\t// out\n        /* \"#utility.yul\":2703:3032   */\n    tag_11:\n        /* \"#utility.yul\":2762:2768   */\n      0x00\n        /* \"#utility.yul\":2811:2813   */\n      0x20\n        /* \"#utility.yul\":2799:2808   */\n      dup3\n        /* \"#utility.yul\":2790:2797   */\n      dup5\n        /* \"#utility.yul\":2786:2809   */\n      sub\n        /* \"#utility.yul\":2782:2814   */\n      slt\n        /* \"#utility.yul\":2779:2898   */\n      iszero\n      tag_67\n      jumpi\n        /* \"#utility.yul\":2817:2896   */\n      tag_68\n      tag_32\n      jump\t// in\n    tag_68:\n        /* \"#utility.yul\":2779:2898   */\n    tag_67:\n        /* \"#utility.yul\":2937:2938   */\n      0x00\n        /* \"#utility.yul\":2962:3015   */\n      tag_69\n        /* \"#utility.yul\":3007:3014   */\n      dup5\n        /* \"#utility.yul\":2998:3004   */\n      dup3\n        /* \"#utility.yul\":2987:2996   */\n      dup6\n        /* \"#utility.yul\":2983:3005   */\n      add\n        /* \"#utility.yul\":2962:3015   */\n      tag_35\n      jump\t// in\n    tag_69:\n        /* \"#utility.yul\":2952:3015   */\n      swap2\n      pop\n        /* \"#utility.yul\":2908:3025   */\n      pop\n        /* \"#utility.yul\":2703:3032   */\n      swap3\n      swap2\n      pop\n      pop\n      jump\t// out\n        /* \"#utility.yul\":3038:3218   */\n    tag_36:\n        /* \"#utility.yul\":3086:3163   */\n      0x4e487b7100000000000000000000000000000000000000000000000000000000\n        /* \"#utility.yul\":3083:3084   */\n      0x00\n        /* \"#utility.yul\":3076:3164   */\n      mstore\n        /* \"#utility.yul\":3183:3187   */\n      0x12\n        /* \"#utility.yul\":3180:3181   */\n      0x04\n        /* \"#utility.yul\":3173:3188   */\n      mstore\n        /* \"#utility.yul\":3207:3211   */\n      0x24\n        /* \"#utility.yul\":3204:3205   */\n      0x00\n        /* \"#utility.yul\":3197:3212   */\n      revert\n        /* \"#utility.yul\":3224:3400   */\n    tag_18:\n        /* \"#utility.yul\":3256:3257   */\n      0x00\n        /* \"#utility.yul\":3273:3293   */\n      tag_72\n        /* \"#utility.yul\":3291:3292   */\n      dup3\n        /* \"#utility.yul\":3273:3293   */\n      tag_26\n      jump\t// in\n    tag_72:\n        /* \"#utility.yul\":3268:3293   */\n      swap2\n      pop\n        /* \"#utility.yul\":3307:3327   */\n      tag_73\n        /* \"#utility.yul\":3325:3326   */\n      dup4\n        /* \"#utility.yul\":3307:3327   */\n      tag_26\n      jump\t// in\n    tag_73:\n        /* \"#utility.yul\":3302:3327   */\n      swap3\n      pop\n        /* \"#utility.yul\":3346:3347   */\n      dup3\n        /* \"#utility.yul\":3336:3371   */\n      tag_74\n      jumpi\n        /* \"#utility.yul\":3351:3369   */\n      tag_75\n      tag_36\n      jump\t// in\n    tag_75:\n        /* \"#utility.yul\":3336:3371   */\n    tag_74:\n        /* \"#utility.yul\":3392:3393   */\n      dup3\n        /* \"#utility.yul\":3389:3390   */\n      dup3\n        /* \"#utility.yul\":3385:3394   */\n      mod\n        /* \"#utility.yul\":3380:3394   */\n      swap1\n      pop\n        /* \"#utility.yul\":3224:3400   */\n      swap3\n      swap2\n      pop\n      pop\n      jump\t// out\n\n    auxdata: 0xa26469706673582212203853933daf5e1f0484bfe25804cb4914eb2f377f2583a89f416475f46c80ef5664736f6c63430008120033\n}\n",
				"bytecode": {
					"linkReferences": {},
					"object": "608060405234801561001057600080fd5b50610309806100206000396000f3fe608060405234801561001057600080fd5b50600436106100365760003560e01c8063d504ea1d1461003b578063fb8333eb14610059575b600080fd5b610043610075565b60405161005091906101f3565b60405180910390f35b610073600480360381019061006e9190610246565b6100cd565b005b606060008054806020026020016040519081016040528092919081815260200182805480156100c357602002820191906000526020600020905b8154815260200190600101908083116100af575b5050505050905090565b60006003826100dc91906102a2565b1480156100f657506000600a826100f391906102a2565b14155b6100ff57600080fd5b600081908060018154018082558091505060019003906000526020600020016000909190919091505550565b600081519050919050565b600082825260208201905092915050565b6000819050602082019050919050565b6000819050919050565b61016a81610157565b82525050565b600061017c8383610161565b60208301905092915050565b6000602082019050919050565b60006101a08261012b565b6101aa8185610136565b93506101b583610147565b8060005b838110156101e65781516101cd8882610170565b97506101d883610188565b9250506001810190506101b9565b5085935050505092915050565b6000602082019050818103600083015261020d8184610195565b905092915050565b600080fd5b61022381610157565b811461022e57600080fd5b50565b6000813590506102408161021a565b92915050565b60006020828403121561025c5761025b610215565b5b600061026a84828501610231565b91505092915050565b7f4e487b7100000000000000000000000000000000000000000000000000000000600052601260045260246000fd5b60006102ad82610157565b91506102b883610157565b9250826102c8576102c7610273565b5b82820690509291505056fea26469706673582212203853933daf5e1f0484bfe25804cb4914eb2f377f2583a89f416475f46c80ef5664736f6c63430008120033",
					"opcodes": "PUSH1 0x80 PUSH1 0x40 MSTORE CALLVALUE DUP1 ISZERO PUSH2 0x10 JUMPI PUSH1 0x0 DUP1 REVERT JUMPDEST POP PUSH2 0x309 DUP1 PUSH2 0x20 PUSH1 0x0 CODECOPY PUSH1 0x0 RETURN INVALID PUSH1 0x80 PUSH1 0x40 MSTORE CALLVALUE DUP1 ISZERO PUSH2 0x10 JUMPI PUSH1 0x0 DUP1 REVERT JUMPDEST POP PUSH1 0x4 CALLDATASIZE LT PUSH2 0x36 JUMPI PUSH1 0x0 CALLDATALOAD PUSH1 0xE0 SHR DUP1 PUSH4 0xD504EA1D EQ PUSH2 0x3B JUMPI DUP1 PUSH4 0xFB8333EB EQ PUSH2 0x59 JUMPI JUMPDEST PUSH1 0x0 DUP1 REVERT JUMPDEST PUSH2 0x43 PUSH2 0x75 JUMP JUMPDEST PUSH1 0x40 MLOAD PUSH2 0x50 SWAP2 SWAP1 PUSH2 0x1F3 JUMP JUMPDEST PUSH1 0x40 MLOAD DUP1 SWAP2 SUB SWAP1 RETURN JUMPDEST PUSH2 0x73 PUSH1 0x4 DUP1 CALLDATASIZE SUB DUP2 ADD SWAP1 PUSH2 0x6E SWAP2 SWAP1 PUSH2 0x246 JUMP JUMPDEST PUSH2 0xCD JUMP JUMPDEST STOP JUMPDEST PUSH1 0x60 PUSH1 0x0 DUP1 SLOAD DUP1 PUSH1 0x20 MUL PUSH1 0x20 ADD PUSH1 0x40 MLOAD SWAP1 DUP2 ADD PUSH1 0x40 MSTORE DUP1 SWAP3 SWAP2 SWAP1 DUP2 DUP2 MSTORE PUSH1 0x20 ADD DUP3 DUP1 SLOAD DUP1 ISZERO PUSH2 0xC3 JUMPI PUSH1 0x20 MUL DUP3 ADD SWAP2 SWAP1 PUSH1 0x0 MSTORE PUSH1 0x20 PUSH1 0x0 KECCAK256 SWAP1 JUMPDEST DUP2 SLOAD DUP2 MSTORE PUSH1 0x20 ADD SWAP1 PUSH1 0x1 ADD SWAP1 DUP1 DUP4 GT PUSH2 0xAF JUMPI JUMPDEST POP POP POP POP POP SWAP1 POP SWAP1 JUMP JUMPDEST PUSH1 0x0 PUSH1 0x3 DUP3 PUSH2 0xDC SWAP2 SWAP1 PUSH2 0x2A2 JUMP JUMPDEST EQ DUP1 ISZERO PUSH2 0xF6 JUMPI POP PUSH1 0x0 PUSH1 0xA DUP3 PUSH2 0xF3 SWAP2 SWAP1 PUSH2 0x2A2 JUMP JUMPDEST EQ ISZERO JUMPDEST PUSH2 0xFF JUMPI PUSH1 0x0 DUP1 REVERT JUMPDEST PUSH1 0x0 DUP2 SWAP1 DUP1 PUSH1 0x1 DUP2 SLOAD ADD DUP1 DUP3 SSTORE DUP1 SWAP2 POP POP PUSH1 0x1 SWAP1 SUB SWAP1 PUSH1 0x0 MSTORE PUSH1 0x20 PUSH1 0x0 KECCAK256 ADD PUSH1 0x0 SWAP1 SWAP2 SWAP1 SWAP2 SWAP1 SWAP2 POP SSTORE POP JUMP JUMPDEST PUSH1 0x0 DUP2 MLOAD SWAP1 POP SWAP2 SWAP1 POP JUMP JUMPDEST PUSH1 0x0 DUP3 DUP3 MSTORE PUSH1 0x20 DUP3 ADD SWAP1 POP SWAP3 SWAP2 POP POP JUMP JUMPDEST PUSH1 0x0 DUP2 SWAP1 POP PUSH1 0x20 DUP3 ADD SWAP1 POP SWAP2 SWAP1 POP JUMP JUMPDEST PUSH1 0x0 DUP2 SWAP1 POP SWAP2 SWAP1 POP JUMP JUMPDEST PUSH2 0x16A DUP2 PUSH2 0x157 JUMP JUMPDEST DUP3 MSTORE POP POP JUMP JUMPDEST PUSH1 0x0 PUSH2 0x17C DUP4 DUP4 PUSH2 0x161 JUMP JUMPDEST PUSH1 0x20 DUP4 ADD SWAP1 POP SWAP3 SWAP2 POP POP JUMP JUMPDEST PUSH1 0x0 PUSH1 0x20 DUP3 ADD SWAP1 POP SWAP2 SWAP1 POP JUMP JUMPDEST PUSH1 0x0 PUSH2 0x1A0 DUP3 PUSH2 0x12B JUMP JUMPDEST PUSH2 0x1AA DUP2 DUP6 PUSH2 0x136 JUMP JUMPDEST SWAP4 POP PUSH2 0x1B5 DUP4 PUSH2 0x147 JUMP JUMPDEST DUP1 PUSH1 0x0 JUMPDEST DUP4 DUP2 LT ISZERO PUSH2 0x1E6 JUMPI DUP2 MLOAD PUSH2 0x1CD DUP9 DUP3 PUSH2 0x170 JUMP JUMPDEST SWAP8 POP PUSH2 0x1D8 DUP4 PUSH2 0x188 JUMP JUMPDEST SWAP3 POP POP PUSH1 0x1 DUP2 ADD SWAP1 POP PUSH2 0x1B9 JUMP JUMPDEST POP DUP6 SWAP4 POP POP POP POP SWAP3 SWAP2 POP POP JUMP JUMPDEST PUSH1 0x0 PUSH1 0x20 DUP3 ADD SWAP1 POP DUP2 DUP2 SUB PUSH1 0x0 DUP4 ADD MSTORE PUSH2 0x20D DUP2 DUP5 PUSH2 0x195 JUMP JUMPDEST SWAP1 POP SWAP3 SWAP2 POP POP JUMP JUMPDEST PUSH1 0x0 DUP1 REVERT JUMPDEST PUSH2 0x223 DUP2 PUSH2 0x157 JUMP JUMPDEST DUP2 EQ PUSH2 0x22E JUMPI PUSH1 0x0 DUP1 REVERT JUMPDEST POP JUMP JUMPDEST PUSH1 0x0 DUP2 CALLDATALOAD SWAP1 POP PUSH2 0x240 DUP2 PUSH2 0x21A JUMP JUMPDEST SWAP3 SWAP2 POP POP JUMP JUMPDEST PUSH1 0x0 PUSH1 0x20 DUP3 DUP5 SUB SLT ISZERO PUSH2 0x25C JUMPI PUSH2 0x25B PUSH2 0x215 JUMP JUMPDEST JUMPDEST PUSH1 0x0 PUSH2 0x26A DUP5 DUP3 DUP6 ADD PUSH2 0x231 JUMP JUMPDEST SWAP2 POP POP SWAP3 SWAP2 POP POP JUMP JUMPDEST PUSH32 0x4E487B7100000000000000000000000000000000000000000000000000000000 PUSH1 0x0 MSTORE PUSH1 0x12 PUSH1 0x4 MSTORE PUSH1 0x24 PUSH1 0x0 REVERT JUMPDEST PUSH1 0x0 PUSH2 0x2AD DUP3 PUSH2 0x157 JUMP JUMPDEST SWAP2 POP PUSH2 0x2B8 DUP4 PUSH2 0x157 JUMP JUMPDEST SWAP3 POP DUP3 PUSH2 0x2C8 JUMPI PUSH2 0x2C7 PUSH2 0x273 JUMP JUMPDEST JUMPDEST DUP3 DUP3 MOD SWAP1 POP SWAP3 SWAP2 POP POP JUMP INVALID LOG2 PUSH5 0x6970667358 0x22 SLT KECCAK256 CODESIZE MSTORE8 SWAP4 RETURNDATASIZE 0xAF 0x5E 0x1F DIV DUP5 0xBF 0xE2 PC DIV 0xCB 0x49 EQ 0xEB 0x2F CALLDATACOPY PUSH32 0x2583A89F416475F46C80EF5664736F6C63430008120033000000000000000000 "
				},
				"gasEstimates": {
					"creation": {
						"codeDepositCost": "155400",
						"executionCost": "202",
						"totalCost": "155602"
					},
					"external": {
						"getArray()": "infinite",
						"setArray(uint256)": "infinite"
					}
				},
				"methodIdentifiers": {
					"getArray()": "d504ea1d",
					"setArray(uint256)": "fb8333eb"
				}
			},
			"storageLayout": {
				"storage": [
					{
						"astId": 47,
						"contract": "contracts/31_40.sol:Quiz32",
						"label": "array",
						"offset": 0,
						"slot": "0",
						"type": "t_array(t_uint256)dyn_storage"
					}
				],
				"types": {
					"t_array(t_uint256)dyn_storage": {
						"base": "t_uint256",
						"encoding": "dynamic_array",
						"label": "uint256[]",
						"numberOfBytes": "32"
					},
					"t_uint256": {
						"encoding": "inplace",
						"label": "uint256",
						"numberOfBytes": "32"
					}
				}
			},
			"userdoc": {
				"kind": "user",
				"methods": {},
				"version": 1
			}
		}
	}
}