{
	"contracts/31_40.sol": {
		"Quiz36": {
			"abi": [
				{
					"inputs": [],
					"name": "AStatus",
					"outputs": [
						{
							"internalType": "enum Quiz36.status",
							"name": "",
							"type": "uint8"
						}
					],
					"stateMutability": "view",
					"type": "function"
				},
				{
					"inputs": [],
					"name": "a",
					"outputs": [
						{
							"internalType": "uint256",
							"name": "",
							"type": "uint256"
						}
					],
					"stateMutability": "view",
					"type": "function"
				},
				{
					"inputs": [
						{
							"internalType": "uint256",
							"name": "_a",
							"type": "uint256"
						}
					],
					"name": "setA",
					"outputs": [],
					"stateMutability": "nonpayable",
					"type": "function"
				}
			],
			"devdoc": {
				"kind": "dev",
				"methods": {},
				"version": 1
			},
			"evm": {
				"assembly": "    /* \"contracts/31_40.sol\":3624:4228  contract Quiz36 {... */\n  mstore(0x40, 0x80)\n  callvalue\n  dup1\n  iszero\n  tag_1\n  jumpi\n  0x00\n  dup1\n  revert\ntag_1:\n  pop\n  dataSize(sub_0)\n  dup1\n  dataOffset(sub_0)\n  0x00\n  codecopy\n  0x00\n  return\nstop\n\nsub_0: assembly {\n        /* \"contracts/31_40.sol\":3624:4228  contract Quiz36 {... */\n      mstore(0x40, 0x80)\n      callvalue\n      dup1\n      iszero\n      tag_1\n      jumpi\n      0x00\n      dup1\n      revert\n    tag_1:\n      pop\n      jumpi(tag_2, lt(calldatasize, 0x04))\n      shr(0xe0, calldataload(0x00))\n      dup1\n      0x0dbe671f\n      eq\n      tag_3\n      jumpi\n      dup1\n      0x5bbc618d\n      eq\n      tag_4\n      jumpi\n      dup1\n      0xee919d50\n      eq\n      tag_5\n      jumpi\n    tag_2:\n      0x00\n      dup1\n      revert\n        /* \"contracts/31_40.sol\":3845:3858  uint public a */\n    tag_3:\n      tag_6\n      tag_7\n      jump\t// in\n    tag_6:\n      mload(0x40)\n      tag_8\n      swap2\n      swap1\n      tag_9\n      jump\t// in\n    tag_8:\n      mload(0x40)\n      dup1\n      swap2\n      sub\n      swap1\n      return\n        /* \"contracts/31_40.sol\":3952:3973  status public AStatus */\n    tag_4:\n      tag_10\n      tag_11\n      jump\t// in\n    tag_10:\n      mload(0x40)\n      tag_12\n      swap2\n      swap1\n      tag_13\n      jump\t// in\n    tag_12:\n      mload(0x40)\n      dup1\n      swap2\n      sub\n      swap1\n      return\n        /* \"contracts/31_40.sol\":3982:4225  function setA(uint _a) public {... */\n    tag_5:\n      tag_14\n      0x04\n      dup1\n      calldatasize\n      sub\n      dup2\n      add\n      swap1\n      tag_15\n      swap2\n      swap1\n      tag_16\n      jump\t// in\n    tag_15:\n      tag_17\n      jump\t// in\n    tag_14:\n      stop\n        /* \"contracts/31_40.sol\":3845:3858  uint public a */\n    tag_7:\n      sload(0x00)\n      dup2\n      jump\t// out\n        /* \"contracts/31_40.sol\":3952:3973  status public AStatus */\n    tag_11:\n      0x01\n      0x00\n      swap1\n      sload\n      swap1\n      0x0100\n      exp\n      swap1\n      div\n      0xff\n      and\n      dup2\n      jump\t// out\n        /* \"contracts/31_40.sol\":3982:4225  function setA(uint _a) public {... */\n    tag_17:\n        /* \"contracts/31_40.sol\":4030:4031  7 */\n      0x07\n        /* \"contracts/31_40.sol\":4026:4028  _a */\n      dup2\n        /* \"contracts/31_40.sol\":4026:4031  _a>=7 */\n      lt\n        /* \"contracts/31_40.sol\":4023:4201  if(_a>=7) {... */\n      tag_19\n      jumpi\n        /* \"contracts/31_40.sol\":4058:4069  status.high */\n      0x01\n        /* \"contracts/31_40.sol\":4048:4055  AStatus */\n      dup1\n      0x00\n        /* \"contracts/31_40.sol\":4048:4069  AStatus = status.high */\n      0x0100\n      exp\n      dup2\n      sload\n      dup2\n      0xff\n      mul\n      not\n      and\n      swap1\n      dup4\n      0x03\n      dup2\n      gt\n      iszero\n      tag_20\n      jumpi\n      tag_21\n      tag_22\n      jump\t// in\n    tag_21:\n    tag_20:\n      mul\n      or\n      swap1\n      sstore\n      pop\n        /* \"contracts/31_40.sol\":4023:4201  if(_a>=7) {... */\n      jump(tag_23)\n    tag_19:\n        /* \"contracts/31_40.sol\":4094:4095  4 */\n      0x04\n        /* \"contracts/31_40.sol\":4090:4092  _a */\n      dup2\n        /* \"contracts/31_40.sol\":4090:4095  _a>=4 */\n      lt\n        /* \"contracts/31_40.sol\":4087:4201  if(_a>=4) {... */\n      tag_24\n      jumpi\n        /* \"contracts/31_40.sol\":4122:4136  status.neutral */\n      0x02\n        /* \"contracts/31_40.sol\":4112:4119  AStatus */\n      0x01\n      0x00\n        /* \"contracts/31_40.sol\":4112:4136  AStatus = status.neutral */\n      0x0100\n      exp\n      dup2\n      sload\n      dup2\n      0xff\n      mul\n      not\n      and\n      swap1\n      dup4\n      0x03\n      dup2\n      gt\n      iszero\n      tag_25\n      jumpi\n      tag_26\n      tag_22\n      jump\t// in\n    tag_26:\n    tag_25:\n      mul\n      or\n      swap1\n      sstore\n      pop\n        /* \"contracts/31_40.sol\":4087:4201  if(_a>=4) {... */\n      jump(tag_27)\n    tag_24:\n        /* \"contracts/31_40.sol\":4179:4189  status.low */\n      0x03\n        /* \"contracts/31_40.sol\":4169:4176  AStatus */\n      0x01\n      0x00\n        /* \"contracts/31_40.sol\":4169:4189  AStatus = status.low */\n      0x0100\n      exp\n      dup2\n      sload\n      dup2\n      0xff\n      mul\n      not\n      and\n      swap1\n      dup4\n      0x03\n      dup2\n      gt\n      iszero\n      tag_28\n      jumpi\n      tag_29\n      tag_22\n      jump\t// in\n    tag_29:\n    tag_28:\n      mul\n      or\n      swap1\n      sstore\n      pop\n        /* \"contracts/31_40.sol\":4087:4201  if(_a>=4) {... */\n    tag_27:\n        /* \"contracts/31_40.sol\":4023:4201  if(_a>=7) {... */\n    tag_23:\n        /* \"contracts/31_40.sol\":4215:4217  _a */\n      dup1\n        /* \"contracts/31_40.sol\":4211:4212  a */\n      0x00\n        /* \"contracts/31_40.sol\":4211:4217  a = _a */\n      dup2\n      swap1\n      sstore\n      pop\n        /* \"contracts/31_40.sol\":3982:4225  function setA(uint _a) public {... */\n      pop\n      jump\t// out\n        /* \"#utility.yul\":7:84   */\n    tag_30:\n        /* \"#utility.yul\":44:51   */\n      0x00\n        /* \"#utility.yul\":73:78   */\n      dup2\n        /* \"#utility.yul\":62:78   */\n      swap1\n      pop\n        /* \"#utility.yul\":7:84   */\n      swap2\n      swap1\n      pop\n      jump\t// out\n        /* \"#utility.yul\":90:208   */\n    tag_31:\n        /* \"#utility.yul\":177:201   */\n      tag_44\n        /* \"#utility.yul\":195:200   */\n      dup2\n        /* \"#utility.yul\":177:201   */\n      tag_30\n      jump\t// in\n    tag_44:\n        /* \"#utility.yul\":172:175   */\n      dup3\n        /* \"#utility.yul\":165:202   */\n      mstore\n        /* \"#utility.yul\":90:208   */\n      pop\n      pop\n      jump\t// out\n        /* \"#utility.yul\":214:436   */\n    tag_9:\n        /* \"#utility.yul\":307:311   */\n      0x00\n        /* \"#utility.yul\":345:347   */\n      0x20\n        /* \"#utility.yul\":334:343   */\n      dup3\n        /* \"#utility.yul\":330:348   */\n      add\n        /* \"#utility.yul\":322:348   */\n      swap1\n      pop\n        /* \"#utility.yul\":358:429   */\n      tag_46\n        /* \"#utility.yul\":426:427   */\n      0x00\n        /* \"#utility.yul\":415:424   */\n      dup4\n        /* \"#utility.yul\":411:428   */\n      add\n        /* \"#utility.yul\":402:408   */\n      dup5\n        /* \"#utility.yul\":358:429   */\n      tag_31\n      jump\t// in\n    tag_46:\n        /* \"#utility.yul\":214:436   */\n      swap3\n      swap2\n      pop\n      pop\n      jump\t// out\n        /* \"#utility.yul\":442:622   */\n    tag_22:\n        /* \"#utility.yul\":490:567   */\n      0x4e487b7100000000000000000000000000000000000000000000000000000000\n        /* \"#utility.yul\":487:488   */\n      0x00\n        /* \"#utility.yul\":480:568   */\n      mstore\n        /* \"#utility.yul\":587:591   */\n      0x21\n        /* \"#utility.yul\":584:585   */\n      0x04\n        /* \"#utility.yul\":577:592   */\n      mstore\n        /* \"#utility.yul\":611:615   */\n      0x24\n        /* \"#utility.yul\":608:609   */\n      0x00\n        /* \"#utility.yul\":601:616   */\n      revert\n        /* \"#utility.yul\":628:743   */\n    tag_32:\n        /* \"#utility.yul\":711:712   */\n      0x04\n        /* \"#utility.yul\":704:709   */\n      dup2\n        /* \"#utility.yul\":701:713   */\n      lt\n        /* \"#utility.yul\":691:737   */\n      tag_49\n      jumpi\n        /* \"#utility.yul\":717:735   */\n      tag_50\n      tag_22\n      jump\t// in\n    tag_50:\n        /* \"#utility.yul\":691:737   */\n    tag_49:\n        /* \"#utility.yul\":628:743   */\n      pop\n      jump\t// out\n        /* \"#utility.yul\":749:880   */\n    tag_33:\n        /* \"#utility.yul\":796:803   */\n      0x00\n        /* \"#utility.yul\":825:830   */\n      dup2\n        /* \"#utility.yul\":814:830   */\n      swap1\n      pop\n        /* \"#utility.yul\":831:874   */\n      tag_52\n        /* \"#utility.yul\":868:873   */\n      dup3\n        /* \"#utility.yul\":831:874   */\n      tag_32\n      jump\t// in\n    tag_52:\n        /* \"#utility.yul\":749:880   */\n      swap2\n      swap1\n      pop\n      jump\t// out\n        /* \"#utility.yul\":886:1017   */\n    tag_34:\n        /* \"#utility.yul\":944:953   */\n      0x00\n        /* \"#utility.yul\":977:1011   */\n      tag_54\n        /* \"#utility.yul\":1005:1010   */\n      dup3\n        /* \"#utility.yul\":977:1011   */\n      tag_33\n      jump\t// in\n    tag_54:\n        /* \"#utility.yul\":964:1011   */\n      swap1\n      pop\n        /* \"#utility.yul\":886:1017   */\n      swap2\n      swap1\n      pop\n      jump\t// out\n        /* \"#utility.yul\":1023:1170   */\n    tag_35:\n        /* \"#utility.yul\":1118:1163   */\n      tag_56\n        /* \"#utility.yul\":1157:1162   */\n      dup2\n        /* \"#utility.yul\":1118:1163   */\n      tag_34\n      jump\t// in\n    tag_56:\n        /* \"#utility.yul\":1113:1116   */\n      dup3\n        /* \"#utility.yul\":1106:1164   */\n      mstore\n        /* \"#utility.yul\":1023:1170   */\n      pop\n      pop\n      jump\t// out\n        /* \"#utility.yul\":1176:1414   */\n    tag_13:\n        /* \"#utility.yul\":1277:1281   */\n      0x00\n        /* \"#utility.yul\":1315:1317   */\n      0x20\n        /* \"#utility.yul\":1304:1313   */\n      dup3\n        /* \"#utility.yul\":1300:1318   */\n      add\n        /* \"#utility.yul\":1292:1318   */\n      swap1\n      pop\n        /* \"#utility.yul\":1328:1407   */\n      tag_58\n        /* \"#utility.yul\":1404:1405   */\n      0x00\n        /* \"#utility.yul\":1393:1402   */\n      dup4\n        /* \"#utility.yul\":1389:1406   */\n      add\n        /* \"#utility.yul\":1380:1386   */\n      dup5\n        /* \"#utility.yul\":1328:1407   */\n      tag_35\n      jump\t// in\n    tag_58:\n        /* \"#utility.yul\":1176:1414   */\n      swap3\n      swap2\n      pop\n      pop\n      jump\t// out\n        /* \"#utility.yul\":1501:1618   */\n    tag_37:\n        /* \"#utility.yul\":1610:1611   */\n      0x00\n        /* \"#utility.yul\":1607:1608   */\n      dup1\n        /* \"#utility.yul\":1600:1612   */\n      revert\n        /* \"#utility.yul\":1747:1869   */\n    tag_39:\n        /* \"#utility.yul\":1820:1844   */\n      tag_63\n        /* \"#utility.yul\":1838:1843   */\n      dup2\n        /* \"#utility.yul\":1820:1844   */\n      tag_30\n      jump\t// in\n    tag_63:\n        /* \"#utility.yul\":1813:1818   */\n      dup2\n        /* \"#utility.yul\":1810:1845   */\n      eq\n        /* \"#utility.yul\":1800:1863   */\n      tag_64\n      jumpi\n        /* \"#utility.yul\":1859:1860   */\n      0x00\n        /* \"#utility.yul\":1856:1857   */\n      dup1\n        /* \"#utility.yul\":1849:1861   */\n      revert\n        /* \"#utility.yul\":1800:1863   */\n    tag_64:\n        /* \"#utility.yul\":1747:1869   */\n      pop\n      jump\t// out\n        /* \"#utility.yul\":1875:2014   */\n    tag_40:\n        /* \"#utility.yul\":1921:1926   */\n      0x00\n        /* \"#utility.yul\":1959:1965   */\n      dup2\n        /* \"#utility.yul\":1946:1966   */\n      calldataload\n        /* \"#utility.yul\":1937:1966   */\n      swap1\n      pop\n        /* \"#utility.yul\":1975:2008   */\n      tag_66\n        /* \"#utility.yul\":2002:2007   */\n      dup2\n        /* \"#utility.yul\":1975:2008   */\n      tag_39\n      jump\t// in\n    tag_66:\n        /* \"#utility.yul\":1875:2014   */\n      swap3\n      swap2\n      pop\n      pop\n      jump\t// out\n        /* \"#utility.yul\":2020:2349   */\n    tag_16:\n        /* \"#utility.yul\":2079:2085   */\n      0x00\n        /* \"#utility.yul\":2128:2130   */\n      0x20\n        /* \"#utility.yul\":2116:2125   */\n      dup3\n        /* \"#utility.yul\":2107:2114   */\n      dup5\n        /* \"#utility.yul\":2103:2126   */\n      sub\n        /* \"#utility.yul\":2099:2131   */\n      slt\n        /* \"#utility.yul\":2096:2215   */\n      iszero\n      tag_68\n      jumpi\n        /* \"#utility.yul\":2134:2213   */\n      tag_69\n      tag_37\n      jump\t// in\n    tag_69:\n        /* \"#utility.yul\":2096:2215   */\n    tag_68:\n        /* \"#utility.yul\":2254:2255   */\n      0x00\n        /* \"#utility.yul\":2279:2332   */\n      tag_70\n        /* \"#utility.yul\":2324:2331   */\n      dup5\n        /* \"#utility.yul\":2315:2321   */\n      dup3\n        /* \"#utility.yul\":2304:2313   */\n      dup6\n        /* \"#utility.yul\":2300:2322   */\n      add\n        /* \"#utility.yul\":2279:2332   */\n      tag_40\n      jump\t// in\n    tag_70:\n        /* \"#utility.yul\":2269:2332   */\n      swap2\n      pop\n        /* \"#utility.yul\":2225:2342   */\n      pop\n        /* \"#utility.yul\":2020:2349   */\n      swap3\n      swap2\n      pop\n      pop\n      jump\t// out\n\n    auxdata: 0xa2646970667358221220577cd798e5218d4e0e3de015ce1ca371a77dbc3a14b5c6301b8aa1b4c468537364736f6c63430008120033\n}\n",
				"bytecode": {
					"linkReferences": {},
					"object": "608060405234801561001057600080fd5b506102b7806100206000396000f3fe608060405234801561001057600080fd5b50600436106100415760003560e01c80630dbe671f146100465780635bbc618d14610064578063ee919d5014610082575b600080fd5b61004e61009e565b60405161005b9190610176565b60405180910390f35b61006c6100a4565b6040516100799190610208565b60405180910390f35b61009c60048036038101906100979190610254565b6100b7565b005b60005481565b600160009054906101000a900460ff1681565b600781106100ee5760018060006101000a81548160ff021916908360038111156100e4576100e3610191565b5b0217905550610153565b60048110610126576002600160006101000a81548160ff0219169083600381111561011c5761011b610191565b5b0217905550610152565b6003600160006101000a81548160ff0219169083600381111561014c5761014b610191565b5b02179055505b5b8060008190555050565b6000819050919050565b6101708161015d565b82525050565b600060208201905061018b6000830184610167565b92915050565b7f4e487b7100000000000000000000000000000000000000000000000000000000600052602160045260246000fd5b600481106101d1576101d0610191565b5b50565b60008190506101e2826101c0565b919050565b60006101f2826101d4565b9050919050565b610202816101e7565b82525050565b600060208201905061021d60008301846101f9565b92915050565b600080fd5b6102318161015d565b811461023c57600080fd5b50565b60008135905061024e81610228565b92915050565b60006020828403121561026a57610269610223565b5b60006102788482850161023f565b9150509291505056fea2646970667358221220577cd798e5218d4e0e3de015ce1ca371a77dbc3a14b5c6301b8aa1b4c468537364736f6c63430008120033",
					"opcodes": "PUSH1 0x80 PUSH1 0x40 MSTORE CALLVALUE DUP1 ISZERO PUSH2 0x10 JUMPI PUSH1 0x0 DUP1 REVERT JUMPDEST POP PUSH2 0x2B7 DUP1 PUSH2 0x20 PUSH1 0x0 CODECOPY PUSH1 0x0 RETURN INVALID PUSH1 0x80 PUSH1 0x40 MSTORE CALLVALUE DUP1 ISZERO PUSH2 0x10 JUMPI PUSH1 0x0 DUP1 REVERT JUMPDEST POP PUSH1 0x4 CALLDATASIZE LT PUSH2 0x41 JUMPI PUSH1 0x0 CALLDATALOAD PUSH1 0xE0 SHR DUP1 PUSH4 0xDBE671F EQ PUSH2 0x46 JUMPI DUP1 PUSH4 0x5BBC618D EQ PUSH2 0x64 JUMPI DUP1 PUSH4 0xEE919D50 EQ PUSH2 0x82 JUMPI JUMPDEST PUSH1 0x0 DUP1 REVERT JUMPDEST PUSH2 0x4E PUSH2 0x9E JUMP JUMPDEST PUSH1 0x40 MLOAD PUSH2 0x5B SWAP2 SWAP1 PUSH2 0x176 JUMP JUMPDEST PUSH1 0x40 MLOAD DUP1 SWAP2 SUB SWAP1 RETURN JUMPDEST PUSH2 0x6C PUSH2 0xA4 JUMP JUMPDEST PUSH1 0x40 MLOAD PUSH2 0x79 SWAP2 SWAP1 PUSH2 0x208 JUMP JUMPDEST PUSH1 0x40 MLOAD DUP1 SWAP2 SUB SWAP1 RETURN JUMPDEST PUSH2 0x9C PUSH1 0x4 DUP1 CALLDATASIZE SUB DUP2 ADD SWAP1 PUSH2 0x97 SWAP2 SWAP1 PUSH2 0x254 JUMP JUMPDEST PUSH2 0xB7 JUMP JUMPDEST STOP JUMPDEST PUSH1 0x0 SLOAD DUP2 JUMP JUMPDEST PUSH1 0x1 PUSH1 0x0 SWAP1 SLOAD SWAP1 PUSH2 0x100 EXP SWAP1 DIV PUSH1 0xFF AND DUP2 JUMP JUMPDEST PUSH1 0x7 DUP2 LT PUSH2 0xEE JUMPI PUSH1 0x1 DUP1 PUSH1 0x0 PUSH2 0x100 EXP DUP2 SLOAD DUP2 PUSH1 0xFF MUL NOT AND SWAP1 DUP4 PUSH1 0x3 DUP2 GT ISZERO PUSH2 0xE4 JUMPI PUSH2 0xE3 PUSH2 0x191 JUMP JUMPDEST JUMPDEST MUL OR SWAP1 SSTORE POP PUSH2 0x153 JUMP JUMPDEST PUSH1 0x4 DUP2 LT PUSH2 0x126 JUMPI PUSH1 0x2 PUSH1 0x1 PUSH1 0x0 PUSH2 0x100 EXP DUP2 SLOAD DUP2 PUSH1 0xFF MUL NOT AND SWAP1 DUP4 PUSH1 0x3 DUP2 GT ISZERO PUSH2 0x11C JUMPI PUSH2 0x11B PUSH2 0x191 JUMP JUMPDEST JUMPDEST MUL OR SWAP1 SSTORE POP PUSH2 0x152 JUMP JUMPDEST PUSH1 0x3 PUSH1 0x1 PUSH1 0x0 PUSH2 0x100 EXP DUP2 SLOAD DUP2 PUSH1 0xFF MUL NOT AND SWAP1 DUP4 PUSH1 0x3 DUP2 GT ISZERO PUSH2 0x14C JUMPI PUSH2 0x14B PUSH2 0x191 JUMP JUMPDEST JUMPDEST MUL OR SWAP1 SSTORE POP JUMPDEST JUMPDEST DUP1 PUSH1 0x0 DUP2 SWAP1 SSTORE POP POP JUMP JUMPDEST PUSH1 0x0 DUP2 SWAP1 POP SWAP2 SWAP1 POP JUMP JUMPDEST PUSH2 0x170 DUP2 PUSH2 0x15D JUMP JUMPDEST DUP3 MSTORE POP POP JUMP JUMPDEST PUSH1 0x0 PUSH1 0x20 DUP3 ADD SWAP1 POP PUSH2 0x18B PUSH1 0x0 DUP4 ADD DUP5 PUSH2 0x167 JUMP JUMPDEST SWAP3 SWAP2 POP POP JUMP JUMPDEST PUSH32 0x4E487B7100000000000000000000000000000000000000000000000000000000 PUSH1 0x0 MSTORE PUSH1 0x21 PUSH1 0x4 MSTORE PUSH1 0x24 PUSH1 0x0 REVERT JUMPDEST PUSH1 0x4 DUP2 LT PUSH2 0x1D1 JUMPI PUSH2 0x1D0 PUSH2 0x191 JUMP JUMPDEST JUMPDEST POP JUMP JUMPDEST PUSH1 0x0 DUP2 SWAP1 POP PUSH2 0x1E2 DUP3 PUSH2 0x1C0 JUMP JUMPDEST SWAP2 SWAP1 POP JUMP JUMPDEST PUSH1 0x0 PUSH2 0x1F2 DUP3 PUSH2 0x1D4 JUMP JUMPDEST SWAP1 POP SWAP2 SWAP1 POP JUMP JUMPDEST PUSH2 0x202 DUP2 PUSH2 0x1E7 JUMP JUMPDEST DUP3 MSTORE POP POP JUMP JUMPDEST PUSH1 0x0 PUSH1 0x20 DUP3 ADD SWAP1 POP PUSH2 0x21D PUSH1 0x0 DUP4 ADD DUP5 PUSH2 0x1F9 JUMP JUMPDEST SWAP3 SWAP2 POP POP JUMP JUMPDEST PUSH1 0x0 DUP1 REVERT JUMPDEST PUSH2 0x231 DUP2 PUSH2 0x15D JUMP JUMPDEST DUP2 EQ PUSH2 0x23C JUMPI PUSH1 0x0 DUP1 REVERT JUMPDEST POP JUMP JUMPDEST PUSH1 0x0 DUP2 CALLDATALOAD SWAP1 POP PUSH2 0x24E DUP2 PUSH2 0x228 JUMP JUMPDEST SWAP3 SWAP2 POP POP JUMP JUMPDEST PUSH1 0x0 PUSH1 0x20 DUP3 DUP5 SUB SLT ISZERO PUSH2 0x26A JUMPI PUSH2 0x269 PUSH2 0x223 JUMP JUMPDEST JUMPDEST PUSH1 0x0 PUSH2 0x278 DUP5 DUP3 DUP6 ADD PUSH2 0x23F JUMP JUMPDEST SWAP2 POP POP SWAP3 SWAP2 POP POP JUMP INVALID LOG2 PUSH5 0x6970667358 0x22 SLT KECCAK256 JUMPI PUSH29 0xD798E5218D4E0E3DE015CE1CA371A77DBC3A14B5C6301B8AA1B4C46853 PUSH20 0x64736F6C63430008120033000000000000000000 "
				},
				"gasEstimates": {
					"creation": {
						"codeDepositCost": "139000",
						"executionCost": "183",
						"totalCost": "139183"
					},
					"external": {
						"AStatus()": "2560",
						"a()": "2407",
						"setA(uint256)": "46887"
					}
				},
				"methodIdentifiers": {
					"AStatus()": "5bbc618d",
					"a()": "0dbe671f",
					"setA(uint256)": "ee919d50"
				}
			},
			"storageLayout": {
				"storage": [
					{
						"astId": 341,
						"contract": "contracts/31_40.sol:Quiz36",
						"label": "a",
						"offset": 0,
						"slot": "0",
						"type": "t_uint256"
					},
					{
						"astId": 349,
						"contract": "contracts/31_40.sol:Quiz36",
						"label": "AStatus",
						"offset": 0,
						"slot": "1",
						"type": "t_enum(status)346"
					}
				],
				"types": {
					"t_enum(status)346": {
						"encoding": "inplace",
						"label": "enum Quiz36.status",
						"numberOfBytes": "1"
					},
					"t_uint256": {
						"encoding": "inplace",
						"label": "uint256",
						"numberOfBytes": "32"
					}
				}
			},
			"userdoc": {
				"kind": "user",
				"methods": {},
				"version": 1
			}
		}
	}
}