{
	"contracts/31_40.sol": {
		"Quiz39": {
			"abi": [
				{
					"inputs": [
						{
							"internalType": "uint256",
							"name": "n",
							"type": "uint256"
						}
					],
					"name": "getCount",
					"outputs": [
						{
							"internalType": "uint256",
							"name": "",
							"type": "uint256"
						},
						{
							"internalType": "uint256",
							"name": "",
							"type": "uint256"
						},
						{
							"internalType": "uint256",
							"name": "",
							"type": "uint256"
						},
						{
							"internalType": "uint256",
							"name": "",
							"type": "uint256"
						},
						{
							"internalType": "uint256",
							"name": "",
							"type": "uint256"
						}
					],
					"stateMutability": "pure",
					"type": "function"
				}
			],
			"devdoc": {
				"kind": "dev",
				"methods": {},
				"version": 1
			},
			"evm": {
				"assembly": "    /* \"contracts/31_40.sol\":5788:6489  contract Quiz39 {... */\n  mstore(0x40, 0x80)\n  callvalue\n  dup1\n  iszero\n  tag_1\n  jumpi\n  0x00\n  dup1\n  revert\ntag_1:\n  pop\n  dataSize(sub_0)\n  dup1\n  dataOffset(sub_0)\n  0x00\n  codecopy\n  0x00\n  return\nstop\n\nsub_0: assembly {\n        /* \"contracts/31_40.sol\":5788:6489  contract Quiz39 {... */\n      mstore(0x40, 0x80)\n      callvalue\n      dup1\n      iszero\n      tag_1\n      jumpi\n      0x00\n      dup1\n      revert\n    tag_1:\n      pop\n      jumpi(tag_2, lt(calldatasize, 0x04))\n      shr(0xe0, calldataload(0x00))\n      dup1\n      0xc2353918\n      eq\n      tag_3\n      jumpi\n    tag_2:\n      0x00\n      dup1\n      revert\n        /* \"contracts/31_40.sol\":6175:6486  function getCount(uint n) public pure returns(uint, uint, uint, uint, uint) {... */\n    tag_3:\n      tag_4\n      0x04\n      dup1\n      calldatasize\n      sub\n      dup2\n      add\n      swap1\n      tag_5\n      swap2\n      swap1\n      tag_6\n      jump\t// in\n    tag_5:\n      tag_7\n      jump\t// in\n    tag_4:\n      mload(0x40)\n      tag_8\n      swap6\n      swap5\n      swap4\n      swap3\n      swap2\n      swap1\n      tag_9\n      jump\t// in\n    tag_8:\n      mload(0x40)\n      dup1\n      swap2\n      sub\n      swap1\n      return\n    tag_7:\n        /* \"contracts/31_40.sol\":6221:6225  uint */\n      0x00\n        /* \"contracts/31_40.sol\":6227:6231  uint */\n      dup1\n        /* \"contracts/31_40.sol\":6233:6237  uint */\n      0x00\n        /* \"contracts/31_40.sol\":6239:6243  uint */\n      dup1\n        /* \"contracts/31_40.sol\":6245:6249  uint */\n      0x00\n        /* \"contracts/31_40.sol\":6262:6269  uint _n */\n      dup1\n        /* \"contracts/31_40.sol\":6272:6273  n */\n      dup7\n        /* \"contracts/31_40.sol\":6262:6273  uint _n = n */\n      swap1\n      pop\n        /* \"contracts/31_40.sol\":6284:6292  uint Two */\n      0x00\n        /* \"contracts/31_40.sol\":6298:6299  2 */\n      0x02\n        /* \"contracts/31_40.sol\":6295:6297  _n */\n      dup3\n        /* \"contracts/31_40.sol\":6295:6299  _n/2 */\n      tag_11\n      swap2\n      swap1\n      tag_12\n      jump\t// in\n    tag_11:\n        /* \"contracts/31_40.sol\":6284:6299  uint Two = _n/2 */\n      swap1\n      pop\n        /* \"contracts/31_40.sol\":6315:6316  n */\n      dup8\n        /* \"contracts/31_40.sol\":6310:6316  _n = n */\n      swap2\n      pop\n        /* \"contracts/31_40.sol\":6327:6337  uint Three */\n      0x00\n        /* \"contracts/31_40.sol\":6343:6344  3 */\n      0x03\n        /* \"contracts/31_40.sol\":6340:6342  _n */\n      dup4\n        /* \"contracts/31_40.sol\":6340:6344  _n/3 */\n      tag_13\n      swap2\n      swap1\n      tag_12\n      jump\t// in\n    tag_13:\n        /* \"contracts/31_40.sol\":6327:6344  uint Three = _n/3 */\n      swap1\n      pop\n        /* \"contracts/31_40.sol\":6360:6361  n */\n      dup9\n        /* \"contracts/31_40.sol\":6355:6361  _n = n */\n      swap3\n      pop\n        /* \"contracts/31_40.sol\":6372:6381  uint Five */\n      0x00\n        /* \"contracts/31_40.sol\":6387:6388  5 */\n      0x05\n        /* \"contracts/31_40.sol\":6384:6386  _n */\n      dup5\n        /* \"contracts/31_40.sol\":6384:6388  _n/5 */\n      tag_14\n      swap2\n      swap1\n      tag_12\n      jump\t// in\n    tag_14:\n        /* \"contracts/31_40.sol\":6372:6388  uint Five = _n/5 */\n      swap1\n      pop\n        /* \"contracts/31_40.sol\":6404:6405  n */\n      dup10\n        /* \"contracts/31_40.sol\":6399:6405  _n = n */\n      swap4\n      pop\n        /* \"contracts/31_40.sol\":6416:6426  uint Seven */\n      0x00\n        /* \"contracts/31_40.sol\":6432:6433  7 */\n      0x07\n        /* \"contracts/31_40.sol\":6429:6431  _n */\n      dup6\n        /* \"contracts/31_40.sol\":6429:6433  _n/7 */\n      tag_15\n      swap2\n      swap1\n      tag_12\n      jump\t// in\n    tag_15:\n        /* \"contracts/31_40.sol\":6416:6433  uint Seven = _n/7 */\n      swap1\n      pop\n        /* \"contracts/31_40.sol\":6451:6452  n */\n      dup11\n        /* \"contracts/31_40.sol\":6454:6457  Two */\n      dup5\n        /* \"contracts/31_40.sol\":6459:6464  Three */\n      dup5\n        /* \"contracts/31_40.sol\":6466:6470  Five */\n      dup5\n        /* \"contracts/31_40.sol\":6472:6477  Seven */\n      dup5\n        /* \"contracts/31_40.sol\":6444:6478  return(n, Two, Three, Five, Seven) */\n      swap10\n      pop\n      swap10\n      pop\n      swap10\n      pop\n      swap10\n      pop\n      swap10\n      pop\n      pop\n      pop\n      pop\n      pop\n      pop\n        /* \"contracts/31_40.sol\":6175:6486  function getCount(uint n) public pure returns(uint, uint, uint, uint, uint) {... */\n      swap2\n      swap4\n      swap6\n      swap1\n      swap3\n      swap5\n      pop\n      jump\t// out\n        /* \"#utility.yul\":88:205   */\n    tag_17:\n        /* \"#utility.yul\":197:198   */\n      0x00\n        /* \"#utility.yul\":194:195   */\n      dup1\n        /* \"#utility.yul\":187:199   */\n      revert\n        /* \"#utility.yul\":334:411   */\n    tag_19:\n        /* \"#utility.yul\":371:378   */\n      0x00\n        /* \"#utility.yul\":400:405   */\n      dup2\n        /* \"#utility.yul\":389:405   */\n      swap1\n      pop\n        /* \"#utility.yul\":334:411   */\n      swap2\n      swap1\n      pop\n      jump\t// out\n        /* \"#utility.yul\":417:539   */\n    tag_20:\n        /* \"#utility.yul\":490:514   */\n      tag_31\n        /* \"#utility.yul\":508:513   */\n      dup2\n        /* \"#utility.yul\":490:514   */\n      tag_19\n      jump\t// in\n    tag_31:\n        /* \"#utility.yul\":483:488   */\n      dup2\n        /* \"#utility.yul\":480:515   */\n      eq\n        /* \"#utility.yul\":470:533   */\n      tag_32\n      jumpi\n        /* \"#utility.yul\":529:530   */\n      0x00\n        /* \"#utility.yul\":526:527   */\n      dup1\n        /* \"#utility.yul\":519:531   */\n      revert\n        /* \"#utility.yul\":470:533   */\n    tag_32:\n        /* \"#utility.yul\":417:539   */\n      pop\n      jump\t// out\n        /* \"#utility.yul\":545:684   */\n    tag_21:\n        /* \"#utility.yul\":591:596   */\n      0x00\n        /* \"#utility.yul\":629:635   */\n      dup2\n        /* \"#utility.yul\":616:636   */\n      calldataload\n        /* \"#utility.yul\":607:636   */\n      swap1\n      pop\n        /* \"#utility.yul\":645:678   */\n      tag_34\n        /* \"#utility.yul\":672:677   */\n      dup2\n        /* \"#utility.yul\":645:678   */\n      tag_20\n      jump\t// in\n    tag_34:\n        /* \"#utility.yul\":545:684   */\n      swap3\n      swap2\n      pop\n      pop\n      jump\t// out\n        /* \"#utility.yul\":690:1019   */\n    tag_6:\n        /* \"#utility.yul\":749:755   */\n      0x00\n        /* \"#utility.yul\":798:800   */\n      0x20\n        /* \"#utility.yul\":786:795   */\n      dup3\n        /* \"#utility.yul\":777:784   */\n      dup5\n        /* \"#utility.yul\":773:796   */\n      sub\n        /* \"#utility.yul\":769:801   */\n      slt\n        /* \"#utility.yul\":766:885   */\n      iszero\n      tag_36\n      jumpi\n        /* \"#utility.yul\":804:883   */\n      tag_37\n      tag_17\n      jump\t// in\n    tag_37:\n        /* \"#utility.yul\":766:885   */\n    tag_36:\n        /* \"#utility.yul\":924:925   */\n      0x00\n        /* \"#utility.yul\":949:1002   */\n      tag_38\n        /* \"#utility.yul\":994:1001   */\n      dup5\n        /* \"#utility.yul\":985:991   */\n      dup3\n        /* \"#utility.yul\":974:983   */\n      dup6\n        /* \"#utility.yul\":970:992   */\n      add\n        /* \"#utility.yul\":949:1002   */\n      tag_21\n      jump\t// in\n    tag_38:\n        /* \"#utility.yul\":939:1002   */\n      swap2\n      pop\n        /* \"#utility.yul\":895:1012   */\n      pop\n        /* \"#utility.yul\":690:1019   */\n      swap3\n      swap2\n      pop\n      pop\n      jump\t// out\n        /* \"#utility.yul\":1025:1143   */\n    tag_22:\n        /* \"#utility.yul\":1112:1136   */\n      tag_40\n        /* \"#utility.yul\":1130:1135   */\n      dup2\n        /* \"#utility.yul\":1112:1136   */\n      tag_19\n      jump\t// in\n    tag_40:\n        /* \"#utility.yul\":1107:1110   */\n      dup3\n        /* \"#utility.yul\":1100:1137   */\n      mstore\n        /* \"#utility.yul\":1025:1143   */\n      pop\n      pop\n      jump\t// out\n        /* \"#utility.yul\":1149:1813   */\n    tag_9:\n        /* \"#utility.yul\":1354:1358   */\n      0x00\n        /* \"#utility.yul\":1392:1395   */\n      0xa0\n        /* \"#utility.yul\":1381:1390   */\n      dup3\n        /* \"#utility.yul\":1377:1396   */\n      add\n        /* \"#utility.yul\":1369:1396   */\n      swap1\n      pop\n        /* \"#utility.yul\":1406:1477   */\n      tag_42\n        /* \"#utility.yul\":1474:1475   */\n      0x00\n        /* \"#utility.yul\":1463:1472   */\n      dup4\n        /* \"#utility.yul\":1459:1476   */\n      add\n        /* \"#utility.yul\":1450:1456   */\n      dup9\n        /* \"#utility.yul\":1406:1477   */\n      tag_22\n      jump\t// in\n    tag_42:\n        /* \"#utility.yul\":1487:1559   */\n      tag_43\n        /* \"#utility.yul\":1555:1557   */\n      0x20\n        /* \"#utility.yul\":1544:1553   */\n      dup4\n        /* \"#utility.yul\":1540:1558   */\n      add\n        /* \"#utility.yul\":1531:1537   */\n      dup8\n        /* \"#utility.yul\":1487:1559   */\n      tag_22\n      jump\t// in\n    tag_43:\n        /* \"#utility.yul\":1569:1641   */\n      tag_44\n        /* \"#utility.yul\":1637:1639   */\n      0x40\n        /* \"#utility.yul\":1626:1635   */\n      dup4\n        /* \"#utility.yul\":1622:1640   */\n      add\n        /* \"#utility.yul\":1613:1619   */\n      dup7\n        /* \"#utility.yul\":1569:1641   */\n      tag_22\n      jump\t// in\n    tag_44:\n        /* \"#utility.yul\":1651:1723   */\n      tag_45\n        /* \"#utility.yul\":1719:1721   */\n      0x60\n        /* \"#utility.yul\":1708:1717   */\n      dup4\n        /* \"#utility.yul\":1704:1722   */\n      add\n        /* \"#utility.yul\":1695:1701   */\n      dup6\n        /* \"#utility.yul\":1651:1723   */\n      tag_22\n      jump\t// in\n    tag_45:\n        /* \"#utility.yul\":1733:1806   */\n      tag_46\n        /* \"#utility.yul\":1801:1804   */\n      0x80\n        /* \"#utility.yul\":1790:1799   */\n      dup4\n        /* \"#utility.yul\":1786:1805   */\n      add\n        /* \"#utility.yul\":1777:1783   */\n      dup5\n        /* \"#utility.yul\":1733:1806   */\n      tag_22\n      jump\t// in\n    tag_46:\n        /* \"#utility.yul\":1149:1813   */\n      swap7\n      swap6\n      pop\n      pop\n      pop\n      pop\n      pop\n      pop\n      jump\t// out\n        /* \"#utility.yul\":1819:1999   */\n    tag_23:\n        /* \"#utility.yul\":1867:1944   */\n      0x4e487b7100000000000000000000000000000000000000000000000000000000\n        /* \"#utility.yul\":1864:1865   */\n      0x00\n        /* \"#utility.yul\":1857:1945   */\n      mstore\n        /* \"#utility.yul\":1964:1968   */\n      0x12\n        /* \"#utility.yul\":1961:1962   */\n      0x04\n        /* \"#utility.yul\":1954:1969   */\n      mstore\n        /* \"#utility.yul\":1988:1992   */\n      0x24\n        /* \"#utility.yul\":1985:1986   */\n      0x00\n        /* \"#utility.yul\":1978:1993   */\n      revert\n        /* \"#utility.yul\":2191:2376   */\n    tag_12:\n        /* \"#utility.yul\":2231:2232   */\n      0x00\n        /* \"#utility.yul\":2248:2268   */\n      tag_50\n        /* \"#utility.yul\":2266:2267   */\n      dup3\n        /* \"#utility.yul\":2248:2268   */\n      tag_19\n      jump\t// in\n    tag_50:\n        /* \"#utility.yul\":2243:2268   */\n      swap2\n      pop\n        /* \"#utility.yul\":2282:2302   */\n      tag_51\n        /* \"#utility.yul\":2300:2301   */\n      dup4\n        /* \"#utility.yul\":2282:2302   */\n      tag_19\n      jump\t// in\n    tag_51:\n        /* \"#utility.yul\":2277:2302   */\n      swap3\n      pop\n        /* \"#utility.yul\":2321:2322   */\n      dup3\n        /* \"#utility.yul\":2311:2346   */\n      tag_52\n      jumpi\n        /* \"#utility.yul\":2326:2344   */\n      tag_53\n      tag_23\n      jump\t// in\n    tag_53:\n        /* \"#utility.yul\":2311:2346   */\n    tag_52:\n        /* \"#utility.yul\":2368:2369   */\n      dup3\n        /* \"#utility.yul\":2365:2366   */\n      dup3\n        /* \"#utility.yul\":2361:2370   */\n      div\n        /* \"#utility.yul\":2356:2370   */\n      swap1\n      pop\n        /* \"#utility.yul\":2191:2376   */\n      swap3\n      swap2\n      pop\n      pop\n      jump\t// out\n\n    auxdata: 0xa26469706673582212203af93c28c25f9cff65da1a6c0d1125e01d43c946e1e2f2ed48811cd1bfefc5d964736f6c63430008120033\n}\n",
				"bytecode": {
					"linkReferences": {},
					"object": "608060405234801561001057600080fd5b5061023a806100206000396000f3fe608060405234801561001057600080fd5b506004361061002b5760003560e01c8063c235391814610030575b600080fd5b61004a60048036038101906100459190610115565b610064565b60405161005b959493929190610151565b60405180910390f35b600080600080600080869050600060028261007f91906101d3565b9050879150600060038361009391906101d3565b905088925060006005846100a791906101d3565b905089935060006007856100bb91906101d3565b90508a8484848499509950995099509950505050505091939590929450565b600080fd5b6000819050919050565b6100f2816100df565b81146100fd57600080fd5b50565b60008135905061010f816100e9565b92915050565b60006020828403121561012b5761012a6100da565b5b600061013984828501610100565b91505092915050565b61014b816100df565b82525050565b600060a0820190506101666000830188610142565b6101736020830187610142565b6101806040830186610142565b61018d6060830185610142565b61019a6080830184610142565b9695505050505050565b7f4e487b7100000000000000000000000000000000000000000000000000000000600052601260045260246000fd5b60006101de826100df565b91506101e9836100df565b9250826101f9576101f86101a4565b5b82820490509291505056fea26469706673582212203af93c28c25f9cff65da1a6c0d1125e01d43c946e1e2f2ed48811cd1bfefc5d964736f6c63430008120033",
					"opcodes": "PUSH1 0x80 PUSH1 0x40 MSTORE CALLVALUE DUP1 ISZERO PUSH2 0x10 JUMPI PUSH1 0x0 DUP1 REVERT JUMPDEST POP PUSH2 0x23A DUP1 PUSH2 0x20 PUSH1 0x0 CODECOPY PUSH1 0x0 RETURN INVALID PUSH1 0x80 PUSH1 0x40 MSTORE CALLVALUE DUP1 ISZERO PUSH2 0x10 JUMPI PUSH1 0x0 DUP1 REVERT JUMPDEST POP PUSH1 0x4 CALLDATASIZE LT PUSH2 0x2B JUMPI PUSH1 0x0 CALLDATALOAD PUSH1 0xE0 SHR DUP1 PUSH4 0xC2353918 EQ PUSH2 0x30 JUMPI JUMPDEST PUSH1 0x0 DUP1 REVERT JUMPDEST PUSH2 0x4A PUSH1 0x4 DUP1 CALLDATASIZE SUB DUP2 ADD SWAP1 PUSH2 0x45 SWAP2 SWAP1 PUSH2 0x115 JUMP JUMPDEST PUSH2 0x64 JUMP JUMPDEST PUSH1 0x40 MLOAD PUSH2 0x5B SWAP6 SWAP5 SWAP4 SWAP3 SWAP2 SWAP1 PUSH2 0x151 JUMP JUMPDEST PUSH1 0x40 MLOAD DUP1 SWAP2 SUB SWAP1 RETURN JUMPDEST PUSH1 0x0 DUP1 PUSH1 0x0 DUP1 PUSH1 0x0 DUP1 DUP7 SWAP1 POP PUSH1 0x0 PUSH1 0x2 DUP3 PUSH2 0x7F SWAP2 SWAP1 PUSH2 0x1D3 JUMP JUMPDEST SWAP1 POP DUP8 SWAP2 POP PUSH1 0x0 PUSH1 0x3 DUP4 PUSH2 0x93 SWAP2 SWAP1 PUSH2 0x1D3 JUMP JUMPDEST SWAP1 POP DUP9 SWAP3 POP PUSH1 0x0 PUSH1 0x5 DUP5 PUSH2 0xA7 SWAP2 SWAP1 PUSH2 0x1D3 JUMP JUMPDEST SWAP1 POP DUP10 SWAP4 POP PUSH1 0x0 PUSH1 0x7 DUP6 PUSH2 0xBB SWAP2 SWAP1 PUSH2 0x1D3 JUMP JUMPDEST SWAP1 POP DUP11 DUP5 DUP5 DUP5 DUP5 SWAP10 POP SWAP10 POP SWAP10 POP SWAP10 POP SWAP10 POP POP POP POP POP POP SWAP2 SWAP4 SWAP6 SWAP1 SWAP3 SWAP5 POP JUMP JUMPDEST PUSH1 0x0 DUP1 REVERT JUMPDEST PUSH1 0x0 DUP2 SWAP1 POP SWAP2 SWAP1 POP JUMP JUMPDEST PUSH2 0xF2 DUP2 PUSH2 0xDF JUMP JUMPDEST DUP2 EQ PUSH2 0xFD JUMPI PUSH1 0x0 DUP1 REVERT JUMPDEST POP JUMP JUMPDEST PUSH1 0x0 DUP2 CALLDATALOAD SWAP1 POP PUSH2 0x10F DUP2 PUSH2 0xE9 JUMP JUMPDEST SWAP3 SWAP2 POP POP JUMP JUMPDEST PUSH1 0x0 PUSH1 0x20 DUP3 DUP5 SUB SLT ISZERO PUSH2 0x12B JUMPI PUSH2 0x12A PUSH2 0xDA JUMP JUMPDEST JUMPDEST PUSH1 0x0 PUSH2 0x139 DUP5 DUP3 DUP6 ADD PUSH2 0x100 JUMP JUMPDEST SWAP2 POP POP SWAP3 SWAP2 POP POP JUMP JUMPDEST PUSH2 0x14B DUP2 PUSH2 0xDF JUMP JUMPDEST DUP3 MSTORE POP POP JUMP JUMPDEST PUSH1 0x0 PUSH1 0xA0 DUP3 ADD SWAP1 POP PUSH2 0x166 PUSH1 0x0 DUP4 ADD DUP9 PUSH2 0x142 JUMP JUMPDEST PUSH2 0x173 PUSH1 0x20 DUP4 ADD DUP8 PUSH2 0x142 JUMP JUMPDEST PUSH2 0x180 PUSH1 0x40 DUP4 ADD DUP7 PUSH2 0x142 JUMP JUMPDEST PUSH2 0x18D PUSH1 0x60 DUP4 ADD DUP6 PUSH2 0x142 JUMP JUMPDEST PUSH2 0x19A PUSH1 0x80 DUP4 ADD DUP5 PUSH2 0x142 JUMP JUMPDEST SWAP7 SWAP6 POP POP POP POP POP POP JUMP JUMPDEST PUSH32 0x4E487B7100000000000000000000000000000000000000000000000000000000 PUSH1 0x0 MSTORE PUSH1 0x12 PUSH1 0x4 MSTORE PUSH1 0x24 PUSH1 0x0 REVERT JUMPDEST PUSH1 0x0 PUSH2 0x1DE DUP3 PUSH2 0xDF JUMP JUMPDEST SWAP2 POP PUSH2 0x1E9 DUP4 PUSH2 0xDF JUMP JUMPDEST SWAP3 POP DUP3 PUSH2 0x1F9 JUMPI PUSH2 0x1F8 PUSH2 0x1A4 JUMP JUMPDEST JUMPDEST DUP3 DUP3 DIV SWAP1 POP SWAP3 SWAP2 POP POP JUMP INVALID LOG2 PUSH5 0x6970667358 0x22 SLT KECCAK256 GASPRICE 0xF9 EXTCODECOPY 0x28 0xC2 0x5F SWAP13 SELFDESTRUCT PUSH6 0xDA1A6C0D1125 0xE0 SAR NUMBER 0xC9 CHAINID 0xE1 0xE2 CALLCODE 0xED BASEFEE DUP2 SHR 0xD1 0xBF 0xEF 0xC5 0xD9 PUSH5 0x736F6C6343 STOP ADDMOD SLT STOP CALLER "
				},
				"gasEstimates": {
					"creation": {
						"codeDepositCost": "114000",
						"executionCost": "159",
						"totalCost": "114159"
					},
					"external": {
						"getCount(uint256)": "infinite"
					}
				},
				"methodIdentifiers": {
					"getCount(uint256)": "c2353918"
				}
			},
			"storageLayout": {
				"storage": [],
				"types": null
			},
			"userdoc": {
				"kind": "user",
				"methods": {},
				"version": 1
			}
		}
	}
}