{
	"contracts/1_10.sol": {
		"Quiz7": {
			"abi": [
				{
					"inputs": [],
					"name": "addAllNumbers",
					"outputs": [
						{
							"internalType": "uint256",
							"name": "",
							"type": "uint256"
						}
					],
					"stateMutability": "view",
					"type": "function"
				},
				{
					"inputs": [],
					"name": "getNumbers",
					"outputs": [
						{
							"internalType": "uint256[6]",
							"name": "",
							"type": "uint256[6]"
						}
					],
					"stateMutability": "view",
					"type": "function"
				},
				{
					"inputs": [],
					"name": "setNumbers",
					"outputs": [],
					"stateMutability": "nonpayable",
					"type": "function"
				}
			],
			"devdoc": {
				"kind": "dev",
				"methods": {},
				"version": 1
			},
			"evm": {
				"assembly": "    /* \"contracts/1_10.sol\":2768:3481  contract Quiz7 {... */\n  mstore(0x40, 0x80)\n  callvalue\n  dup1\n  iszero\n  tag_1\n  jumpi\n  0x00\n  dup1\n  revert\ntag_1:\n  pop\n  dataSize(sub_0)\n  dup1\n  dataOffset(sub_0)\n  0x00\n  codecopy\n  0x00\n  return\nstop\n\nsub_0: assembly {\n        /* \"contracts/1_10.sol\":2768:3481  contract Quiz7 {... */\n      mstore(0x40, 0x80)\n      callvalue\n      dup1\n      iszero\n      tag_1\n      jumpi\n      0x00\n      dup1\n      revert\n    tag_1:\n      pop\n      jumpi(tag_2, lt(calldatasize, 0x04))\n      shr(0xe0, calldataload(0x00))\n      dup1\n      0x0f1adef8\n      eq\n      tag_3\n      jumpi\n      dup1\n      0x10c66e17\n      eq\n      tag_4\n      jumpi\n      dup1\n      0x89f915f6\n      eq\n      tag_5\n      jumpi\n    tag_2:\n      0x00\n      dup1\n      revert\n        /* \"contracts/1_10.sol\":3284:3478  function addAllNumbers() public view returns(uint) {... */\n    tag_3:\n      tag_6\n      tag_7\n      jump\t// in\n    tag_6:\n      mload(0x40)\n      tag_8\n      swap2\n      swap1\n      tag_9\n      jump\t// in\n    tag_8:\n      mload(0x40)\n      dup1\n      swap2\n      sub\n      swap1\n      return\n        /* \"contracts/1_10.sol\":3044:3177  function setNumbers() public {... */\n    tag_4:\n      tag_10\n      tag_11\n      jump\t// in\n    tag_10:\n      stop\n        /* \"contracts/1_10.sol\":3185:3276  function getNumbers() public view returns(uint[6] memory) {... */\n    tag_5:\n      tag_12\n      tag_13\n      jump\t// in\n    tag_12:\n      mload(0x40)\n      tag_14\n      swap2\n      swap1\n      tag_15\n      jump\t// in\n    tag_14:\n      mload(0x40)\n      dup1\n      swap2\n      sub\n      swap1\n      return\n        /* \"contracts/1_10.sol\":3284:3478  function addAllNumbers() public view returns(uint) {... */\n    tag_7:\n        /* \"contracts/1_10.sol\":3329:3333  uint */\n      0x00\n        /* \"contracts/1_10.sol\":3346:3354  uint sum */\n      dup1\n        /* \"contracts/1_10.sol\":3369:3375  uint i */\n      0x00\n        /* \"contracts/1_10.sol\":3365:3450  for(uint i = 0; i < numbers.length; i++) {... */\n    tag_17:\n        /* \"contracts/1_10.sol\":3385:3399  numbers.length */\n      0x06\n        /* \"contracts/1_10.sol\":3381:3382  i */\n      dup2\n        /* \"contracts/1_10.sol\":3381:3399  i < numbers.length */\n      lt\n        /* \"contracts/1_10.sol\":3365:3450  for(uint i = 0; i < numbers.length; i++) {... */\n      iszero\n      tag_18\n      jumpi\n        /* \"contracts/1_10.sol\":3428:3435  numbers */\n      0x00\n        /* \"contracts/1_10.sol\":3436:3437  i */\n      dup2\n        /* \"contracts/1_10.sol\":3428:3438  numbers[i] */\n      0x06\n      dup2\n      lt\n      tag_20\n      jumpi\n      tag_21\n      tag_22\n      jump\t// in\n    tag_21:\n    tag_20:\n      add\n      sload\n        /* \"contracts/1_10.sol\":3421:3438  sum += numbers[i] */\n      dup3\n      tag_24\n      swap2\n      swap1\n      tag_25\n      jump\t// in\n    tag_24:\n      swap2\n      pop\n        /* \"contracts/1_10.sol\":3401:3404  i++ */\n      dup1\n      dup1\n      tag_26\n      swap1\n      tag_27\n      jump\t// in\n    tag_26:\n      swap2\n      pop\n      pop\n        /* \"contracts/1_10.sol\":3365:3450  for(uint i = 0; i < numbers.length; i++) {... */\n      jump(tag_17)\n    tag_18:\n      pop\n        /* \"contracts/1_10.sol\":3467:3470  sum */\n      dup1\n        /* \"contracts/1_10.sol\":3460:3470  return sum */\n      swap2\n      pop\n      pop\n        /* \"contracts/1_10.sol\":3284:3478  function addAllNumbers() public view returns(uint) {... */\n      swap1\n      jump\t// out\n        /* \"contracts/1_10.sol\":3044:3177  function setNumbers() public {... */\n    tag_11:\n        /* \"contracts/1_10.sol\":3088:3094  uint i */\n      0x00\n        /* \"contracts/1_10.sol\":3084:3170  for(uint i = 0; i < numbers.length; i++) {... */\n    tag_29:\n        /* \"contracts/1_10.sol\":3104:3118  numbers.length */\n      0x06\n        /* \"contracts/1_10.sol\":3100:3101  i */\n      dup2\n        /* \"contracts/1_10.sol\":3100:3118  i < numbers.length */\n      lt\n        /* \"contracts/1_10.sol\":3084:3170  for(uint i = 0; i < numbers.length; i++) {... */\n      iszero\n      tag_30\n      jumpi\n        /* \"contracts/1_10.sol\":3157:3158  1 */\n      0x01\n        /* \"contracts/1_10.sol\":3153:3154  i */\n      dup2\n        /* \"contracts/1_10.sol\":3153:3158  i + 1 */\n      tag_32\n      swap2\n      swap1\n      tag_25\n      jump\t// in\n    tag_32:\n        /* \"contracts/1_10.sol\":3140:3147  numbers */\n      0x00\n        /* \"contracts/1_10.sol\":3148:3149  i */\n      dup3\n        /* \"contracts/1_10.sol\":3140:3150  numbers[i] */\n      0x06\n      dup2\n      lt\n      tag_33\n      jumpi\n      tag_34\n      tag_22\n      jump\t// in\n    tag_34:\n    tag_33:\n      add\n        /* \"contracts/1_10.sol\":3140:3158  numbers[i] = i + 1 */\n      dup2\n      swap1\n      sstore\n      pop\n        /* \"contracts/1_10.sol\":3120:3123  i++ */\n      dup1\n      dup1\n      tag_36\n      swap1\n      tag_27\n      jump\t// in\n    tag_36:\n      swap2\n      pop\n      pop\n        /* \"contracts/1_10.sol\":3084:3170  for(uint i = 0; i < numbers.length; i++) {... */\n      jump(tag_29)\n    tag_30:\n      pop\n        /* \"contracts/1_10.sol\":3044:3177  function setNumbers() public {... */\n      jump\t// out\n        /* \"contracts/1_10.sol\":3185:3276  function getNumbers() public view returns(uint[6] memory) {... */\n    tag_13:\n        /* \"contracts/1_10.sol\":3227:3241  uint[6] memory */\n      tag_37\n      tag_38\n      jump\t// in\n    tag_37:\n        /* \"contracts/1_10.sol\":3261:3268  numbers */\n      0x00\n        /* \"contracts/1_10.sol\":3254:3268  return numbers */\n      0x06\n      dup1\n      0x20\n      mul\n      mload(0x40)\n      swap1\n      dup2\n      add\n      0x40\n      mstore\n      dup1\n      swap3\n      swap2\n      swap1\n      dup3\n      0x06\n      dup1\n      iszero\n      tag_40\n      jumpi\n      0x20\n      mul\n      dup3\n      add\n      swap2\n    tag_41:\n      dup2\n      sload\n      dup2\n      mstore\n      0x20\n      add\n      swap1\n      0x01\n      add\n      swap1\n      dup1\n      dup4\n      gt\n      tag_41\n      jumpi\n    tag_40:\n      pop\n      pop\n      pop\n      pop\n      pop\n      swap1\n      pop\n        /* \"contracts/1_10.sol\":3185:3276  function getNumbers() public view returns(uint[6] memory) {... */\n      swap1\n      jump\t// out\n    tag_38:\n      mload(0x40)\n      dup1\n      0xc0\n      add\n      0x40\n      mstore\n      dup1\n      0x06\n      swap1\n      0x20\n      dup3\n      mul\n      dup1\n      calldatasize\n      dup4\n      calldatacopy\n      dup1\n      dup3\n      add\n      swap2\n      pop\n      pop\n      swap1\n      pop\n      pop\n      swap1\n      jump\t// out\n        /* \"#utility.yul\":7:84   */\n    tag_42:\n        /* \"#utility.yul\":44:51   */\n      0x00\n        /* \"#utility.yul\":73:78   */\n      dup2\n        /* \"#utility.yul\":62:78   */\n      swap1\n      pop\n        /* \"#utility.yul\":7:84   */\n      swap2\n      swap1\n      pop\n      jump\t// out\n        /* \"#utility.yul\":90:208   */\n    tag_43:\n        /* \"#utility.yul\":177:201   */\n      tag_55\n        /* \"#utility.yul\":195:200   */\n      dup2\n        /* \"#utility.yul\":177:201   */\n      tag_42\n      jump\t// in\n    tag_55:\n        /* \"#utility.yul\":172:175   */\n      dup3\n        /* \"#utility.yul\":165:202   */\n      mstore\n        /* \"#utility.yul\":90:208   */\n      pop\n      pop\n      jump\t// out\n        /* \"#utility.yul\":214:436   */\n    tag_9:\n        /* \"#utility.yul\":307:311   */\n      0x00\n        /* \"#utility.yul\":345:347   */\n      0x20\n        /* \"#utility.yul\":334:343   */\n      dup3\n        /* \"#utility.yul\":330:348   */\n      add\n        /* \"#utility.yul\":322:348   */\n      swap1\n      pop\n        /* \"#utility.yul\":358:429   */\n      tag_57\n        /* \"#utility.yul\":426:427   */\n      0x00\n        /* \"#utility.yul\":415:424   */\n      dup4\n        /* \"#utility.yul\":411:428   */\n      add\n        /* \"#utility.yul\":402:408   */\n      dup5\n        /* \"#utility.yul\":358:429   */\n      tag_43\n      jump\t// in\n    tag_57:\n        /* \"#utility.yul\":214:436   */\n      swap3\n      swap2\n      pop\n      pop\n      jump\t// out\n        /* \"#utility.yul\":442:546   */\n    tag_44:\n        /* \"#utility.yul\":507:513   */\n      0x00\n        /* \"#utility.yul\":535:539   */\n      0x06\n        /* \"#utility.yul\":525:539   */\n      swap1\n      pop\n        /* \"#utility.yul\":442:546   */\n      swap2\n      swap1\n      pop\n      jump\t// out\n        /* \"#utility.yul\":552:695   */\n    tag_45:\n        /* \"#utility.yul\":649:660   */\n      0x00\n        /* \"#utility.yul\":686:689   */\n      dup2\n        /* \"#utility.yul\":671:689   */\n      swap1\n      pop\n        /* \"#utility.yul\":552:695   */\n      swap3\n      swap2\n      pop\n      pop\n      jump\t// out\n        /* \"#utility.yul\":701:799   */\n    tag_46:\n        /* \"#utility.yul\":766:770   */\n      0x00\n        /* \"#utility.yul\":789:792   */\n      dup2\n        /* \"#utility.yul\":781:792   */\n      swap1\n      pop\n        /* \"#utility.yul\":701:799   */\n      swap2\n      swap1\n      pop\n      jump\t// out\n        /* \"#utility.yul\":805:913   */\n    tag_47:\n        /* \"#utility.yul\":882:906   */\n      tag_62\n        /* \"#utility.yul\":900:905   */\n      dup2\n        /* \"#utility.yul\":882:906   */\n      tag_42\n      jump\t// in\n    tag_62:\n        /* \"#utility.yul\":877:880   */\n      dup3\n        /* \"#utility.yul\":870:907   */\n      mstore\n        /* \"#utility.yul\":805:913   */\n      pop\n      pop\n      jump\t// out\n        /* \"#utility.yul\":919:1098   */\n    tag_48:\n        /* \"#utility.yul\":988:998   */\n      0x00\n        /* \"#utility.yul\":1009:1055   */\n      tag_64\n        /* \"#utility.yul\":1051:1054   */\n      dup4\n        /* \"#utility.yul\":1043:1049   */\n      dup4\n        /* \"#utility.yul\":1009:1055   */\n      tag_47\n      jump\t// in\n    tag_64:\n        /* \"#utility.yul\":1087:1091   */\n      0x20\n        /* \"#utility.yul\":1082:1085   */\n      dup4\n        /* \"#utility.yul\":1078:1092   */\n      add\n        /* \"#utility.yul\":1064:1092   */\n      swap1\n      pop\n        /* \"#utility.yul\":919:1098   */\n      swap3\n      swap2\n      pop\n      pop\n      jump\t// out\n        /* \"#utility.yul\":1104:1215   */\n    tag_49:\n        /* \"#utility.yul\":1172:1176   */\n      0x00\n        /* \"#utility.yul\":1204:1208   */\n      0x20\n        /* \"#utility.yul\":1199:1202   */\n      dup3\n        /* \"#utility.yul\":1195:1209   */\n      add\n        /* \"#utility.yul\":1187:1209   */\n      swap1\n      pop\n        /* \"#utility.yul\":1104:1215   */\n      swap2\n      swap1\n      pop\n      jump\t// out\n        /* \"#utility.yul\":1253:1947   */\n    tag_50:\n        /* \"#utility.yul\":1389:1441   */\n      tag_67\n        /* \"#utility.yul\":1435:1440   */\n      dup2\n        /* \"#utility.yul\":1389:1441   */\n      tag_44\n      jump\t// in\n    tag_67:\n        /* \"#utility.yul\":1457:1541   */\n      tag_68\n        /* \"#utility.yul\":1534:1540   */\n      dup2\n        /* \"#utility.yul\":1529:1532   */\n      dup5\n        /* \"#utility.yul\":1457:1541   */\n      tag_45\n      jump\t// in\n    tag_68:\n        /* \"#utility.yul\":1450:1541   */\n      swap3\n      pop\n        /* \"#utility.yul\":1565:1619   */\n      tag_69\n        /* \"#utility.yul\":1613:1618   */\n      dup3\n        /* \"#utility.yul\":1565:1619   */\n      tag_46\n      jump\t// in\n    tag_69:\n        /* \"#utility.yul\":1642:1649   */\n      dup1\n        /* \"#utility.yul\":1673:1674   */\n      0x00\n        /* \"#utility.yul\":1658:1940   */\n    tag_70:\n        /* \"#utility.yul\":1683:1689   */\n      dup4\n        /* \"#utility.yul\":1680:1681   */\n      dup2\n        /* \"#utility.yul\":1677:1690   */\n      lt\n        /* \"#utility.yul\":1658:1940   */\n      iszero\n      tag_72\n      jumpi\n        /* \"#utility.yul\":1759:1765   */\n      dup2\n        /* \"#utility.yul\":1753:1766   */\n      mload\n        /* \"#utility.yul\":1786:1849   */\n      tag_73\n        /* \"#utility.yul\":1845:1848   */\n      dup8\n        /* \"#utility.yul\":1830:1843   */\n      dup3\n        /* \"#utility.yul\":1786:1849   */\n      tag_48\n      jump\t// in\n    tag_73:\n        /* \"#utility.yul\":1779:1849   */\n      swap7\n      pop\n        /* \"#utility.yul\":1872:1930   */\n      tag_74\n        /* \"#utility.yul\":1923:1929   */\n      dup4\n        /* \"#utility.yul\":1872:1930   */\n      tag_49\n      jump\t// in\n    tag_74:\n        /* \"#utility.yul\":1862:1930   */\n      swap3\n      pop\n        /* \"#utility.yul\":1718:1940   */\n      pop\n        /* \"#utility.yul\":1705:1706   */\n      0x01\n        /* \"#utility.yul\":1702:1703   */\n      dup2\n        /* \"#utility.yul\":1698:1707   */\n      add\n        /* \"#utility.yul\":1693:1707   */\n      swap1\n      pop\n        /* \"#utility.yul\":1658:1940   */\n      jump(tag_70)\n    tag_72:\n        /* \"#utility.yul\":1662:1676   */\n      pop\n        /* \"#utility.yul\":1365:1947   */\n      pop\n      pop\n      pop\n        /* \"#utility.yul\":1253:1947   */\n      pop\n      pop\n      jump\t// out\n        /* \"#utility.yul\":1953:2268   */\n    tag_15:\n        /* \"#utility.yul\":2092:2096   */\n      0x00\n        /* \"#utility.yul\":2130:2133   */\n      0xc0\n        /* \"#utility.yul\":2119:2128   */\n      dup3\n        /* \"#utility.yul\":2115:2134   */\n      add\n        /* \"#utility.yul\":2107:2134   */\n      swap1\n      pop\n        /* \"#utility.yul\":2144:2261   */\n      tag_76\n        /* \"#utility.yul\":2258:2259   */\n      0x00\n        /* \"#utility.yul\":2247:2256   */\n      dup4\n        /* \"#utility.yul\":2243:2260   */\n      add\n        /* \"#utility.yul\":2234:2240   */\n      dup5\n        /* \"#utility.yul\":2144:2261   */\n      tag_50\n      jump\t// in\n    tag_76:\n        /* \"#utility.yul\":1953:2268   */\n      swap3\n      swap2\n      pop\n      pop\n      jump\t// out\n        /* \"#utility.yul\":2274:2454   */\n    tag_22:\n        /* \"#utility.yul\":2322:2399   */\n      0x4e487b7100000000000000000000000000000000000000000000000000000000\n        /* \"#utility.yul\":2319:2320   */\n      0x00\n        /* \"#utility.yul\":2312:2400   */\n      mstore\n        /* \"#utility.yul\":2419:2423   */\n      0x32\n        /* \"#utility.yul\":2416:2417   */\n      0x04\n        /* \"#utility.yul\":2409:2424   */\n      mstore\n        /* \"#utility.yul\":2443:2447   */\n      0x24\n        /* \"#utility.yul\":2440:2441   */\n      0x00\n        /* \"#utility.yul\":2433:2448   */\n      revert\n        /* \"#utility.yul\":2460:2640   */\n    tag_51:\n        /* \"#utility.yul\":2508:2585   */\n      0x4e487b7100000000000000000000000000000000000000000000000000000000\n        /* \"#utility.yul\":2505:2506   */\n      0x00\n        /* \"#utility.yul\":2498:2586   */\n      mstore\n        /* \"#utility.yul\":2605:2609   */\n      0x11\n        /* \"#utility.yul\":2602:2603   */\n      0x04\n        /* \"#utility.yul\":2595:2610   */\n      mstore\n        /* \"#utility.yul\":2629:2633   */\n      0x24\n        /* \"#utility.yul\":2626:2627   */\n      0x00\n        /* \"#utility.yul\":2619:2634   */\n      revert\n        /* \"#utility.yul\":2646:2837   */\n    tag_25:\n        /* \"#utility.yul\":2686:2689   */\n      0x00\n        /* \"#utility.yul\":2705:2725   */\n      tag_80\n        /* \"#utility.yul\":2723:2724   */\n      dup3\n        /* \"#utility.yul\":2705:2725   */\n      tag_42\n      jump\t// in\n    tag_80:\n        /* \"#utility.yul\":2700:2725   */\n      swap2\n      pop\n        /* \"#utility.yul\":2739:2759   */\n      tag_81\n        /* \"#utility.yul\":2757:2758   */\n      dup4\n        /* \"#utility.yul\":2739:2759   */\n      tag_42\n      jump\t// in\n    tag_81:\n        /* \"#utility.yul\":2734:2759   */\n      swap3\n      pop\n        /* \"#utility.yul\":2782:2783   */\n      dup3\n        /* \"#utility.yul\":2779:2780   */\n      dup3\n        /* \"#utility.yul\":2775:2784   */\n      add\n        /* \"#utility.yul\":2768:2784   */\n      swap1\n      pop\n        /* \"#utility.yul\":2803:2806   */\n      dup1\n        /* \"#utility.yul\":2800:2801   */\n      dup3\n        /* \"#utility.yul\":2797:2807   */\n      gt\n        /* \"#utility.yul\":2794:2830   */\n      iszero\n      tag_82\n      jumpi\n        /* \"#utility.yul\":2810:2828   */\n      tag_83\n      tag_51\n      jump\t// in\n    tag_83:\n        /* \"#utility.yul\":2794:2830   */\n    tag_82:\n        /* \"#utility.yul\":2646:2837   */\n      swap3\n      swap2\n      pop\n      pop\n      jump\t// out\n        /* \"#utility.yul\":2843:3076   */\n    tag_27:\n        /* \"#utility.yul\":2882:2885   */\n      0x00\n        /* \"#utility.yul\":2905:2929   */\n      tag_85\n        /* \"#utility.yul\":2923:2928   */\n      dup3\n        /* \"#utility.yul\":2905:2929   */\n      tag_42\n      jump\t// in\n    tag_85:\n        /* \"#utility.yul\":2896:2929   */\n      swap2\n      pop\n        /* \"#utility.yul\":2951:3017   */\n      0xffffffffffffffffffffffffffffffffffffffffffffffffffffffffffffffff\n        /* \"#utility.yul\":2944:2949   */\n      dup3\n        /* \"#utility.yul\":2941:3018   */\n      sub\n        /* \"#utility.yul\":2938:3041   */\n      tag_86\n      jumpi\n        /* \"#utility.yul\":3021:3039   */\n      tag_87\n      tag_51\n      jump\t// in\n    tag_87:\n        /* \"#utility.yul\":2938:3041   */\n    tag_86:\n        /* \"#utility.yul\":3068:3069   */\n      0x01\n        /* \"#utility.yul\":3061:3066   */\n      dup3\n        /* \"#utility.yul\":3057:3070   */\n      add\n        /* \"#utility.yul\":3050:3070   */\n      swap1\n      pop\n        /* \"#utility.yul\":2843:3076   */\n      swap2\n      swap1\n      pop\n      jump\t// out\n\n    auxdata: 0xa2646970667358221220a4e68ae5ead2bfc27de2cf6a6f4b0f2231eea570be945eb5b5b092565fd7b20264736f6c63430008120033\n}\n",
				"bytecode": {
					"linkReferences": {},
					"object": "608060405234801561001057600080fd5b50610398806100206000396000f3fe608060405234801561001057600080fd5b50600436106100415760003560e01c80630f1adef81461004657806310c66e171461006457806389f915f61461006e575b600080fd5b61004e61008c565b60405161005b91906101a7565b60405180910390f35b61006c6100d9565b005b610076610121565b604051610083919061026d565b60405180910390f35b60008060005b60068110156100d157600081600681106100af576100ae610288565b5b0154826100bc91906102e6565b915080806100c99061031a565b915050610092565b508091505090565b60005b600681101561011e576001816100f291906102e6565b6000826006811061010657610105610288565b5b018190555080806101169061031a565b9150506100dc565b50565b61012961016c565b6000600680602002604051908101604052809291908260068015610162576020028201915b81548152602001906001019080831161014e575b5050505050905090565b6040518060c00160405280600690602082028036833780820191505090505090565b6000819050919050565b6101a18161018e565b82525050565b60006020820190506101bc6000830184610198565b92915050565b600060069050919050565b600081905092915050565b6000819050919050565b6101eb8161018e565b82525050565b60006101fd83836101e2565b60208301905092915050565b6000602082019050919050565b61021f816101c2565b61022981846101cd565b9250610234826101d8565b8060005b8381101561026557815161024c87826101f1565b965061025783610209565b925050600181019050610238565b505050505050565b600060c0820190506102826000830184610216565b92915050565b7f4e487b7100000000000000000000000000000000000000000000000000000000600052603260045260246000fd5b7f4e487b7100000000000000000000000000000000000000000000000000000000600052601160045260246000fd5b60006102f18261018e565b91506102fc8361018e565b9250828201905080821115610314576103136102b7565b5b92915050565b60006103258261018e565b91507fffffffffffffffffffffffffffffffffffffffffffffffffffffffffffffffff8203610357576103566102b7565b5b60018201905091905056fea2646970667358221220a4e68ae5ead2bfc27de2cf6a6f4b0f2231eea570be945eb5b5b092565fd7b20264736f6c63430008120033",
					"opcodes": "PUSH1 0x80 PUSH1 0x40 MSTORE CALLVALUE DUP1 ISZERO PUSH2 0x10 JUMPI PUSH1 0x0 DUP1 REVERT JUMPDEST POP PUSH2 0x398 DUP1 PUSH2 0x20 PUSH1 0x0 CODECOPY PUSH1 0x0 RETURN INVALID PUSH1 0x80 PUSH1 0x40 MSTORE CALLVALUE DUP1 ISZERO PUSH2 0x10 JUMPI PUSH1 0x0 DUP1 REVERT JUMPDEST POP PUSH1 0x4 CALLDATASIZE LT PUSH2 0x41 JUMPI PUSH1 0x0 CALLDATALOAD PUSH1 0xE0 SHR DUP1 PUSH4 0xF1ADEF8 EQ PUSH2 0x46 JUMPI DUP1 PUSH4 0x10C66E17 EQ PUSH2 0x64 JUMPI DUP1 PUSH4 0x89F915F6 EQ PUSH2 0x6E JUMPI JUMPDEST PUSH1 0x0 DUP1 REVERT JUMPDEST PUSH2 0x4E PUSH2 0x8C JUMP JUMPDEST PUSH1 0x40 MLOAD PUSH2 0x5B SWAP2 SWAP1 PUSH2 0x1A7 JUMP JUMPDEST PUSH1 0x40 MLOAD DUP1 SWAP2 SUB SWAP1 RETURN JUMPDEST PUSH2 0x6C PUSH2 0xD9 JUMP JUMPDEST STOP JUMPDEST PUSH2 0x76 PUSH2 0x121 JUMP JUMPDEST PUSH1 0x40 MLOAD PUSH2 0x83 SWAP2 SWAP1 PUSH2 0x26D JUMP JUMPDEST PUSH1 0x40 MLOAD DUP1 SWAP2 SUB SWAP1 RETURN JUMPDEST PUSH1 0x0 DUP1 PUSH1 0x0 JUMPDEST PUSH1 0x6 DUP2 LT ISZERO PUSH2 0xD1 JUMPI PUSH1 0x0 DUP2 PUSH1 0x6 DUP2 LT PUSH2 0xAF JUMPI PUSH2 0xAE PUSH2 0x288 JUMP JUMPDEST JUMPDEST ADD SLOAD DUP3 PUSH2 0xBC SWAP2 SWAP1 PUSH2 0x2E6 JUMP JUMPDEST SWAP2 POP DUP1 DUP1 PUSH2 0xC9 SWAP1 PUSH2 0x31A JUMP JUMPDEST SWAP2 POP POP PUSH2 0x92 JUMP JUMPDEST POP DUP1 SWAP2 POP POP SWAP1 JUMP JUMPDEST PUSH1 0x0 JUMPDEST PUSH1 0x6 DUP2 LT ISZERO PUSH2 0x11E JUMPI PUSH1 0x1 DUP2 PUSH2 0xF2 SWAP2 SWAP1 PUSH2 0x2E6 JUMP JUMPDEST PUSH1 0x0 DUP3 PUSH1 0x6 DUP2 LT PUSH2 0x106 JUMPI PUSH2 0x105 PUSH2 0x288 JUMP JUMPDEST JUMPDEST ADD DUP2 SWAP1 SSTORE POP DUP1 DUP1 PUSH2 0x116 SWAP1 PUSH2 0x31A JUMP JUMPDEST SWAP2 POP POP PUSH2 0xDC JUMP JUMPDEST POP JUMP JUMPDEST PUSH2 0x129 PUSH2 0x16C JUMP JUMPDEST PUSH1 0x0 PUSH1 0x6 DUP1 PUSH1 0x20 MUL PUSH1 0x40 MLOAD SWAP1 DUP2 ADD PUSH1 0x40 MSTORE DUP1 SWAP3 SWAP2 SWAP1 DUP3 PUSH1 0x6 DUP1 ISZERO PUSH2 0x162 JUMPI PUSH1 0x20 MUL DUP3 ADD SWAP2 JUMPDEST DUP2 SLOAD DUP2 MSTORE PUSH1 0x20 ADD SWAP1 PUSH1 0x1 ADD SWAP1 DUP1 DUP4 GT PUSH2 0x14E JUMPI JUMPDEST POP POP POP POP POP SWAP1 POP SWAP1 JUMP JUMPDEST PUSH1 0x40 MLOAD DUP1 PUSH1 0xC0 ADD PUSH1 0x40 MSTORE DUP1 PUSH1 0x6 SWAP1 PUSH1 0x20 DUP3 MUL DUP1 CALLDATASIZE DUP4 CALLDATACOPY DUP1 DUP3 ADD SWAP2 POP POP SWAP1 POP POP SWAP1 JUMP JUMPDEST PUSH1 0x0 DUP2 SWAP1 POP SWAP2 SWAP1 POP JUMP JUMPDEST PUSH2 0x1A1 DUP2 PUSH2 0x18E JUMP JUMPDEST DUP3 MSTORE POP POP JUMP JUMPDEST PUSH1 0x0 PUSH1 0x20 DUP3 ADD SWAP1 POP PUSH2 0x1BC PUSH1 0x0 DUP4 ADD DUP5 PUSH2 0x198 JUMP JUMPDEST SWAP3 SWAP2 POP POP JUMP JUMPDEST PUSH1 0x0 PUSH1 0x6 SWAP1 POP SWAP2 SWAP1 POP JUMP JUMPDEST PUSH1 0x0 DUP2 SWAP1 POP SWAP3 SWAP2 POP POP JUMP JUMPDEST PUSH1 0x0 DUP2 SWAP1 POP SWAP2 SWAP1 POP JUMP JUMPDEST PUSH2 0x1EB DUP2 PUSH2 0x18E JUMP JUMPDEST DUP3 MSTORE POP POP JUMP JUMPDEST PUSH1 0x0 PUSH2 0x1FD DUP4 DUP4 PUSH2 0x1E2 JUMP JUMPDEST PUSH1 0x20 DUP4 ADD SWAP1 POP SWAP3 SWAP2 POP POP JUMP JUMPDEST PUSH1 0x0 PUSH1 0x20 DUP3 ADD SWAP1 POP SWAP2 SWAP1 POP JUMP JUMPDEST PUSH2 0x21F DUP2 PUSH2 0x1C2 JUMP JUMPDEST PUSH2 0x229 DUP2 DUP5 PUSH2 0x1CD JUMP JUMPDEST SWAP3 POP PUSH2 0x234 DUP3 PUSH2 0x1D8 JUMP JUMPDEST DUP1 PUSH1 0x0 JUMPDEST DUP4 DUP2 LT ISZERO PUSH2 0x265 JUMPI DUP2 MLOAD PUSH2 0x24C DUP8 DUP3 PUSH2 0x1F1 JUMP JUMPDEST SWAP7 POP PUSH2 0x257 DUP4 PUSH2 0x209 JUMP JUMPDEST SWAP3 POP POP PUSH1 0x1 DUP2 ADD SWAP1 POP PUSH2 0x238 JUMP JUMPDEST POP POP POP POP POP POP JUMP JUMPDEST PUSH1 0x0 PUSH1 0xC0 DUP3 ADD SWAP1 POP PUSH2 0x282 PUSH1 0x0 DUP4 ADD DUP5 PUSH2 0x216 JUMP JUMPDEST SWAP3 SWAP2 POP POP JUMP JUMPDEST PUSH32 0x4E487B7100000000000000000000000000000000000000000000000000000000 PUSH1 0x0 MSTORE PUSH1 0x32 PUSH1 0x4 MSTORE PUSH1 0x24 PUSH1 0x0 REVERT JUMPDEST PUSH32 0x4E487B7100000000000000000000000000000000000000000000000000000000 PUSH1 0x0 MSTORE PUSH1 0x11 PUSH1 0x4 MSTORE PUSH1 0x24 PUSH1 0x0 REVERT JUMPDEST PUSH1 0x0 PUSH2 0x2F1 DUP3 PUSH2 0x18E JUMP JUMPDEST SWAP2 POP PUSH2 0x2FC DUP4 PUSH2 0x18E JUMP JUMPDEST SWAP3 POP DUP3 DUP3 ADD SWAP1 POP DUP1 DUP3 GT ISZERO PUSH2 0x314 JUMPI PUSH2 0x313 PUSH2 0x2B7 JUMP JUMPDEST JUMPDEST SWAP3 SWAP2 POP POP JUMP JUMPDEST PUSH1 0x0 PUSH2 0x325 DUP3 PUSH2 0x18E JUMP JUMPDEST SWAP2 POP PUSH32 0xFFFFFFFFFFFFFFFFFFFFFFFFFFFFFFFFFFFFFFFFFFFFFFFFFFFFFFFFFFFFFFFF DUP3 SUB PUSH2 0x357 JUMPI PUSH2 0x356 PUSH2 0x2B7 JUMP JUMPDEST JUMPDEST PUSH1 0x1 DUP3 ADD SWAP1 POP SWAP2 SWAP1 POP JUMP INVALID LOG2 PUSH5 0x6970667358 0x22 SLT KECCAK256 LOG4 0xE6 DUP11 0xE5 0xEA 0xD2 0xBF 0xC2 PUSH30 0xE2CF6A6F4B0F2231EEA570BE945EB5B5B092565FD7B20264736F6C634300 ADDMOD SLT STOP CALLER "
				},
				"gasEstimates": {
					"creation": {
						"codeDepositCost": "184000",
						"executionCost": "226",
						"totalCost": "184226"
					},
					"external": {
						"addAllNumbers()": "infinite",
						"getNumbers()": "infinite",
						"setNumbers()": "infinite"
					}
				},
				"methodIdentifiers": {
					"addAllNumbers()": "0f1adef8",
					"getNumbers()": "89f915f6",
					"setNumbers()": "10c66e17"
				}
			},
			"storageLayout": {
				"storage": [
					{
						"astId": 235,
						"contract": "contracts/1_10.sol:Quiz7",
						"label": "numbers",
						"offset": 0,
						"slot": "0",
						"type": "t_array(t_uint256)6_storage"
					}
				],
				"types": {
					"t_array(t_uint256)6_storage": {
						"base": "t_uint256",
						"encoding": "inplace",
						"label": "uint256[6]",
						"numberOfBytes": "192"
					},
					"t_uint256": {
						"encoding": "inplace",
						"label": "uint256",
						"numberOfBytes": "32"
					}
				}
			},
			"userdoc": {
				"kind": "user",
				"methods": {},
				"version": 1
			}
		}
	}
}