{
	"contracts/1_10.sol": {
		"Quiz5": {
			"abi": [
				{
					"inputs": [
						{
							"internalType": "uint256",
							"name": "number",
							"type": "uint256"
						}
					],
					"name": "getResultByNum",
					"outputs": [
						{
							"internalType": "uint256",
							"name": "",
							"type": "uint256"
						}
					],
					"stateMutability": "pure",
					"type": "function"
				}
			],
			"devdoc": {
				"kind": "dev",
				"methods": {},
				"version": 1
			},
			"evm": {
				"assembly": "    /* \"contracts/1_10.sol\":1632:2318  contract Quiz5 {... */\n  mstore(0x40, 0x80)\n  callvalue\n  dup1\n  iszero\n  tag_1\n  jumpi\n  0x00\n  dup1\n  revert\ntag_1:\n  pop\n  dataSize(sub_0)\n  dup1\n  dataOffset(sub_0)\n  0x00\n  codecopy\n  0x00\n  return\nstop\n\nsub_0: assembly {\n        /* \"contracts/1_10.sol\":1632:2318  contract Quiz5 {... */\n      mstore(0x40, 0x80)\n      callvalue\n      dup1\n      iszero\n      tag_1\n      jumpi\n      0x00\n      dup1\n      revert\n    tag_1:\n      pop\n      jumpi(tag_2, lt(calldatasize, 0x04))\n      shr(0xe0, calldataload(0x00))\n      dup1\n      0x46f89704\n      eq\n      tag_3\n      jumpi\n    tag_2:\n      0x00\n      dup1\n      revert\n        /* \"contracts/1_10.sol\":1942:2315  function getResultByNum(uint number) public pure returns(uint) {... */\n    tag_3:\n      tag_4\n      0x04\n      dup1\n      calldatasize\n      sub\n      dup2\n      add\n      swap1\n      tag_5\n      swap2\n      swap1\n      tag_6\n      jump\t// in\n    tag_5:\n      tag_7\n      jump\t// in\n    tag_4:\n      mload(0x40)\n      tag_8\n      swap2\n      swap1\n      tag_9\n      jump\t// in\n    tag_8:\n      mload(0x40)\n      dup1\n      swap2\n      sub\n      swap1\n      return\n    tag_7:\n        /* \"contracts/1_10.sol\":1999:2003  uint */\n      0x00\n        /* \"contracts/1_10.sol\":2028:2029  1 */\n      0x01\n        /* \"contracts/1_10.sol\":2019:2025  number */\n      dup3\n        /* \"contracts/1_10.sol\":2019:2029  number >=1 */\n      lt\n      iszero\n        /* \"contracts/1_10.sol\":2019:2044  number >=1 && number <= 3 */\n      dup1\n      iszero\n      tag_11\n      jumpi\n      pop\n        /* \"contracts/1_10.sol\":2043:2044  3 */\n      0x03\n        /* \"contracts/1_10.sol\":2033:2039  number */\n      dup3\n        /* \"contracts/1_10.sol\":2033:2044  number <= 3 */\n      gt\n      iszero\n        /* \"contracts/1_10.sol\":2019:2044  number >=1 && number <= 3 */\n    tag_11:\n        /* \"contracts/1_10.sol\":2016:2308  if(number >=1 && number <= 3) {... */\n      iszero\n      tag_12\n      jumpi\n        /* \"contracts/1_10.sol\":2076:2077  2 */\n      0x02\n        /* \"contracts/1_10.sol\":2068:2074  number */\n      dup3\n        /* \"contracts/1_10.sol\":2068:2077  number**2 */\n      tag_13\n      swap2\n      swap1\n      tag_14\n      jump\t// in\n    tag_13:\n        /* \"contracts/1_10.sol\":2061:2077  return number**2 */\n      swap1\n      pop\n      jump(tag_10)\n        /* \"contracts/1_10.sol\":2016:2308  if(number >=1 && number <= 3) {... */\n    tag_12:\n        /* \"contracts/1_10.sol\":2108:2109  4 */\n      0x04\n        /* \"contracts/1_10.sol\":2098:2104  number */\n      dup3\n        /* \"contracts/1_10.sol\":2098:2109  number >= 4 */\n      lt\n      iszero\n        /* \"contracts/1_10.sol\":2098:2124  number >= 4 && number <= 6 */\n      dup1\n      iszero\n      tag_16\n      jumpi\n      pop\n        /* \"contracts/1_10.sol\":2123:2124  6 */\n      0x06\n        /* \"contracts/1_10.sol\":2113:2119  number */\n      dup3\n        /* \"contracts/1_10.sol\":2113:2124  number <= 6 */\n      gt\n      iszero\n        /* \"contracts/1_10.sol\":2098:2124  number >= 4 && number <= 6 */\n    tag_16:\n        /* \"contracts/1_10.sol\":2095:2308  if(number >= 4 && number <= 6) {... */\n      iszero\n      tag_17\n      jumpi\n        /* \"contracts/1_10.sol\":2155:2156  2 */\n      0x02\n        /* \"contracts/1_10.sol\":2148:2154  number */\n      dup3\n        /* \"contracts/1_10.sol\":2148:2156  number*2 */\n      tag_18\n      swap2\n      swap1\n      tag_19\n      jump\t// in\n    tag_18:\n        /* \"contracts/1_10.sol\":2141:2156  return number*2 */\n      swap1\n      pop\n      jump(tag_10)\n        /* \"contracts/1_10.sol\":2095:2308  if(number >= 4 && number <= 6) {... */\n    tag_17:\n        /* \"contracts/1_10.sol\":2187:2188  7 */\n      0x07\n        /* \"contracts/1_10.sol\":2177:2183  number */\n      dup3\n        /* \"contracts/1_10.sol\":2177:2188  number >= 7 */\n      lt\n      iszero\n        /* \"contracts/1_10.sol\":2177:2203  number >= 7 && number <= 9 */\n      dup1\n      iszero\n      tag_21\n      jumpi\n      pop\n        /* \"contracts/1_10.sol\":2202:2203  9 */\n      0x09\n        /* \"contracts/1_10.sol\":2192:2198  number */\n      dup3\n        /* \"contracts/1_10.sol\":2192:2203  number <= 9 */\n      gt\n      iszero\n        /* \"contracts/1_10.sol\":2177:2203  number >= 7 && number <= 9 */\n    tag_21:\n        /* \"contracts/1_10.sol\":2174:2308  if(number >= 7 && number <= 9) {... */\n      iszero\n      tag_22\n      jumpi\n        /* \"contracts/1_10.sol\":2234:2235  3 */\n      0x03\n        /* \"contracts/1_10.sol\":2227:2233  number */\n      dup3\n        /* \"contracts/1_10.sol\":2227:2235  number%3 */\n      tag_23\n      swap2\n      swap1\n      tag_24\n      jump\t// in\n    tag_23:\n        /* \"contracts/1_10.sol\":2220:2235  return number%3 */\n      swap1\n      pop\n      jump(tag_10)\n        /* \"contracts/1_10.sol\":2174:2308  if(number >= 7 && number <= 9) {... */\n    tag_22:\n        /* \"contracts/1_10.sol\":2268:2296  revert(\"Wrong Input Number\") */\n      mload(0x40)\n      0x08c379a000000000000000000000000000000000000000000000000000000000\n      dup2\n      mstore\n      0x04\n      add\n      tag_26\n      swap1\n      tag_27\n      jump\t// in\n    tag_26:\n      mload(0x40)\n      dup1\n      swap2\n      sub\n      swap1\n      revert\n        /* \"contracts/1_10.sol\":1942:2315  function getResultByNum(uint number) public pure returns(uint) {... */\n    tag_10:\n      swap2\n      swap1\n      pop\n      jump\t// out\n        /* \"#utility.yul\":88:205   */\n    tag_29:\n        /* \"#utility.yul\":197:198   */\n      0x00\n        /* \"#utility.yul\":194:195   */\n      dup1\n        /* \"#utility.yul\":187:199   */\n      revert\n        /* \"#utility.yul\":334:411   */\n    tag_31:\n        /* \"#utility.yul\":371:378   */\n      0x00\n        /* \"#utility.yul\":400:405   */\n      dup2\n        /* \"#utility.yul\":389:405   */\n      swap1\n      pop\n        /* \"#utility.yul\":334:411   */\n      swap2\n      swap1\n      pop\n      jump\t// out\n        /* \"#utility.yul\":417:539   */\n    tag_32:\n        /* \"#utility.yul\":490:514   */\n      tag_50\n        /* \"#utility.yul\":508:513   */\n      dup2\n        /* \"#utility.yul\":490:514   */\n      tag_31\n      jump\t// in\n    tag_50:\n        /* \"#utility.yul\":483:488   */\n      dup2\n        /* \"#utility.yul\":480:515   */\n      eq\n        /* \"#utility.yul\":470:533   */\n      tag_51\n      jumpi\n        /* \"#utility.yul\":529:530   */\n      0x00\n        /* \"#utility.yul\":526:527   */\n      dup1\n        /* \"#utility.yul\":519:531   */\n      revert\n        /* \"#utility.yul\":470:533   */\n    tag_51:\n        /* \"#utility.yul\":417:539   */\n      pop\n      jump\t// out\n        /* \"#utility.yul\":545:684   */\n    tag_33:\n        /* \"#utility.yul\":591:596   */\n      0x00\n        /* \"#utility.yul\":629:635   */\n      dup2\n        /* \"#utility.yul\":616:636   */\n      calldataload\n        /* \"#utility.yul\":607:636   */\n      swap1\n      pop\n        /* \"#utility.yul\":645:678   */\n      tag_53\n        /* \"#utility.yul\":672:677   */\n      dup2\n        /* \"#utility.yul\":645:678   */\n      tag_32\n      jump\t// in\n    tag_53:\n        /* \"#utility.yul\":545:684   */\n      swap3\n      swap2\n      pop\n      pop\n      jump\t// out\n        /* \"#utility.yul\":690:1019   */\n    tag_6:\n        /* \"#utility.yul\":749:755   */\n      0x00\n        /* \"#utility.yul\":798:800   */\n      0x20\n        /* \"#utility.yul\":786:795   */\n      dup3\n        /* \"#utility.yul\":777:784   */\n      dup5\n        /* \"#utility.yul\":773:796   */\n      sub\n        /* \"#utility.yul\":769:801   */\n      slt\n        /* \"#utility.yul\":766:885   */\n      iszero\n      tag_55\n      jumpi\n        /* \"#utility.yul\":804:883   */\n      tag_56\n      tag_29\n      jump\t// in\n    tag_56:\n        /* \"#utility.yul\":766:885   */\n    tag_55:\n        /* \"#utility.yul\":924:925   */\n      0x00\n        /* \"#utility.yul\":949:1002   */\n      tag_57\n        /* \"#utility.yul\":994:1001   */\n      dup5\n        /* \"#utility.yul\":985:991   */\n      dup3\n        /* \"#utility.yul\":974:983   */\n      dup6\n        /* \"#utility.yul\":970:992   */\n      add\n        /* \"#utility.yul\":949:1002   */\n      tag_33\n      jump\t// in\n    tag_57:\n        /* \"#utility.yul\":939:1002   */\n      swap2\n      pop\n        /* \"#utility.yul\":895:1012   */\n      pop\n        /* \"#utility.yul\":690:1019   */\n      swap3\n      swap2\n      pop\n      pop\n      jump\t// out\n        /* \"#utility.yul\":1025:1143   */\n    tag_34:\n        /* \"#utility.yul\":1112:1136   */\n      tag_59\n        /* \"#utility.yul\":1130:1135   */\n      dup2\n        /* \"#utility.yul\":1112:1136   */\n      tag_31\n      jump\t// in\n    tag_59:\n        /* \"#utility.yul\":1107:1110   */\n      dup3\n        /* \"#utility.yul\":1100:1137   */\n      mstore\n        /* \"#utility.yul\":1025:1143   */\n      pop\n      pop\n      jump\t// out\n        /* \"#utility.yul\":1149:1371   */\n    tag_9:\n        /* \"#utility.yul\":1242:1246   */\n      0x00\n        /* \"#utility.yul\":1280:1282   */\n      0x20\n        /* \"#utility.yul\":1269:1278   */\n      dup3\n        /* \"#utility.yul\":1265:1283   */\n      add\n        /* \"#utility.yul\":1257:1283   */\n      swap1\n      pop\n        /* \"#utility.yul\":1293:1364   */\n      tag_61\n        /* \"#utility.yul\":1361:1362   */\n      0x00\n        /* \"#utility.yul\":1350:1359   */\n      dup4\n        /* \"#utility.yul\":1346:1363   */\n      add\n        /* \"#utility.yul\":1337:1343   */\n      dup5\n        /* \"#utility.yul\":1293:1364   */\n      tag_34\n      jump\t// in\n    tag_61:\n        /* \"#utility.yul\":1149:1371   */\n      swap3\n      swap2\n      pop\n      pop\n      jump\t// out\n        /* \"#utility.yul\":1377:1557   */\n    tag_35:\n        /* \"#utility.yul\":1425:1502   */\n      0x4e487b7100000000000000000000000000000000000000000000000000000000\n        /* \"#utility.yul\":1422:1423   */\n      0x00\n        /* \"#utility.yul\":1415:1503   */\n      mstore\n        /* \"#utility.yul\":1522:1526   */\n      0x11\n        /* \"#utility.yul\":1519:1520   */\n      0x04\n        /* \"#utility.yul\":1512:1527   */\n      mstore\n        /* \"#utility.yul\":1546:1550   */\n      0x24\n        /* \"#utility.yul\":1543:1544   */\n      0x00\n        /* \"#utility.yul\":1536:1551   */\n      revert\n        /* \"#utility.yul\":1563:1665   */\n    tag_36:\n        /* \"#utility.yul\":1605:1613   */\n      0x00\n        /* \"#utility.yul\":1652:1657   */\n      dup2\n        /* \"#utility.yul\":1649:1650   */\n      0x01\n        /* \"#utility.yul\":1645:1658   */\n      shr\n        /* \"#utility.yul\":1624:1658   */\n      swap1\n      pop\n        /* \"#utility.yul\":1563:1665   */\n      swap2\n      swap1\n      pop\n      jump\t// out\n        /* \"#utility.yul\":1671:2519   */\n    tag_37:\n        /* \"#utility.yul\":1732:1737   */\n      0x00\n        /* \"#utility.yul\":1739:1743   */\n      dup1\n        /* \"#utility.yul\":1763:1769   */\n      dup3\n        /* \"#utility.yul\":1754:1769   */\n      swap2\n      pop\n        /* \"#utility.yul\":1787:1792   */\n      dup4\n        /* \"#utility.yul\":1778:1792   */\n      swap1\n      pop\n        /* \"#utility.yul\":1801:2513   */\n    tag_65:\n        /* \"#utility.yul\":1822:1823   */\n      0x01\n        /* \"#utility.yul\":1812:1820   */\n      dup6\n        /* \"#utility.yul\":1809:1824   */\n      gt\n        /* \"#utility.yul\":1801:2513   */\n      iszero\n      tag_67\n      jumpi\n        /* \"#utility.yul\":1917:1921   */\n      dup1\n        /* \"#utility.yul\":1912:1915   */\n      dup7\n        /* \"#utility.yul\":1908:1922   */\n      div\n        /* \"#utility.yul\":1902:1906   */\n      dup2\n        /* \"#utility.yul\":1899:1923   */\n      gt\n        /* \"#utility.yul\":1896:1946   */\n      iszero\n      tag_68\n      jumpi\n        /* \"#utility.yul\":1926:1944   */\n      tag_69\n      tag_35\n      jump\t// in\n    tag_69:\n        /* \"#utility.yul\":1896:1946   */\n    tag_68:\n        /* \"#utility.yul\":1976:1977   */\n      0x01\n        /* \"#utility.yul\":1966:1974   */\n      dup6\n        /* \"#utility.yul\":1962:1978   */\n      and\n        /* \"#utility.yul\":1959:2410   */\n      iszero\n      tag_70\n      jumpi\n        /* \"#utility.yul\":2391:2395   */\n      dup1\n        /* \"#utility.yul\":2384:2389   */\n      dup3\n        /* \"#utility.yul\":2380:2396   */\n      mul\n        /* \"#utility.yul\":2371:2396   */\n      swap2\n      pop\n        /* \"#utility.yul\":1959:2410   */\n    tag_70:\n        /* \"#utility.yul\":2441:2445   */\n      dup1\n        /* \"#utility.yul\":2435:2439   */\n      dup2\n        /* \"#utility.yul\":2431:2446   */\n      mul\n        /* \"#utility.yul\":2423:2446   */\n      swap1\n      pop\n        /* \"#utility.yul\":2471:2503   */\n      tag_71\n        /* \"#utility.yul\":2494:2502   */\n      dup6\n        /* \"#utility.yul\":2471:2503   */\n      tag_36\n      jump\t// in\n    tag_71:\n        /* \"#utility.yul\":2459:2503   */\n      swap5\n      pop\n        /* \"#utility.yul\":1801:2513   */\n      jump(tag_65)\n    tag_67:\n        /* \"#utility.yul\":1671:2519   */\n      swap5\n      pop\n      swap5\n      swap3\n      pop\n      pop\n      pop\n      jump\t// out\n        /* \"#utility.yul\":2525:3598   */\n    tag_38:\n        /* \"#utility.yul\":2579:2584   */\n      0x00\n        /* \"#utility.yul\":2770:2778   */\n      dup3\n        /* \"#utility.yul\":2760:2800   */\n      tag_73\n      jumpi\n        /* \"#utility.yul\":2791:2792   */\n      0x01\n        /* \"#utility.yul\":2782:2792   */\n      swap1\n      pop\n        /* \"#utility.yul\":2793:2798   */\n      jump(tag_72)\n        /* \"#utility.yul\":2760:2800   */\n    tag_73:\n        /* \"#utility.yul\":2819:2823   */\n      dup2\n        /* \"#utility.yul\":2809:2845   */\n      tag_74\n      jumpi\n        /* \"#utility.yul\":2836:2837   */\n      0x00\n        /* \"#utility.yul\":2827:2837   */\n      swap1\n      pop\n        /* \"#utility.yul\":2838:2843   */\n      jump(tag_72)\n        /* \"#utility.yul\":2809:2845   */\n    tag_74:\n        /* \"#utility.yul\":2905:2909   */\n      dup2\n        /* \"#utility.yul\":2953:2954   */\n      0x01\n        /* \"#utility.yul\":2948:2975   */\n      dup2\n      eq\n      tag_76\n      jumpi\n        /* \"#utility.yul\":2989:2990   */\n      0x02\n        /* \"#utility.yul\":2984:3175   */\n      dup2\n      eq\n      tag_77\n      jumpi\n        /* \"#utility.yul\":2898:3175   */\n      jump(tag_75)\n        /* \"#utility.yul\":2948:2975   */\n    tag_76:\n        /* \"#utility.yul\":2966:2967   */\n      0x01\n        /* \"#utility.yul\":2957:2967   */\n      swap2\n      pop\n        /* \"#utility.yul\":2968:2973   */\n      pop\n      jump(tag_72)\n        /* \"#utility.yul\":2984:3175   */\n    tag_77:\n        /* \"#utility.yul\":3029:3032   */\n      0xff\n        /* \"#utility.yul\":3019:3027   */\n      dup5\n        /* \"#utility.yul\":3016:3033   */\n      gt\n        /* \"#utility.yul\":3013:3056   */\n      iszero\n      tag_78\n      jumpi\n        /* \"#utility.yul\":3036:3054   */\n      tag_79\n      tag_35\n      jump\t// in\n    tag_79:\n        /* \"#utility.yul\":3013:3056   */\n    tag_78:\n        /* \"#utility.yul\":3085:3093   */\n      dup4\n        /* \"#utility.yul\":3082:3083   */\n      0x02\n        /* \"#utility.yul\":3078:3094   */\n      exp\n        /* \"#utility.yul\":3069:3094   */\n      swap2\n      pop\n        /* \"#utility.yul\":3120:3123   */\n      dup5\n        /* \"#utility.yul\":3113:3118   */\n      dup3\n        /* \"#utility.yul\":3110:3124   */\n      gt\n        /* \"#utility.yul\":3107:3147   */\n      iszero\n      tag_80\n      jumpi\n        /* \"#utility.yul\":3127:3145   */\n      tag_81\n      tag_35\n      jump\t// in\n    tag_81:\n        /* \"#utility.yul\":3107:3147   */\n    tag_80:\n        /* \"#utility.yul\":3160:3165   */\n      pop\n      jump(tag_72)\n        /* \"#utility.yul\":2898:3175   */\n    tag_75:\n      pop\n        /* \"#utility.yul\":3284:3286   */\n      0x20\n        /* \"#utility.yul\":3274:3282   */\n      dup4\n        /* \"#utility.yul\":3271:3287   */\n      lt\n        /* \"#utility.yul\":3265:3268   */\n      0x0133\n        /* \"#utility.yul\":3259:3263   */\n      dup4\n        /* \"#utility.yul\":3256:3269   */\n      lt\n        /* \"#utility.yul\":3252:3288   */\n      and\n        /* \"#utility.yul\":3234:3236   */\n      0x4e\n        /* \"#utility.yul\":3224:3232   */\n      dup5\n        /* \"#utility.yul\":3221:3237   */\n      lt\n        /* \"#utility.yul\":3216:3218   */\n      0x0b\n        /* \"#utility.yul\":3210:3214   */\n      dup5\n        /* \"#utility.yul\":3207:3219   */\n      lt\n        /* \"#utility.yul\":3203:3238   */\n      and\n        /* \"#utility.yul\":3187:3298   */\n      or\n        /* \"#utility.yul\":3184:3430   */\n      iszero\n      tag_82\n      jumpi\n        /* \"#utility.yul\":3340:3348   */\n      dup3\n        /* \"#utility.yul\":3334:3338   */\n      dup3\n        /* \"#utility.yul\":3330:3349   */\n      exp\n        /* \"#utility.yul\":3321:3349   */\n      swap1\n      pop\n        /* \"#utility.yul\":3375:3378   */\n      dup4\n        /* \"#utility.yul\":3368:3373   */\n      dup2\n        /* \"#utility.yul\":3365:3379   */\n      gt\n        /* \"#utility.yul\":3362:3402   */\n      iszero\n      tag_83\n      jumpi\n        /* \"#utility.yul\":3382:3400   */\n      tag_84\n      tag_35\n      jump\t// in\n    tag_84:\n        /* \"#utility.yul\":3362:3402   */\n    tag_83:\n        /* \"#utility.yul\":3415:3420   */\n      jump(tag_72)\n        /* \"#utility.yul\":3184:3430   */\n    tag_82:\n        /* \"#utility.yul\":3455:3497   */\n      tag_85\n        /* \"#utility.yul\":3493:3496   */\n      dup5\n        /* \"#utility.yul\":3483:3491   */\n      dup5\n        /* \"#utility.yul\":3477:3481   */\n      dup5\n        /* \"#utility.yul\":3474:3475   */\n      0x01\n        /* \"#utility.yul\":3455:3497   */\n      tag_37\n      jump\t// in\n    tag_85:\n        /* \"#utility.yul\":3440:3497   */\n      swap3\n      pop\n      swap1\n      pop\n        /* \"#utility.yul\":3529:3533   */\n      dup2\n        /* \"#utility.yul\":3524:3527   */\n      dup5\n        /* \"#utility.yul\":3520:3534   */\n      div\n        /* \"#utility.yul\":3513:3518   */\n      dup2\n        /* \"#utility.yul\":3510:3535   */\n      gt\n        /* \"#utility.yul\":3507:3558   */\n      iszero\n      tag_86\n      jumpi\n        /* \"#utility.yul\":3538:3556   */\n      tag_87\n      tag_35\n      jump\t// in\n    tag_87:\n        /* \"#utility.yul\":3507:3558   */\n    tag_86:\n        /* \"#utility.yul\":3587:3591   */\n      dup2\n        /* \"#utility.yul\":3580:3585   */\n      dup2\n        /* \"#utility.yul\":3576:3592   */\n      mul\n        /* \"#utility.yul\":3567:3592   */\n      swap1\n      pop\n        /* \"#utility.yul\":2525:3598   */\n    tag_72:\n      swap4\n      swap3\n      pop\n      pop\n      pop\n      jump\t// out\n        /* \"#utility.yul\":3604:3690   */\n    tag_39:\n        /* \"#utility.yul\":3639:3646   */\n      0x00\n        /* \"#utility.yul\":3679:3683   */\n      0xff\n        /* \"#utility.yul\":3672:3677   */\n      dup3\n        /* \"#utility.yul\":3668:3684   */\n      and\n        /* \"#utility.yul\":3657:3684   */\n      swap1\n      pop\n        /* \"#utility.yul\":3604:3690   */\n      swap2\n      swap1\n      pop\n      jump\t// out\n        /* \"#utility.yul\":3696:3977   */\n    tag_14:\n        /* \"#utility.yul\":3754:3759   */\n      0x00\n        /* \"#utility.yul\":3778:3801   */\n      tag_90\n        /* \"#utility.yul\":3796:3800   */\n      dup3\n        /* \"#utility.yul\":3778:3801   */\n      tag_31\n      jump\t// in\n    tag_90:\n        /* \"#utility.yul\":3770:3801   */\n      swap2\n      pop\n        /* \"#utility.yul\":3822:3847   */\n      tag_91\n        /* \"#utility.yul\":3838:3846   */\n      dup4\n        /* \"#utility.yul\":3822:3847   */\n      tag_39\n      jump\t// in\n    tag_91:\n        /* \"#utility.yul\":3810:3847   */\n      swap3\n      pop\n        /* \"#utility.yul\":3866:3970   */\n      tag_92\n        /* \"#utility.yul\":3903:3969   */\n      0xffffffffffffffffffffffffffffffffffffffffffffffffffffffffffffffff\n        /* \"#utility.yul\":3893:3901   */\n      dup5\n        /* \"#utility.yul\":3887:3891   */\n      dup5\n        /* \"#utility.yul\":3866:3970   */\n      tag_38\n      jump\t// in\n    tag_92:\n        /* \"#utility.yul\":3857:3970   */\n      swap1\n      pop\n        /* \"#utility.yul\":3696:3977   */\n      swap3\n      swap2\n      pop\n      pop\n      jump\t// out\n        /* \"#utility.yul\":3983:4393   */\n    tag_19:\n        /* \"#utility.yul\":4023:4030   */\n      0x00\n        /* \"#utility.yul\":4046:4066   */\n      tag_94\n        /* \"#utility.yul\":4064:4065   */\n      dup3\n        /* \"#utility.yul\":4046:4066   */\n      tag_31\n      jump\t// in\n    tag_94:\n        /* \"#utility.yul\":4041:4066   */\n      swap2\n      pop\n        /* \"#utility.yul\":4080:4100   */\n      tag_95\n        /* \"#utility.yul\":4098:4099   */\n      dup4\n        /* \"#utility.yul\":4080:4100   */\n      tag_31\n      jump\t// in\n    tag_95:\n        /* \"#utility.yul\":4075:4100   */\n      swap3\n      pop\n        /* \"#utility.yul\":4135:4136   */\n      dup3\n        /* \"#utility.yul\":4132:4133   */\n      dup3\n        /* \"#utility.yul\":4128:4137   */\n      mul\n        /* \"#utility.yul\":4157:4187   */\n      tag_96\n        /* \"#utility.yul\":4175:4186   */\n      dup2\n        /* \"#utility.yul\":4157:4187   */\n      tag_31\n      jump\t// in\n    tag_96:\n        /* \"#utility.yul\":4146:4187   */\n      swap2\n      pop\n        /* \"#utility.yul\":4336:4337   */\n      dup3\n        /* \"#utility.yul\":4327:4334   */\n      dup3\n        /* \"#utility.yul\":4323:4338   */\n      div\n        /* \"#utility.yul\":4320:4321   */\n      dup5\n        /* \"#utility.yul\":4317:4339   */\n      eq\n        /* \"#utility.yul\":4297:4298   */\n      dup4\n        /* \"#utility.yul\":4290:4299   */\n      iszero\n        /* \"#utility.yul\":4270:4353   */\n      or\n        /* \"#utility.yul\":4247:4386   */\n      tag_97\n      jumpi\n        /* \"#utility.yul\":4366:4384   */\n      tag_98\n      tag_35\n      jump\t// in\n    tag_98:\n        /* \"#utility.yul\":4247:4386   */\n    tag_97:\n        /* \"#utility.yul\":4031:4393   */\n      pop\n        /* \"#utility.yul\":3983:4393   */\n      swap3\n      swap2\n      pop\n      pop\n      jump\t// out\n        /* \"#utility.yul\":4399:4579   */\n    tag_40:\n        /* \"#utility.yul\":4447:4524   */\n      0x4e487b7100000000000000000000000000000000000000000000000000000000\n        /* \"#utility.yul\":4444:4445   */\n      0x00\n        /* \"#utility.yul\":4437:4525   */\n      mstore\n        /* \"#utility.yul\":4544:4548   */\n      0x12\n        /* \"#utility.yul\":4541:4542   */\n      0x04\n        /* \"#utility.yul\":4534:4549   */\n      mstore\n        /* \"#utility.yul\":4568:4572   */\n      0x24\n        /* \"#utility.yul\":4565:4566   */\n      0x00\n        /* \"#utility.yul\":4558:4573   */\n      revert\n        /* \"#utility.yul\":4585:4761   */\n    tag_24:\n        /* \"#utility.yul\":4617:4618   */\n      0x00\n        /* \"#utility.yul\":4634:4654   */\n      tag_101\n        /* \"#utility.yul\":4652:4653   */\n      dup3\n        /* \"#utility.yul\":4634:4654   */\n      tag_31\n      jump\t// in\n    tag_101:\n        /* \"#utility.yul\":4629:4654   */\n      swap2\n      pop\n        /* \"#utility.yul\":4668:4688   */\n      tag_102\n        /* \"#utility.yul\":4686:4687   */\n      dup4\n        /* \"#utility.yul\":4668:4688   */\n      tag_31\n      jump\t// in\n    tag_102:\n        /* \"#utility.yul\":4663:4688   */\n      swap3\n      pop\n        /* \"#utility.yul\":4707:4708   */\n      dup3\n        /* \"#utility.yul\":4697:4732   */\n      tag_103\n      jumpi\n        /* \"#utility.yul\":4712:4730   */\n      tag_104\n      tag_40\n      jump\t// in\n    tag_104:\n        /* \"#utility.yul\":4697:4732   */\n    tag_103:\n        /* \"#utility.yul\":4753:4754   */\n      dup3\n        /* \"#utility.yul\":4750:4751   */\n      dup3\n        /* \"#utility.yul\":4746:4755   */\n      mod\n        /* \"#utility.yul\":4741:4755   */\n      swap1\n      pop\n        /* \"#utility.yul\":4585:4761   */\n      swap3\n      swap2\n      pop\n      pop\n      jump\t// out\n        /* \"#utility.yul\":4767:4936   */\n    tag_41:\n        /* \"#utility.yul\":4851:4862   */\n      0x00\n        /* \"#utility.yul\":4885:4891   */\n      dup3\n        /* \"#utility.yul\":4880:4883   */\n      dup3\n        /* \"#utility.yul\":4873:4892   */\n      mstore\n        /* \"#utility.yul\":4925:4929   */\n      0x20\n        /* \"#utility.yul\":4920:4923   */\n      dup3\n        /* \"#utility.yul\":4916:4930   */\n      add\n        /* \"#utility.yul\":4901:4930   */\n      swap1\n      pop\n        /* \"#utility.yul\":4767:4936   */\n      swap3\n      swap2\n      pop\n      pop\n      jump\t// out\n        /* \"#utility.yul\":4942:5110   */\n    tag_42:\n        /* \"#utility.yul\":5082:5102   */\n      0x57726f6e6720496e707574204e756d6265720000000000000000000000000000\n        /* \"#utility.yul\":5078:5079   */\n      0x00\n        /* \"#utility.yul\":5070:5076   */\n      dup3\n        /* \"#utility.yul\":5066:5080   */\n      add\n        /* \"#utility.yul\":5059:5103   */\n      mstore\n        /* \"#utility.yul\":4942:5110   */\n      pop\n      jump\t// out\n        /* \"#utility.yul\":5116:5482   */\n    tag_43:\n        /* \"#utility.yul\":5258:5261   */\n      0x00\n        /* \"#utility.yul\":5279:5346   */\n      tag_108\n        /* \"#utility.yul\":5343:5345   */\n      0x12\n        /* \"#utility.yul\":5338:5341   */\n      dup4\n        /* \"#utility.yul\":5279:5346   */\n      tag_41\n      jump\t// in\n    tag_108:\n        /* \"#utility.yul\":5272:5346   */\n      swap2\n      pop\n        /* \"#utility.yul\":5355:5448   */\n      tag_109\n        /* \"#utility.yul\":5444:5447   */\n      dup3\n        /* \"#utility.yul\":5355:5448   */\n      tag_42\n      jump\t// in\n    tag_109:\n        /* \"#utility.yul\":5473:5475   */\n      0x20\n        /* \"#utility.yul\":5468:5471   */\n      dup3\n        /* \"#utility.yul\":5464:5476   */\n      add\n        /* \"#utility.yul\":5457:5476   */\n      swap1\n      pop\n        /* \"#utility.yul\":5116:5482   */\n      swap2\n      swap1\n      pop\n      jump\t// out\n        /* \"#utility.yul\":5488:5907   */\n    tag_27:\n        /* \"#utility.yul\":5654:5658   */\n      0x00\n        /* \"#utility.yul\":5692:5694   */\n      0x20\n        /* \"#utility.yul\":5681:5690   */\n      dup3\n        /* \"#utility.yul\":5677:5695   */\n      add\n        /* \"#utility.yul\":5669:5695   */\n      swap1\n      pop\n        /* \"#utility.yul\":5741:5750   */\n      dup2\n        /* \"#utility.yul\":5735:5739   */\n      dup2\n        /* \"#utility.yul\":5731:5751   */\n      sub\n        /* \"#utility.yul\":5727:5728   */\n      0x00\n        /* \"#utility.yul\":5716:5725   */\n      dup4\n        /* \"#utility.yul\":5712:5729   */\n      add\n        /* \"#utility.yul\":5705:5752   */\n      mstore\n        /* \"#utility.yul\":5769:5900   */\n      tag_111\n        /* \"#utility.yul\":5895:5899   */\n      dup2\n        /* \"#utility.yul\":5769:5900   */\n      tag_43\n      jump\t// in\n    tag_111:\n        /* \"#utility.yul\":5761:5900   */\n      swap1\n      pop\n        /* \"#utility.yul\":5488:5907   */\n      swap2\n      swap1\n      pop\n      jump\t// out\n\n    auxdata: 0xa2646970667358221220876cab392f75023a81ee3bb12bf5ded1ef7d804d6fffaf047819a00daf0ddf8a64736f6c63430008120033\n}\n",
				"bytecode": {
					"linkReferences": {},
					"object": "608060405234801561001057600080fd5b506104c4806100206000396000f3fe608060405234801561001057600080fd5b506004361061002b5760003560e01c806346f8970414610030575b600080fd5b61004a6004803603810190610045919061015e565b610060565b604051610057919061019a565b60405180910390f35b600060018210158015610074575060038211155b1561008d576002826100869190610324565b905061011e565b6004821015801561009f575060068211155b156100b8576002826100b1919061036f565b905061011e565b600782101580156100ca575060098211155b156100e3576003826100dc91906103e0565b905061011e565b6040517f08c379a00000000000000000000000000000000000000000000000000000000081526004016101159061046e565b60405180910390fd5b919050565b600080fd5b6000819050919050565b61013b81610128565b811461014657600080fd5b50565b60008135905061015881610132565b92915050565b60006020828403121561017457610173610123565b5b600061018284828501610149565b91505092915050565b61019481610128565b82525050565b60006020820190506101af600083018461018b565b92915050565b7f4e487b7100000000000000000000000000000000000000000000000000000000600052601160045260246000fd5b60008160011c9050919050565b6000808291508390505b600185111561023b57808604811115610217576102166101b5565b5b60018516156102265780820291505b8081029050610234856101e4565b94506101fb565b94509492505050565b6000826102545760019050610310565b816102625760009050610310565b81600181146102785760028114610282576102b1565b6001915050610310565b60ff841115610294576102936101b5565b5b8360020a9150848211156102ab576102aa6101b5565b5b50610310565b5060208310610133831016604e8410600b84101617156102e65782820a9050838111156102e1576102e06101b5565b5b610310565b6102f384848460016101f1565b9250905081840481111561030a576103096101b5565b5b81810290505b9392505050565b600060ff82169050919050565b600061032f82610128565b915061033a83610317565b92506103677fffffffffffffffffffffffffffffffffffffffffffffffffffffffffffffffff8484610244565b905092915050565b600061037a82610128565b915061038583610128565b925082820261039381610128565b915082820484148315176103aa576103a96101b5565b5b5092915050565b7f4e487b7100000000000000000000000000000000000000000000000000000000600052601260045260246000fd5b60006103eb82610128565b91506103f683610128565b925082610406576104056103b1565b5b828206905092915050565b600082825260208201905092915050565b7f57726f6e6720496e707574204e756d6265720000000000000000000000000000600082015250565b6000610458601283610411565b915061046382610422565b602082019050919050565b600060208201905081810360008301526104878161044b565b905091905056fea2646970667358221220876cab392f75023a81ee3bb12bf5ded1ef7d804d6fffaf047819a00daf0ddf8a64736f6c63430008120033",
					"opcodes": "PUSH1 0x80 PUSH1 0x40 MSTORE CALLVALUE DUP1 ISZERO PUSH2 0x10 JUMPI PUSH1 0x0 DUP1 REVERT JUMPDEST POP PUSH2 0x4C4 DUP1 PUSH2 0x20 PUSH1 0x0 CODECOPY PUSH1 0x0 RETURN INVALID PUSH1 0x80 PUSH1 0x40 MSTORE CALLVALUE DUP1 ISZERO PUSH2 0x10 JUMPI PUSH1 0x0 DUP1 REVERT JUMPDEST POP PUSH1 0x4 CALLDATASIZE LT PUSH2 0x2B JUMPI PUSH1 0x0 CALLDATALOAD PUSH1 0xE0 SHR DUP1 PUSH4 0x46F89704 EQ PUSH2 0x30 JUMPI JUMPDEST PUSH1 0x0 DUP1 REVERT JUMPDEST PUSH2 0x4A PUSH1 0x4 DUP1 CALLDATASIZE SUB DUP2 ADD SWAP1 PUSH2 0x45 SWAP2 SWAP1 PUSH2 0x15E JUMP JUMPDEST PUSH2 0x60 JUMP JUMPDEST PUSH1 0x40 MLOAD PUSH2 0x57 SWAP2 SWAP1 PUSH2 0x19A JUMP JUMPDEST PUSH1 0x40 MLOAD DUP1 SWAP2 SUB SWAP1 RETURN JUMPDEST PUSH1 0x0 PUSH1 0x1 DUP3 LT ISZERO DUP1 ISZERO PUSH2 0x74 JUMPI POP PUSH1 0x3 DUP3 GT ISZERO JUMPDEST ISZERO PUSH2 0x8D JUMPI PUSH1 0x2 DUP3 PUSH2 0x86 SWAP2 SWAP1 PUSH2 0x324 JUMP JUMPDEST SWAP1 POP PUSH2 0x11E JUMP JUMPDEST PUSH1 0x4 DUP3 LT ISZERO DUP1 ISZERO PUSH2 0x9F JUMPI POP PUSH1 0x6 DUP3 GT ISZERO JUMPDEST ISZERO PUSH2 0xB8 JUMPI PUSH1 0x2 DUP3 PUSH2 0xB1 SWAP2 SWAP1 PUSH2 0x36F JUMP JUMPDEST SWAP1 POP PUSH2 0x11E JUMP JUMPDEST PUSH1 0x7 DUP3 LT ISZERO DUP1 ISZERO PUSH2 0xCA JUMPI POP PUSH1 0x9 DUP3 GT ISZERO JUMPDEST ISZERO PUSH2 0xE3 JUMPI PUSH1 0x3 DUP3 PUSH2 0xDC SWAP2 SWAP1 PUSH2 0x3E0 JUMP JUMPDEST SWAP1 POP PUSH2 0x11E JUMP JUMPDEST PUSH1 0x40 MLOAD PUSH32 0x8C379A000000000000000000000000000000000000000000000000000000000 DUP2 MSTORE PUSH1 0x4 ADD PUSH2 0x115 SWAP1 PUSH2 0x46E JUMP JUMPDEST PUSH1 0x40 MLOAD DUP1 SWAP2 SUB SWAP1 REVERT JUMPDEST SWAP2 SWAP1 POP JUMP JUMPDEST PUSH1 0x0 DUP1 REVERT JUMPDEST PUSH1 0x0 DUP2 SWAP1 POP SWAP2 SWAP1 POP JUMP JUMPDEST PUSH2 0x13B DUP2 PUSH2 0x128 JUMP JUMPDEST DUP2 EQ PUSH2 0x146 JUMPI PUSH1 0x0 DUP1 REVERT JUMPDEST POP JUMP JUMPDEST PUSH1 0x0 DUP2 CALLDATALOAD SWAP1 POP PUSH2 0x158 DUP2 PUSH2 0x132 JUMP JUMPDEST SWAP3 SWAP2 POP POP JUMP JUMPDEST PUSH1 0x0 PUSH1 0x20 DUP3 DUP5 SUB SLT ISZERO PUSH2 0x174 JUMPI PUSH2 0x173 PUSH2 0x123 JUMP JUMPDEST JUMPDEST PUSH1 0x0 PUSH2 0x182 DUP5 DUP3 DUP6 ADD PUSH2 0x149 JUMP JUMPDEST SWAP2 POP POP SWAP3 SWAP2 POP POP JUMP JUMPDEST PUSH2 0x194 DUP2 PUSH2 0x128 JUMP JUMPDEST DUP3 MSTORE POP POP JUMP JUMPDEST PUSH1 0x0 PUSH1 0x20 DUP3 ADD SWAP1 POP PUSH2 0x1AF PUSH1 0x0 DUP4 ADD DUP5 PUSH2 0x18B JUMP JUMPDEST SWAP3 SWAP2 POP POP JUMP JUMPDEST PUSH32 0x4E487B7100000000000000000000000000000000000000000000000000000000 PUSH1 0x0 MSTORE PUSH1 0x11 PUSH1 0x4 MSTORE PUSH1 0x24 PUSH1 0x0 REVERT JUMPDEST PUSH1 0x0 DUP2 PUSH1 0x1 SHR SWAP1 POP SWAP2 SWAP1 POP JUMP JUMPDEST PUSH1 0x0 DUP1 DUP3 SWAP2 POP DUP4 SWAP1 POP JUMPDEST PUSH1 0x1 DUP6 GT ISZERO PUSH2 0x23B JUMPI DUP1 DUP7 DIV DUP2 GT ISZERO PUSH2 0x217 JUMPI PUSH2 0x216 PUSH2 0x1B5 JUMP JUMPDEST JUMPDEST PUSH1 0x1 DUP6 AND ISZERO PUSH2 0x226 JUMPI DUP1 DUP3 MUL SWAP2 POP JUMPDEST DUP1 DUP2 MUL SWAP1 POP PUSH2 0x234 DUP6 PUSH2 0x1E4 JUMP JUMPDEST SWAP5 POP PUSH2 0x1FB JUMP JUMPDEST SWAP5 POP SWAP5 SWAP3 POP POP POP JUMP JUMPDEST PUSH1 0x0 DUP3 PUSH2 0x254 JUMPI PUSH1 0x1 SWAP1 POP PUSH2 0x310 JUMP JUMPDEST DUP2 PUSH2 0x262 JUMPI PUSH1 0x0 SWAP1 POP PUSH2 0x310 JUMP JUMPDEST DUP2 PUSH1 0x1 DUP2 EQ PUSH2 0x278 JUMPI PUSH1 0x2 DUP2 EQ PUSH2 0x282 JUMPI PUSH2 0x2B1 JUMP JUMPDEST PUSH1 0x1 SWAP2 POP POP PUSH2 0x310 JUMP JUMPDEST PUSH1 0xFF DUP5 GT ISZERO PUSH2 0x294 JUMPI PUSH2 0x293 PUSH2 0x1B5 JUMP JUMPDEST JUMPDEST DUP4 PUSH1 0x2 EXP SWAP2 POP DUP5 DUP3 GT ISZERO PUSH2 0x2AB JUMPI PUSH2 0x2AA PUSH2 0x1B5 JUMP JUMPDEST JUMPDEST POP PUSH2 0x310 JUMP JUMPDEST POP PUSH1 0x20 DUP4 LT PUSH2 0x133 DUP4 LT AND PUSH1 0x4E DUP5 LT PUSH1 0xB DUP5 LT AND OR ISZERO PUSH2 0x2E6 JUMPI DUP3 DUP3 EXP SWAP1 POP DUP4 DUP2 GT ISZERO PUSH2 0x2E1 JUMPI PUSH2 0x2E0 PUSH2 0x1B5 JUMP JUMPDEST JUMPDEST PUSH2 0x310 JUMP JUMPDEST PUSH2 0x2F3 DUP5 DUP5 DUP5 PUSH1 0x1 PUSH2 0x1F1 JUMP JUMPDEST SWAP3 POP SWAP1 POP DUP2 DUP5 DIV DUP2 GT ISZERO PUSH2 0x30A JUMPI PUSH2 0x309 PUSH2 0x1B5 JUMP JUMPDEST JUMPDEST DUP2 DUP2 MUL SWAP1 POP JUMPDEST SWAP4 SWAP3 POP POP POP JUMP JUMPDEST PUSH1 0x0 PUSH1 0xFF DUP3 AND SWAP1 POP SWAP2 SWAP1 POP JUMP JUMPDEST PUSH1 0x0 PUSH2 0x32F DUP3 PUSH2 0x128 JUMP JUMPDEST SWAP2 POP PUSH2 0x33A DUP4 PUSH2 0x317 JUMP JUMPDEST SWAP3 POP PUSH2 0x367 PUSH32 0xFFFFFFFFFFFFFFFFFFFFFFFFFFFFFFFFFFFFFFFFFFFFFFFFFFFFFFFFFFFFFFFF DUP5 DUP5 PUSH2 0x244 JUMP JUMPDEST SWAP1 POP SWAP3 SWAP2 POP POP JUMP JUMPDEST PUSH1 0x0 PUSH2 0x37A DUP3 PUSH2 0x128 JUMP JUMPDEST SWAP2 POP PUSH2 0x385 DUP4 PUSH2 0x128 JUMP JUMPDEST SWAP3 POP DUP3 DUP3 MUL PUSH2 0x393 DUP2 PUSH2 0x128 JUMP JUMPDEST SWAP2 POP DUP3 DUP3 DIV DUP5 EQ DUP4 ISZERO OR PUSH2 0x3AA JUMPI PUSH2 0x3A9 PUSH2 0x1B5 JUMP JUMPDEST JUMPDEST POP SWAP3 SWAP2 POP POP JUMP JUMPDEST PUSH32 0x4E487B7100000000000000000000000000000000000000000000000000000000 PUSH1 0x0 MSTORE PUSH1 0x12 PUSH1 0x4 MSTORE PUSH1 0x24 PUSH1 0x0 REVERT JUMPDEST PUSH1 0x0 PUSH2 0x3EB DUP3 PUSH2 0x128 JUMP JUMPDEST SWAP2 POP PUSH2 0x3F6 DUP4 PUSH2 0x128 JUMP JUMPDEST SWAP3 POP DUP3 PUSH2 0x406 JUMPI PUSH2 0x405 PUSH2 0x3B1 JUMP JUMPDEST JUMPDEST DUP3 DUP3 MOD SWAP1 POP SWAP3 SWAP2 POP POP JUMP JUMPDEST PUSH1 0x0 DUP3 DUP3 MSTORE PUSH1 0x20 DUP3 ADD SWAP1 POP SWAP3 SWAP2 POP POP JUMP JUMPDEST PUSH32 0x57726F6E6720496E707574204E756D6265720000000000000000000000000000 PUSH1 0x0 DUP3 ADD MSTORE POP JUMP JUMPDEST PUSH1 0x0 PUSH2 0x458 PUSH1 0x12 DUP4 PUSH2 0x411 JUMP JUMPDEST SWAP2 POP PUSH2 0x463 DUP3 PUSH2 0x422 JUMP JUMPDEST PUSH1 0x20 DUP3 ADD SWAP1 POP SWAP2 SWAP1 POP JUMP JUMPDEST PUSH1 0x0 PUSH1 0x20 DUP3 ADD SWAP1 POP DUP2 DUP2 SUB PUSH1 0x0 DUP4 ADD MSTORE PUSH2 0x487 DUP2 PUSH2 0x44B JUMP JUMPDEST SWAP1 POP SWAP2 SWAP1 POP JUMP INVALID LOG2 PUSH5 0x6970667358 0x22 SLT KECCAK256 DUP8 PUSH13 0xAB392F75023A81EE3BB12BF5DE 0xD1 0xEF PUSH30 0x804D6FFFAF047819A00DAF0DDF8A64736F6C634300081200330000000000 "
				},
				"gasEstimates": {
					"creation": {
						"codeDepositCost": "244000",
						"executionCost": "287",
						"totalCost": "244287"
					},
					"external": {
						"getResultByNum(uint256)": "infinite"
					}
				},
				"methodIdentifiers": {
					"getResultByNum(uint256)": "46f89704"
				}
			},
			"storageLayout": {
				"storage": [],
				"types": null
			},
			"userdoc": {
				"kind": "user",
				"methods": {},
				"version": 1
			}
		}
	}
}