{
	"contracts/1_10.sol": {
		"Quiz6": {
			"abi": [
				{
					"inputs": [],
					"name": "getNumbers",
					"outputs": [
						{
							"internalType": "uint256[10]",
							"name": "",
							"type": "uint256[10]"
						}
					],
					"stateMutability": "view",
					"type": "function"
				},
				{
					"inputs": [],
					"name": "setNumbers",
					"outputs": [],
					"stateMutability": "nonpayable",
					"type": "function"
				}
			],
			"devdoc": {
				"kind": "dev",
				"methods": {},
				"version": 1
			},
			"evm": {
				"assembly": "    /* \"contracts/1_10.sol\":2322:2764  contract Quiz6 {... */\n  mstore(0x40, 0x80)\n  callvalue\n  dup1\n  iszero\n  tag_1\n  jumpi\n  0x00\n  dup1\n  revert\ntag_1:\n  pop\n  dataSize(sub_0)\n  dup1\n  dataOffset(sub_0)\n  0x00\n  codecopy\n  0x00\n  return\nstop\n\nsub_0: assembly {\n        /* \"contracts/1_10.sol\":2322:2764  contract Quiz6 {... */\n      mstore(0x40, 0x80)\n      callvalue\n      dup1\n      iszero\n      tag_1\n      jumpi\n      0x00\n      dup1\n      revert\n    tag_1:\n      pop\n      jumpi(tag_2, lt(calldatasize, 0x04))\n      shr(0xe0, calldataload(0x00))\n      dup1\n      0x10c66e17\n      eq\n      tag_3\n      jumpi\n      dup1\n      0x89f915f6\n      eq\n      tag_4\n      jumpi\n    tag_2:\n      0x00\n      dup1\n      revert\n        /* \"contracts/1_10.sol\":2526:2660  function setNumbers() public {... */\n    tag_3:\n      tag_5\n      tag_6\n      jump\t// in\n    tag_5:\n      stop\n        /* \"contracts/1_10.sol\":2668:2761  function getNumbers() public view returns (uint[10] memory) {... */\n    tag_4:\n      tag_7\n      tag_8\n      jump\t// in\n    tag_7:\n      mload(0x40)\n      tag_9\n      swap2\n      swap1\n      tag_10\n      jump\t// in\n    tag_9:\n      mload(0x40)\n      dup1\n      swap2\n      sub\n      swap1\n      return\n        /* \"contracts/1_10.sol\":2526:2660  function setNumbers() public {... */\n    tag_6:\n        /* \"contracts/1_10.sol\":2570:2576  uint i */\n      0x00\n        /* \"contracts/1_10.sol\":2566:2653  for(uint i = 0; i < numbers.length; i ++) {... */\n    tag_12:\n        /* \"contracts/1_10.sol\":2586:2600  numbers.length */\n      0x0a\n        /* \"contracts/1_10.sol\":2582:2583  i */\n      dup2\n        /* \"contracts/1_10.sol\":2582:2600  i < numbers.length */\n      lt\n        /* \"contracts/1_10.sol\":2566:2653  for(uint i = 0; i < numbers.length; i ++) {... */\n      iszero\n      tag_13\n      jumpi\n        /* \"contracts/1_10.sol\":2640:2641  1 */\n      0x01\n        /* \"contracts/1_10.sol\":2636:2637  i */\n      dup2\n        /* \"contracts/1_10.sol\":2636:2641  i + 1 */\n      tag_15\n      swap2\n      swap1\n      tag_16\n      jump\t// in\n    tag_15:\n        /* \"contracts/1_10.sol\":2623:2630  numbers */\n      0x00\n        /* \"contracts/1_10.sol\":2631:2632  i */\n      dup3\n        /* \"contracts/1_10.sol\":2623:2633  numbers[i] */\n      0x0a\n      dup2\n      lt\n      tag_17\n      jumpi\n      tag_18\n      tag_19\n      jump\t// in\n    tag_18:\n    tag_17:\n      add\n        /* \"contracts/1_10.sol\":2623:2641  numbers[i] = i + 1 */\n      dup2\n      swap1\n      sstore\n      pop\n        /* \"contracts/1_10.sol\":2602:2606  i ++ */\n      dup1\n      dup1\n      tag_21\n      swap1\n      tag_22\n      jump\t// in\n    tag_21:\n      swap2\n      pop\n      pop\n        /* \"contracts/1_10.sol\":2566:2653  for(uint i = 0; i < numbers.length; i ++) {... */\n      jump(tag_12)\n    tag_13:\n      pop\n        /* \"contracts/1_10.sol\":2526:2660  function setNumbers() public {... */\n      jump\t// out\n        /* \"contracts/1_10.sol\":2668:2761  function getNumbers() public view returns (uint[10] memory) {... */\n    tag_8:\n        /* \"contracts/1_10.sol\":2711:2726  uint[10] memory */\n      tag_23\n      tag_24\n      jump\t// in\n    tag_23:\n        /* \"contracts/1_10.sol\":2746:2753  numbers */\n      0x00\n        /* \"contracts/1_10.sol\":2739:2753  return numbers */\n      0x0a\n      dup1\n      0x20\n      mul\n      mload(0x40)\n      swap1\n      dup2\n      add\n      0x40\n      mstore\n      dup1\n      swap3\n      swap2\n      swap1\n      dup3\n      0x0a\n      dup1\n      iszero\n      tag_26\n      jumpi\n      0x20\n      mul\n      dup3\n      add\n      swap2\n    tag_27:\n      dup2\n      sload\n      dup2\n      mstore\n      0x20\n      add\n      swap1\n      0x01\n      add\n      swap1\n      dup1\n      dup4\n      gt\n      tag_27\n      jumpi\n    tag_26:\n      pop\n      pop\n      pop\n      pop\n      pop\n      swap1\n      pop\n        /* \"contracts/1_10.sol\":2668:2761  function getNumbers() public view returns (uint[10] memory) {... */\n      swap1\n      jump\t// out\n    tag_24:\n      mload(0x40)\n      dup1\n      0x0140\n      add\n      0x40\n      mstore\n      dup1\n      0x0a\n      swap1\n      0x20\n      dup3\n      mul\n      dup1\n      calldatasize\n      dup4\n      calldatacopy\n      dup1\n      dup3\n      add\n      swap2\n      pop\n      pop\n      swap1\n      pop\n      pop\n      swap1\n      jump\t// out\n        /* \"#utility.yul\":7:112   */\n    tag_28:\n        /* \"#utility.yul\":73:79   */\n      0x00\n        /* \"#utility.yul\":101:105   */\n      0x0a\n        /* \"#utility.yul\":91:105   */\n      swap1\n      pop\n        /* \"#utility.yul\":7:112   */\n      swap2\n      swap1\n      pop\n      jump\t// out\n        /* \"#utility.yul\":118:262   */\n    tag_29:\n        /* \"#utility.yul\":216:227   */\n      0x00\n        /* \"#utility.yul\":253:256   */\n      dup2\n        /* \"#utility.yul\":238:256   */\n      swap1\n      pop\n        /* \"#utility.yul\":118:262   */\n      swap3\n      swap2\n      pop\n      pop\n      jump\t// out\n        /* \"#utility.yul\":268:367   */\n    tag_30:\n        /* \"#utility.yul\":334:338   */\n      0x00\n        /* \"#utility.yul\":357:360   */\n      dup2\n        /* \"#utility.yul\":349:360   */\n      swap1\n      pop\n        /* \"#utility.yul\":268:367   */\n      swap2\n      swap1\n      pop\n      jump\t// out\n        /* \"#utility.yul\":373:450   */\n    tag_31:\n        /* \"#utility.yul\":410:417   */\n      0x00\n        /* \"#utility.yul\":439:444   */\n      dup2\n        /* \"#utility.yul\":428:444   */\n      swap1\n      pop\n        /* \"#utility.yul\":373:450   */\n      swap2\n      swap1\n      pop\n      jump\t// out\n        /* \"#utility.yul\":456:564   */\n    tag_32:\n        /* \"#utility.yul\":533:557   */\n      tag_43\n        /* \"#utility.yul\":551:556   */\n      dup2\n        /* \"#utility.yul\":533:557   */\n      tag_31\n      jump\t// in\n    tag_43:\n        /* \"#utility.yul\":528:531   */\n      dup3\n        /* \"#utility.yul\":521:558   */\n      mstore\n        /* \"#utility.yul\":456:564   */\n      pop\n      pop\n      jump\t// out\n        /* \"#utility.yul\":570:749   */\n    tag_33:\n        /* \"#utility.yul\":639:649   */\n      0x00\n        /* \"#utility.yul\":660:706   */\n      tag_45\n        /* \"#utility.yul\":702:705   */\n      dup4\n        /* \"#utility.yul\":694:700   */\n      dup4\n        /* \"#utility.yul\":660:706   */\n      tag_32\n      jump\t// in\n    tag_45:\n        /* \"#utility.yul\":738:742   */\n      0x20\n        /* \"#utility.yul\":733:736   */\n      dup4\n        /* \"#utility.yul\":729:743   */\n      add\n        /* \"#utility.yul\":715:743   */\n      swap1\n      pop\n        /* \"#utility.yul\":570:749   */\n      swap3\n      swap2\n      pop\n      pop\n      jump\t// out\n        /* \"#utility.yul\":755:867   */\n    tag_34:\n        /* \"#utility.yul\":824:828   */\n      0x00\n        /* \"#utility.yul\":856:860   */\n      0x20\n        /* \"#utility.yul\":851:854   */\n      dup3\n        /* \"#utility.yul\":847:861   */\n      add\n        /* \"#utility.yul\":839:861   */\n      swap1\n      pop\n        /* \"#utility.yul\":755:867   */\n      swap2\n      swap1\n      pop\n      jump\t// out\n        /* \"#utility.yul\":907:1607   */\n    tag_35:\n        /* \"#utility.yul\":1045:1098   */\n      tag_48\n        /* \"#utility.yul\":1092:1097   */\n      dup2\n        /* \"#utility.yul\":1045:1098   */\n      tag_28\n      jump\t// in\n    tag_48:\n        /* \"#utility.yul\":1114:1199   */\n      tag_49\n        /* \"#utility.yul\":1192:1198   */\n      dup2\n        /* \"#utility.yul\":1187:1190   */\n      dup5\n        /* \"#utility.yul\":1114:1199   */\n      tag_29\n      jump\t// in\n    tag_49:\n        /* \"#utility.yul\":1107:1199   */\n      swap3\n      pop\n        /* \"#utility.yul\":1223:1278   */\n      tag_50\n        /* \"#utility.yul\":1272:1277   */\n      dup3\n        /* \"#utility.yul\":1223:1278   */\n      tag_30\n      jump\t// in\n    tag_50:\n        /* \"#utility.yul\":1301:1308   */\n      dup1\n        /* \"#utility.yul\":1332:1333   */\n      0x00\n        /* \"#utility.yul\":1317:1600   */\n    tag_51:\n        /* \"#utility.yul\":1342:1348   */\n      dup4\n        /* \"#utility.yul\":1339:1340   */\n      dup2\n        /* \"#utility.yul\":1336:1349   */\n      lt\n        /* \"#utility.yul\":1317:1600   */\n      iszero\n      tag_53\n      jumpi\n        /* \"#utility.yul\":1418:1424   */\n      dup2\n        /* \"#utility.yul\":1412:1425   */\n      mload\n        /* \"#utility.yul\":1445:1508   */\n      tag_54\n        /* \"#utility.yul\":1504:1507   */\n      dup8\n        /* \"#utility.yul\":1489:1502   */\n      dup3\n        /* \"#utility.yul\":1445:1508   */\n      tag_33\n      jump\t// in\n    tag_54:\n        /* \"#utility.yul\":1438:1508   */\n      swap7\n      pop\n        /* \"#utility.yul\":1531:1590   */\n      tag_55\n        /* \"#utility.yul\":1583:1589   */\n      dup4\n        /* \"#utility.yul\":1531:1590   */\n      tag_34\n      jump\t// in\n    tag_55:\n        /* \"#utility.yul\":1521:1590   */\n      swap3\n      pop\n        /* \"#utility.yul\":1377:1600   */\n      pop\n        /* \"#utility.yul\":1364:1365   */\n      0x01\n        /* \"#utility.yul\":1361:1362   */\n      dup2\n        /* \"#utility.yul\":1357:1366   */\n      add\n        /* \"#utility.yul\":1352:1366   */\n      swap1\n      pop\n        /* \"#utility.yul\":1317:1600   */\n      jump(tag_51)\n    tag_53:\n        /* \"#utility.yul\":1321:1335   */\n      pop\n        /* \"#utility.yul\":1021:1607   */\n      pop\n      pop\n      pop\n        /* \"#utility.yul\":907:1607   */\n      pop\n      pop\n      jump\t// out\n        /* \"#utility.yul\":1613:1932   */\n    tag_10:\n        /* \"#utility.yul\":1754:1758   */\n      0x00\n        /* \"#utility.yul\":1792:1795   */\n      0x0140\n        /* \"#utility.yul\":1781:1790   */\n      dup3\n        /* \"#utility.yul\":1777:1796   */\n      add\n        /* \"#utility.yul\":1769:1796   */\n      swap1\n      pop\n        /* \"#utility.yul\":1806:1925   */\n      tag_57\n        /* \"#utility.yul\":1922:1923   */\n      0x00\n        /* \"#utility.yul\":1911:1920   */\n      dup4\n        /* \"#utility.yul\":1907:1924   */\n      add\n        /* \"#utility.yul\":1898:1904   */\n      dup5\n        /* \"#utility.yul\":1806:1925   */\n      tag_35\n      jump\t// in\n    tag_57:\n        /* \"#utility.yul\":1613:1932   */\n      swap3\n      swap2\n      pop\n      pop\n      jump\t// out\n        /* \"#utility.yul\":1938:2118   */\n    tag_36:\n        /* \"#utility.yul\":1986:2063   */\n      0x4e487b7100000000000000000000000000000000000000000000000000000000\n        /* \"#utility.yul\":1983:1984   */\n      0x00\n        /* \"#utility.yul\":1976:2064   */\n      mstore\n        /* \"#utility.yul\":2083:2087   */\n      0x11\n        /* \"#utility.yul\":2080:2081   */\n      0x04\n        /* \"#utility.yul\":2073:2088   */\n      mstore\n        /* \"#utility.yul\":2107:2111   */\n      0x24\n        /* \"#utility.yul\":2104:2105   */\n      0x00\n        /* \"#utility.yul\":2097:2112   */\n      revert\n        /* \"#utility.yul\":2124:2315   */\n    tag_16:\n        /* \"#utility.yul\":2164:2167   */\n      0x00\n        /* \"#utility.yul\":2183:2203   */\n      tag_60\n        /* \"#utility.yul\":2201:2202   */\n      dup3\n        /* \"#utility.yul\":2183:2203   */\n      tag_31\n      jump\t// in\n    tag_60:\n        /* \"#utility.yul\":2178:2203   */\n      swap2\n      pop\n        /* \"#utility.yul\":2217:2237   */\n      tag_61\n        /* \"#utility.yul\":2235:2236   */\n      dup4\n        /* \"#utility.yul\":2217:2237   */\n      tag_31\n      jump\t// in\n    tag_61:\n        /* \"#utility.yul\":2212:2237   */\n      swap3\n      pop\n        /* \"#utility.yul\":2260:2261   */\n      dup3\n        /* \"#utility.yul\":2257:2258   */\n      dup3\n        /* \"#utility.yul\":2253:2262   */\n      add\n        /* \"#utility.yul\":2246:2262   */\n      swap1\n      pop\n        /* \"#utility.yul\":2281:2284   */\n      dup1\n        /* \"#utility.yul\":2278:2279   */\n      dup3\n        /* \"#utility.yul\":2275:2285   */\n      gt\n        /* \"#utility.yul\":2272:2308   */\n      iszero\n      tag_62\n      jumpi\n        /* \"#utility.yul\":2288:2306   */\n      tag_63\n      tag_36\n      jump\t// in\n    tag_63:\n        /* \"#utility.yul\":2272:2308   */\n    tag_62:\n        /* \"#utility.yul\":2124:2315   */\n      swap3\n      swap2\n      pop\n      pop\n      jump\t// out\n        /* \"#utility.yul\":2321:2501   */\n    tag_19:\n        /* \"#utility.yul\":2369:2446   */\n      0x4e487b7100000000000000000000000000000000000000000000000000000000\n        /* \"#utility.yul\":2366:2367   */\n      0x00\n        /* \"#utility.yul\":2359:2447   */\n      mstore\n        /* \"#utility.yul\":2466:2470   */\n      0x32\n        /* \"#utility.yul\":2463:2464   */\n      0x04\n        /* \"#utility.yul\":2456:2471   */\n      mstore\n        /* \"#utility.yul\":2490:2494   */\n      0x24\n        /* \"#utility.yul\":2487:2488   */\n      0x00\n        /* \"#utility.yul\":2480:2495   */\n      revert\n        /* \"#utility.yul\":2507:2740   */\n    tag_22:\n        /* \"#utility.yul\":2546:2549   */\n      0x00\n        /* \"#utility.yul\":2569:2593   */\n      tag_66\n        /* \"#utility.yul\":2587:2592   */\n      dup3\n        /* \"#utility.yul\":2569:2593   */\n      tag_31\n      jump\t// in\n    tag_66:\n        /* \"#utility.yul\":2560:2593   */\n      swap2\n      pop\n        /* \"#utility.yul\":2615:2681   */\n      0xffffffffffffffffffffffffffffffffffffffffffffffffffffffffffffffff\n        /* \"#utility.yul\":2608:2613   */\n      dup3\n        /* \"#utility.yul\":2605:2682   */\n      sub\n        /* \"#utility.yul\":2602:2705   */\n      tag_67\n      jumpi\n        /* \"#utility.yul\":2685:2703   */\n      tag_68\n      tag_36\n      jump\t// in\n    tag_68:\n        /* \"#utility.yul\":2602:2705   */\n    tag_67:\n        /* \"#utility.yul\":2732:2733   */\n      0x01\n        /* \"#utility.yul\":2725:2730   */\n      dup3\n        /* \"#utility.yul\":2721:2734   */\n      add\n        /* \"#utility.yul\":2714:2734   */\n      swap1\n      pop\n        /* \"#utility.yul\":2507:2740   */\n      swap2\n      swap1\n      pop\n      jump\t// out\n\n    auxdata: 0xa2646970667358221220157caae3f2952832f72a67cd9f3d3b69a9a95cd069faaf6d9131f4976c350cc164736f6c63430008120033\n}\n",
				"bytecode": {
					"linkReferences": {},
					"object": "608060405234801561001057600080fd5b506102fa806100206000396000f3fe608060405234801561001057600080fd5b50600436106100365760003560e01c806310c66e171461003b57806389f915f614610045575b600080fd5b610043610063565b005b61004d6100ab565b60405161005a91906101ce565b60405180910390f35b60005b600a8110156100a85760018161007c9190610219565b600082600a81106100905761008f61024d565b5b018190555080806100a09061027c565b915050610066565b50565b6100b36100f6565b6000600a806020026040519081016040528092919082600a80156100ec576020028201915b8154815260200190600101908083116100d8575b5050505050905090565b604051806101400160405280600a90602082028036833780820191505090505090565b6000600a9050919050565b600081905092915050565b6000819050919050565b6000819050919050565b61014c81610139565b82525050565b600061015e8383610143565b60208301905092915050565b6000602082019050919050565b61018081610119565b61018a8184610124565b92506101958261012f565b8060005b838110156101c65781516101ad8782610152565b96506101b88361016a565b925050600181019050610199565b505050505050565b6000610140820190506101e46000830184610177565b92915050565b7f4e487b7100000000000000000000000000000000000000000000000000000000600052601160045260246000fd5b600061022482610139565b915061022f83610139565b9250828201905080821115610247576102466101ea565b5b92915050565b7f4e487b7100000000000000000000000000000000000000000000000000000000600052603260045260246000fd5b600061028782610139565b91507fffffffffffffffffffffffffffffffffffffffffffffffffffffffffffffffff82036102b9576102b86101ea565b5b60018201905091905056fea2646970667358221220157caae3f2952832f72a67cd9f3d3b69a9a95cd069faaf6d9131f4976c350cc164736f6c63430008120033",
					"opcodes": "PUSH1 0x80 PUSH1 0x40 MSTORE CALLVALUE DUP1 ISZERO PUSH2 0x10 JUMPI PUSH1 0x0 DUP1 REVERT JUMPDEST POP PUSH2 0x2FA DUP1 PUSH2 0x20 PUSH1 0x0 CODECOPY PUSH1 0x0 RETURN INVALID PUSH1 0x80 PUSH1 0x40 MSTORE CALLVALUE DUP1 ISZERO PUSH2 0x10 JUMPI PUSH1 0x0 DUP1 REVERT JUMPDEST POP PUSH1 0x4 CALLDATASIZE LT PUSH2 0x36 JUMPI PUSH1 0x0 CALLDATALOAD PUSH1 0xE0 SHR DUP1 PUSH4 0x10C66E17 EQ PUSH2 0x3B JUMPI DUP1 PUSH4 0x89F915F6 EQ PUSH2 0x45 JUMPI JUMPDEST PUSH1 0x0 DUP1 REVERT JUMPDEST PUSH2 0x43 PUSH2 0x63 JUMP JUMPDEST STOP JUMPDEST PUSH2 0x4D PUSH2 0xAB JUMP JUMPDEST PUSH1 0x40 MLOAD PUSH2 0x5A SWAP2 SWAP1 PUSH2 0x1CE JUMP JUMPDEST PUSH1 0x40 MLOAD DUP1 SWAP2 SUB SWAP1 RETURN JUMPDEST PUSH1 0x0 JUMPDEST PUSH1 0xA DUP2 LT ISZERO PUSH2 0xA8 JUMPI PUSH1 0x1 DUP2 PUSH2 0x7C SWAP2 SWAP1 PUSH2 0x219 JUMP JUMPDEST PUSH1 0x0 DUP3 PUSH1 0xA DUP2 LT PUSH2 0x90 JUMPI PUSH2 0x8F PUSH2 0x24D JUMP JUMPDEST JUMPDEST ADD DUP2 SWAP1 SSTORE POP DUP1 DUP1 PUSH2 0xA0 SWAP1 PUSH2 0x27C JUMP JUMPDEST SWAP2 POP POP PUSH2 0x66 JUMP JUMPDEST POP JUMP JUMPDEST PUSH2 0xB3 PUSH2 0xF6 JUMP JUMPDEST PUSH1 0x0 PUSH1 0xA DUP1 PUSH1 0x20 MUL PUSH1 0x40 MLOAD SWAP1 DUP2 ADD PUSH1 0x40 MSTORE DUP1 SWAP3 SWAP2 SWAP1 DUP3 PUSH1 0xA DUP1 ISZERO PUSH2 0xEC JUMPI PUSH1 0x20 MUL DUP3 ADD SWAP2 JUMPDEST DUP2 SLOAD DUP2 MSTORE PUSH1 0x20 ADD SWAP1 PUSH1 0x1 ADD SWAP1 DUP1 DUP4 GT PUSH2 0xD8 JUMPI JUMPDEST POP POP POP POP POP SWAP1 POP SWAP1 JUMP JUMPDEST PUSH1 0x40 MLOAD DUP1 PUSH2 0x140 ADD PUSH1 0x40 MSTORE DUP1 PUSH1 0xA SWAP1 PUSH1 0x20 DUP3 MUL DUP1 CALLDATASIZE DUP4 CALLDATACOPY DUP1 DUP3 ADD SWAP2 POP POP SWAP1 POP POP SWAP1 JUMP JUMPDEST PUSH1 0x0 PUSH1 0xA SWAP1 POP SWAP2 SWAP1 POP JUMP JUMPDEST PUSH1 0x0 DUP2 SWAP1 POP SWAP3 SWAP2 POP POP JUMP JUMPDEST PUSH1 0x0 DUP2 SWAP1 POP SWAP2 SWAP1 POP JUMP JUMPDEST PUSH1 0x0 DUP2 SWAP1 POP SWAP2 SWAP1 POP JUMP JUMPDEST PUSH2 0x14C DUP2 PUSH2 0x139 JUMP JUMPDEST DUP3 MSTORE POP POP JUMP JUMPDEST PUSH1 0x0 PUSH2 0x15E DUP4 DUP4 PUSH2 0x143 JUMP JUMPDEST PUSH1 0x20 DUP4 ADD SWAP1 POP SWAP3 SWAP2 POP POP JUMP JUMPDEST PUSH1 0x0 PUSH1 0x20 DUP3 ADD SWAP1 POP SWAP2 SWAP1 POP JUMP JUMPDEST PUSH2 0x180 DUP2 PUSH2 0x119 JUMP JUMPDEST PUSH2 0x18A DUP2 DUP5 PUSH2 0x124 JUMP JUMPDEST SWAP3 POP PUSH2 0x195 DUP3 PUSH2 0x12F JUMP JUMPDEST DUP1 PUSH1 0x0 JUMPDEST DUP4 DUP2 LT ISZERO PUSH2 0x1C6 JUMPI DUP2 MLOAD PUSH2 0x1AD DUP8 DUP3 PUSH2 0x152 JUMP JUMPDEST SWAP7 POP PUSH2 0x1B8 DUP4 PUSH2 0x16A JUMP JUMPDEST SWAP3 POP POP PUSH1 0x1 DUP2 ADD SWAP1 POP PUSH2 0x199 JUMP JUMPDEST POP POP POP POP POP POP JUMP JUMPDEST PUSH1 0x0 PUSH2 0x140 DUP3 ADD SWAP1 POP PUSH2 0x1E4 PUSH1 0x0 DUP4 ADD DUP5 PUSH2 0x177 JUMP JUMPDEST SWAP3 SWAP2 POP POP JUMP JUMPDEST PUSH32 0x4E487B7100000000000000000000000000000000000000000000000000000000 PUSH1 0x0 MSTORE PUSH1 0x11 PUSH1 0x4 MSTORE PUSH1 0x24 PUSH1 0x0 REVERT JUMPDEST PUSH1 0x0 PUSH2 0x224 DUP3 PUSH2 0x139 JUMP JUMPDEST SWAP2 POP PUSH2 0x22F DUP4 PUSH2 0x139 JUMP JUMPDEST SWAP3 POP DUP3 DUP3 ADD SWAP1 POP DUP1 DUP3 GT ISZERO PUSH2 0x247 JUMPI PUSH2 0x246 PUSH2 0x1EA JUMP JUMPDEST JUMPDEST SWAP3 SWAP2 POP POP JUMP JUMPDEST PUSH32 0x4E487B7100000000000000000000000000000000000000000000000000000000 PUSH1 0x0 MSTORE PUSH1 0x32 PUSH1 0x4 MSTORE PUSH1 0x24 PUSH1 0x0 REVERT JUMPDEST PUSH1 0x0 PUSH2 0x287 DUP3 PUSH2 0x139 JUMP JUMPDEST SWAP2 POP PUSH32 0xFFFFFFFFFFFFFFFFFFFFFFFFFFFFFFFFFFFFFFFFFFFFFFFFFFFFFFFFFFFFFFFF DUP3 SUB PUSH2 0x2B9 JUMPI PUSH2 0x2B8 PUSH2 0x1EA JUMP JUMPDEST JUMPDEST PUSH1 0x1 DUP3 ADD SWAP1 POP SWAP2 SWAP1 POP JUMP INVALID LOG2 PUSH5 0x6970667358 0x22 SLT KECCAK256 ISZERO PUSH29 0xAAE3F2952832F72A67CD9F3D3B69A9A95CD069FAAF6D9131F4976C350C 0xC1 PUSH5 0x736F6C6343 STOP ADDMOD SLT STOP CALLER "
				},
				"gasEstimates": {
					"creation": {
						"codeDepositCost": "152400",
						"executionCost": "196",
						"totalCost": "152596"
					},
					"external": {
						"getNumbers()": "infinite",
						"setNumbers()": "infinite"
					}
				},
				"methodIdentifiers": {
					"getNumbers()": "89f915f6",
					"setNumbers()": "10c66e17"
				}
			},
			"storageLayout": {
				"storage": [
					{
						"astId": 195,
						"contract": "contracts/1_10.sol:Quiz6",
						"label": "numbers",
						"offset": 0,
						"slot": "0",
						"type": "t_array(t_uint256)10_storage"
					}
				],
				"types": {
					"t_array(t_uint256)10_storage": {
						"base": "t_uint256",
						"encoding": "inplace",
						"label": "uint256[10]",
						"numberOfBytes": "320"
					},
					"t_uint256": {
						"encoding": "inplace",
						"label": "uint256",
						"numberOfBytes": "32"
					}
				}
			},
			"userdoc": {
				"kind": "user",
				"methods": {},
				"version": 1
			}
		}
	}
}