{
	"contracts/51_60.sol": {
		"Quiz53": {
			"abi": [
				{
					"inputs": [
						{
							"internalType": "string",
							"name": "_bank",
							"type": "string"
						}
					],
					"name": "checkMoney",
					"outputs": [
						{
							"internalType": "uint256",
							"name": "",
							"type": "uint256"
						}
					],
					"stateMutability": "view",
					"type": "function"
				},
				{
					"inputs": [
						{
							"internalType": "string",
							"name": "_bank",
							"type": "string"
						},
						{
							"internalType": "uint256",
							"name": "_money",
							"type": "uint256"
						}
					],
					"name": "getMoney",
					"outputs": [],
					"stateMutability": "nonpayable",
					"type": "function"
				},
				{
					"inputs": [
						{
							"internalType": "string",
							"name": "_bank",
							"type": "string"
						}
					],
					"name": "putMoney",
					"outputs": [
						{
							"internalType": "uint256",
							"name": "",
							"type": "uint256"
						}
					],
					"stateMutability": "payable",
					"type": "function"
				}
			],
			"devdoc": {
				"kind": "dev",
				"methods": {},
				"version": 1
			},
			"evm": {
				"assembly": "    /* \"contracts/51_60.sol\":1573:2533  contract Quiz53{... */\n  mstore(0x40, 0x80)\n    /* \"contracts/51_60.sol\":1931:1941  msg.sender */\n  caller\n    /* \"contracts/51_60.sol\":1915:1941  address owner = msg.sender */\n  0x00\n  dup1\n  0x0100\n  exp\n  dup2\n  sload\n  dup2\n  0xffffffffffffffffffffffffffffffffffffffff\n  mul\n  not\n  and\n  swap1\n  dup4\n  0xffffffffffffffffffffffffffffffffffffffff\n  and\n  mul\n  or\n  swap1\n  sstore\n  pop\n    /* \"contracts/51_60.sol\":1573:2533  contract Quiz53{... */\n  callvalue\n  dup1\n  iszero\n  tag_1\n  jumpi\n  0x00\n  dup1\n  revert\ntag_1:\n  pop\n  dataSize(sub_0)\n  dup1\n  dataOffset(sub_0)\n  0x00\n  codecopy\n  0x00\n  return\nstop\n\nsub_0: assembly {\n        /* \"contracts/51_60.sol\":1573:2533  contract Quiz53{... */\n      mstore(0x40, 0x80)\n      jumpi(tag_1, lt(calldatasize, 0x04))\n      shr(0xe0, calldataload(0x00))\n      dup1\n      0x34bbe17a\n      eq\n      tag_2\n      jumpi\n      dup1\n      0x5a043c44\n      eq\n      tag_3\n      jumpi\n      dup1\n      0x689c043c\n      eq\n      tag_4\n      jumpi\n    tag_1:\n      0x00\n      dup1\n      revert\n        /* \"contracts/51_60.sol\":2373:2529  function getMoney(string memory _bank, uint _money) public isOwner {... */\n    tag_2:\n      callvalue\n      dup1\n      iszero\n      tag_5\n      jumpi\n      0x00\n      dup1\n      revert\n    tag_5:\n      pop\n      tag_6\n      0x04\n      dup1\n      calldatasize\n      sub\n      dup2\n      add\n      swap1\n      tag_7\n      swap2\n      swap1\n      tag_8\n      jump\t// in\n    tag_7:\n      tag_9\n      jump\t// in\n    tag_6:\n      stop\n        /* \"contracts/51_60.sol\":2212:2365  function putMoney(string memory _bank) public payable isOwner returns(uint) {... */\n    tag_3:\n      tag_10\n      0x04\n      dup1\n      calldatasize\n      sub\n      dup2\n      add\n      swap1\n      tag_11\n      swap2\n      swap1\n      tag_12\n      jump\t// in\n    tag_11:\n      tag_13\n      jump\t// in\n    tag_10:\n      mload(0x40)\n      tag_14\n      swap2\n      swap1\n      tag_15\n      jump\t// in\n    tag_14:\n      mload(0x40)\n      dup1\n      swap2\n      sub\n      swap1\n      return\n        /* \"contracts/51_60.sol\":2085:2204  function checkMoney(string memory _bank) public view isOwner returns(uint) {... */\n    tag_4:\n      callvalue\n      dup1\n      iszero\n      tag_16\n      jumpi\n      0x00\n      dup1\n      revert\n    tag_16:\n      pop\n      tag_17\n      0x04\n      dup1\n      calldatasize\n      sub\n      dup2\n      add\n      swap1\n      tag_18\n      swap2\n      swap1\n      tag_12\n      jump\t// in\n    tag_18:\n      tag_19\n      jump\t// in\n    tag_17:\n      mload(0x40)\n      tag_20\n      swap2\n      swap1\n      tag_15\n      jump\t// in\n    tag_20:\n      mload(0x40)\n      dup1\n      swap2\n      sub\n      swap1\n      return\n        /* \"contracts/51_60.sol\":2373:2529  function getMoney(string memory _bank, uint _money) public isOwner {... */\n    tag_9:\n        /* \"contracts/51_60.sol\":2046:2056  msg.sender */\n      caller\n        /* \"contracts/51_60.sol\":2037:2056  owner == msg.sender */\n      0xffffffffffffffffffffffffffffffffffffffff\n      and\n        /* \"contracts/51_60.sol\":2037:2042  owner */\n      0x00\n      dup1\n      sload\n      swap1\n      0x0100\n      exp\n      swap1\n      div\n      0xffffffffffffffffffffffffffffffffffffffff\n      and\n        /* \"contracts/51_60.sol\":2037:2056  owner == msg.sender */\n      0xffffffffffffffffffffffffffffffffffffffff\n      and\n      eq\n        /* \"contracts/51_60.sol\":2029:2057  require(owner == msg.sender) */\n      tag_22\n      jumpi\n      0x00\n      dup1\n      revert\n    tag_22:\n        /* \"contracts/51_60.sol\":2473:2479  _money */\n      dup1\n        /* \"contracts/51_60.sol\":2451:2455  Bank */\n      0x01\n        /* \"contracts/51_60.sol\":2451:2462  Bank[owner] */\n      0x00\n        /* \"contracts/51_60.sol\":2456:2461  owner */\n      dup1\n      0x00\n      swap1\n      sload\n      swap1\n      0x0100\n      exp\n      swap1\n      div\n      0xffffffffffffffffffffffffffffffffffffffff\n      and\n        /* \"contracts/51_60.sol\":2451:2462  Bank[owner] */\n      0xffffffffffffffffffffffffffffffffffffffff\n      and\n      0xffffffffffffffffffffffffffffffffffffffff\n      and\n      dup2\n      mstore\n      0x20\n      add\n      swap1\n      dup2\n      mstore\n      0x20\n      add\n      0x00\n      keccak256\n        /* \"contracts/51_60.sol\":2463:2468  _bank */\n      dup4\n        /* \"contracts/51_60.sol\":2451:2469  Bank[owner][_bank] */\n      mload(0x40)\n      tag_24\n      swap2\n      swap1\n      tag_25\n      jump\t// in\n    tag_24:\n      swap1\n      dup2\n      mstore\n      0x20\n      add\n      mload(0x40)\n      dup1\n      swap2\n      sub\n      swap1\n      keccak256\n      0x00\n        /* \"contracts/51_60.sol\":2451:2479  Bank[owner][_bank] -= _money */\n      dup3\n      dup3\n      sload\n      tag_26\n      swap2\n      swap1\n      tag_27\n      jump\t// in\n    tag_26:\n      swap3\n      pop\n      pop\n      dup2\n      swap1\n      sstore\n      pop\n        /* \"contracts/51_60.sol\":2498:2503  owner */\n      0x00\n      dup1\n      sload\n      swap1\n      0x0100\n      exp\n      swap1\n      div\n      0xffffffffffffffffffffffffffffffffffffffff\n      and\n        /* \"contracts/51_60.sol\":2490:2513  payable(owner).transfer */\n      0xffffffffffffffffffffffffffffffffffffffff\n      and\n        /* \"contracts/51_60.sol\":2490:2521  payable(owner).transfer(_money) */\n      0x08fc\n        /* \"contracts/51_60.sol\":2514:2520  _money */\n      dup3\n        /* \"contracts/51_60.sol\":2490:2521  payable(owner).transfer(_money) */\n      swap1\n      dup2\n      iszero\n      mul\n      swap1\n      mload(0x40)\n      0x00\n      mload(0x40)\n      dup1\n      dup4\n      sub\n      dup2\n      dup6\n      dup9\n      dup9\n      call\n      swap4\n      pop\n      pop\n      pop\n      pop\n      iszero\n      dup1\n      iszero\n      tag_29\n      jumpi\n      returndatasize\n      0x00\n      dup1\n      returndatacopy\n      revert(0x00, returndatasize)\n    tag_29:\n      pop\n        /* \"contracts/51_60.sol\":2373:2529  function getMoney(string memory _bank, uint _money) public isOwner {... */\n      pop\n      pop\n      jump\t// out\n        /* \"contracts/51_60.sol\":2212:2365  function putMoney(string memory _bank) public payable isOwner returns(uint) {... */\n    tag_13:\n        /* \"contracts/51_60.sol\":2282:2286  uint */\n      0x00\n        /* \"contracts/51_60.sol\":2046:2056  msg.sender */\n      caller\n        /* \"contracts/51_60.sol\":2037:2056  owner == msg.sender */\n      0xffffffffffffffffffffffffffffffffffffffff\n      and\n        /* \"contracts/51_60.sol\":2037:2042  owner */\n      0x00\n      dup1\n      sload\n      swap1\n      0x0100\n      exp\n      swap1\n      div\n      0xffffffffffffffffffffffffffffffffffffffff\n      and\n        /* \"contracts/51_60.sol\":2037:2056  owner == msg.sender */\n      0xffffffffffffffffffffffffffffffffffffffff\n      and\n      eq\n        /* \"contracts/51_60.sol\":2029:2057  require(owner == msg.sender) */\n      tag_31\n      jumpi\n      0x00\n      dup1\n      revert\n    tag_31:\n        /* \"contracts/51_60.sol\":2321:2330  msg.value */\n      callvalue\n        /* \"contracts/51_60.sol\":2299:2303  Bank */\n      0x01\n        /* \"contracts/51_60.sol\":2299:2310  Bank[owner] */\n      0x00\n        /* \"contracts/51_60.sol\":2304:2309  owner */\n      dup1\n      0x00\n      swap1\n      sload\n      swap1\n      0x0100\n      exp\n      swap1\n      div\n      0xffffffffffffffffffffffffffffffffffffffff\n      and\n        /* \"contracts/51_60.sol\":2299:2310  Bank[owner] */\n      0xffffffffffffffffffffffffffffffffffffffff\n      and\n      0xffffffffffffffffffffffffffffffffffffffff\n      and\n      dup2\n      mstore\n      0x20\n      add\n      swap1\n      dup2\n      mstore\n      0x20\n      add\n      0x00\n      keccak256\n        /* \"contracts/51_60.sol\":2311:2316  _bank */\n      dup4\n        /* \"contracts/51_60.sol\":2299:2317  Bank[owner][_bank] */\n      mload(0x40)\n      tag_33\n      swap2\n      swap1\n      tag_25\n      jump\t// in\n    tag_33:\n      swap1\n      dup2\n      mstore\n      0x20\n      add\n      mload(0x40)\n      dup1\n      swap2\n      sub\n      swap1\n      keccak256\n      0x00\n        /* \"contracts/51_60.sol\":2299:2330  Bank[owner][_bank] += msg.value */\n      dup3\n      dup3\n      sload\n      tag_34\n      swap2\n      swap1\n      tag_35\n      jump\t// in\n    tag_34:\n      swap3\n      pop\n      pop\n      dup2\n      swap1\n      sstore\n      pop\n        /* \"contracts/51_60.sol\":2348:2357  msg.value */\n      callvalue\n        /* \"contracts/51_60.sol\":2341:2357  return msg.value */\n      swap1\n      pop\n        /* \"contracts/51_60.sol\":2212:2365  function putMoney(string memory _bank) public payable isOwner returns(uint) {... */\n      swap2\n      swap1\n      pop\n      jump\t// out\n        /* \"contracts/51_60.sol\":2085:2204  function checkMoney(string memory _bank) public view isOwner returns(uint) {... */\n    tag_19:\n        /* \"contracts/51_60.sol\":2154:2158  uint */\n      0x00\n        /* \"contracts/51_60.sol\":2046:2056  msg.sender */\n      caller\n        /* \"contracts/51_60.sol\":2037:2056  owner == msg.sender */\n      0xffffffffffffffffffffffffffffffffffffffff\n      and\n        /* \"contracts/51_60.sol\":2037:2042  owner */\n      0x00\n      dup1\n      sload\n      swap1\n      0x0100\n      exp\n      swap1\n      div\n      0xffffffffffffffffffffffffffffffffffffffff\n      and\n        /* \"contracts/51_60.sol\":2037:2056  owner == msg.sender */\n      0xffffffffffffffffffffffffffffffffffffffff\n      and\n      eq\n        /* \"contracts/51_60.sol\":2029:2057  require(owner == msg.sender) */\n      tag_37\n      jumpi\n      0x00\n      dup1\n      revert\n    tag_37:\n        /* \"contracts/51_60.sol\":2178:2182  Bank */\n      0x01\n        /* \"contracts/51_60.sol\":2178:2189  Bank[owner] */\n      0x00\n        /* \"contracts/51_60.sol\":2183:2188  owner */\n      dup1\n      0x00\n      swap1\n      sload\n      swap1\n      0x0100\n      exp\n      swap1\n      div\n      0xffffffffffffffffffffffffffffffffffffffff\n      and\n        /* \"contracts/51_60.sol\":2178:2189  Bank[owner] */\n      0xffffffffffffffffffffffffffffffffffffffff\n      and\n      0xffffffffffffffffffffffffffffffffffffffff\n      and\n      dup2\n      mstore\n      0x20\n      add\n      swap1\n      dup2\n      mstore\n      0x20\n      add\n      0x00\n      keccak256\n        /* \"contracts/51_60.sol\":2190:2195  _bank */\n      dup3\n        /* \"contracts/51_60.sol\":2178:2196  Bank[owner][_bank] */\n      mload(0x40)\n      tag_39\n      swap2\n      swap1\n      tag_25\n      jump\t// in\n    tag_39:\n      swap1\n      dup2\n      mstore\n      0x20\n      add\n      mload(0x40)\n      dup1\n      swap2\n      sub\n      swap1\n      keccak256\n      sload\n        /* \"contracts/51_60.sol\":2171:2196  return Bank[owner][_bank] */\n      swap1\n      pop\n        /* \"contracts/51_60.sol\":2085:2204  function checkMoney(string memory _bank) public view isOwner returns(uint) {... */\n      swap2\n      swap1\n      pop\n      jump\t// out\n        /* \"#utility.yul\":7:82   */\n    tag_40:\n        /* \"#utility.yul\":40:46   */\n      0x00\n        /* \"#utility.yul\":73:75   */\n      0x40\n        /* \"#utility.yul\":67:76   */\n      mload\n        /* \"#utility.yul\":57:76   */\n      swap1\n      pop\n        /* \"#utility.yul\":7:82   */\n      swap1\n      jump\t// out\n        /* \"#utility.yul\":88:205   */\n    tag_41:\n        /* \"#utility.yul\":197:198   */\n      0x00\n        /* \"#utility.yul\":194:195   */\n      dup1\n        /* \"#utility.yul\":187:199   */\n      revert\n        /* \"#utility.yul\":211:328   */\n    tag_42:\n        /* \"#utility.yul\":320:321   */\n      0x00\n        /* \"#utility.yul\":317:318   */\n      dup1\n        /* \"#utility.yul\":310:322   */\n      revert\n        /* \"#utility.yul\":334:451   */\n    tag_43:\n        /* \"#utility.yul\":443:444   */\n      0x00\n        /* \"#utility.yul\":440:441   */\n      dup1\n        /* \"#utility.yul\":433:445   */\n      revert\n        /* \"#utility.yul\":457:574   */\n    tag_44:\n        /* \"#utility.yul\":566:567   */\n      0x00\n        /* \"#utility.yul\":563:564   */\n      dup1\n        /* \"#utility.yul\":556:568   */\n      revert\n        /* \"#utility.yul\":580:682   */\n    tag_45:\n        /* \"#utility.yul\":621:627   */\n      0x00\n        /* \"#utility.yul\":672:674   */\n      0x1f\n        /* \"#utility.yul\":668:675   */\n      not\n        /* \"#utility.yul\":663:665   */\n      0x1f\n        /* \"#utility.yul\":656:661   */\n      dup4\n        /* \"#utility.yul\":652:666   */\n      add\n        /* \"#utility.yul\":648:676   */\n      and\n        /* \"#utility.yul\":638:676   */\n      swap1\n      pop\n        /* \"#utility.yul\":580:682   */\n      swap2\n      swap1\n      pop\n      jump\t// out\n        /* \"#utility.yul\":688:868   */\n    tag_46:\n        /* \"#utility.yul\":736:813   */\n      0x4e487b7100000000000000000000000000000000000000000000000000000000\n        /* \"#utility.yul\":733:734   */\n      0x00\n        /* \"#utility.yul\":726:814   */\n      mstore\n        /* \"#utility.yul\":833:837   */\n      0x41\n        /* \"#utility.yul\":830:831   */\n      0x04\n        /* \"#utility.yul\":823:838   */\n      mstore\n        /* \"#utility.yul\":857:861   */\n      0x24\n        /* \"#utility.yul\":854:855   */\n      0x00\n        /* \"#utility.yul\":847:862   */\n      revert\n        /* \"#utility.yul\":874:1155   */\n    tag_47:\n        /* \"#utility.yul\":957:984   */\n      tag_71\n        /* \"#utility.yul\":979:983   */\n      dup3\n        /* \"#utility.yul\":957:984   */\n      tag_45\n      jump\t// in\n    tag_71:\n        /* \"#utility.yul\":949:955   */\n      dup2\n        /* \"#utility.yul\":945:985   */\n      add\n        /* \"#utility.yul\":1087:1093   */\n      dup2\n        /* \"#utility.yul\":1075:1085   */\n      dup2\n        /* \"#utility.yul\":1072:1094   */\n      lt\n        /* \"#utility.yul\":1051:1069   */\n      0xffffffffffffffff\n        /* \"#utility.yul\":1039:1049   */\n      dup3\n        /* \"#utility.yul\":1036:1070   */\n      gt\n        /* \"#utility.yul\":1033:1095   */\n      or\n        /* \"#utility.yul\":1030:1118   */\n      iszero\n      tag_72\n      jumpi\n        /* \"#utility.yul\":1098:1116   */\n      tag_73\n      tag_46\n      jump\t// in\n    tag_73:\n        /* \"#utility.yul\":1030:1118   */\n    tag_72:\n        /* \"#utility.yul\":1138:1148   */\n      dup1\n        /* \"#utility.yul\":1134:1136   */\n      0x40\n        /* \"#utility.yul\":1127:1149   */\n      mstore\n        /* \"#utility.yul\":917:1155   */\n      pop\n        /* \"#utility.yul\":874:1155   */\n      pop\n      pop\n      jump\t// out\n        /* \"#utility.yul\":1161:1290   */\n    tag_48:\n        /* \"#utility.yul\":1195:1201   */\n      0x00\n        /* \"#utility.yul\":1222:1242   */\n      tag_75\n      tag_40\n      jump\t// in\n    tag_75:\n        /* \"#utility.yul\":1212:1242   */\n      swap1\n      pop\n        /* \"#utility.yul\":1251:1284   */\n      tag_76\n        /* \"#utility.yul\":1279:1283   */\n      dup3\n        /* \"#utility.yul\":1271:1277   */\n      dup3\n        /* \"#utility.yul\":1251:1284   */\n      tag_47\n      jump\t// in\n    tag_76:\n        /* \"#utility.yul\":1161:1290   */\n      swap2\n      swap1\n      pop\n      jump\t// out\n        /* \"#utility.yul\":1296:1604   */\n    tag_49:\n        /* \"#utility.yul\":1358:1362   */\n      0x00\n        /* \"#utility.yul\":1448:1466   */\n      0xffffffffffffffff\n        /* \"#utility.yul\":1440:1446   */\n      dup3\n        /* \"#utility.yul\":1437:1467   */\n      gt\n        /* \"#utility.yul\":1434:1490   */\n      iszero\n      tag_78\n      jumpi\n        /* \"#utility.yul\":1470:1488   */\n      tag_79\n      tag_46\n      jump\t// in\n    tag_79:\n        /* \"#utility.yul\":1434:1490   */\n    tag_78:\n        /* \"#utility.yul\":1508:1537   */\n      tag_80\n        /* \"#utility.yul\":1530:1536   */\n      dup3\n        /* \"#utility.yul\":1508:1537   */\n      tag_45\n      jump\t// in\n    tag_80:\n        /* \"#utility.yul\":1500:1537   */\n      swap1\n      pop\n        /* \"#utility.yul\":1592:1596   */\n      0x20\n        /* \"#utility.yul\":1586:1590   */\n      dup2\n        /* \"#utility.yul\":1582:1597   */\n      add\n        /* \"#utility.yul\":1574:1597   */\n      swap1\n      pop\n        /* \"#utility.yul\":1296:1604   */\n      swap2\n      swap1\n      pop\n      jump\t// out\n        /* \"#utility.yul\":1610:1756   */\n    tag_50:\n        /* \"#utility.yul\":1707:1713   */\n      dup3\n        /* \"#utility.yul\":1702:1705   */\n      dup2\n        /* \"#utility.yul\":1697:1700   */\n      dup4\n        /* \"#utility.yul\":1684:1714   */\n      calldatacopy\n        /* \"#utility.yul\":1748:1749   */\n      0x00\n        /* \"#utility.yul\":1739:1745   */\n      dup4\n        /* \"#utility.yul\":1734:1737   */\n      dup4\n        /* \"#utility.yul\":1730:1746   */\n      add\n        /* \"#utility.yul\":1723:1750   */\n      mstore\n        /* \"#utility.yul\":1610:1756   */\n      pop\n      pop\n      pop\n      jump\t// out\n        /* \"#utility.yul\":1762:2187   */\n    tag_51:\n        /* \"#utility.yul\":1840:1845   */\n      0x00\n        /* \"#utility.yul\":1865:1931   */\n      tag_83\n        /* \"#utility.yul\":1881:1930   */\n      tag_84\n        /* \"#utility.yul\":1923:1929   */\n      dup5\n        /* \"#utility.yul\":1881:1930   */\n      tag_49\n      jump\t// in\n    tag_84:\n        /* \"#utility.yul\":1865:1931   */\n      tag_48\n      jump\t// in\n    tag_83:\n        /* \"#utility.yul\":1856:1931   */\n      swap1\n      pop\n        /* \"#utility.yul\":1954:1960   */\n      dup3\n        /* \"#utility.yul\":1947:1952   */\n      dup2\n        /* \"#utility.yul\":1940:1961   */\n      mstore\n        /* \"#utility.yul\":1992:1996   */\n      0x20\n        /* \"#utility.yul\":1985:1990   */\n      dup2\n        /* \"#utility.yul\":1981:1997   */\n      add\n        /* \"#utility.yul\":2030:2033   */\n      dup5\n        /* \"#utility.yul\":2021:2027   */\n      dup5\n        /* \"#utility.yul\":2016:2019   */\n      dup5\n        /* \"#utility.yul\":2012:2028   */\n      add\n        /* \"#utility.yul\":2009:2034   */\n      gt\n        /* \"#utility.yul\":2006:2118   */\n      iszero\n      tag_85\n      jumpi\n        /* \"#utility.yul\":2037:2116   */\n      tag_86\n      tag_44\n      jump\t// in\n    tag_86:\n        /* \"#utility.yul\":2006:2118   */\n    tag_85:\n        /* \"#utility.yul\":2127:2181   */\n      tag_87\n        /* \"#utility.yul\":2174:2180   */\n      dup5\n        /* \"#utility.yul\":2169:2172   */\n      dup3\n        /* \"#utility.yul\":2164:2167   */\n      dup6\n        /* \"#utility.yul\":2127:2181   */\n      tag_50\n      jump\t// in\n    tag_87:\n        /* \"#utility.yul\":1846:2187   */\n      pop\n        /* \"#utility.yul\":1762:2187   */\n      swap4\n      swap3\n      pop\n      pop\n      pop\n      jump\t// out\n        /* \"#utility.yul\":2207:2547   */\n    tag_52:\n        /* \"#utility.yul\":2263:2268   */\n      0x00\n        /* \"#utility.yul\":2312:2315   */\n      dup3\n        /* \"#utility.yul\":2305:2309   */\n      0x1f\n        /* \"#utility.yul\":2297:2303   */\n      dup4\n        /* \"#utility.yul\":2293:2310   */\n      add\n        /* \"#utility.yul\":2289:2316   */\n      slt\n        /* \"#utility.yul\":2279:2401   */\n      tag_89\n      jumpi\n        /* \"#utility.yul\":2320:2399   */\n      tag_90\n      tag_43\n      jump\t// in\n    tag_90:\n        /* \"#utility.yul\":2279:2401   */\n    tag_89:\n        /* \"#utility.yul\":2437:2443   */\n      dup2\n        /* \"#utility.yul\":2424:2444   */\n      calldataload\n        /* \"#utility.yul\":2462:2541   */\n      tag_91\n        /* \"#utility.yul\":2537:2540   */\n      dup5\n        /* \"#utility.yul\":2529:2535   */\n      dup3\n        /* \"#utility.yul\":2522:2526   */\n      0x20\n        /* \"#utility.yul\":2514:2520   */\n      dup7\n        /* \"#utility.yul\":2510:2527   */\n      add\n        /* \"#utility.yul\":2462:2541   */\n      tag_51\n      jump\t// in\n    tag_91:\n        /* \"#utility.yul\":2453:2541   */\n      swap2\n      pop\n        /* \"#utility.yul\":2269:2547   */\n      pop\n        /* \"#utility.yul\":2207:2547   */\n      swap3\n      swap2\n      pop\n      pop\n      jump\t// out\n        /* \"#utility.yul\":2553:2630   */\n    tag_53:\n        /* \"#utility.yul\":2590:2597   */\n      0x00\n        /* \"#utility.yul\":2619:2624   */\n      dup2\n        /* \"#utility.yul\":2608:2624   */\n      swap1\n      pop\n        /* \"#utility.yul\":2553:2630   */\n      swap2\n      swap1\n      pop\n      jump\t// out\n        /* \"#utility.yul\":2636:2758   */\n    tag_54:\n        /* \"#utility.yul\":2709:2733   */\n      tag_94\n        /* \"#utility.yul\":2727:2732   */\n      dup2\n        /* \"#utility.yul\":2709:2733   */\n      tag_53\n      jump\t// in\n    tag_94:\n        /* \"#utility.yul\":2702:2707   */\n      dup2\n        /* \"#utility.yul\":2699:2734   */\n      eq\n        /* \"#utility.yul\":2689:2752   */\n      tag_95\n      jumpi\n        /* \"#utility.yul\":2748:2749   */\n      0x00\n        /* \"#utility.yul\":2745:2746   */\n      dup1\n        /* \"#utility.yul\":2738:2750   */\n      revert\n        /* \"#utility.yul\":2689:2752   */\n    tag_95:\n        /* \"#utility.yul\":2636:2758   */\n      pop\n      jump\t// out\n        /* \"#utility.yul\":2764:2903   */\n    tag_55:\n        /* \"#utility.yul\":2810:2815   */\n      0x00\n        /* \"#utility.yul\":2848:2854   */\n      dup2\n        /* \"#utility.yul\":2835:2855   */\n      calldataload\n        /* \"#utility.yul\":2826:2855   */\n      swap1\n      pop\n        /* \"#utility.yul\":2864:2897   */\n      tag_97\n        /* \"#utility.yul\":2891:2896   */\n      dup2\n        /* \"#utility.yul\":2864:2897   */\n      tag_54\n      jump\t// in\n    tag_97:\n        /* \"#utility.yul\":2764:2903   */\n      swap3\n      swap2\n      pop\n      pop\n      jump\t// out\n        /* \"#utility.yul\":2909:3563   */\n    tag_8:\n        /* \"#utility.yul\":2987:2993   */\n      0x00\n        /* \"#utility.yul\":2995:3001   */\n      dup1\n        /* \"#utility.yul\":3044:3046   */\n      0x40\n        /* \"#utility.yul\":3032:3041   */\n      dup4\n        /* \"#utility.yul\":3023:3030   */\n      dup6\n        /* \"#utility.yul\":3019:3042   */\n      sub\n        /* \"#utility.yul\":3015:3047   */\n      slt\n        /* \"#utility.yul\":3012:3131   */\n      iszero\n      tag_99\n      jumpi\n        /* \"#utility.yul\":3050:3129   */\n      tag_100\n      tag_41\n      jump\t// in\n    tag_100:\n        /* \"#utility.yul\":3012:3131   */\n    tag_99:\n        /* \"#utility.yul\":3198:3199   */\n      0x00\n        /* \"#utility.yul\":3187:3196   */\n      dup4\n        /* \"#utility.yul\":3183:3200   */\n      add\n        /* \"#utility.yul\":3170:3201   */\n      calldataload\n        /* \"#utility.yul\":3228:3246   */\n      0xffffffffffffffff\n        /* \"#utility.yul\":3220:3226   */\n      dup2\n        /* \"#utility.yul\":3217:3247   */\n      gt\n        /* \"#utility.yul\":3214:3331   */\n      iszero\n      tag_101\n      jumpi\n        /* \"#utility.yul\":3250:3329   */\n      tag_102\n      tag_42\n      jump\t// in\n    tag_102:\n        /* \"#utility.yul\":3214:3331   */\n    tag_101:\n        /* \"#utility.yul\":3355:3418   */\n      tag_103\n        /* \"#utility.yul\":3410:3417   */\n      dup6\n        /* \"#utility.yul\":3401:3407   */\n      dup3\n        /* \"#utility.yul\":3390:3399   */\n      dup7\n        /* \"#utility.yul\":3386:3408   */\n      add\n        /* \"#utility.yul\":3355:3418   */\n      tag_52\n      jump\t// in\n    tag_103:\n        /* \"#utility.yul\":3345:3418   */\n      swap3\n      pop\n        /* \"#utility.yul\":3141:3428   */\n      pop\n        /* \"#utility.yul\":3467:3469   */\n      0x20\n        /* \"#utility.yul\":3493:3546   */\n      tag_104\n        /* \"#utility.yul\":3538:3545   */\n      dup6\n        /* \"#utility.yul\":3529:3535   */\n      dup3\n        /* \"#utility.yul\":3518:3527   */\n      dup7\n        /* \"#utility.yul\":3514:3536   */\n      add\n        /* \"#utility.yul\":3493:3546   */\n      tag_55\n      jump\t// in\n    tag_104:\n        /* \"#utility.yul\":3483:3546   */\n      swap2\n      pop\n        /* \"#utility.yul\":3438:3556   */\n      pop\n        /* \"#utility.yul\":2909:3563   */\n      swap3\n      pop\n      swap3\n      swap1\n      pop\n      jump\t// out\n        /* \"#utility.yul\":3569:4078   */\n    tag_12:\n        /* \"#utility.yul\":3638:3644   */\n      0x00\n        /* \"#utility.yul\":3687:3689   */\n      0x20\n        /* \"#utility.yul\":3675:3684   */\n      dup3\n        /* \"#utility.yul\":3666:3673   */\n      dup5\n        /* \"#utility.yul\":3662:3685   */\n      sub\n        /* \"#utility.yul\":3658:3690   */\n      slt\n        /* \"#utility.yul\":3655:3774   */\n      iszero\n      tag_106\n      jumpi\n        /* \"#utility.yul\":3693:3772   */\n      tag_107\n      tag_41\n      jump\t// in\n    tag_107:\n        /* \"#utility.yul\":3655:3774   */\n    tag_106:\n        /* \"#utility.yul\":3841:3842   */\n      0x00\n        /* \"#utility.yul\":3830:3839   */\n      dup3\n        /* \"#utility.yul\":3826:3843   */\n      add\n        /* \"#utility.yul\":3813:3844   */\n      calldataload\n        /* \"#utility.yul\":3871:3889   */\n      0xffffffffffffffff\n        /* \"#utility.yul\":3863:3869   */\n      dup2\n        /* \"#utility.yul\":3860:3890   */\n      gt\n        /* \"#utility.yul\":3857:3974   */\n      iszero\n      tag_108\n      jumpi\n        /* \"#utility.yul\":3893:3972   */\n      tag_109\n      tag_42\n      jump\t// in\n    tag_109:\n        /* \"#utility.yul\":3857:3974   */\n    tag_108:\n        /* \"#utility.yul\":3998:4061   */\n      tag_110\n        /* \"#utility.yul\":4053:4060   */\n      dup5\n        /* \"#utility.yul\":4044:4050   */\n      dup3\n        /* \"#utility.yul\":4033:4042   */\n      dup6\n        /* \"#utility.yul\":4029:4051   */\n      add\n        /* \"#utility.yul\":3998:4061   */\n      tag_52\n      jump\t// in\n    tag_110:\n        /* \"#utility.yul\":3988:4061   */\n      swap2\n      pop\n        /* \"#utility.yul\":3784:4071   */\n      pop\n        /* \"#utility.yul\":3569:4078   */\n      swap3\n      swap2\n      pop\n      pop\n      jump\t// out\n        /* \"#utility.yul\":4084:4202   */\n    tag_56:\n        /* \"#utility.yul\":4171:4195   */\n      tag_112\n        /* \"#utility.yul\":4189:4194   */\n      dup2\n        /* \"#utility.yul\":4171:4195   */\n      tag_53\n      jump\t// in\n    tag_112:\n        /* \"#utility.yul\":4166:4169   */\n      dup3\n        /* \"#utility.yul\":4159:4196   */\n      mstore\n        /* \"#utility.yul\":4084:4202   */\n      pop\n      pop\n      jump\t// out\n        /* \"#utility.yul\":4208:4430   */\n    tag_15:\n        /* \"#utility.yul\":4301:4305   */\n      0x00\n        /* \"#utility.yul\":4339:4341   */\n      0x20\n        /* \"#utility.yul\":4328:4337   */\n      dup3\n        /* \"#utility.yul\":4324:4342   */\n      add\n        /* \"#utility.yul\":4316:4342   */\n      swap1\n      pop\n        /* \"#utility.yul\":4352:4423   */\n      tag_114\n        /* \"#utility.yul\":4420:4421   */\n      0x00\n        /* \"#utility.yul\":4409:4418   */\n      dup4\n        /* \"#utility.yul\":4405:4422   */\n      add\n        /* \"#utility.yul\":4396:4402   */\n      dup5\n        /* \"#utility.yul\":4352:4423   */\n      tag_56\n      jump\t// in\n    tag_114:\n        /* \"#utility.yul\":4208:4430   */\n      swap3\n      swap2\n      pop\n      pop\n      jump\t// out\n        /* \"#utility.yul\":4436:4535   */\n    tag_57:\n        /* \"#utility.yul\":4488:4494   */\n      0x00\n        /* \"#utility.yul\":4522:4527   */\n      dup2\n        /* \"#utility.yul\":4516:4528   */\n      mload\n        /* \"#utility.yul\":4506:4528   */\n      swap1\n      pop\n        /* \"#utility.yul\":4436:4535   */\n      swap2\n      swap1\n      pop\n      jump\t// out\n        /* \"#utility.yul\":4541:4689   */\n    tag_58:\n        /* \"#utility.yul\":4643:4654   */\n      0x00\n        /* \"#utility.yul\":4680:4683   */\n      dup2\n        /* \"#utility.yul\":4665:4683   */\n      swap1\n      pop\n        /* \"#utility.yul\":4541:4689   */\n      swap3\n      swap2\n      pop\n      pop\n      jump\t// out\n        /* \"#utility.yul\":4695:4941   */\n    tag_59:\n        /* \"#utility.yul\":4776:4777   */\n      0x00\n        /* \"#utility.yul\":4786:4899   */\n    tag_118:\n        /* \"#utility.yul\":4800:4806   */\n      dup4\n        /* \"#utility.yul\":4797:4798   */\n      dup2\n        /* \"#utility.yul\":4794:4807   */\n      lt\n        /* \"#utility.yul\":4786:4899   */\n      iszero\n      tag_120\n      jumpi\n        /* \"#utility.yul\":4885:4886   */\n      dup1\n        /* \"#utility.yul\":4880:4883   */\n      dup3\n        /* \"#utility.yul\":4876:4887   */\n      add\n        /* \"#utility.yul\":4870:4888   */\n      mload\n        /* \"#utility.yul\":4866:4867   */\n      dup2\n        /* \"#utility.yul\":4861:4864   */\n      dup5\n        /* \"#utility.yul\":4857:4868   */\n      add\n        /* \"#utility.yul\":4850:4889   */\n      mstore\n        /* \"#utility.yul\":4822:4824   */\n      0x20\n        /* \"#utility.yul\":4819:4820   */\n      dup2\n        /* \"#utility.yul\":4815:4825   */\n      add\n        /* \"#utility.yul\":4810:4825   */\n      swap1\n      pop\n        /* \"#utility.yul\":4786:4899   */\n      jump(tag_118)\n    tag_120:\n        /* \"#utility.yul\":4933:4934   */\n      0x00\n        /* \"#utility.yul\":4924:4930   */\n      dup5\n        /* \"#utility.yul\":4919:4922   */\n      dup5\n        /* \"#utility.yul\":4915:4931   */\n      add\n        /* \"#utility.yul\":4908:4935   */\n      mstore\n        /* \"#utility.yul\":4757:4941   */\n      pop\n        /* \"#utility.yul\":4695:4941   */\n      pop\n      pop\n      pop\n      jump\t// out\n        /* \"#utility.yul\":4947:5337   */\n    tag_60:\n        /* \"#utility.yul\":5053:5056   */\n      0x00\n        /* \"#utility.yul\":5081:5120   */\n      tag_122\n        /* \"#utility.yul\":5114:5119   */\n      dup3\n        /* \"#utility.yul\":5081:5120   */\n      tag_57\n      jump\t// in\n    tag_122:\n        /* \"#utility.yul\":5136:5225   */\n      tag_123\n        /* \"#utility.yul\":5218:5224   */\n      dup2\n        /* \"#utility.yul\":5213:5216   */\n      dup6\n        /* \"#utility.yul\":5136:5225   */\n      tag_58\n      jump\t// in\n    tag_123:\n        /* \"#utility.yul\":5129:5225   */\n      swap4\n      pop\n        /* \"#utility.yul\":5234:5299   */\n      tag_124\n        /* \"#utility.yul\":5292:5298   */\n      dup2\n        /* \"#utility.yul\":5287:5290   */\n      dup6\n        /* \"#utility.yul\":5280:5284   */\n      0x20\n        /* \"#utility.yul\":5273:5278   */\n      dup7\n        /* \"#utility.yul\":5269:5285   */\n      add\n        /* \"#utility.yul\":5234:5299   */\n      tag_59\n      jump\t// in\n    tag_124:\n        /* \"#utility.yul\":5324:5330   */\n      dup1\n        /* \"#utility.yul\":5319:5322   */\n      dup5\n        /* \"#utility.yul\":5315:5331   */\n      add\n        /* \"#utility.yul\":5308:5331   */\n      swap2\n      pop\n        /* \"#utility.yul\":5057:5337   */\n      pop\n        /* \"#utility.yul\":4947:5337   */\n      swap3\n      swap2\n      pop\n      pop\n      jump\t// out\n        /* \"#utility.yul\":5343:5618   */\n    tag_25:\n        /* \"#utility.yul\":5475:5478   */\n      0x00\n        /* \"#utility.yul\":5497:5592   */\n      tag_126\n        /* \"#utility.yul\":5588:5591   */\n      dup3\n        /* \"#utility.yul\":5579:5585   */\n      dup5\n        /* \"#utility.yul\":5497:5592   */\n      tag_60\n      jump\t// in\n    tag_126:\n        /* \"#utility.yul\":5490:5592   */\n      swap2\n      pop\n        /* \"#utility.yul\":5609:5612   */\n      dup2\n        /* \"#utility.yul\":5602:5612   */\n      swap1\n      pop\n        /* \"#utility.yul\":5343:5618   */\n      swap3\n      swap2\n      pop\n      pop\n      jump\t// out\n        /* \"#utility.yul\":5624:5804   */\n    tag_61:\n        /* \"#utility.yul\":5672:5749   */\n      0x4e487b7100000000000000000000000000000000000000000000000000000000\n        /* \"#utility.yul\":5669:5670   */\n      0x00\n        /* \"#utility.yul\":5662:5750   */\n      mstore\n        /* \"#utility.yul\":5769:5773   */\n      0x11\n        /* \"#utility.yul\":5766:5767   */\n      0x04\n        /* \"#utility.yul\":5759:5774   */\n      mstore\n        /* \"#utility.yul\":5793:5797   */\n      0x24\n        /* \"#utility.yul\":5790:5791   */\n      0x00\n        /* \"#utility.yul\":5783:5798   */\n      revert\n        /* \"#utility.yul\":5810:6004   */\n    tag_27:\n        /* \"#utility.yul\":5850:5854   */\n      0x00\n        /* \"#utility.yul\":5870:5890   */\n      tag_129\n        /* \"#utility.yul\":5888:5889   */\n      dup3\n        /* \"#utility.yul\":5870:5890   */\n      tag_53\n      jump\t// in\n    tag_129:\n        /* \"#utility.yul\":5865:5890   */\n      swap2\n      pop\n        /* \"#utility.yul\":5904:5924   */\n      tag_130\n        /* \"#utility.yul\":5922:5923   */\n      dup4\n        /* \"#utility.yul\":5904:5924   */\n      tag_53\n      jump\t// in\n    tag_130:\n        /* \"#utility.yul\":5899:5924   */\n      swap3\n      pop\n        /* \"#utility.yul\":5948:5949   */\n      dup3\n        /* \"#utility.yul\":5945:5946   */\n      dup3\n        /* \"#utility.yul\":5941:5950   */\n      sub\n        /* \"#utility.yul\":5933:5950   */\n      swap1\n      pop\n        /* \"#utility.yul\":5972:5973   */\n      dup2\n        /* \"#utility.yul\":5966:5970   */\n      dup2\n        /* \"#utility.yul\":5963:5974   */\n      gt\n        /* \"#utility.yul\":5960:5997   */\n      iszero\n      tag_131\n      jumpi\n        /* \"#utility.yul\":5977:5995   */\n      tag_132\n      tag_61\n      jump\t// in\n    tag_132:\n        /* \"#utility.yul\":5960:5997   */\n    tag_131:\n        /* \"#utility.yul\":5810:6004   */\n      swap3\n      swap2\n      pop\n      pop\n      jump\t// out\n        /* \"#utility.yul\":6010:6201   */\n    tag_35:\n        /* \"#utility.yul\":6050:6053   */\n      0x00\n        /* \"#utility.yul\":6069:6089   */\n      tag_134\n        /* \"#utility.yul\":6087:6088   */\n      dup3\n        /* \"#utility.yul\":6069:6089   */\n      tag_53\n      jump\t// in\n    tag_134:\n        /* \"#utility.yul\":6064:6089   */\n      swap2\n      pop\n        /* \"#utility.yul\":6103:6123   */\n      tag_135\n        /* \"#utility.yul\":6121:6122   */\n      dup4\n        /* \"#utility.yul\":6103:6123   */\n      tag_53\n      jump\t// in\n    tag_135:\n        /* \"#utility.yul\":6098:6123   */\n      swap3\n      pop\n        /* \"#utility.yul\":6146:6147   */\n      dup3\n        /* \"#utility.yul\":6143:6144   */\n      dup3\n        /* \"#utility.yul\":6139:6148   */\n      add\n        /* \"#utility.yul\":6132:6148   */\n      swap1\n      pop\n        /* \"#utility.yul\":6167:6170   */\n      dup1\n        /* \"#utility.yul\":6164:6165   */\n      dup3\n        /* \"#utility.yul\":6161:6171   */\n      gt\n        /* \"#utility.yul\":6158:6194   */\n      iszero\n      tag_136\n      jumpi\n        /* \"#utility.yul\":6174:6192   */\n      tag_137\n      tag_61\n      jump\t// in\n    tag_137:\n        /* \"#utility.yul\":6158:6194   */\n    tag_136:\n        /* \"#utility.yul\":6010:6201   */\n      swap3\n      swap2\n      pop\n      pop\n      jump\t// out\n\n    auxdata: 0xa26469706673582212203acef4c111b3bfcf82773c20ce5d48cacec58f2acdd128cfca8b3b5f6d37ac8364736f6c63430008120033\n}\n",
				"bytecode": {
					"linkReferences": {},
					"object": "6080604052336000806101000a81548173ffffffffffffffffffffffffffffffffffffffff021916908373ffffffffffffffffffffffffffffffffffffffff16021790555034801561005057600080fd5b506107ac806100606000396000f3fe6080604052600436106100345760003560e01c806334bbe17a146100395780635a043c4414610062578063689c043c14610092575b600080fd5b34801561004557600080fd5b50610060600480360381019061005b9190610588565b6100cf565b005b61007c600480360381019061007791906105e4565b610225565b604051610089919061063c565b60405180910390f35b34801561009e57600080fd5b506100b960048036038101906100b491906105e4565b61031a565b6040516100c6919061063c565b60405180910390f35b3373ffffffffffffffffffffffffffffffffffffffff1660008054906101000a900473ffffffffffffffffffffffffffffffffffffffff1673ffffffffffffffffffffffffffffffffffffffff161461012757600080fd5b80600160008060009054906101000a900473ffffffffffffffffffffffffffffffffffffffff1673ffffffffffffffffffffffffffffffffffffffff1673ffffffffffffffffffffffffffffffffffffffff1681526020019081526020016000208360405161019691906106c8565b908152602001604051809103902060008282546101b3919061070e565b9250508190555060008054906101000a900473ffffffffffffffffffffffffffffffffffffffff1673ffffffffffffffffffffffffffffffffffffffff166108fc829081150290604051600060405180830381858888f19350505050158015610220573d6000803e3d6000fd5b505050565b60003373ffffffffffffffffffffffffffffffffffffffff1660008054906101000a900473ffffffffffffffffffffffffffffffffffffffff1673ffffffffffffffffffffffffffffffffffffffff161461027f57600080fd5b34600160008060009054906101000a900473ffffffffffffffffffffffffffffffffffffffff1673ffffffffffffffffffffffffffffffffffffffff1673ffffffffffffffffffffffffffffffffffffffff168152602001908152602001600020836040516102ee91906106c8565b9081526020016040518091039020600082825461030b9190610742565b92505081905550349050919050565b60003373ffffffffffffffffffffffffffffffffffffffff1660008054906101000a900473ffffffffffffffffffffffffffffffffffffffff1673ffffffffffffffffffffffffffffffffffffffff161461037457600080fd5b600160008060009054906101000a900473ffffffffffffffffffffffffffffffffffffffff1673ffffffffffffffffffffffffffffffffffffffff1673ffffffffffffffffffffffffffffffffffffffff168152602001908152602001600020826040516103e291906106c8565b9081526020016040518091039020549050919050565b6000604051905090565b600080fd5b600080fd5b600080fd5b600080fd5b6000601f19601f8301169050919050565b7f4e487b7100000000000000000000000000000000000000000000000000000000600052604160045260246000fd5b61045f82610416565b810181811067ffffffffffffffff8211171561047e5761047d610427565b5b80604052505050565b60006104916103f8565b905061049d8282610456565b919050565b600067ffffffffffffffff8211156104bd576104bc610427565b5b6104c682610416565b9050602081019050919050565b82818337600083830152505050565b60006104f56104f0846104a2565b610487565b90508281526020810184848401111561051157610510610411565b5b61051c8482856104d3565b509392505050565b600082601f8301126105395761053861040c565b5b81356105498482602086016104e2565b91505092915050565b6000819050919050565b61056581610552565b811461057057600080fd5b50565b6000813590506105828161055c565b92915050565b6000806040838503121561059f5761059e610402565b5b600083013567ffffffffffffffff8111156105bd576105bc610407565b5b6105c985828601610524565b92505060206105da85828601610573565b9150509250929050565b6000602082840312156105fa576105f9610402565b5b600082013567ffffffffffffffff81111561061857610617610407565b5b61062484828501610524565b91505092915050565b61063681610552565b82525050565b6000602082019050610651600083018461062d565b92915050565b600081519050919050565b600081905092915050565b60005b8381101561068b578082015181840152602081019050610670565b60008484015250505050565b60006106a282610657565b6106ac8185610662565b93506106bc81856020860161066d565b80840191505092915050565b60006106d48284610697565b915081905092915050565b7f4e487b7100000000000000000000000000000000000000000000000000000000600052601160045260246000fd5b600061071982610552565b915061072483610552565b925082820390508181111561073c5761073b6106df565b5b92915050565b600061074d82610552565b915061075883610552565b92508282019050808211156107705761076f6106df565b5b9291505056fea26469706673582212203acef4c111b3bfcf82773c20ce5d48cacec58f2acdd128cfca8b3b5f6d37ac8364736f6c63430008120033",
					"opcodes": "PUSH1 0x80 PUSH1 0x40 MSTORE CALLER PUSH1 0x0 DUP1 PUSH2 0x100 EXP DUP2 SLOAD DUP2 PUSH20 0xFFFFFFFFFFFFFFFFFFFFFFFFFFFFFFFFFFFFFFFF MUL NOT AND SWAP1 DUP4 PUSH20 0xFFFFFFFFFFFFFFFFFFFFFFFFFFFFFFFFFFFFFFFF AND MUL OR SWAP1 SSTORE POP CALLVALUE DUP1 ISZERO PUSH2 0x50 JUMPI PUSH1 0x0 DUP1 REVERT JUMPDEST POP PUSH2 0x7AC DUP1 PUSH2 0x60 PUSH1 0x0 CODECOPY PUSH1 0x0 RETURN INVALID PUSH1 0x80 PUSH1 0x40 MSTORE PUSH1 0x4 CALLDATASIZE LT PUSH2 0x34 JUMPI PUSH1 0x0 CALLDATALOAD PUSH1 0xE0 SHR DUP1 PUSH4 0x34BBE17A EQ PUSH2 0x39 JUMPI DUP1 PUSH4 0x5A043C44 EQ PUSH2 0x62 JUMPI DUP1 PUSH4 0x689C043C EQ PUSH2 0x92 JUMPI JUMPDEST PUSH1 0x0 DUP1 REVERT JUMPDEST CALLVALUE DUP1 ISZERO PUSH2 0x45 JUMPI PUSH1 0x0 DUP1 REVERT JUMPDEST POP PUSH2 0x60 PUSH1 0x4 DUP1 CALLDATASIZE SUB DUP2 ADD SWAP1 PUSH2 0x5B SWAP2 SWAP1 PUSH2 0x588 JUMP JUMPDEST PUSH2 0xCF JUMP JUMPDEST STOP JUMPDEST PUSH2 0x7C PUSH1 0x4 DUP1 CALLDATASIZE SUB DUP2 ADD SWAP1 PUSH2 0x77 SWAP2 SWAP1 PUSH2 0x5E4 JUMP JUMPDEST PUSH2 0x225 JUMP JUMPDEST PUSH1 0x40 MLOAD PUSH2 0x89 SWAP2 SWAP1 PUSH2 0x63C JUMP JUMPDEST PUSH1 0x40 MLOAD DUP1 SWAP2 SUB SWAP1 RETURN JUMPDEST CALLVALUE DUP1 ISZERO PUSH2 0x9E JUMPI PUSH1 0x0 DUP1 REVERT JUMPDEST POP PUSH2 0xB9 PUSH1 0x4 DUP1 CALLDATASIZE SUB DUP2 ADD SWAP1 PUSH2 0xB4 SWAP2 SWAP1 PUSH2 0x5E4 JUMP JUMPDEST PUSH2 0x31A JUMP JUMPDEST PUSH1 0x40 MLOAD PUSH2 0xC6 SWAP2 SWAP1 PUSH2 0x63C JUMP JUMPDEST PUSH1 0x40 MLOAD DUP1 SWAP2 SUB SWAP1 RETURN JUMPDEST CALLER PUSH20 0xFFFFFFFFFFFFFFFFFFFFFFFFFFFFFFFFFFFFFFFF AND PUSH1 0x0 DUP1 SLOAD SWAP1 PUSH2 0x100 EXP SWAP1 DIV PUSH20 0xFFFFFFFFFFFFFFFFFFFFFFFFFFFFFFFFFFFFFFFF AND PUSH20 0xFFFFFFFFFFFFFFFFFFFFFFFFFFFFFFFFFFFFFFFF AND EQ PUSH2 0x127 JUMPI PUSH1 0x0 DUP1 REVERT JUMPDEST DUP1 PUSH1 0x1 PUSH1 0x0 DUP1 PUSH1 0x0 SWAP1 SLOAD SWAP1 PUSH2 0x100 EXP SWAP1 DIV PUSH20 0xFFFFFFFFFFFFFFFFFFFFFFFFFFFFFFFFFFFFFFFF AND PUSH20 0xFFFFFFFFFFFFFFFFFFFFFFFFFFFFFFFFFFFFFFFF AND PUSH20 0xFFFFFFFFFFFFFFFFFFFFFFFFFFFFFFFFFFFFFFFF AND DUP2 MSTORE PUSH1 0x20 ADD SWAP1 DUP2 MSTORE PUSH1 0x20 ADD PUSH1 0x0 KECCAK256 DUP4 PUSH1 0x40 MLOAD PUSH2 0x196 SWAP2 SWAP1 PUSH2 0x6C8 JUMP JUMPDEST SWAP1 DUP2 MSTORE PUSH1 0x20 ADD PUSH1 0x40 MLOAD DUP1 SWAP2 SUB SWAP1 KECCAK256 PUSH1 0x0 DUP3 DUP3 SLOAD PUSH2 0x1B3 SWAP2 SWAP1 PUSH2 0x70E JUMP JUMPDEST SWAP3 POP POP DUP2 SWAP1 SSTORE POP PUSH1 0x0 DUP1 SLOAD SWAP1 PUSH2 0x100 EXP SWAP1 DIV PUSH20 0xFFFFFFFFFFFFFFFFFFFFFFFFFFFFFFFFFFFFFFFF AND PUSH20 0xFFFFFFFFFFFFFFFFFFFFFFFFFFFFFFFFFFFFFFFF AND PUSH2 0x8FC DUP3 SWAP1 DUP2 ISZERO MUL SWAP1 PUSH1 0x40 MLOAD PUSH1 0x0 PUSH1 0x40 MLOAD DUP1 DUP4 SUB DUP2 DUP6 DUP9 DUP9 CALL SWAP4 POP POP POP POP ISZERO DUP1 ISZERO PUSH2 0x220 JUMPI RETURNDATASIZE PUSH1 0x0 DUP1 RETURNDATACOPY RETURNDATASIZE PUSH1 0x0 REVERT JUMPDEST POP POP POP JUMP JUMPDEST PUSH1 0x0 CALLER PUSH20 0xFFFFFFFFFFFFFFFFFFFFFFFFFFFFFFFFFFFFFFFF AND PUSH1 0x0 DUP1 SLOAD SWAP1 PUSH2 0x100 EXP SWAP1 DIV PUSH20 0xFFFFFFFFFFFFFFFFFFFFFFFFFFFFFFFFFFFFFFFF AND PUSH20 0xFFFFFFFFFFFFFFFFFFFFFFFFFFFFFFFFFFFFFFFF AND EQ PUSH2 0x27F JUMPI PUSH1 0x0 DUP1 REVERT JUMPDEST CALLVALUE PUSH1 0x1 PUSH1 0x0 DUP1 PUSH1 0x0 SWAP1 SLOAD SWAP1 PUSH2 0x100 EXP SWAP1 DIV PUSH20 0xFFFFFFFFFFFFFFFFFFFFFFFFFFFFFFFFFFFFFFFF AND PUSH20 0xFFFFFFFFFFFFFFFFFFFFFFFFFFFFFFFFFFFFFFFF AND PUSH20 0xFFFFFFFFFFFFFFFFFFFFFFFFFFFFFFFFFFFFFFFF AND DUP2 MSTORE PUSH1 0x20 ADD SWAP1 DUP2 MSTORE PUSH1 0x20 ADD PUSH1 0x0 KECCAK256 DUP4 PUSH1 0x40 MLOAD PUSH2 0x2EE SWAP2 SWAP1 PUSH2 0x6C8 JUMP JUMPDEST SWAP1 DUP2 MSTORE PUSH1 0x20 ADD PUSH1 0x40 MLOAD DUP1 SWAP2 SUB SWAP1 KECCAK256 PUSH1 0x0 DUP3 DUP3 SLOAD PUSH2 0x30B SWAP2 SWAP1 PUSH2 0x742 JUMP JUMPDEST SWAP3 POP POP DUP2 SWAP1 SSTORE POP CALLVALUE SWAP1 POP SWAP2 SWAP1 POP JUMP JUMPDEST PUSH1 0x0 CALLER PUSH20 0xFFFFFFFFFFFFFFFFFFFFFFFFFFFFFFFFFFFFFFFF AND PUSH1 0x0 DUP1 SLOAD SWAP1 PUSH2 0x100 EXP SWAP1 DIV PUSH20 0xFFFFFFFFFFFFFFFFFFFFFFFFFFFFFFFFFFFFFFFF AND PUSH20 0xFFFFFFFFFFFFFFFFFFFFFFFFFFFFFFFFFFFFFFFF AND EQ PUSH2 0x374 JUMPI PUSH1 0x0 DUP1 REVERT JUMPDEST PUSH1 0x1 PUSH1 0x0 DUP1 PUSH1 0x0 SWAP1 SLOAD SWAP1 PUSH2 0x100 EXP SWAP1 DIV PUSH20 0xFFFFFFFFFFFFFFFFFFFFFFFFFFFFFFFFFFFFFFFF AND PUSH20 0xFFFFFFFFFFFFFFFFFFFFFFFFFFFFFFFFFFFFFFFF AND PUSH20 0xFFFFFFFFFFFFFFFFFFFFFFFFFFFFFFFFFFFFFFFF AND DUP2 MSTORE PUSH1 0x20 ADD SWAP1 DUP2 MSTORE PUSH1 0x20 ADD PUSH1 0x0 KECCAK256 DUP3 PUSH1 0x40 MLOAD PUSH2 0x3E2 SWAP2 SWAP1 PUSH2 0x6C8 JUMP JUMPDEST SWAP1 DUP2 MSTORE PUSH1 0x20 ADD PUSH1 0x40 MLOAD DUP1 SWAP2 SUB SWAP1 KECCAK256 SLOAD SWAP1 POP SWAP2 SWAP1 POP JUMP JUMPDEST PUSH1 0x0 PUSH1 0x40 MLOAD SWAP1 POP SWAP1 JUMP JUMPDEST PUSH1 0x0 DUP1 REVERT JUMPDEST PUSH1 0x0 DUP1 REVERT JUMPDEST PUSH1 0x0 DUP1 REVERT JUMPDEST PUSH1 0x0 DUP1 REVERT JUMPDEST PUSH1 0x0 PUSH1 0x1F NOT PUSH1 0x1F DUP4 ADD AND SWAP1 POP SWAP2 SWAP1 POP JUMP JUMPDEST PUSH32 0x4E487B7100000000000000000000000000000000000000000000000000000000 PUSH1 0x0 MSTORE PUSH1 0x41 PUSH1 0x4 MSTORE PUSH1 0x24 PUSH1 0x0 REVERT JUMPDEST PUSH2 0x45F DUP3 PUSH2 0x416 JUMP JUMPDEST DUP2 ADD DUP2 DUP2 LT PUSH8 0xFFFFFFFFFFFFFFFF DUP3 GT OR ISZERO PUSH2 0x47E JUMPI PUSH2 0x47D PUSH2 0x427 JUMP JUMPDEST JUMPDEST DUP1 PUSH1 0x40 MSTORE POP POP POP JUMP JUMPDEST PUSH1 0x0 PUSH2 0x491 PUSH2 0x3F8 JUMP JUMPDEST SWAP1 POP PUSH2 0x49D DUP3 DUP3 PUSH2 0x456 JUMP JUMPDEST SWAP2 SWAP1 POP JUMP JUMPDEST PUSH1 0x0 PUSH8 0xFFFFFFFFFFFFFFFF DUP3 GT ISZERO PUSH2 0x4BD JUMPI PUSH2 0x4BC PUSH2 0x427 JUMP JUMPDEST JUMPDEST PUSH2 0x4C6 DUP3 PUSH2 0x416 JUMP JUMPDEST SWAP1 POP PUSH1 0x20 DUP2 ADD SWAP1 POP SWAP2 SWAP1 POP JUMP JUMPDEST DUP3 DUP2 DUP4 CALLDATACOPY PUSH1 0x0 DUP4 DUP4 ADD MSTORE POP POP POP JUMP JUMPDEST PUSH1 0x0 PUSH2 0x4F5 PUSH2 0x4F0 DUP5 PUSH2 0x4A2 JUMP JUMPDEST PUSH2 0x487 JUMP JUMPDEST SWAP1 POP DUP3 DUP2 MSTORE PUSH1 0x20 DUP2 ADD DUP5 DUP5 DUP5 ADD GT ISZERO PUSH2 0x511 JUMPI PUSH2 0x510 PUSH2 0x411 JUMP JUMPDEST JUMPDEST PUSH2 0x51C DUP5 DUP3 DUP6 PUSH2 0x4D3 JUMP JUMPDEST POP SWAP4 SWAP3 POP POP POP JUMP JUMPDEST PUSH1 0x0 DUP3 PUSH1 0x1F DUP4 ADD SLT PUSH2 0x539 JUMPI PUSH2 0x538 PUSH2 0x40C JUMP JUMPDEST JUMPDEST DUP2 CALLDATALOAD PUSH2 0x549 DUP5 DUP3 PUSH1 0x20 DUP7 ADD PUSH2 0x4E2 JUMP JUMPDEST SWAP2 POP POP SWAP3 SWAP2 POP POP JUMP JUMPDEST PUSH1 0x0 DUP2 SWAP1 POP SWAP2 SWAP1 POP JUMP JUMPDEST PUSH2 0x565 DUP2 PUSH2 0x552 JUMP JUMPDEST DUP2 EQ PUSH2 0x570 JUMPI PUSH1 0x0 DUP1 REVERT JUMPDEST POP JUMP JUMPDEST PUSH1 0x0 DUP2 CALLDATALOAD SWAP1 POP PUSH2 0x582 DUP2 PUSH2 0x55C JUMP JUMPDEST SWAP3 SWAP2 POP POP JUMP JUMPDEST PUSH1 0x0 DUP1 PUSH1 0x40 DUP4 DUP6 SUB SLT ISZERO PUSH2 0x59F JUMPI PUSH2 0x59E PUSH2 0x402 JUMP JUMPDEST JUMPDEST PUSH1 0x0 DUP4 ADD CALLDATALOAD PUSH8 0xFFFFFFFFFFFFFFFF DUP2 GT ISZERO PUSH2 0x5BD JUMPI PUSH2 0x5BC PUSH2 0x407 JUMP JUMPDEST JUMPDEST PUSH2 0x5C9 DUP6 DUP3 DUP7 ADD PUSH2 0x524 JUMP JUMPDEST SWAP3 POP POP PUSH1 0x20 PUSH2 0x5DA DUP6 DUP3 DUP7 ADD PUSH2 0x573 JUMP JUMPDEST SWAP2 POP POP SWAP3 POP SWAP3 SWAP1 POP JUMP JUMPDEST PUSH1 0x0 PUSH1 0x20 DUP3 DUP5 SUB SLT ISZERO PUSH2 0x5FA JUMPI PUSH2 0x5F9 PUSH2 0x402 JUMP JUMPDEST JUMPDEST PUSH1 0x0 DUP3 ADD CALLDATALOAD PUSH8 0xFFFFFFFFFFFFFFFF DUP2 GT ISZERO PUSH2 0x618 JUMPI PUSH2 0x617 PUSH2 0x407 JUMP JUMPDEST JUMPDEST PUSH2 0x624 DUP5 DUP3 DUP6 ADD PUSH2 0x524 JUMP JUMPDEST SWAP2 POP POP SWAP3 SWAP2 POP POP JUMP JUMPDEST PUSH2 0x636 DUP2 PUSH2 0x552 JUMP JUMPDEST DUP3 MSTORE POP POP JUMP JUMPDEST PUSH1 0x0 PUSH1 0x20 DUP3 ADD SWAP1 POP PUSH2 0x651 PUSH1 0x0 DUP4 ADD DUP5 PUSH2 0x62D JUMP JUMPDEST SWAP3 SWAP2 POP POP JUMP JUMPDEST PUSH1 0x0 DUP2 MLOAD SWAP1 POP SWAP2 SWAP1 POP JUMP JUMPDEST PUSH1 0x0 DUP2 SWAP1 POP SWAP3 SWAP2 POP POP JUMP JUMPDEST PUSH1 0x0 JUMPDEST DUP4 DUP2 LT ISZERO PUSH2 0x68B JUMPI DUP1 DUP3 ADD MLOAD DUP2 DUP5 ADD MSTORE PUSH1 0x20 DUP2 ADD SWAP1 POP PUSH2 0x670 JUMP JUMPDEST PUSH1 0x0 DUP5 DUP5 ADD MSTORE POP POP POP POP JUMP JUMPDEST PUSH1 0x0 PUSH2 0x6A2 DUP3 PUSH2 0x657 JUMP JUMPDEST PUSH2 0x6AC DUP2 DUP6 PUSH2 0x662 JUMP JUMPDEST SWAP4 POP PUSH2 0x6BC DUP2 DUP6 PUSH1 0x20 DUP7 ADD PUSH2 0x66D JUMP JUMPDEST DUP1 DUP5 ADD SWAP2 POP POP SWAP3 SWAP2 POP POP JUMP JUMPDEST PUSH1 0x0 PUSH2 0x6D4 DUP3 DUP5 PUSH2 0x697 JUMP JUMPDEST SWAP2 POP DUP2 SWAP1 POP SWAP3 SWAP2 POP POP JUMP JUMPDEST PUSH32 0x4E487B7100000000000000000000000000000000000000000000000000000000 PUSH1 0x0 MSTORE PUSH1 0x11 PUSH1 0x4 MSTORE PUSH1 0x24 PUSH1 0x0 REVERT JUMPDEST PUSH1 0x0 PUSH2 0x719 DUP3 PUSH2 0x552 JUMP JUMPDEST SWAP2 POP PUSH2 0x724 DUP4 PUSH2 0x552 JUMP JUMPDEST SWAP3 POP DUP3 DUP3 SUB SWAP1 POP DUP2 DUP2 GT ISZERO PUSH2 0x73C JUMPI PUSH2 0x73B PUSH2 0x6DF JUMP JUMPDEST JUMPDEST SWAP3 SWAP2 POP POP JUMP JUMPDEST PUSH1 0x0 PUSH2 0x74D DUP3 PUSH2 0x552 JUMP JUMPDEST SWAP2 POP PUSH2 0x758 DUP4 PUSH2 0x552 JUMP JUMPDEST SWAP3 POP DUP3 DUP3 ADD SWAP1 POP DUP1 DUP3 GT ISZERO PUSH2 0x770 JUMPI PUSH2 0x76F PUSH2 0x6DF JUMP JUMPDEST JUMPDEST SWAP3 SWAP2 POP POP JUMP INVALID LOG2 PUSH5 0x6970667358 0x22 SLT KECCAK256 GASPRICE 0xCE DELEGATECALL 0xC1 GT 0xB3 0xBF 0xCF DUP3 PUSH24 0x3C20CE5D48CACEC58F2ACDD128CFCA8B3B5F6D37AC836473 PUSH16 0x6C634300081200330000000000000000 "
				},
				"gasEstimates": {
					"creation": {
						"codeDepositCost": "392800",
						"executionCost": "24696",
						"totalCost": "417496"
					},
					"external": {
						"checkMoney(string)": "infinite",
						"getMoney(string,uint256)": "infinite",
						"putMoney(string)": "infinite"
					}
				},
				"methodIdentifiers": {
					"checkMoney(string)": "689c043c",
					"getMoney(string,uint256)": "34bbe17a",
					"putMoney(string)": "5a043c44"
				}
			},
			"storageLayout": {
				"storage": [
					{
						"astId": 161,
						"contract": "contracts/51_60.sol:Quiz53",
						"label": "owner",
						"offset": 0,
						"slot": "0",
						"type": "t_address"
					},
					{
						"astId": 167,
						"contract": "contracts/51_60.sol:Quiz53",
						"label": "Bank",
						"offset": 0,
						"slot": "1",
						"type": "t_mapping(t_address,t_mapping(t_string_memory_ptr,t_uint256))"
					}
				],
				"types": {
					"t_address": {
						"encoding": "inplace",
						"label": "address",
						"numberOfBytes": "20"
					},
					"t_mapping(t_address,t_mapping(t_string_memory_ptr,t_uint256))": {
						"encoding": "mapping",
						"key": "t_address",
						"label": "mapping(address => mapping(string => uint256))",
						"numberOfBytes": "32",
						"value": "t_mapping(t_string_memory_ptr,t_uint256)"
					},
					"t_mapping(t_string_memory_ptr,t_uint256)": {
						"encoding": "mapping",
						"key": "t_string_memory_ptr",
						"label": "mapping(string => uint256)",
						"numberOfBytes": "32",
						"value": "t_uint256"
					},
					"t_string_memory_ptr": {
						"encoding": "bytes",
						"label": "string",
						"numberOfBytes": "32"
					},
					"t_uint256": {
						"encoding": "inplace",
						"label": "uint256",
						"numberOfBytes": "32"
					}
				}
			},
			"userdoc": {
				"kind": "user",
				"methods": {},
				"version": 1
			}
		}
	}
}