{
	"contracts/21_30.sol": {
		"Quiz22": {
			"abi": [
				{
					"inputs": [
						{
							"internalType": "uint256",
							"name": "num1",
							"type": "uint256"
						},
						{
							"internalType": "uint256",
							"name": "num2",
							"type": "uint256"
						}
					],
					"name": "subtract",
					"outputs": [
						{
							"internalType": "uint256",
							"name": "",
							"type": "uint256"
						}
					],
					"stateMutability": "pure",
					"type": "function"
				}
			],
			"devdoc": {
				"kind": "dev",
				"methods": {},
				"version": 1
			},
			"evm": {
				"assembly": "    /* \"contracts/21_30.sol\":296:718  contract Quiz22 {... */\n  mstore(0x40, 0x80)\n  callvalue\n  dup1\n  iszero\n  tag_1\n  jumpi\n  0x00\n  dup1\n  revert\ntag_1:\n  pop\n  dataSize(sub_0)\n  dup1\n  dataOffset(sub_0)\n  0x00\n  codecopy\n  0x00\n  return\nstop\n\nsub_0: assembly {\n        /* \"contracts/21_30.sol\":296:718  contract Quiz22 {... */\n      mstore(0x40, 0x80)\n      callvalue\n      dup1\n      iszero\n      tag_1\n      jumpi\n      0x00\n      dup1\n      revert\n    tag_1:\n      pop\n      jumpi(tag_2, lt(calldatasize, 0x04))\n      shr(0xe0, calldataload(0x00))\n      dup1\n      0x3ef5e445\n      eq\n      tag_3\n      jumpi\n    tag_2:\n      0x00\n      dup1\n      revert\n        /* \"contracts/21_30.sol\":523:715  function subtract(uint num1, uint num2) public pure returns(uint) {... */\n    tag_3:\n      tag_4\n      0x04\n      dup1\n      calldatasize\n      sub\n      dup2\n      add\n      swap1\n      tag_5\n      swap2\n      swap1\n      tag_6\n      jump\t// in\n    tag_5:\n      tag_7\n      jump\t// in\n    tag_4:\n      mload(0x40)\n      tag_8\n      swap2\n      swap1\n      tag_9\n      jump\t// in\n    tag_8:\n      mload(0x40)\n      dup1\n      swap2\n      sub\n      swap1\n      return\n    tag_7:\n        /* \"contracts/21_30.sol\":583:587  uint */\n      0x00\n        /* \"contracts/21_30.sol\":610:614  num2 */\n      dup2\n        /* \"contracts/21_30.sol\":603:607  num1 */\n      dup4\n        /* \"contracts/21_30.sol\":603:614  num1 > num2 */\n      gt\n        /* \"contracts/21_30.sol\":600:708  if(num1 > num2) {... */\n      iszero\n      tag_11\n      jumpi\n        /* \"contracts/21_30.sol\":643:647  num2 */\n      dup2\n        /* \"contracts/21_30.sol\":638:642  num1 */\n      dup4\n        /* \"contracts/21_30.sol\":638:647  num1-num2 */\n      tag_12\n      swap2\n      swap1\n      tag_13\n      jump\t// in\n    tag_12:\n        /* \"contracts/21_30.sol\":631:647  return num1-num2 */\n      swap1\n      pop\n      jump(tag_10)\n        /* \"contracts/21_30.sol\":600:708  if(num1 > num2) {... */\n    tag_11:\n        /* \"contracts/21_30.sol\":692:696  num1 */\n      dup3\n        /* \"contracts/21_30.sol\":687:691  num2 */\n      dup3\n        /* \"contracts/21_30.sol\":687:696  num2-num1 */\n      tag_15\n      swap2\n      swap1\n      tag_13\n      jump\t// in\n    tag_15:\n        /* \"contracts/21_30.sol\":680:696  return num2-num1 */\n      swap1\n      pop\n        /* \"contracts/21_30.sol\":523:715  function subtract(uint num1, uint num2) public pure returns(uint) {... */\n    tag_10:\n      swap3\n      swap2\n      pop\n      pop\n      jump\t// out\n        /* \"#utility.yul\":88:205   */\n    tag_17:\n        /* \"#utility.yul\":197:198   */\n      0x00\n        /* \"#utility.yul\":194:195   */\n      dup1\n        /* \"#utility.yul\":187:199   */\n      revert\n        /* \"#utility.yul\":334:411   */\n    tag_19:\n        /* \"#utility.yul\":371:378   */\n      0x00\n        /* \"#utility.yul\":400:405   */\n      dup2\n        /* \"#utility.yul\":389:405   */\n      swap1\n      pop\n        /* \"#utility.yul\":334:411   */\n      swap2\n      swap1\n      pop\n      jump\t// out\n        /* \"#utility.yul\":417:539   */\n    tag_20:\n        /* \"#utility.yul\":490:514   */\n      tag_30\n        /* \"#utility.yul\":508:513   */\n      dup2\n        /* \"#utility.yul\":490:514   */\n      tag_19\n      jump\t// in\n    tag_30:\n        /* \"#utility.yul\":483:488   */\n      dup2\n        /* \"#utility.yul\":480:515   */\n      eq\n        /* \"#utility.yul\":470:533   */\n      tag_31\n      jumpi\n        /* \"#utility.yul\":529:530   */\n      0x00\n        /* \"#utility.yul\":526:527   */\n      dup1\n        /* \"#utility.yul\":519:531   */\n      revert\n        /* \"#utility.yul\":470:533   */\n    tag_31:\n        /* \"#utility.yul\":417:539   */\n      pop\n      jump\t// out\n        /* \"#utility.yul\":545:684   */\n    tag_21:\n        /* \"#utility.yul\":591:596   */\n      0x00\n        /* \"#utility.yul\":629:635   */\n      dup2\n        /* \"#utility.yul\":616:636   */\n      calldataload\n        /* \"#utility.yul\":607:636   */\n      swap1\n      pop\n        /* \"#utility.yul\":645:678   */\n      tag_33\n        /* \"#utility.yul\":672:677   */\n      dup2\n        /* \"#utility.yul\":645:678   */\n      tag_20\n      jump\t// in\n    tag_33:\n        /* \"#utility.yul\":545:684   */\n      swap3\n      swap2\n      pop\n      pop\n      jump\t// out\n        /* \"#utility.yul\":690:1164   */\n    tag_6:\n        /* \"#utility.yul\":758:764   */\n      0x00\n        /* \"#utility.yul\":766:772   */\n      dup1\n        /* \"#utility.yul\":815:817   */\n      0x40\n        /* \"#utility.yul\":803:812   */\n      dup4\n        /* \"#utility.yul\":794:801   */\n      dup6\n        /* \"#utility.yul\":790:813   */\n      sub\n        /* \"#utility.yul\":786:818   */\n      slt\n        /* \"#utility.yul\":783:902   */\n      iszero\n      tag_35\n      jumpi\n        /* \"#utility.yul\":821:900   */\n      tag_36\n      tag_17\n      jump\t// in\n    tag_36:\n        /* \"#utility.yul\":783:902   */\n    tag_35:\n        /* \"#utility.yul\":941:942   */\n      0x00\n        /* \"#utility.yul\":966:1019   */\n      tag_37\n        /* \"#utility.yul\":1011:1018   */\n      dup6\n        /* \"#utility.yul\":1002:1008   */\n      dup3\n        /* \"#utility.yul\":991:1000   */\n      dup7\n        /* \"#utility.yul\":987:1009   */\n      add\n        /* \"#utility.yul\":966:1019   */\n      tag_21\n      jump\t// in\n    tag_37:\n        /* \"#utility.yul\":956:1019   */\n      swap3\n      pop\n        /* \"#utility.yul\":912:1029   */\n      pop\n        /* \"#utility.yul\":1068:1070   */\n      0x20\n        /* \"#utility.yul\":1094:1147   */\n      tag_38\n        /* \"#utility.yul\":1139:1146   */\n      dup6\n        /* \"#utility.yul\":1130:1136   */\n      dup3\n        /* \"#utility.yul\":1119:1128   */\n      dup7\n        /* \"#utility.yul\":1115:1137   */\n      add\n        /* \"#utility.yul\":1094:1147   */\n      tag_21\n      jump\t// in\n    tag_38:\n        /* \"#utility.yul\":1084:1147   */\n      swap2\n      pop\n        /* \"#utility.yul\":1039:1157   */\n      pop\n        /* \"#utility.yul\":690:1164   */\n      swap3\n      pop\n      swap3\n      swap1\n      pop\n      jump\t// out\n        /* \"#utility.yul\":1170:1288   */\n    tag_22:\n        /* \"#utility.yul\":1257:1281   */\n      tag_40\n        /* \"#utility.yul\":1275:1280   */\n      dup2\n        /* \"#utility.yul\":1257:1281   */\n      tag_19\n      jump\t// in\n    tag_40:\n        /* \"#utility.yul\":1252:1255   */\n      dup3\n        /* \"#utility.yul\":1245:1282   */\n      mstore\n        /* \"#utility.yul\":1170:1288   */\n      pop\n      pop\n      jump\t// out\n        /* \"#utility.yul\":1294:1516   */\n    tag_9:\n        /* \"#utility.yul\":1387:1391   */\n      0x00\n        /* \"#utility.yul\":1425:1427   */\n      0x20\n        /* \"#utility.yul\":1414:1423   */\n      dup3\n        /* \"#utility.yul\":1410:1428   */\n      add\n        /* \"#utility.yul\":1402:1428   */\n      swap1\n      pop\n        /* \"#utility.yul\":1438:1509   */\n      tag_42\n        /* \"#utility.yul\":1506:1507   */\n      0x00\n        /* \"#utility.yul\":1495:1504   */\n      dup4\n        /* \"#utility.yul\":1491:1508   */\n      add\n        /* \"#utility.yul\":1482:1488   */\n      dup5\n        /* \"#utility.yul\":1438:1509   */\n      tag_22\n      jump\t// in\n    tag_42:\n        /* \"#utility.yul\":1294:1516   */\n      swap3\n      swap2\n      pop\n      pop\n      jump\t// out\n        /* \"#utility.yul\":1522:1702   */\n    tag_23:\n        /* \"#utility.yul\":1570:1647   */\n      0x4e487b7100000000000000000000000000000000000000000000000000000000\n        /* \"#utility.yul\":1567:1568   */\n      0x00\n        /* \"#utility.yul\":1560:1648   */\n      mstore\n        /* \"#utility.yul\":1667:1671   */\n      0x11\n        /* \"#utility.yul\":1664:1665   */\n      0x04\n        /* \"#utility.yul\":1657:1672   */\n      mstore\n        /* \"#utility.yul\":1691:1695   */\n      0x24\n        /* \"#utility.yul\":1688:1689   */\n      0x00\n        /* \"#utility.yul\":1681:1696   */\n      revert\n        /* \"#utility.yul\":1708:1902   */\n    tag_13:\n        /* \"#utility.yul\":1748:1752   */\n      0x00\n        /* \"#utility.yul\":1768:1788   */\n      tag_45\n        /* \"#utility.yul\":1786:1787   */\n      dup3\n        /* \"#utility.yul\":1768:1788   */\n      tag_19\n      jump\t// in\n    tag_45:\n        /* \"#utility.yul\":1763:1788   */\n      swap2\n      pop\n        /* \"#utility.yul\":1802:1822   */\n      tag_46\n        /* \"#utility.yul\":1820:1821   */\n      dup4\n        /* \"#utility.yul\":1802:1822   */\n      tag_19\n      jump\t// in\n    tag_46:\n        /* \"#utility.yul\":1797:1822   */\n      swap3\n      pop\n        /* \"#utility.yul\":1846:1847   */\n      dup3\n        /* \"#utility.yul\":1843:1844   */\n      dup3\n        /* \"#utility.yul\":1839:1848   */\n      sub\n        /* \"#utility.yul\":1831:1848   */\n      swap1\n      pop\n        /* \"#utility.yul\":1870:1871   */\n      dup2\n        /* \"#utility.yul\":1864:1868   */\n      dup2\n        /* \"#utility.yul\":1861:1872   */\n      gt\n        /* \"#utility.yul\":1858:1895   */\n      iszero\n      tag_47\n      jumpi\n        /* \"#utility.yul\":1875:1893   */\n      tag_48\n      tag_23\n      jump\t// in\n    tag_48:\n        /* \"#utility.yul\":1858:1895   */\n    tag_47:\n        /* \"#utility.yul\":1708:1902   */\n      swap3\n      swap2\n      pop\n      pop\n      jump\t// out\n\n    auxdata: 0xa2646970667358221220b7291560945d55682d7d95dce882819e4ed64dd1965a04ed0ec3bf83c030825164736f6c63430008120033\n}\n",
				"bytecode": {
					"linkReferences": {},
					"object": "608060405234801561001057600080fd5b506101d0806100206000396000f3fe608060405234801561001057600080fd5b506004361061002b5760003560e01c80633ef5e44514610030575b600080fd5b61004a600480360381019061004591906100cd565b610060565b604051610057919061011c565b60405180910390f35b60008183111561007d5781836100769190610166565b905061008c565b82826100899190610166565b90505b92915050565b600080fd5b6000819050919050565b6100aa81610097565b81146100b557600080fd5b50565b6000813590506100c7816100a1565b92915050565b600080604083850312156100e4576100e3610092565b5b60006100f2858286016100b8565b9250506020610103858286016100b8565b9150509250929050565b61011681610097565b82525050565b6000602082019050610131600083018461010d565b92915050565b7f4e487b7100000000000000000000000000000000000000000000000000000000600052601160045260246000fd5b600061017182610097565b915061017c83610097565b925082820390508181111561019457610193610137565b5b9291505056fea2646970667358221220b7291560945d55682d7d95dce882819e4ed64dd1965a04ed0ec3bf83c030825164736f6c63430008120033",
					"opcodes": "PUSH1 0x80 PUSH1 0x40 MSTORE CALLVALUE DUP1 ISZERO PUSH2 0x10 JUMPI PUSH1 0x0 DUP1 REVERT JUMPDEST POP PUSH2 0x1D0 DUP1 PUSH2 0x20 PUSH1 0x0 CODECOPY PUSH1 0x0 RETURN INVALID PUSH1 0x80 PUSH1 0x40 MSTORE CALLVALUE DUP1 ISZERO PUSH2 0x10 JUMPI PUSH1 0x0 DUP1 REVERT JUMPDEST POP PUSH1 0x4 CALLDATASIZE LT PUSH2 0x2B JUMPI PUSH1 0x0 CALLDATALOAD PUSH1 0xE0 SHR DUP1 PUSH4 0x3EF5E445 EQ PUSH2 0x30 JUMPI JUMPDEST PUSH1 0x0 DUP1 REVERT JUMPDEST PUSH2 0x4A PUSH1 0x4 DUP1 CALLDATASIZE SUB DUP2 ADD SWAP1 PUSH2 0x45 SWAP2 SWAP1 PUSH2 0xCD JUMP JUMPDEST PUSH2 0x60 JUMP JUMPDEST PUSH1 0x40 MLOAD PUSH2 0x57 SWAP2 SWAP1 PUSH2 0x11C JUMP JUMPDEST PUSH1 0x40 MLOAD DUP1 SWAP2 SUB SWAP1 RETURN JUMPDEST PUSH1 0x0 DUP2 DUP4 GT ISZERO PUSH2 0x7D JUMPI DUP2 DUP4 PUSH2 0x76 SWAP2 SWAP1 PUSH2 0x166 JUMP JUMPDEST SWAP1 POP PUSH2 0x8C JUMP JUMPDEST DUP3 DUP3 PUSH2 0x89 SWAP2 SWAP1 PUSH2 0x166 JUMP JUMPDEST SWAP1 POP JUMPDEST SWAP3 SWAP2 POP POP JUMP JUMPDEST PUSH1 0x0 DUP1 REVERT JUMPDEST PUSH1 0x0 DUP2 SWAP1 POP SWAP2 SWAP1 POP JUMP JUMPDEST PUSH2 0xAA DUP2 PUSH2 0x97 JUMP JUMPDEST DUP2 EQ PUSH2 0xB5 JUMPI PUSH1 0x0 DUP1 REVERT JUMPDEST POP JUMP JUMPDEST PUSH1 0x0 DUP2 CALLDATALOAD SWAP1 POP PUSH2 0xC7 DUP2 PUSH2 0xA1 JUMP JUMPDEST SWAP3 SWAP2 POP POP JUMP JUMPDEST PUSH1 0x0 DUP1 PUSH1 0x40 DUP4 DUP6 SUB SLT ISZERO PUSH2 0xE4 JUMPI PUSH2 0xE3 PUSH2 0x92 JUMP JUMPDEST JUMPDEST PUSH1 0x0 PUSH2 0xF2 DUP6 DUP3 DUP7 ADD PUSH2 0xB8 JUMP JUMPDEST SWAP3 POP POP PUSH1 0x20 PUSH2 0x103 DUP6 DUP3 DUP7 ADD PUSH2 0xB8 JUMP JUMPDEST SWAP2 POP POP SWAP3 POP SWAP3 SWAP1 POP JUMP JUMPDEST PUSH2 0x116 DUP2 PUSH2 0x97 JUMP JUMPDEST DUP3 MSTORE POP POP JUMP JUMPDEST PUSH1 0x0 PUSH1 0x20 DUP3 ADD SWAP1 POP PUSH2 0x131 PUSH1 0x0 DUP4 ADD DUP5 PUSH2 0x10D JUMP JUMPDEST SWAP3 SWAP2 POP POP JUMP JUMPDEST PUSH32 0x4E487B7100000000000000000000000000000000000000000000000000000000 PUSH1 0x0 MSTORE PUSH1 0x11 PUSH1 0x4 MSTORE PUSH1 0x24 PUSH1 0x0 REVERT JUMPDEST PUSH1 0x0 PUSH2 0x171 DUP3 PUSH2 0x97 JUMP JUMPDEST SWAP2 POP PUSH2 0x17C DUP4 PUSH2 0x97 JUMP JUMPDEST SWAP3 POP DUP3 DUP3 SUB SWAP1 POP DUP2 DUP2 GT ISZERO PUSH2 0x194 JUMPI PUSH2 0x193 PUSH2 0x137 JUMP JUMPDEST JUMPDEST SWAP3 SWAP2 POP POP JUMP INVALID LOG2 PUSH5 0x6970667358 0x22 SLT KECCAK256 0xB7 0x29 ISZERO PUSH1 0x94 0x5D SSTORE PUSH9 0x2D7D95DCE882819E4E 0xD6 0x4D 0xD1 SWAP7 GAS DIV 0xED 0xE 0xC3 0xBF DUP4 0xC0 ADDRESS DUP3 MLOAD PUSH5 0x736F6C6343 STOP ADDMOD SLT STOP CALLER "
				},
				"gasEstimates": {
					"creation": {
						"codeDepositCost": "92800",
						"executionCost": "141",
						"totalCost": "92941"
					},
					"external": {
						"subtract(uint256,uint256)": "infinite"
					}
				},
				"methodIdentifiers": {
					"subtract(uint256,uint256)": "3ef5e445"
				}
			},
			"storageLayout": {
				"storage": [],
				"types": null
			},
			"userdoc": {
				"kind": "user",
				"methods": {},
				"version": 1
			}
		}
	}
}