{
	"data": {
		"bytecode": {
			"linkReferences": {},
			"object": "608060405234801561001057600080fd5b50610605806100206000396000f3fe608060405234801561001057600080fd5b506004361061002b5760003560e01c8063837a9bc214610030575b600080fd5b61004a600480360381019061004591906101f5565b610060565b6040516100579190610231565b60405180910390f35b60008082905060005b6000821461009357600a8261007e91906102aa565b9150808061008b906102db565b915050610069565b60008167ffffffffffffffff8111156100af576100ae610323565b5b6040519080825280602002602001820160405280156100dd5781602001602082028036833780820191505090505b50905084925060008290505b6000841461013d57600a846100fe9190610352565b828261010990610383565b9250828151811061011d5761011c6103ac565b5b602002602001018181525050600a8461013691906102aa565b93506100e9565b600080600090505b60038110156101ac5780600a61015b919061050e565b848661016690610383565b9650868151811061017a576101796103ac565b5b602002602001015161018c9190610559565b82610197919061059b565b915080806101a4906102db565b915050610145565b508095505050505050919050565b600080fd5b6000819050919050565b6101d2816101bf565b81146101dd57600080fd5b50565b6000813590506101ef816101c9565b92915050565b60006020828403121561020b5761020a6101ba565b5b6000610219848285016101e0565b91505092915050565b61022b816101bf565b82525050565b60006020820190506102466000830184610222565b92915050565b7f4e487b7100000000000000000000000000000000000000000000000000000000600052601260045260246000fd5b7f4e487b7100000000000000000000000000000000000000000000000000000000600052601160045260246000fd5b60006102b5826101bf565b91506102c0836101bf565b9250826102d0576102cf61024c565b5b828204905092915050565b60006102e6826101bf565b91507fffffffffffffffffffffffffffffffffffffffffffffffffffffffffffffffff82036103185761031761027b565b5b600182019050919050565b7f4e487b7100000000000000000000000000000000000000000000000000000000600052604160045260246000fd5b600061035d826101bf565b9150610368836101bf565b9250826103785761037761024c565b5b828206905092915050565b600061038e826101bf565b9150600082036103a1576103a061027b565b5b600182039050919050565b7f4e487b7100000000000000000000000000000000000000000000000000000000600052603260045260246000fd5b60008160011c9050919050565b6000808291508390505b60018511156104325780860481111561040e5761040d61027b565b5b600185161561041d5780820291505b808102905061042b856103db565b94506103f2565b94509492505050565b60008261044b5760019050610507565b816104595760009050610507565b816001811461046f5760028114610479576104a8565b6001915050610507565b60ff84111561048b5761048a61027b565b5b8360020a9150848211156104a2576104a161027b565b5b50610507565b5060208310610133831016604e8410600b84101617156104dd5782820a9050838111156104d8576104d761027b565b5b610507565b6104ea84848460016103e8565b925090508184048111156105015761050061027b565b5b81810290505b9392505050565b6000610519826101bf565b9150610524836101bf565b92506105517fffffffffffffffffffffffffffffffffffffffffffffffffffffffffffffffff848461043b565b905092915050565b6000610564826101bf565b915061056f836101bf565b925082820261057d816101bf565b915082820484148315176105945761059361027b565b5b5092915050565b60006105a6826101bf565b91506105b1836101bf565b92508282019050808211156105c9576105c861027b565b5b9291505056fea264697066735822122095da432e8664a23b2a269243fad909c0e2781281560ea26124277189e507e8d464736f6c63430008120033",
			"opcodes": "PUSH1 0x80 PUSH1 0x40 MSTORE CALLVALUE DUP1 ISZERO PUSH2 0x10 JUMPI PUSH1 0x0 DUP1 REVERT JUMPDEST POP PUSH2 0x605 DUP1 PUSH2 0x20 PUSH1 0x0 CODECOPY PUSH1 0x0 RETURN INVALID PUSH1 0x80 PUSH1 0x40 MSTORE CALLVALUE DUP1 ISZERO PUSH2 0x10 JUMPI PUSH1 0x0 DUP1 REVERT JUMPDEST POP PUSH1 0x4 CALLDATASIZE LT PUSH2 0x2B JUMPI PUSH1 0x0 CALLDATALOAD PUSH1 0xE0 SHR DUP1 PUSH4 0x837A9BC2 EQ PUSH2 0x30 JUMPI JUMPDEST PUSH1 0x0 DUP1 REVERT JUMPDEST PUSH2 0x4A PUSH1 0x4 DUP1 CALLDATASIZE SUB DUP2 ADD SWAP1 PUSH2 0x45 SWAP2 SWAP1 PUSH2 0x1F5 JUMP JUMPDEST PUSH2 0x60 JUMP JUMPDEST PUSH1 0x40 MLOAD PUSH2 0x57 SWAP2 SWAP1 PUSH2 0x231 JUMP JUMPDEST PUSH1 0x40 MLOAD DUP1 SWAP2 SUB SWAP1 RETURN JUMPDEST PUSH1 0x0 DUP1 DUP3 SWAP1 POP PUSH1 0x0 JUMPDEST PUSH1 0x0 DUP3 EQ PUSH2 0x93 JUMPI PUSH1 0xA DUP3 PUSH2 0x7E SWAP2 SWAP1 PUSH2 0x2AA JUMP JUMPDEST SWAP2 POP DUP1 DUP1 PUSH2 0x8B SWAP1 PUSH2 0x2DB JUMP JUMPDEST SWAP2 POP POP PUSH2 0x69 JUMP JUMPDEST PUSH1 0x0 DUP2 PUSH8 0xFFFFFFFFFFFFFFFF DUP2 GT ISZERO PUSH2 0xAF JUMPI PUSH2 0xAE PUSH2 0x323 JUMP JUMPDEST JUMPDEST PUSH1 0x40 MLOAD SWAP1 DUP1 DUP3 MSTORE DUP1 PUSH1 0x20 MUL PUSH1 0x20 ADD DUP3 ADD PUSH1 0x40 MSTORE DUP1 ISZERO PUSH2 0xDD JUMPI DUP2 PUSH1 0x20 ADD PUSH1 0x20 DUP3 MUL DUP1 CALLDATASIZE DUP4 CALLDATACOPY DUP1 DUP3 ADD SWAP2 POP POP SWAP1 POP JUMPDEST POP SWAP1 POP DUP5 SWAP3 POP PUSH1 0x0 DUP3 SWAP1 POP JUMPDEST PUSH1 0x0 DUP5 EQ PUSH2 0x13D JUMPI PUSH1 0xA DUP5 PUSH2 0xFE SWAP2 SWAP1 PUSH2 0x352 JUMP JUMPDEST DUP3 DUP3 PUSH2 0x109 SWAP1 PUSH2 0x383 JUMP JUMPDEST SWAP3 POP DUP3 DUP2 MLOAD DUP2 LT PUSH2 0x11D JUMPI PUSH2 0x11C PUSH2 0x3AC JUMP JUMPDEST JUMPDEST PUSH1 0x20 MUL PUSH1 0x20 ADD ADD DUP2 DUP2 MSTORE POP POP PUSH1 0xA DUP5 PUSH2 0x136 SWAP2 SWAP1 PUSH2 0x2AA JUMP JUMPDEST SWAP4 POP PUSH2 0xE9 JUMP JUMPDEST PUSH1 0x0 DUP1 PUSH1 0x0 SWAP1 POP JUMPDEST PUSH1 0x3 DUP2 LT ISZERO PUSH2 0x1AC JUMPI DUP1 PUSH1 0xA PUSH2 0x15B SWAP2 SWAP1 PUSH2 0x50E JUMP JUMPDEST DUP5 DUP7 PUSH2 0x166 SWAP1 PUSH2 0x383 JUMP JUMPDEST SWAP7 POP DUP7 DUP2 MLOAD DUP2 LT PUSH2 0x17A JUMPI PUSH2 0x179 PUSH2 0x3AC JUMP JUMPDEST JUMPDEST PUSH1 0x20 MUL PUSH1 0x20 ADD ADD MLOAD PUSH2 0x18C SWAP2 SWAP1 PUSH2 0x559 JUMP JUMPDEST DUP3 PUSH2 0x197 SWAP2 SWAP1 PUSH2 0x59B JUMP JUMPDEST SWAP2 POP DUP1 DUP1 PUSH2 0x1A4 SWAP1 PUSH2 0x2DB JUMP JUMPDEST SWAP2 POP POP PUSH2 0x145 JUMP JUMPDEST POP DUP1 SWAP6 POP POP POP POP POP POP SWAP2 SWAP1 POP JUMP JUMPDEST PUSH1 0x0 DUP1 REVERT JUMPDEST PUSH1 0x0 DUP2 SWAP1 POP SWAP2 SWAP1 POP JUMP JUMPDEST PUSH2 0x1D2 DUP2 PUSH2 0x1BF JUMP JUMPDEST DUP2 EQ PUSH2 0x1DD JUMPI PUSH1 0x0 DUP1 REVERT JUMPDEST POP JUMP JUMPDEST PUSH1 0x0 DUP2 CALLDATALOAD SWAP1 POP PUSH2 0x1EF DUP2 PUSH2 0x1C9 JUMP JUMPDEST SWAP3 SWAP2 POP POP JUMP JUMPDEST PUSH1 0x0 PUSH1 0x20 DUP3 DUP5 SUB SLT ISZERO PUSH2 0x20B JUMPI PUSH2 0x20A PUSH2 0x1BA JUMP JUMPDEST JUMPDEST PUSH1 0x0 PUSH2 0x219 DUP5 DUP3 DUP6 ADD PUSH2 0x1E0 JUMP JUMPDEST SWAP2 POP POP SWAP3 SWAP2 POP POP JUMP JUMPDEST PUSH2 0x22B DUP2 PUSH2 0x1BF JUMP JUMPDEST DUP3 MSTORE POP POP JUMP JUMPDEST PUSH1 0x0 PUSH1 0x20 DUP3 ADD SWAP1 POP PUSH2 0x246 PUSH1 0x0 DUP4 ADD DUP5 PUSH2 0x222 JUMP JUMPDEST SWAP3 SWAP2 POP POP JUMP JUMPDEST PUSH32 0x4E487B7100000000000000000000000000000000000000000000000000000000 PUSH1 0x0 MSTORE PUSH1 0x12 PUSH1 0x4 MSTORE PUSH1 0x24 PUSH1 0x0 REVERT JUMPDEST PUSH32 0x4E487B7100000000000000000000000000000000000000000000000000000000 PUSH1 0x0 MSTORE PUSH1 0x11 PUSH1 0x4 MSTORE PUSH1 0x24 PUSH1 0x0 REVERT JUMPDEST PUSH1 0x0 PUSH2 0x2B5 DUP3 PUSH2 0x1BF JUMP JUMPDEST SWAP2 POP PUSH2 0x2C0 DUP4 PUSH2 0x1BF JUMP JUMPDEST SWAP3 POP DUP3 PUSH2 0x2D0 JUMPI PUSH2 0x2CF PUSH2 0x24C JUMP JUMPDEST JUMPDEST DUP3 DUP3 DIV SWAP1 POP SWAP3 SWAP2 POP POP JUMP JUMPDEST PUSH1 0x0 PUSH2 0x2E6 DUP3 PUSH2 0x1BF JUMP JUMPDEST SWAP2 POP PUSH32 0xFFFFFFFFFFFFFFFFFFFFFFFFFFFFFFFFFFFFFFFFFFFFFFFFFFFFFFFFFFFFFFFF DUP3 SUB PUSH2 0x318 JUMPI PUSH2 0x317 PUSH2 0x27B JUMP JUMPDEST JUMPDEST PUSH1 0x1 DUP3 ADD SWAP1 POP SWAP2 SWAP1 POP JUMP JUMPDEST PUSH32 0x4E487B7100000000000000000000000000000000000000000000000000000000 PUSH1 0x0 MSTORE PUSH1 0x41 PUSH1 0x4 MSTORE PUSH1 0x24 PUSH1 0x0 REVERT JUMPDEST PUSH1 0x0 PUSH2 0x35D DUP3 PUSH2 0x1BF JUMP JUMPDEST SWAP2 POP PUSH2 0x368 DUP4 PUSH2 0x1BF JUMP JUMPDEST SWAP3 POP DUP3 PUSH2 0x378 JUMPI PUSH2 0x377 PUSH2 0x24C JUMP JUMPDEST JUMPDEST DUP3 DUP3 MOD SWAP1 POP SWAP3 SWAP2 POP POP JUMP JUMPDEST PUSH1 0x0 PUSH2 0x38E DUP3 PUSH2 0x1BF JUMP JUMPDEST SWAP2 POP PUSH1 0x0 DUP3 SUB PUSH2 0x3A1 JUMPI PUSH2 0x3A0 PUSH2 0x27B JUMP JUMPDEST JUMPDEST PUSH1 0x1 DUP3 SUB SWAP1 POP SWAP2 SWAP1 POP JUMP JUMPDEST PUSH32 0x4E487B7100000000000000000000000000000000000000000000000000000000 PUSH1 0x0 MSTORE PUSH1 0x32 PUSH1 0x4 MSTORE PUSH1 0x24 PUSH1 0x0 REVERT JUMPDEST PUSH1 0x0 DUP2 PUSH1 0x1 SHR SWAP1 POP SWAP2 SWAP1 POP JUMP JUMPDEST PUSH1 0x0 DUP1 DUP3 SWAP2 POP DUP4 SWAP1 POP JUMPDEST PUSH1 0x1 DUP6 GT ISZERO PUSH2 0x432 JUMPI DUP1 DUP7 DIV DUP2 GT ISZERO PUSH2 0x40E JUMPI PUSH2 0x40D PUSH2 0x27B JUMP JUMPDEST JUMPDEST PUSH1 0x1 DUP6 AND ISZERO PUSH2 0x41D JUMPI DUP1 DUP3 MUL SWAP2 POP JUMPDEST DUP1 DUP2 MUL SWAP1 POP PUSH2 0x42B DUP6 PUSH2 0x3DB JUMP JUMPDEST SWAP5 POP PUSH2 0x3F2 JUMP JUMPDEST SWAP5 POP SWAP5 SWAP3 POP POP POP JUMP JUMPDEST PUSH1 0x0 DUP3 PUSH2 0x44B JUMPI PUSH1 0x1 SWAP1 POP PUSH2 0x507 JUMP JUMPDEST DUP2 PUSH2 0x459 JUMPI PUSH1 0x0 SWAP1 POP PUSH2 0x507 JUMP JUMPDEST DUP2 PUSH1 0x1 DUP2 EQ PUSH2 0x46F JUMPI PUSH1 0x2 DUP2 EQ PUSH2 0x479 JUMPI PUSH2 0x4A8 JUMP JUMPDEST PUSH1 0x1 SWAP2 POP POP PUSH2 0x507 JUMP JUMPDEST PUSH1 0xFF DUP5 GT ISZERO PUSH2 0x48B JUMPI PUSH2 0x48A PUSH2 0x27B JUMP JUMPDEST JUMPDEST DUP4 PUSH1 0x2 EXP SWAP2 POP DUP5 DUP3 GT ISZERO PUSH2 0x4A2 JUMPI PUSH2 0x4A1 PUSH2 0x27B JUMP JUMPDEST JUMPDEST POP PUSH2 0x507 JUMP JUMPDEST POP PUSH1 0x20 DUP4 LT PUSH2 0x133 DUP4 LT AND PUSH1 0x4E DUP5 LT PUSH1 0xB DUP5 LT AND OR ISZERO PUSH2 0x4DD JUMPI DUP3 DUP3 EXP SWAP1 POP DUP4 DUP2 GT ISZERO PUSH2 0x4D8 JUMPI PUSH2 0x4D7 PUSH2 0x27B JUMP JUMPDEST JUMPDEST PUSH2 0x507 JUMP JUMPDEST PUSH2 0x4EA DUP5 DUP5 DUP5 PUSH1 0x1 PUSH2 0x3E8 JUMP JUMPDEST SWAP3 POP SWAP1 POP DUP2 DUP5 DIV DUP2 GT ISZERO PUSH2 0x501 JUMPI PUSH2 0x500 PUSH2 0x27B JUMP JUMPDEST JUMPDEST DUP2 DUP2 MUL SWAP1 POP JUMPDEST SWAP4 SWAP3 POP POP POP JUMP JUMPDEST PUSH1 0x0 PUSH2 0x519 DUP3 PUSH2 0x1BF JUMP JUMPDEST SWAP2 POP PUSH2 0x524 DUP4 PUSH2 0x1BF JUMP JUMPDEST SWAP3 POP PUSH2 0x551 PUSH32 0xFFFFFFFFFFFFFFFFFFFFFFFFFFFFFFFFFFFFFFFFFFFFFFFFFFFFFFFFFFFFFFFF DUP5 DUP5 PUSH2 0x43B JUMP JUMPDEST SWAP1 POP SWAP3 SWAP2 POP POP JUMP JUMPDEST PUSH1 0x0 PUSH2 0x564 DUP3 PUSH2 0x1BF JUMP JUMPDEST SWAP2 POP PUSH2 0x56F DUP4 PUSH2 0x1BF JUMP JUMPDEST SWAP3 POP DUP3 DUP3 MUL PUSH2 0x57D DUP2 PUSH2 0x1BF JUMP JUMPDEST SWAP2 POP DUP3 DUP3 DIV DUP5 EQ DUP4 ISZERO OR PUSH2 0x594 JUMPI PUSH2 0x593 PUSH2 0x27B JUMP JUMPDEST JUMPDEST POP SWAP3 SWAP2 POP POP JUMP JUMPDEST PUSH1 0x0 PUSH2 0x5A6 DUP3 PUSH2 0x1BF JUMP JUMPDEST SWAP2 POP PUSH2 0x5B1 DUP4 PUSH2 0x1BF JUMP JUMPDEST SWAP3 POP DUP3 DUP3 ADD SWAP1 POP DUP1 DUP3 GT ISZERO PUSH2 0x5C9 JUMPI PUSH2 0x5C8 PUSH2 0x27B JUMP JUMPDEST JUMPDEST SWAP3 SWAP2 POP POP JUMP INVALID LOG2 PUSH5 0x6970667358 0x22 SLT KECCAK256 SWAP6 0xDA NUMBER 0x2E DUP7 PUSH5 0xA23B2A2692 NUMBER STATICCALL 0xD9 MULMOD 0xC0 0xE2 PUSH25 0x1281560EA26124277189E507E8D464736F6C63430008120033 "
		},
		"gasEstimates": {
			"creation": {
				"codeDepositCost": "308200",
				"executionCost": "349",
				"totalCost": "308549"
			},
			"external": {
				"getThreeNumber(uint256)": "infinite"
			}
		},
		"methodIdentifiers": {
			"getThreeNumber(uint256)": "837a9bc2"
		}
	},
	"abi": [
		{
			"inputs": [
				{
					"internalType": "uint256",
					"name": "_n",
					"type": "uint256"
				}
			],
			"name": "getThreeNumber",
			"outputs": [
				{
					"internalType": "uint256",
					"name": "",
					"type": "uint256"
				}
			],
			"stateMutability": "pure",
			"type": "function"
		}
	]
}