{
	"data": {
		"bytecode": {
			"linkReferences": {},
			"object": "608060405234801561001057600080fd5b50610377806100206000396000f3fe608060405234801561001057600080fd5b50600436106100415760003560e01c8063d504ea1d14610046578063fb8333eb14610064578063fc177bd614610080575b600080fd5b61004e61008a565b60405161005b9190610222565b60405180910390f35b61007e6004803603810190610079919061026e565b6100d5565b005b610088610108565b005b61009261014b565b60006004806020026040519081016040528092919082600480156100cb576020028201915b8154815260200190600101908083116100b7575b5050505050905090565b806000600460008154809291906100eb906102ca565b9190505560048110610100576100ff610312565b5b018190555050565b60005b6004811015610140576000816004811061012857610127610312565b5b01600090558080610138906102ca565b91505061010b565b506000600481905550565b6040518060800160405280600490602082028036833780820191505090505090565b600060049050919050565b600081905092915050565b6000819050919050565b6000819050919050565b6101a08161018d565b82525050565b60006101b28383610197565b60208301905092915050565b6000602082019050919050565b6101d48161016d565b6101de8184610178565b92506101e982610183565b8060005b8381101561021a57815161020187826101a6565b965061020c836101be565b9250506001810190506101ed565b505050505050565b600060808201905061023760008301846101cb565b92915050565b600080fd5b61024b8161018d565b811461025657600080fd5b50565b60008135905061026881610242565b92915050565b6000602082840312156102845761028361023d565b5b600061029284828501610259565b91505092915050565b7f4e487b7100000000000000000000000000000000000000000000000000000000600052601160045260246000fd5b60006102d58261018d565b91507fffffffffffffffffffffffffffffffffffffffffffffffffffffffffffffffff82036103075761030661029b565b5b600182019050919050565b7f4e487b7100000000000000000000000000000000000000000000000000000000600052603260045260246000fdfea2646970667358221220a18fcccea57d3f26ed2473a817cd768144a138bf012f1d7b6a32c3474a6a4e2164736f6c63430008120033",
			"opcodes": "PUSH1 0x80 PUSH1 0x40 MSTORE CALLVALUE DUP1 ISZERO PUSH2 0x10 JUMPI PUSH1 0x0 DUP1 REVERT JUMPDEST POP PUSH2 0x377 DUP1 PUSH2 0x20 PUSH1 0x0 CODECOPY PUSH1 0x0 RETURN INVALID PUSH1 0x80 PUSH1 0x40 MSTORE CALLVALUE DUP1 ISZERO PUSH2 0x10 JUMPI PUSH1 0x0 DUP1 REVERT JUMPDEST POP PUSH1 0x4 CALLDATASIZE LT PUSH2 0x41 JUMPI PUSH1 0x0 CALLDATALOAD PUSH1 0xE0 SHR DUP1 PUSH4 0xD504EA1D EQ PUSH2 0x46 JUMPI DUP1 PUSH4 0xFB8333EB EQ PUSH2 0x64 JUMPI DUP1 PUSH4 0xFC177BD6 EQ PUSH2 0x80 JUMPI JUMPDEST PUSH1 0x0 DUP1 REVERT JUMPDEST PUSH2 0x4E PUSH2 0x8A JUMP JUMPDEST PUSH1 0x40 MLOAD PUSH2 0x5B SWAP2 SWAP1 PUSH2 0x222 JUMP JUMPDEST PUSH1 0x40 MLOAD DUP1 SWAP2 SUB SWAP1 RETURN JUMPDEST PUSH2 0x7E PUSH1 0x4 DUP1 CALLDATASIZE SUB DUP2 ADD SWAP1 PUSH2 0x79 SWAP2 SWAP1 PUSH2 0x26E JUMP JUMPDEST PUSH2 0xD5 JUMP JUMPDEST STOP JUMPDEST PUSH2 0x88 PUSH2 0x108 JUMP JUMPDEST STOP JUMPDEST PUSH2 0x92 PUSH2 0x14B JUMP JUMPDEST PUSH1 0x0 PUSH1 0x4 DUP1 PUSH1 0x20 MUL PUSH1 0x40 MLOAD SWAP1 DUP2 ADD PUSH1 0x40 MSTORE DUP1 SWAP3 SWAP2 SWAP1 DUP3 PUSH1 0x4 DUP1 ISZERO PUSH2 0xCB JUMPI PUSH1 0x20 MUL DUP3 ADD SWAP2 JUMPDEST DUP2 SLOAD DUP2 MSTORE PUSH1 0x20 ADD SWAP1 PUSH1 0x1 ADD SWAP1 DUP1 DUP4 GT PUSH2 0xB7 JUMPI JUMPDEST POP POP POP POP POP SWAP1 POP SWAP1 JUMP JUMPDEST DUP1 PUSH1 0x0 PUSH1 0x4 PUSH1 0x0 DUP2 SLOAD DUP1 SWAP3 SWAP2 SWAP1 PUSH2 0xEB SWAP1 PUSH2 0x2CA JUMP JUMPDEST SWAP2 SWAP1 POP SSTORE PUSH1 0x4 DUP2 LT PUSH2 0x100 JUMPI PUSH2 0xFF PUSH2 0x312 JUMP JUMPDEST JUMPDEST ADD DUP2 SWAP1 SSTORE POP POP JUMP JUMPDEST PUSH1 0x0 JUMPDEST PUSH1 0x4 DUP2 LT ISZERO PUSH2 0x140 JUMPI PUSH1 0x0 DUP2 PUSH1 0x4 DUP2 LT PUSH2 0x128 JUMPI PUSH2 0x127 PUSH2 0x312 JUMP JUMPDEST JUMPDEST ADD PUSH1 0x0 SWAP1 SSTORE DUP1 DUP1 PUSH2 0x138 SWAP1 PUSH2 0x2CA JUMP JUMPDEST SWAP2 POP POP PUSH2 0x10B JUMP JUMPDEST POP PUSH1 0x0 PUSH1 0x4 DUP2 SWAP1 SSTORE POP JUMP JUMPDEST PUSH1 0x40 MLOAD DUP1 PUSH1 0x80 ADD PUSH1 0x40 MSTORE DUP1 PUSH1 0x4 SWAP1 PUSH1 0x20 DUP3 MUL DUP1 CALLDATASIZE DUP4 CALLDATACOPY DUP1 DUP3 ADD SWAP2 POP POP SWAP1 POP POP SWAP1 JUMP JUMPDEST PUSH1 0x0 PUSH1 0x4 SWAP1 POP SWAP2 SWAP1 POP JUMP JUMPDEST PUSH1 0x0 DUP2 SWAP1 POP SWAP3 SWAP2 POP POP JUMP JUMPDEST PUSH1 0x0 DUP2 SWAP1 POP SWAP2 SWAP1 POP JUMP JUMPDEST PUSH1 0x0 DUP2 SWAP1 POP SWAP2 SWAP1 POP JUMP JUMPDEST PUSH2 0x1A0 DUP2 PUSH2 0x18D JUMP JUMPDEST DUP3 MSTORE POP POP JUMP JUMPDEST PUSH1 0x0 PUSH2 0x1B2 DUP4 DUP4 PUSH2 0x197 JUMP JUMPDEST PUSH1 0x20 DUP4 ADD SWAP1 POP SWAP3 SWAP2 POP POP JUMP JUMPDEST PUSH1 0x0 PUSH1 0x20 DUP3 ADD SWAP1 POP SWAP2 SWAP1 POP JUMP JUMPDEST PUSH2 0x1D4 DUP2 PUSH2 0x16D JUMP JUMPDEST PUSH2 0x1DE DUP2 DUP5 PUSH2 0x178 JUMP JUMPDEST SWAP3 POP PUSH2 0x1E9 DUP3 PUSH2 0x183 JUMP JUMPDEST DUP1 PUSH1 0x0 JUMPDEST DUP4 DUP2 LT ISZERO PUSH2 0x21A JUMPI DUP2 MLOAD PUSH2 0x201 DUP8 DUP3 PUSH2 0x1A6 JUMP JUMPDEST SWAP7 POP PUSH2 0x20C DUP4 PUSH2 0x1BE JUMP JUMPDEST SWAP3 POP POP PUSH1 0x1 DUP2 ADD SWAP1 POP PUSH2 0x1ED JUMP JUMPDEST POP POP POP POP POP POP JUMP JUMPDEST PUSH1 0x0 PUSH1 0x80 DUP3 ADD SWAP1 POP PUSH2 0x237 PUSH1 0x0 DUP4 ADD DUP5 PUSH2 0x1CB JUMP JUMPDEST SWAP3 SWAP2 POP POP JUMP JUMPDEST PUSH1 0x0 DUP1 REVERT JUMPDEST PUSH2 0x24B DUP2 PUSH2 0x18D JUMP JUMPDEST DUP2 EQ PUSH2 0x256 JUMPI PUSH1 0x0 DUP1 REVERT JUMPDEST POP JUMP JUMPDEST PUSH1 0x0 DUP2 CALLDATALOAD SWAP1 POP PUSH2 0x268 DUP2 PUSH2 0x242 JUMP JUMPDEST SWAP3 SWAP2 POP POP JUMP JUMPDEST PUSH1 0x0 PUSH1 0x20 DUP3 DUP5 SUB SLT ISZERO PUSH2 0x284 JUMPI PUSH2 0x283 PUSH2 0x23D JUMP JUMPDEST JUMPDEST PUSH1 0x0 PUSH2 0x292 DUP5 DUP3 DUP6 ADD PUSH2 0x259 JUMP JUMPDEST SWAP2 POP POP SWAP3 SWAP2 POP POP JUMP JUMPDEST PUSH32 0x4E487B7100000000000000000000000000000000000000000000000000000000 PUSH1 0x0 MSTORE PUSH1 0x11 PUSH1 0x4 MSTORE PUSH1 0x24 PUSH1 0x0 REVERT JUMPDEST PUSH1 0x0 PUSH2 0x2D5 DUP3 PUSH2 0x18D JUMP JUMPDEST SWAP2 POP PUSH32 0xFFFFFFFFFFFFFFFFFFFFFFFFFFFFFFFFFFFFFFFFFFFFFFFFFFFFFFFFFFFFFFFF DUP3 SUB PUSH2 0x307 JUMPI PUSH2 0x306 PUSH2 0x29B JUMP JUMPDEST JUMPDEST PUSH1 0x1 DUP3 ADD SWAP1 POP SWAP2 SWAP1 POP JUMP JUMPDEST PUSH32 0x4E487B7100000000000000000000000000000000000000000000000000000000 PUSH1 0x0 MSTORE PUSH1 0x32 PUSH1 0x4 MSTORE PUSH1 0x24 PUSH1 0x0 REVERT INVALID LOG2 PUSH5 0x6970667358 0x22 SLT KECCAK256 LOG1 DUP16 0xCC 0xCE 0xA5 PUSH30 0x3F26ED2473A817CD768144A138BF012F1D7B6A32C3474A6A4E2164736F6C PUSH4 0x43000812 STOP CALLER "
		},
		"gasEstimates": {
			"creation": {
				"codeDepositCost": "177400",
				"executionCost": "220",
				"totalCost": "177620"
			},
			"external": {
				"getArray()": "infinite",
				"resetArray()": "infinite",
				"setArray(uint256)": "infinite"
			}
		},
		"methodIdentifiers": {
			"getArray()": "d504ea1d",
			"resetArray()": "fc177bd6",
			"setArray(uint256)": "fb8333eb"
		}
	},
	"abi": [
		{
			"inputs": [],
			"name": "getArray",
			"outputs": [
				{
					"internalType": "uint256[4]",
					"name": "",
					"type": "uint256[4]"
				}
			],
			"stateMutability": "view",
			"type": "function"
		},
		{
			"inputs": [],
			"name": "resetArray",
			"outputs": [],
			"stateMutability": "nonpayable",
			"type": "function"
		},
		{
			"inputs": [
				{
					"internalType": "uint256",
					"name": "n",
					"type": "uint256"
				}
			],
			"name": "setArray",
			"outputs": [],
			"stateMutability": "nonpayable",
			"type": "function"
		}
	]
}