{
	"data": {
		"bytecode": {
			"linkReferences": {},
			"object": "608060405234801561001057600080fd5b50610a0b806100206000396000f3fe608060405234801561001057600080fd5b50600436106100365760003560e01c80630eacb5ec1461003b5780637ee005ab14610057575b600080fd5b610055600480360381019061005091906104b6565b610087565b005b610071600480360381019061006c9190610539565b610156565b60405161007e9190610682565b60405180910390f35b60405180608001604052808581526020018481526020018373ffffffffffffffffffffffffffffffffffffffff168152602001828152506000856040516100ce91906106e0565b908152602001604051809103902060008201518160000190816100f19190610903565b506020820151816001015560408201518160020160006101000a81548173ffffffffffffffffffffffffffffffffffffffff021916908373ffffffffffffffffffffffffffffffffffffffff1602179055506060820151816003015590505050505050565b61015e61028a565b60008260405161016e91906106e0565b908152602001604051809103902060405180608001604052908160008201805461019790610726565b80601f01602080910402602001604051908101604052809291908181526020018280546101c390610726565b80156102105780601f106101e557610100808354040283529160200191610210565b820191906000526020600020905b8154815290600101906020018083116101f357829003601f168201915b50505050508152602001600182015481526020016002820160009054906101000a900473ffffffffffffffffffffffffffffffffffffffff1673ffffffffffffffffffffffffffffffffffffffff1673ffffffffffffffffffffffffffffffffffffffff1681526020016003820154815250509050919050565b60405180608001604052806060815260200160008152602001600073ffffffffffffffffffffffffffffffffffffffff168152602001600081525090565b6000604051905090565b600080fd5b600080fd5b600080fd5b600080fd5b6000601f19601f8301169050919050565b7f4e487b7100000000000000000000000000000000000000000000000000000000600052604160045260246000fd5b61032f826102e6565b810181811067ffffffffffffffff8211171561034e5761034d6102f7565b5b80604052505050565b60006103616102c8565b905061036d8282610326565b919050565b600067ffffffffffffffff82111561038d5761038c6102f7565b5b610396826102e6565b9050602081019050919050565b82818337600083830152505050565b60006103c56103c084610372565b610357565b9050828152602081018484840111156103e1576103e06102e1565b5b6103ec8482856103a3565b509392505050565b600082601f830112610409576104086102dc565b5b81356104198482602086016103b2565b91505092915050565b6000819050919050565b61043581610422565b811461044057600080fd5b50565b6000813590506104528161042c565b92915050565b600073ffffffffffffffffffffffffffffffffffffffff82169050919050565b600061048382610458565b9050919050565b61049381610478565b811461049e57600080fd5b50565b6000813590506104b08161048a565b92915050565b600080600080608085870312156104d0576104cf6102d2565b5b600085013567ffffffffffffffff8111156104ee576104ed6102d7565b5b6104fa878288016103f4565b945050602061050b87828801610443565b935050604061051c878288016104a1565b925050606061052d87828801610443565b91505092959194509250565b60006020828403121561054f5761054e6102d2565b5b600082013567ffffffffffffffff81111561056d5761056c6102d7565b5b610579848285016103f4565b91505092915050565b600081519050919050565b600082825260208201905092915050565b60005b838110156105bc5780820151818401526020810190506105a1565b60008484015250505050565b60006105d382610582565b6105dd818561058d565b93506105ed81856020860161059e565b6105f6816102e6565b840191505092915050565b61060a81610422565b82525050565b61061981610478565b82525050565b6000608083016000830151848203600086015261063c82826105c8565b91505060208301516106516020860182610601565b5060408301516106646040860182610610565b5060608301516106776060860182610601565b508091505092915050565b6000602082019050818103600083015261069c818461061f565b905092915050565b600081905092915050565b60006106ba82610582565b6106c481856106a4565b93506106d481856020860161059e565b80840191505092915050565b60006106ec82846106af565b915081905092915050565b7f4e487b7100000000000000000000000000000000000000000000000000000000600052602260045260246000fd5b6000600282049050600182168061073e57607f821691505b602082108103610751576107506106f7565b5b50919050565b60008190508160005260206000209050919050565b60006020601f8301049050919050565b600082821b905092915050565b6000600883026107b97fffffffffffffffffffffffffffffffffffffffffffffffffffffffffffffffff8261077c565b6107c3868361077c565b95508019841693508086168417925050509392505050565b6000819050919050565b60006108006107fb6107f684610422565b6107db565b610422565b9050919050565b6000819050919050565b61081a836107e5565b61082e61082682610807565b848454610789565b825550505050565b600090565b610843610836565b61084e818484610811565b505050565b5b818110156108725761086760008261083b565b600181019050610854565b5050565b601f8211156108b75761088881610757565b6108918461076c565b810160208510156108a0578190505b6108b46108ac8561076c565b830182610853565b50505b505050565b600082821c905092915050565b60006108da600019846008026108bc565b1980831691505092915050565b60006108f383836108c9565b9150826002028217905092915050565b61090c82610582565b67ffffffffffffffff811115610925576109246102f7565b5b61092f8254610726565b61093a828285610876565b600060209050601f83116001811461096d576000841561095b578287015190505b61096585826108e7565b8655506109cd565b601f19841661097b86610757565b60005b828110156109a35784890151825560018201915060208501945060208101905061097e565b868310156109c057848901516109bc601f8916826108c9565b8355505b6001600288020188555050505b50505050505056fea26469706673582212200f1ec2c960c8463cc30e7884085177cabf3f69c0718cd9ce5e9696f3b6b9797a64736f6c63430008120033",
			"opcodes": "PUSH1 0x80 PUSH1 0x40 MSTORE CALLVALUE DUP1 ISZERO PUSH2 0x10 JUMPI PUSH1 0x0 DUP1 REVERT JUMPDEST POP PUSH2 0xA0B DUP1 PUSH2 0x20 PUSH1 0x0 CODECOPY PUSH1 0x0 RETURN INVALID PUSH1 0x80 PUSH1 0x40 MSTORE CALLVALUE DUP1 ISZERO PUSH2 0x10 JUMPI PUSH1 0x0 DUP1 REVERT JUMPDEST POP PUSH1 0x4 CALLDATASIZE LT PUSH2 0x36 JUMPI PUSH1 0x0 CALLDATALOAD PUSH1 0xE0 SHR DUP1 PUSH4 0xEACB5EC EQ PUSH2 0x3B JUMPI DUP1 PUSH4 0x7EE005AB EQ PUSH2 0x57 JUMPI JUMPDEST PUSH1 0x0 DUP1 REVERT JUMPDEST PUSH2 0x55 PUSH1 0x4 DUP1 CALLDATASIZE SUB DUP2 ADD SWAP1 PUSH2 0x50 SWAP2 SWAP1 PUSH2 0x4B6 JUMP JUMPDEST PUSH2 0x87 JUMP JUMPDEST STOP JUMPDEST PUSH2 0x71 PUSH1 0x4 DUP1 CALLDATASIZE SUB DUP2 ADD SWAP1 PUSH2 0x6C SWAP2 SWAP1 PUSH2 0x539 JUMP JUMPDEST PUSH2 0x156 JUMP JUMPDEST PUSH1 0x40 MLOAD PUSH2 0x7E SWAP2 SWAP1 PUSH2 0x682 JUMP JUMPDEST PUSH1 0x40 MLOAD DUP1 SWAP2 SUB SWAP1 RETURN JUMPDEST PUSH1 0x40 MLOAD DUP1 PUSH1 0x80 ADD PUSH1 0x40 MSTORE DUP1 DUP6 DUP2 MSTORE PUSH1 0x20 ADD DUP5 DUP2 MSTORE PUSH1 0x20 ADD DUP4 PUSH20 0xFFFFFFFFFFFFFFFFFFFFFFFFFFFFFFFFFFFFFFFF AND DUP2 MSTORE PUSH1 0x20 ADD DUP3 DUP2 MSTORE POP PUSH1 0x0 DUP6 PUSH1 0x40 MLOAD PUSH2 0xCE SWAP2 SWAP1 PUSH2 0x6E0 JUMP JUMPDEST SWAP1 DUP2 MSTORE PUSH1 0x20 ADD PUSH1 0x40 MLOAD DUP1 SWAP2 SUB SWAP1 KECCAK256 PUSH1 0x0 DUP3 ADD MLOAD DUP2 PUSH1 0x0 ADD SWAP1 DUP2 PUSH2 0xF1 SWAP2 SWAP1 PUSH2 0x903 JUMP JUMPDEST POP PUSH1 0x20 DUP3 ADD MLOAD DUP2 PUSH1 0x1 ADD SSTORE PUSH1 0x40 DUP3 ADD MLOAD DUP2 PUSH1 0x2 ADD PUSH1 0x0 PUSH2 0x100 EXP DUP2 SLOAD DUP2 PUSH20 0xFFFFFFFFFFFFFFFFFFFFFFFFFFFFFFFFFFFFFFFF MUL NOT AND SWAP1 DUP4 PUSH20 0xFFFFFFFFFFFFFFFFFFFFFFFFFFFFFFFFFFFFFFFF AND MUL OR SWAP1 SSTORE POP PUSH1 0x60 DUP3 ADD MLOAD DUP2 PUSH1 0x3 ADD SSTORE SWAP1 POP POP POP POP POP POP JUMP JUMPDEST PUSH2 0x15E PUSH2 0x28A JUMP JUMPDEST PUSH1 0x0 DUP3 PUSH1 0x40 MLOAD PUSH2 0x16E SWAP2 SWAP1 PUSH2 0x6E0 JUMP JUMPDEST SWAP1 DUP2 MSTORE PUSH1 0x20 ADD PUSH1 0x40 MLOAD DUP1 SWAP2 SUB SWAP1 KECCAK256 PUSH1 0x40 MLOAD DUP1 PUSH1 0x80 ADD PUSH1 0x40 MSTORE SWAP1 DUP2 PUSH1 0x0 DUP3 ADD DUP1 SLOAD PUSH2 0x197 SWAP1 PUSH2 0x726 JUMP JUMPDEST DUP1 PUSH1 0x1F ADD PUSH1 0x20 DUP1 SWAP2 DIV MUL PUSH1 0x20 ADD PUSH1 0x40 MLOAD SWAP1 DUP2 ADD PUSH1 0x40 MSTORE DUP1 SWAP3 SWAP2 SWAP1 DUP2 DUP2 MSTORE PUSH1 0x20 ADD DUP3 DUP1 SLOAD PUSH2 0x1C3 SWAP1 PUSH2 0x726 JUMP JUMPDEST DUP1 ISZERO PUSH2 0x210 JUMPI DUP1 PUSH1 0x1F LT PUSH2 0x1E5 JUMPI PUSH2 0x100 DUP1 DUP4 SLOAD DIV MUL DUP4 MSTORE SWAP2 PUSH1 0x20 ADD SWAP2 PUSH2 0x210 JUMP JUMPDEST DUP3 ADD SWAP2 SWAP1 PUSH1 0x0 MSTORE PUSH1 0x20 PUSH1 0x0 KECCAK256 SWAP1 JUMPDEST DUP2 SLOAD DUP2 MSTORE SWAP1 PUSH1 0x1 ADD SWAP1 PUSH1 0x20 ADD DUP1 DUP4 GT PUSH2 0x1F3 JUMPI DUP3 SWAP1 SUB PUSH1 0x1F AND DUP3 ADD SWAP2 JUMPDEST POP POP POP POP POP DUP2 MSTORE PUSH1 0x20 ADD PUSH1 0x1 DUP3 ADD SLOAD DUP2 MSTORE PUSH1 0x20 ADD PUSH1 0x2 DUP3 ADD PUSH1 0x0 SWAP1 SLOAD SWAP1 PUSH2 0x100 EXP SWAP1 DIV PUSH20 0xFFFFFFFFFFFFFFFFFFFFFFFFFFFFFFFFFFFFFFFF AND PUSH20 0xFFFFFFFFFFFFFFFFFFFFFFFFFFFFFFFFFFFFFFFF AND PUSH20 0xFFFFFFFFFFFFFFFFFFFFFFFFFFFFFFFFFFFFFFFF AND DUP2 MSTORE PUSH1 0x20 ADD PUSH1 0x3 DUP3 ADD SLOAD DUP2 MSTORE POP POP SWAP1 POP SWAP2 SWAP1 POP JUMP JUMPDEST PUSH1 0x40 MLOAD DUP1 PUSH1 0x80 ADD PUSH1 0x40 MSTORE DUP1 PUSH1 0x60 DUP2 MSTORE PUSH1 0x20 ADD PUSH1 0x0 DUP2 MSTORE PUSH1 0x20 ADD PUSH1 0x0 PUSH20 0xFFFFFFFFFFFFFFFFFFFFFFFFFFFFFFFFFFFFFFFF AND DUP2 MSTORE PUSH1 0x20 ADD PUSH1 0x0 DUP2 MSTORE POP SWAP1 JUMP JUMPDEST PUSH1 0x0 PUSH1 0x40 MLOAD SWAP1 POP SWAP1 JUMP JUMPDEST PUSH1 0x0 DUP1 REVERT JUMPDEST PUSH1 0x0 DUP1 REVERT JUMPDEST PUSH1 0x0 DUP1 REVERT JUMPDEST PUSH1 0x0 DUP1 REVERT JUMPDEST PUSH1 0x0 PUSH1 0x1F NOT PUSH1 0x1F DUP4 ADD AND SWAP1 POP SWAP2 SWAP1 POP JUMP JUMPDEST PUSH32 0x4E487B7100000000000000000000000000000000000000000000000000000000 PUSH1 0x0 MSTORE PUSH1 0x41 PUSH1 0x4 MSTORE PUSH1 0x24 PUSH1 0x0 REVERT JUMPDEST PUSH2 0x32F DUP3 PUSH2 0x2E6 JUMP JUMPDEST DUP2 ADD DUP2 DUP2 LT PUSH8 0xFFFFFFFFFFFFFFFF DUP3 GT OR ISZERO PUSH2 0x34E JUMPI PUSH2 0x34D PUSH2 0x2F7 JUMP JUMPDEST JUMPDEST DUP1 PUSH1 0x40 MSTORE POP POP POP JUMP JUMPDEST PUSH1 0x0 PUSH2 0x361 PUSH2 0x2C8 JUMP JUMPDEST SWAP1 POP PUSH2 0x36D DUP3 DUP3 PUSH2 0x326 JUMP JUMPDEST SWAP2 SWAP1 POP JUMP JUMPDEST PUSH1 0x0 PUSH8 0xFFFFFFFFFFFFFFFF DUP3 GT ISZERO PUSH2 0x38D JUMPI PUSH2 0x38C PUSH2 0x2F7 JUMP JUMPDEST JUMPDEST PUSH2 0x396 DUP3 PUSH2 0x2E6 JUMP JUMPDEST SWAP1 POP PUSH1 0x20 DUP2 ADD SWAP1 POP SWAP2 SWAP1 POP JUMP JUMPDEST DUP3 DUP2 DUP4 CALLDATACOPY PUSH1 0x0 DUP4 DUP4 ADD MSTORE POP POP POP JUMP JUMPDEST PUSH1 0x0 PUSH2 0x3C5 PUSH2 0x3C0 DUP5 PUSH2 0x372 JUMP JUMPDEST PUSH2 0x357 JUMP JUMPDEST SWAP1 POP DUP3 DUP2 MSTORE PUSH1 0x20 DUP2 ADD DUP5 DUP5 DUP5 ADD GT ISZERO PUSH2 0x3E1 JUMPI PUSH2 0x3E0 PUSH2 0x2E1 JUMP JUMPDEST JUMPDEST PUSH2 0x3EC DUP5 DUP3 DUP6 PUSH2 0x3A3 JUMP JUMPDEST POP SWAP4 SWAP3 POP POP POP JUMP JUMPDEST PUSH1 0x0 DUP3 PUSH1 0x1F DUP4 ADD SLT PUSH2 0x409 JUMPI PUSH2 0x408 PUSH2 0x2DC JUMP JUMPDEST JUMPDEST DUP2 CALLDATALOAD PUSH2 0x419 DUP5 DUP3 PUSH1 0x20 DUP7 ADD PUSH2 0x3B2 JUMP JUMPDEST SWAP2 POP POP SWAP3 SWAP2 POP POP JUMP JUMPDEST PUSH1 0x0 DUP2 SWAP1 POP SWAP2 SWAP1 POP JUMP JUMPDEST PUSH2 0x435 DUP2 PUSH2 0x422 JUMP JUMPDEST DUP2 EQ PUSH2 0x440 JUMPI PUSH1 0x0 DUP1 REVERT JUMPDEST POP JUMP JUMPDEST PUSH1 0x0 DUP2 CALLDATALOAD SWAP1 POP PUSH2 0x452 DUP2 PUSH2 0x42C JUMP JUMPDEST SWAP3 SWAP2 POP POP JUMP JUMPDEST PUSH1 0x0 PUSH20 0xFFFFFFFFFFFFFFFFFFFFFFFFFFFFFFFFFFFFFFFF DUP3 AND SWAP1 POP SWAP2 SWAP1 POP JUMP JUMPDEST PUSH1 0x0 PUSH2 0x483 DUP3 PUSH2 0x458 JUMP JUMPDEST SWAP1 POP SWAP2 SWAP1 POP JUMP JUMPDEST PUSH2 0x493 DUP2 PUSH2 0x478 JUMP JUMPDEST DUP2 EQ PUSH2 0x49E JUMPI PUSH1 0x0 DUP1 REVERT JUMPDEST POP JUMP JUMPDEST PUSH1 0x0 DUP2 CALLDATALOAD SWAP1 POP PUSH2 0x4B0 DUP2 PUSH2 0x48A JUMP JUMPDEST SWAP3 SWAP2 POP POP JUMP JUMPDEST PUSH1 0x0 DUP1 PUSH1 0x0 DUP1 PUSH1 0x80 DUP6 DUP8 SUB SLT ISZERO PUSH2 0x4D0 JUMPI PUSH2 0x4CF PUSH2 0x2D2 JUMP JUMPDEST JUMPDEST PUSH1 0x0 DUP6 ADD CALLDATALOAD PUSH8 0xFFFFFFFFFFFFFFFF DUP2 GT ISZERO PUSH2 0x4EE JUMPI PUSH2 0x4ED PUSH2 0x2D7 JUMP JUMPDEST JUMPDEST PUSH2 0x4FA DUP8 DUP3 DUP9 ADD PUSH2 0x3F4 JUMP JUMPDEST SWAP5 POP POP PUSH1 0x20 PUSH2 0x50B DUP8 DUP3 DUP9 ADD PUSH2 0x443 JUMP JUMPDEST SWAP4 POP POP PUSH1 0x40 PUSH2 0x51C DUP8 DUP3 DUP9 ADD PUSH2 0x4A1 JUMP JUMPDEST SWAP3 POP POP PUSH1 0x60 PUSH2 0x52D DUP8 DUP3 DUP9 ADD PUSH2 0x443 JUMP JUMPDEST SWAP2 POP POP SWAP3 SWAP6 SWAP2 SWAP5 POP SWAP3 POP JUMP JUMPDEST PUSH1 0x0 PUSH1 0x20 DUP3 DUP5 SUB SLT ISZERO PUSH2 0x54F JUMPI PUSH2 0x54E PUSH2 0x2D2 JUMP JUMPDEST JUMPDEST PUSH1 0x0 DUP3 ADD CALLDATALOAD PUSH8 0xFFFFFFFFFFFFFFFF DUP2 GT ISZERO PUSH2 0x56D JUMPI PUSH2 0x56C PUSH2 0x2D7 JUMP JUMPDEST JUMPDEST PUSH2 0x579 DUP5 DUP3 DUP6 ADD PUSH2 0x3F4 JUMP JUMPDEST SWAP2 POP POP SWAP3 SWAP2 POP POP JUMP JUMPDEST PUSH1 0x0 DUP2 MLOAD SWAP1 POP SWAP2 SWAP1 POP JUMP JUMPDEST PUSH1 0x0 DUP3 DUP3 MSTORE PUSH1 0x20 DUP3 ADD SWAP1 POP SWAP3 SWAP2 POP POP JUMP JUMPDEST PUSH1 0x0 JUMPDEST DUP4 DUP2 LT ISZERO PUSH2 0x5BC JUMPI DUP1 DUP3 ADD MLOAD DUP2 DUP5 ADD MSTORE PUSH1 0x20 DUP2 ADD SWAP1 POP PUSH2 0x5A1 JUMP JUMPDEST PUSH1 0x0 DUP5 DUP5 ADD MSTORE POP POP POP POP JUMP JUMPDEST PUSH1 0x0 PUSH2 0x5D3 DUP3 PUSH2 0x582 JUMP JUMPDEST PUSH2 0x5DD DUP2 DUP6 PUSH2 0x58D JUMP JUMPDEST SWAP4 POP PUSH2 0x5ED DUP2 DUP6 PUSH1 0x20 DUP7 ADD PUSH2 0x59E JUMP JUMPDEST PUSH2 0x5F6 DUP2 PUSH2 0x2E6 JUMP JUMPDEST DUP5 ADD SWAP2 POP POP SWAP3 SWAP2 POP POP JUMP JUMPDEST PUSH2 0x60A DUP2 PUSH2 0x422 JUMP JUMPDEST DUP3 MSTORE POP POP JUMP JUMPDEST PUSH2 0x619 DUP2 PUSH2 0x478 JUMP JUMPDEST DUP3 MSTORE POP POP JUMP JUMPDEST PUSH1 0x0 PUSH1 0x80 DUP4 ADD PUSH1 0x0 DUP4 ADD MLOAD DUP5 DUP3 SUB PUSH1 0x0 DUP7 ADD MSTORE PUSH2 0x63C DUP3 DUP3 PUSH2 0x5C8 JUMP JUMPDEST SWAP2 POP POP PUSH1 0x20 DUP4 ADD MLOAD PUSH2 0x651 PUSH1 0x20 DUP7 ADD DUP3 PUSH2 0x601 JUMP JUMPDEST POP PUSH1 0x40 DUP4 ADD MLOAD PUSH2 0x664 PUSH1 0x40 DUP7 ADD DUP3 PUSH2 0x610 JUMP JUMPDEST POP PUSH1 0x60 DUP4 ADD MLOAD PUSH2 0x677 PUSH1 0x60 DUP7 ADD DUP3 PUSH2 0x601 JUMP JUMPDEST POP DUP1 SWAP2 POP POP SWAP3 SWAP2 POP POP JUMP JUMPDEST PUSH1 0x0 PUSH1 0x20 DUP3 ADD SWAP1 POP DUP2 DUP2 SUB PUSH1 0x0 DUP4 ADD MSTORE PUSH2 0x69C DUP2 DUP5 PUSH2 0x61F JUMP JUMPDEST SWAP1 POP SWAP3 SWAP2 POP POP JUMP JUMPDEST PUSH1 0x0 DUP2 SWAP1 POP SWAP3 SWAP2 POP POP JUMP JUMPDEST PUSH1 0x0 PUSH2 0x6BA DUP3 PUSH2 0x582 JUMP JUMPDEST PUSH2 0x6C4 DUP2 DUP6 PUSH2 0x6A4 JUMP JUMPDEST SWAP4 POP PUSH2 0x6D4 DUP2 DUP6 PUSH1 0x20 DUP7 ADD PUSH2 0x59E JUMP JUMPDEST DUP1 DUP5 ADD SWAP2 POP POP SWAP3 SWAP2 POP POP JUMP JUMPDEST PUSH1 0x0 PUSH2 0x6EC DUP3 DUP5 PUSH2 0x6AF JUMP JUMPDEST SWAP2 POP DUP2 SWAP1 POP SWAP3 SWAP2 POP POP JUMP JUMPDEST PUSH32 0x4E487B7100000000000000000000000000000000000000000000000000000000 PUSH1 0x0 MSTORE PUSH1 0x22 PUSH1 0x4 MSTORE PUSH1 0x24 PUSH1 0x0 REVERT JUMPDEST PUSH1 0x0 PUSH1 0x2 DUP3 DIV SWAP1 POP PUSH1 0x1 DUP3 AND DUP1 PUSH2 0x73E JUMPI PUSH1 0x7F DUP3 AND SWAP2 POP JUMPDEST PUSH1 0x20 DUP3 LT DUP2 SUB PUSH2 0x751 JUMPI PUSH2 0x750 PUSH2 0x6F7 JUMP JUMPDEST JUMPDEST POP SWAP2 SWAP1 POP JUMP JUMPDEST PUSH1 0x0 DUP2 SWAP1 POP DUP2 PUSH1 0x0 MSTORE PUSH1 0x20 PUSH1 0x0 KECCAK256 SWAP1 POP SWAP2 SWAP1 POP JUMP JUMPDEST PUSH1 0x0 PUSH1 0x20 PUSH1 0x1F DUP4 ADD DIV SWAP1 POP SWAP2 SWAP1 POP JUMP JUMPDEST PUSH1 0x0 DUP3 DUP3 SHL SWAP1 POP SWAP3 SWAP2 POP POP JUMP JUMPDEST PUSH1 0x0 PUSH1 0x8 DUP4 MUL PUSH2 0x7B9 PUSH32 0xFFFFFFFFFFFFFFFFFFFFFFFFFFFFFFFFFFFFFFFFFFFFFFFFFFFFFFFFFFFFFFFF DUP3 PUSH2 0x77C JUMP JUMPDEST PUSH2 0x7C3 DUP7 DUP4 PUSH2 0x77C JUMP JUMPDEST SWAP6 POP DUP1 NOT DUP5 AND SWAP4 POP DUP1 DUP7 AND DUP5 OR SWAP3 POP POP POP SWAP4 SWAP3 POP POP POP JUMP JUMPDEST PUSH1 0x0 DUP2 SWAP1 POP SWAP2 SWAP1 POP JUMP JUMPDEST PUSH1 0x0 PUSH2 0x800 PUSH2 0x7FB PUSH2 0x7F6 DUP5 PUSH2 0x422 JUMP JUMPDEST PUSH2 0x7DB JUMP JUMPDEST PUSH2 0x422 JUMP JUMPDEST SWAP1 POP SWAP2 SWAP1 POP JUMP JUMPDEST PUSH1 0x0 DUP2 SWAP1 POP SWAP2 SWAP1 POP JUMP JUMPDEST PUSH2 0x81A DUP4 PUSH2 0x7E5 JUMP JUMPDEST PUSH2 0x82E PUSH2 0x826 DUP3 PUSH2 0x807 JUMP JUMPDEST DUP5 DUP5 SLOAD PUSH2 0x789 JUMP JUMPDEST DUP3 SSTORE POP POP POP POP JUMP JUMPDEST PUSH1 0x0 SWAP1 JUMP JUMPDEST PUSH2 0x843 PUSH2 0x836 JUMP JUMPDEST PUSH2 0x84E DUP2 DUP5 DUP5 PUSH2 0x811 JUMP JUMPDEST POP POP POP JUMP JUMPDEST JUMPDEST DUP2 DUP2 LT ISZERO PUSH2 0x872 JUMPI PUSH2 0x867 PUSH1 0x0 DUP3 PUSH2 0x83B JUMP JUMPDEST PUSH1 0x1 DUP2 ADD SWAP1 POP PUSH2 0x854 JUMP JUMPDEST POP POP JUMP JUMPDEST PUSH1 0x1F DUP3 GT ISZERO PUSH2 0x8B7 JUMPI PUSH2 0x888 DUP2 PUSH2 0x757 JUMP JUMPDEST PUSH2 0x891 DUP5 PUSH2 0x76C JUMP JUMPDEST DUP2 ADD PUSH1 0x20 DUP6 LT ISZERO PUSH2 0x8A0 JUMPI DUP2 SWAP1 POP JUMPDEST PUSH2 0x8B4 PUSH2 0x8AC DUP6 PUSH2 0x76C JUMP JUMPDEST DUP4 ADD DUP3 PUSH2 0x853 JUMP JUMPDEST POP POP JUMPDEST POP POP POP JUMP JUMPDEST PUSH1 0x0 DUP3 DUP3 SHR SWAP1 POP SWAP3 SWAP2 POP POP JUMP JUMPDEST PUSH1 0x0 PUSH2 0x8DA PUSH1 0x0 NOT DUP5 PUSH1 0x8 MUL PUSH2 0x8BC JUMP JUMPDEST NOT DUP1 DUP4 AND SWAP2 POP POP SWAP3 SWAP2 POP POP JUMP JUMPDEST PUSH1 0x0 PUSH2 0x8F3 DUP4 DUP4 PUSH2 0x8C9 JUMP JUMPDEST SWAP2 POP DUP3 PUSH1 0x2 MUL DUP3 OR SWAP1 POP SWAP3 SWAP2 POP POP JUMP JUMPDEST PUSH2 0x90C DUP3 PUSH2 0x582 JUMP JUMPDEST PUSH8 0xFFFFFFFFFFFFFFFF DUP2 GT ISZERO PUSH2 0x925 JUMPI PUSH2 0x924 PUSH2 0x2F7 JUMP JUMPDEST JUMPDEST PUSH2 0x92F DUP3 SLOAD PUSH2 0x726 JUMP JUMPDEST PUSH2 0x93A DUP3 DUP3 DUP6 PUSH2 0x876 JUMP JUMPDEST PUSH1 0x0 PUSH1 0x20 SWAP1 POP PUSH1 0x1F DUP4 GT PUSH1 0x1 DUP2 EQ PUSH2 0x96D JUMPI PUSH1 0x0 DUP5 ISZERO PUSH2 0x95B JUMPI DUP3 DUP8 ADD MLOAD SWAP1 POP JUMPDEST PUSH2 0x965 DUP6 DUP3 PUSH2 0x8E7 JUMP JUMPDEST DUP7 SSTORE POP PUSH2 0x9CD JUMP JUMPDEST PUSH1 0x1F NOT DUP5 AND PUSH2 0x97B DUP7 PUSH2 0x757 JUMP JUMPDEST PUSH1 0x0 JUMPDEST DUP3 DUP2 LT ISZERO PUSH2 0x9A3 JUMPI DUP5 DUP10 ADD MLOAD DUP3 SSTORE PUSH1 0x1 DUP3 ADD SWAP2 POP PUSH1 0x20 DUP6 ADD SWAP5 POP PUSH1 0x20 DUP2 ADD SWAP1 POP PUSH2 0x97E JUMP JUMPDEST DUP7 DUP4 LT ISZERO PUSH2 0x9C0 JUMPI DUP5 DUP10 ADD MLOAD PUSH2 0x9BC PUSH1 0x1F DUP10 AND DUP3 PUSH2 0x8C9 JUMP JUMPDEST DUP4 SSTORE POP JUMPDEST PUSH1 0x1 PUSH1 0x2 DUP9 MUL ADD DUP9 SSTORE POP POP POP JUMPDEST POP POP POP POP POP POP JUMP INVALID LOG2 PUSH5 0x6970667358 0x22 SLT KECCAK256 0xF 0x1E 0xC2 0xC9 PUSH1 0xC8 CHAINID EXTCODECOPY 0xC3 0xE PUSH25 0x84085177CABF3F69C0718CD9CE5E9696F3B6B9797A64736F6C PUSH4 0x43000812 STOP CALLER "
		},
		"gasEstimates": {
			"creation": {
				"codeDepositCost": "514200",
				"executionCost": "549",
				"totalCost": "514749"
			},
			"external": {
				"getInfo(string)": "infinite",
				"setInfo(string,uint256,address,uint256)": "infinite"
			}
		},
		"methodIdentifiers": {
			"getInfo(string)": "7ee005ab",
			"setInfo(string,uint256,address,uint256)": "0eacb5ec"
		}
	},
	"abi": [
		{
			"inputs": [
				{
					"internalType": "string",
					"name": "_name",
					"type": "string"
				}
			],
			"name": "getInfo",
			"outputs": [
				{
					"components": [
						{
							"internalType": "string",
							"name": "name",
							"type": "string"
						},
						{
							"internalType": "uint256",
							"name": "number",
							"type": "uint256"
						},
						{
							"internalType": "address",
							"name": "addr",
							"type": "address"
						},
						{
							"internalType": "uint256",
							"name": "birth",
							"type": "uint256"
						}
					],
					"internalType": "struct Quiz33.guest",
					"name": "",
					"type": "tuple"
				}
			],
			"stateMutability": "view",
			"type": "function"
		},
		{
			"inputs": [
				{
					"internalType": "string",
					"name": "_name",
					"type": "string"
				},
				{
					"internalType": "uint256",
					"name": "_number",
					"type": "uint256"
				},
				{
					"internalType": "address",
					"name": "_addr",
					"type": "address"
				},
				{
					"internalType": "uint256",
					"name": "_birth",
					"type": "uint256"
				}
			],
			"name": "setInfo",
			"outputs": [],
			"stateMutability": "nonpayable",
			"type": "function"
		}
	]
}