{
	"data": {
		"bytecode": {
			"linkReferences": {},
			"object": "608060405234801561001057600080fd5b506103db806100206000396000f3fe608060405234801561001057600080fd5b50600436106100415760003560e01c806311f45e9c146100465780637b43113314610076578063cfe6130b14610092575b600080fd5b610060600480360381019061005b91906102a0565b6100ae565b60405161006d9190610302565b60405180910390f35b610090600480360381019061008b91906102a0565b6100d5565b005b6100ac60048036038101906100a791906102a0565b610121565b005b600080826040516100bf919061038e565b9081526020016040518091039020549050919050565b806040516020016100e6919061038e565b6040516020818303038152906040528051906020012060008260405161010c919061038e565b90815260200160405180910390208190555050565b600081604051610131919061038e565b90815260200160405180910390206000905550565b6000604051905090565b600080fd5b600080fd5b600080fd5b600080fd5b6000601f19601f8301169050919050565b7f4e487b7100000000000000000000000000000000000000000000000000000000600052604160045260246000fd5b6101ad82610164565b810181811067ffffffffffffffff821117156101cc576101cb610175565b5b80604052505050565b60006101df610146565b90506101eb82826101a4565b919050565b600067ffffffffffffffff82111561020b5761020a610175565b5b61021482610164565b9050602081019050919050565b82818337600083830152505050565b600061024361023e846101f0565b6101d5565b90508281526020810184848401111561025f5761025e61015f565b5b61026a848285610221565b509392505050565b600082601f8301126102875761028661015a565b5b8135610297848260208601610230565b91505092915050565b6000602082840312156102b6576102b5610150565b5b600082013567ffffffffffffffff8111156102d4576102d3610155565b5b6102e084828501610272565b91505092915050565b6000819050919050565b6102fc816102e9565b82525050565b600060208201905061031760008301846102f3565b92915050565b600081519050919050565b600081905092915050565b60005b83811015610351578082015181840152602081019050610336565b60008484015250505050565b60006103688261031d565b6103728185610328565b9350610382818560208601610333565b80840191505092915050565b600061039a828461035d565b91508190509291505056fea2646970667358221220ad8a99555e3354f754084cf86b214149a1cadce981e9dfa031d96d416777c8f364736f6c63430008120033",
			"opcodes": "PUSH1 0x80 PUSH1 0x40 MSTORE CALLVALUE DUP1 ISZERO PUSH2 0x10 JUMPI PUSH1 0x0 DUP1 REVERT JUMPDEST POP PUSH2 0x3DB DUP1 PUSH2 0x20 PUSH1 0x0 CODECOPY PUSH1 0x0 RETURN INVALID PUSH1 0x80 PUSH1 0x40 MSTORE CALLVALUE DUP1 ISZERO PUSH2 0x10 JUMPI PUSH1 0x0 DUP1 REVERT JUMPDEST POP PUSH1 0x4 CALLDATASIZE LT PUSH2 0x41 JUMPI PUSH1 0x0 CALLDATALOAD PUSH1 0xE0 SHR DUP1 PUSH4 0x11F45E9C EQ PUSH2 0x46 JUMPI DUP1 PUSH4 0x7B431133 EQ PUSH2 0x76 JUMPI DUP1 PUSH4 0xCFE6130B EQ PUSH2 0x92 JUMPI JUMPDEST PUSH1 0x0 DUP1 REVERT JUMPDEST PUSH2 0x60 PUSH1 0x4 DUP1 CALLDATASIZE SUB DUP2 ADD SWAP1 PUSH2 0x5B SWAP2 SWAP1 PUSH2 0x2A0 JUMP JUMPDEST PUSH2 0xAE JUMP JUMPDEST PUSH1 0x40 MLOAD PUSH2 0x6D SWAP2 SWAP1 PUSH2 0x302 JUMP JUMPDEST PUSH1 0x40 MLOAD DUP1 SWAP2 SUB SWAP1 RETURN JUMPDEST PUSH2 0x90 PUSH1 0x4 DUP1 CALLDATASIZE SUB DUP2 ADD SWAP1 PUSH2 0x8B SWAP2 SWAP1 PUSH2 0x2A0 JUMP JUMPDEST PUSH2 0xD5 JUMP JUMPDEST STOP JUMPDEST PUSH2 0xAC PUSH1 0x4 DUP1 CALLDATASIZE SUB DUP2 ADD SWAP1 PUSH2 0xA7 SWAP2 SWAP1 PUSH2 0x2A0 JUMP JUMPDEST PUSH2 0x121 JUMP JUMPDEST STOP JUMPDEST PUSH1 0x0 DUP1 DUP3 PUSH1 0x40 MLOAD PUSH2 0xBF SWAP2 SWAP1 PUSH2 0x38E JUMP JUMPDEST SWAP1 DUP2 MSTORE PUSH1 0x20 ADD PUSH1 0x40 MLOAD DUP1 SWAP2 SUB SWAP1 KECCAK256 SLOAD SWAP1 POP SWAP2 SWAP1 POP JUMP JUMPDEST DUP1 PUSH1 0x40 MLOAD PUSH1 0x20 ADD PUSH2 0xE6 SWAP2 SWAP1 PUSH2 0x38E JUMP JUMPDEST PUSH1 0x40 MLOAD PUSH1 0x20 DUP2 DUP4 SUB SUB DUP2 MSTORE SWAP1 PUSH1 0x40 MSTORE DUP1 MLOAD SWAP1 PUSH1 0x20 ADD KECCAK256 PUSH1 0x0 DUP3 PUSH1 0x40 MLOAD PUSH2 0x10C SWAP2 SWAP1 PUSH2 0x38E JUMP JUMPDEST SWAP1 DUP2 MSTORE PUSH1 0x20 ADD PUSH1 0x40 MLOAD DUP1 SWAP2 SUB SWAP1 KECCAK256 DUP2 SWAP1 SSTORE POP POP JUMP JUMPDEST PUSH1 0x0 DUP2 PUSH1 0x40 MLOAD PUSH2 0x131 SWAP2 SWAP1 PUSH2 0x38E JUMP JUMPDEST SWAP1 DUP2 MSTORE PUSH1 0x20 ADD PUSH1 0x40 MLOAD DUP1 SWAP2 SUB SWAP1 KECCAK256 PUSH1 0x0 SWAP1 SSTORE POP JUMP JUMPDEST PUSH1 0x0 PUSH1 0x40 MLOAD SWAP1 POP SWAP1 JUMP JUMPDEST PUSH1 0x0 DUP1 REVERT JUMPDEST PUSH1 0x0 DUP1 REVERT JUMPDEST PUSH1 0x0 DUP1 REVERT JUMPDEST PUSH1 0x0 DUP1 REVERT JUMPDEST PUSH1 0x0 PUSH1 0x1F NOT PUSH1 0x1F DUP4 ADD AND SWAP1 POP SWAP2 SWAP1 POP JUMP JUMPDEST PUSH32 0x4E487B7100000000000000000000000000000000000000000000000000000000 PUSH1 0x0 MSTORE PUSH1 0x41 PUSH1 0x4 MSTORE PUSH1 0x24 PUSH1 0x0 REVERT JUMPDEST PUSH2 0x1AD DUP3 PUSH2 0x164 JUMP JUMPDEST DUP2 ADD DUP2 DUP2 LT PUSH8 0xFFFFFFFFFFFFFFFF DUP3 GT OR ISZERO PUSH2 0x1CC JUMPI PUSH2 0x1CB PUSH2 0x175 JUMP JUMPDEST JUMPDEST DUP1 PUSH1 0x40 MSTORE POP POP POP JUMP JUMPDEST PUSH1 0x0 PUSH2 0x1DF PUSH2 0x146 JUMP JUMPDEST SWAP1 POP PUSH2 0x1EB DUP3 DUP3 PUSH2 0x1A4 JUMP JUMPDEST SWAP2 SWAP1 POP JUMP JUMPDEST PUSH1 0x0 PUSH8 0xFFFFFFFFFFFFFFFF DUP3 GT ISZERO PUSH2 0x20B JUMPI PUSH2 0x20A PUSH2 0x175 JUMP JUMPDEST JUMPDEST PUSH2 0x214 DUP3 PUSH2 0x164 JUMP JUMPDEST SWAP1 POP PUSH1 0x20 DUP2 ADD SWAP1 POP SWAP2 SWAP1 POP JUMP JUMPDEST DUP3 DUP2 DUP4 CALLDATACOPY PUSH1 0x0 DUP4 DUP4 ADD MSTORE POP POP POP JUMP JUMPDEST PUSH1 0x0 PUSH2 0x243 PUSH2 0x23E DUP5 PUSH2 0x1F0 JUMP JUMPDEST PUSH2 0x1D5 JUMP JUMPDEST SWAP1 POP DUP3 DUP2 MSTORE PUSH1 0x20 DUP2 ADD DUP5 DUP5 DUP5 ADD GT ISZERO PUSH2 0x25F JUMPI PUSH2 0x25E PUSH2 0x15F JUMP JUMPDEST JUMPDEST PUSH2 0x26A DUP5 DUP3 DUP6 PUSH2 0x221 JUMP JUMPDEST POP SWAP4 SWAP3 POP POP POP JUMP JUMPDEST PUSH1 0x0 DUP3 PUSH1 0x1F DUP4 ADD SLT PUSH2 0x287 JUMPI PUSH2 0x286 PUSH2 0x15A JUMP JUMPDEST JUMPDEST DUP2 CALLDATALOAD PUSH2 0x297 DUP5 DUP3 PUSH1 0x20 DUP7 ADD PUSH2 0x230 JUMP JUMPDEST SWAP2 POP POP SWAP3 SWAP2 POP POP JUMP JUMPDEST PUSH1 0x0 PUSH1 0x20 DUP3 DUP5 SUB SLT ISZERO PUSH2 0x2B6 JUMPI PUSH2 0x2B5 PUSH2 0x150 JUMP JUMPDEST JUMPDEST PUSH1 0x0 DUP3 ADD CALLDATALOAD PUSH8 0xFFFFFFFFFFFFFFFF DUP2 GT ISZERO PUSH2 0x2D4 JUMPI PUSH2 0x2D3 PUSH2 0x155 JUMP JUMPDEST JUMPDEST PUSH2 0x2E0 DUP5 DUP3 DUP6 ADD PUSH2 0x272 JUMP JUMPDEST SWAP2 POP POP SWAP3 SWAP2 POP POP JUMP JUMPDEST PUSH1 0x0 DUP2 SWAP1 POP SWAP2 SWAP1 POP JUMP JUMPDEST PUSH2 0x2FC DUP2 PUSH2 0x2E9 JUMP JUMPDEST DUP3 MSTORE POP POP JUMP JUMPDEST PUSH1 0x0 PUSH1 0x20 DUP3 ADD SWAP1 POP PUSH2 0x317 PUSH1 0x0 DUP4 ADD DUP5 PUSH2 0x2F3 JUMP JUMPDEST SWAP3 SWAP2 POP POP JUMP JUMPDEST PUSH1 0x0 DUP2 MLOAD SWAP1 POP SWAP2 SWAP1 POP JUMP JUMPDEST PUSH1 0x0 DUP2 SWAP1 POP SWAP3 SWAP2 POP POP JUMP JUMPDEST PUSH1 0x0 JUMPDEST DUP4 DUP2 LT ISZERO PUSH2 0x351 JUMPI DUP1 DUP3 ADD MLOAD DUP2 DUP5 ADD MSTORE PUSH1 0x20 DUP2 ADD SWAP1 POP PUSH2 0x336 JUMP JUMPDEST PUSH1 0x0 DUP5 DUP5 ADD MSTORE POP POP POP POP JUMP JUMPDEST PUSH1 0x0 PUSH2 0x368 DUP3 PUSH2 0x31D JUMP JUMPDEST PUSH2 0x372 DUP2 DUP6 PUSH2 0x328 JUMP JUMPDEST SWAP4 POP PUSH2 0x382 DUP2 DUP6 PUSH1 0x20 DUP7 ADD PUSH2 0x333 JUMP JUMPDEST DUP1 DUP5 ADD SWAP2 POP POP SWAP3 SWAP2 POP POP JUMP JUMPDEST PUSH1 0x0 PUSH2 0x39A DUP3 DUP5 PUSH2 0x35D JUMP JUMPDEST SWAP2 POP DUP2 SWAP1 POP SWAP3 SWAP2 POP POP JUMP INVALID LOG2 PUSH5 0x6970667358 0x22 SLT KECCAK256 0xAD DUP11 SWAP10 SSTORE 0x5E CALLER SLOAD 0xF7 SLOAD ADDMOD 0x4C 0xF8 PUSH12 0x214149A1CADCE981E9DFA031 0xD9 PUSH14 0x416777C8F364736F6C6343000812 STOP CALLER "
		},
		"gasEstimates": {
			"creation": {
				"codeDepositCost": "197400",
				"executionCost": "238",
				"totalCost": "197638"
			},
			"external": {
				"deleteMapping(string)": "infinite",
				"getMapping(string)": "infinite",
				"setMapping(string)": "infinite"
			}
		},
		"methodIdentifiers": {
			"deleteMapping(string)": "cfe6130b",
			"getMapping(string)": "11f45e9c",
			"setMapping(string)": "7b431133"
		}
	},
	"abi": [
		{
			"inputs": [
				{
					"internalType": "string",
					"name": "a",
					"type": "string"
				}
			],
			"name": "deleteMapping",
			"outputs": [],
			"stateMutability": "nonpayable",
			"type": "function"
		},
		{
			"inputs": [
				{
					"internalType": "string",
					"name": "a",
					"type": "string"
				}
			],
			"name": "getMapping",
			"outputs": [
				{
					"internalType": "bytes32",
					"name": "",
					"type": "bytes32"
				}
			],
			"stateMutability": "view",
			"type": "function"
		},
		{
			"inputs": [
				{
					"internalType": "string",
					"name": "a",
					"type": "string"
				}
			],
			"name": "setMapping",
			"outputs": [],
			"stateMutability": "nonpayable",
			"type": "function"
		}
	]
}