{
	"data": {
		"bytecode": {
			"linkReferences": {},
			"object": "608060405234801561001057600080fd5b50610494806100206000396000f3fe608060405234801561001057600080fd5b506004361061002b5760003560e01c80639f5110ca14610030575b600080fd5b61004a600480360381019061004591906100f8565b610064565b60405161005b959493929190610147565b60405180910390f35b6000806000806000858761007891906101c9565b868861008491906101fd565b87896100909190610231565b888a61009c91906102a2565b60028b6100a99190610413565b945094509450945094509295509295909350565b600080fd5b6000819050919050565b6100d5816100c2565b81146100e057600080fd5b50565b6000813590506100f2816100cc565b92915050565b6000806040838503121561010f5761010e6100bd565b5b600061011d858286016100e3565b925050602061012e858286016100e3565b9150509250929050565b610141816100c2565b82525050565b600060a08201905061015c6000830188610138565b6101696020830187610138565b6101766040830186610138565b6101836060830185610138565b6101906080830184610138565b9695505050505050565b7f4e487b7100000000000000000000000000000000000000000000000000000000600052601160045260246000fd5b60006101d4826100c2565b91506101df836100c2565b92508282019050808211156101f7576101f661019a565b5b92915050565b6000610208826100c2565b9150610213836100c2565b925082820390508181111561022b5761022a61019a565b5b92915050565b600061023c826100c2565b9150610247836100c2565b9250828202610255816100c2565b9150828204841483151761026c5761026b61019a565b5b5092915050565b7f4e487b7100000000000000000000000000000000000000000000000000000000600052601260045260246000fd5b60006102ad826100c2565b91506102b8836100c2565b9250826102c8576102c7610273565b5b828204905092915050565b60008160011c9050919050565b6000808291508390505b600185111561032a578086048111156103065761030561019a565b5b60018516156103155780820291505b8081029050610323856102d3565b94506102ea565b94509492505050565b60008261034357600190506103ff565b8161035157600090506103ff565b81600181146103675760028114610371576103a0565b60019150506103ff565b60ff8411156103835761038261019a565b5b8360020a91508482111561039a5761039961019a565b5b506103ff565b5060208310610133831016604e8410600b84101617156103d55782820a9050838111156103d0576103cf61019a565b5b6103ff565b6103e284848460016102e0565b925090508184048111156103f9576103f861019a565b5b81810290505b9392505050565b600060ff82169050919050565b600061041e826100c2565b915061042983610406565b92506104567fffffffffffffffffffffffffffffffffffffffffffffffffffffffffffffffff8484610333565b90509291505056fea264697066735822122029e024e8f546e2abbf70ce4fac1a98d7f06bd690f9f040a8e2bf6808ef59e0ce64736f6c63430008120033",
			"opcodes": "PUSH1 0x80 PUSH1 0x40 MSTORE CALLVALUE DUP1 ISZERO PUSH2 0x10 JUMPI PUSH1 0x0 DUP1 REVERT JUMPDEST POP PUSH2 0x494 DUP1 PUSH2 0x20 PUSH1 0x0 CODECOPY PUSH1 0x0 RETURN INVALID PUSH1 0x80 PUSH1 0x40 MSTORE CALLVALUE DUP1 ISZERO PUSH2 0x10 JUMPI PUSH1 0x0 DUP1 REVERT JUMPDEST POP PUSH1 0x4 CALLDATASIZE LT PUSH2 0x2B JUMPI PUSH1 0x0 CALLDATALOAD PUSH1 0xE0 SHR DUP1 PUSH4 0x9F5110CA EQ PUSH2 0x30 JUMPI JUMPDEST PUSH1 0x0 DUP1 REVERT JUMPDEST PUSH2 0x4A PUSH1 0x4 DUP1 CALLDATASIZE SUB DUP2 ADD SWAP1 PUSH2 0x45 SWAP2 SWAP1 PUSH2 0xF8 JUMP JUMPDEST PUSH2 0x64 JUMP JUMPDEST PUSH1 0x40 MLOAD PUSH2 0x5B SWAP6 SWAP5 SWAP4 SWAP3 SWAP2 SWAP1 PUSH2 0x147 JUMP JUMPDEST PUSH1 0x40 MLOAD DUP1 SWAP2 SUB SWAP1 RETURN JUMPDEST PUSH1 0x0 DUP1 PUSH1 0x0 DUP1 PUSH1 0x0 DUP6 DUP8 PUSH2 0x78 SWAP2 SWAP1 PUSH2 0x1C9 JUMP JUMPDEST DUP7 DUP9 PUSH2 0x84 SWAP2 SWAP1 PUSH2 0x1FD JUMP JUMPDEST DUP8 DUP10 PUSH2 0x90 SWAP2 SWAP1 PUSH2 0x231 JUMP JUMPDEST DUP9 DUP11 PUSH2 0x9C SWAP2 SWAP1 PUSH2 0x2A2 JUMP JUMPDEST PUSH1 0x2 DUP12 PUSH2 0xA9 SWAP2 SWAP1 PUSH2 0x413 JUMP JUMPDEST SWAP5 POP SWAP5 POP SWAP5 POP SWAP5 POP SWAP5 POP SWAP3 SWAP6 POP SWAP3 SWAP6 SWAP1 SWAP4 POP JUMP JUMPDEST PUSH1 0x0 DUP1 REVERT JUMPDEST PUSH1 0x0 DUP2 SWAP1 POP SWAP2 SWAP1 POP JUMP JUMPDEST PUSH2 0xD5 DUP2 PUSH2 0xC2 JUMP JUMPDEST DUP2 EQ PUSH2 0xE0 JUMPI PUSH1 0x0 DUP1 REVERT JUMPDEST POP JUMP JUMPDEST PUSH1 0x0 DUP2 CALLDATALOAD SWAP1 POP PUSH2 0xF2 DUP2 PUSH2 0xCC JUMP JUMPDEST SWAP3 SWAP2 POP POP JUMP JUMPDEST PUSH1 0x0 DUP1 PUSH1 0x40 DUP4 DUP6 SUB SLT ISZERO PUSH2 0x10F JUMPI PUSH2 0x10E PUSH2 0xBD JUMP JUMPDEST JUMPDEST PUSH1 0x0 PUSH2 0x11D DUP6 DUP3 DUP7 ADD PUSH2 0xE3 JUMP JUMPDEST SWAP3 POP POP PUSH1 0x20 PUSH2 0x12E DUP6 DUP3 DUP7 ADD PUSH2 0xE3 JUMP JUMPDEST SWAP2 POP POP SWAP3 POP SWAP3 SWAP1 POP JUMP JUMPDEST PUSH2 0x141 DUP2 PUSH2 0xC2 JUMP JUMPDEST DUP3 MSTORE POP POP JUMP JUMPDEST PUSH1 0x0 PUSH1 0xA0 DUP3 ADD SWAP1 POP PUSH2 0x15C PUSH1 0x0 DUP4 ADD DUP9 PUSH2 0x138 JUMP JUMPDEST PUSH2 0x169 PUSH1 0x20 DUP4 ADD DUP8 PUSH2 0x138 JUMP JUMPDEST PUSH2 0x176 PUSH1 0x40 DUP4 ADD DUP7 PUSH2 0x138 JUMP JUMPDEST PUSH2 0x183 PUSH1 0x60 DUP4 ADD DUP6 PUSH2 0x138 JUMP JUMPDEST PUSH2 0x190 PUSH1 0x80 DUP4 ADD DUP5 PUSH2 0x138 JUMP JUMPDEST SWAP7 SWAP6 POP POP POP POP POP POP JUMP JUMPDEST PUSH32 0x4E487B7100000000000000000000000000000000000000000000000000000000 PUSH1 0x0 MSTORE PUSH1 0x11 PUSH1 0x4 MSTORE PUSH1 0x24 PUSH1 0x0 REVERT JUMPDEST PUSH1 0x0 PUSH2 0x1D4 DUP3 PUSH2 0xC2 JUMP JUMPDEST SWAP2 POP PUSH2 0x1DF DUP4 PUSH2 0xC2 JUMP JUMPDEST SWAP3 POP DUP3 DUP3 ADD SWAP1 POP DUP1 DUP3 GT ISZERO PUSH2 0x1F7 JUMPI PUSH2 0x1F6 PUSH2 0x19A JUMP JUMPDEST JUMPDEST SWAP3 SWAP2 POP POP JUMP JUMPDEST PUSH1 0x0 PUSH2 0x208 DUP3 PUSH2 0xC2 JUMP JUMPDEST SWAP2 POP PUSH2 0x213 DUP4 PUSH2 0xC2 JUMP JUMPDEST SWAP3 POP DUP3 DUP3 SUB SWAP1 POP DUP2 DUP2 GT ISZERO PUSH2 0x22B JUMPI PUSH2 0x22A PUSH2 0x19A JUMP JUMPDEST JUMPDEST SWAP3 SWAP2 POP POP JUMP JUMPDEST PUSH1 0x0 PUSH2 0x23C DUP3 PUSH2 0xC2 JUMP JUMPDEST SWAP2 POP PUSH2 0x247 DUP4 PUSH2 0xC2 JUMP JUMPDEST SWAP3 POP DUP3 DUP3 MUL PUSH2 0x255 DUP2 PUSH2 0xC2 JUMP JUMPDEST SWAP2 POP DUP3 DUP3 DIV DUP5 EQ DUP4 ISZERO OR PUSH2 0x26C JUMPI PUSH2 0x26B PUSH2 0x19A JUMP JUMPDEST JUMPDEST POP SWAP3 SWAP2 POP POP JUMP JUMPDEST PUSH32 0x4E487B7100000000000000000000000000000000000000000000000000000000 PUSH1 0x0 MSTORE PUSH1 0x12 PUSH1 0x4 MSTORE PUSH1 0x24 PUSH1 0x0 REVERT JUMPDEST PUSH1 0x0 PUSH2 0x2AD DUP3 PUSH2 0xC2 JUMP JUMPDEST SWAP2 POP PUSH2 0x2B8 DUP4 PUSH2 0xC2 JUMP JUMPDEST SWAP3 POP DUP3 PUSH2 0x2C8 JUMPI PUSH2 0x2C7 PUSH2 0x273 JUMP JUMPDEST JUMPDEST DUP3 DUP3 DIV SWAP1 POP SWAP3 SWAP2 POP POP JUMP JUMPDEST PUSH1 0x0 DUP2 PUSH1 0x1 SHR SWAP1 POP SWAP2 SWAP1 POP JUMP JUMPDEST PUSH1 0x0 DUP1 DUP3 SWAP2 POP DUP4 SWAP1 POP JUMPDEST PUSH1 0x1 DUP6 GT ISZERO PUSH2 0x32A JUMPI DUP1 DUP7 DIV DUP2 GT ISZERO PUSH2 0x306 JUMPI PUSH2 0x305 PUSH2 0x19A JUMP JUMPDEST JUMPDEST PUSH1 0x1 DUP6 AND ISZERO PUSH2 0x315 JUMPI DUP1 DUP3 MUL SWAP2 POP JUMPDEST DUP1 DUP2 MUL SWAP1 POP PUSH2 0x323 DUP6 PUSH2 0x2D3 JUMP JUMPDEST SWAP5 POP PUSH2 0x2EA JUMP JUMPDEST SWAP5 POP SWAP5 SWAP3 POP POP POP JUMP JUMPDEST PUSH1 0x0 DUP3 PUSH2 0x343 JUMPI PUSH1 0x1 SWAP1 POP PUSH2 0x3FF JUMP JUMPDEST DUP2 PUSH2 0x351 JUMPI PUSH1 0x0 SWAP1 POP PUSH2 0x3FF JUMP JUMPDEST DUP2 PUSH1 0x1 DUP2 EQ PUSH2 0x367 JUMPI PUSH1 0x2 DUP2 EQ PUSH2 0x371 JUMPI PUSH2 0x3A0 JUMP JUMPDEST PUSH1 0x1 SWAP2 POP POP PUSH2 0x3FF JUMP JUMPDEST PUSH1 0xFF DUP5 GT ISZERO PUSH2 0x383 JUMPI PUSH2 0x382 PUSH2 0x19A JUMP JUMPDEST JUMPDEST DUP4 PUSH1 0x2 EXP SWAP2 POP DUP5 DUP3 GT ISZERO PUSH2 0x39A JUMPI PUSH2 0x399 PUSH2 0x19A JUMP JUMPDEST JUMPDEST POP PUSH2 0x3FF JUMP JUMPDEST POP PUSH1 0x20 DUP4 LT PUSH2 0x133 DUP4 LT AND PUSH1 0x4E DUP5 LT PUSH1 0xB DUP5 LT AND OR ISZERO PUSH2 0x3D5 JUMPI DUP3 DUP3 EXP SWAP1 POP DUP4 DUP2 GT ISZERO PUSH2 0x3D0 JUMPI PUSH2 0x3CF PUSH2 0x19A JUMP JUMPDEST JUMPDEST PUSH2 0x3FF JUMP JUMPDEST PUSH2 0x3E2 DUP5 DUP5 DUP5 PUSH1 0x1 PUSH2 0x2E0 JUMP JUMPDEST SWAP3 POP SWAP1 POP DUP2 DUP5 DIV DUP2 GT ISZERO PUSH2 0x3F9 JUMPI PUSH2 0x3F8 PUSH2 0x19A JUMP JUMPDEST JUMPDEST DUP2 DUP2 MUL SWAP1 POP JUMPDEST SWAP4 SWAP3 POP POP POP JUMP JUMPDEST PUSH1 0x0 PUSH1 0xFF DUP3 AND SWAP1 POP SWAP2 SWAP1 POP JUMP JUMPDEST PUSH1 0x0 PUSH2 0x41E DUP3 PUSH2 0xC2 JUMP JUMPDEST SWAP2 POP PUSH2 0x429 DUP4 PUSH2 0x406 JUMP JUMPDEST SWAP3 POP PUSH2 0x456 PUSH32 0xFFFFFFFFFFFFFFFFFFFFFFFFFFFFFFFFFFFFFFFFFFFFFFFFFFFFFFFFFFFFFFFF DUP5 DUP5 PUSH2 0x333 JUMP JUMPDEST SWAP1 POP SWAP3 SWAP2 POP POP JUMP INVALID LOG2 PUSH5 0x6970667358 0x22 SLT KECCAK256 0x29 0xE0 0x24 0xE8 CREATE2 CHAINID 0xE2 0xAB 0xBF PUSH17 0xCE4FAC1A98D7F06BD690F9F040A8E2BF68 ADDMOD 0xEF MSIZE 0xE0 0xCE PUSH5 0x736F6C6343 STOP ADDMOD SLT STOP CALLER "
		},
		"gasEstimates": {
			"creation": {
				"codeDepositCost": "234400",
				"executionCost": "275",
				"totalCost": "234675"
			},
			"external": {
				"Calculator(uint256,uint256)": "infinite"
			}
		},
		"methodIdentifiers": {
			"Calculator(uint256,uint256)": "9f5110ca"
		}
	},
	"abi": [
		{
			"inputs": [
				{
					"internalType": "uint256",
					"name": "a",
					"type": "uint256"
				},
				{
					"internalType": "uint256",
					"name": "b",
					"type": "uint256"
				}
			],
			"name": "Calculator",
			"outputs": [
				{
					"internalType": "uint256",
					"name": "",
					"type": "uint256"
				},
				{
					"internalType": "uint256",
					"name": "",
					"type": "uint256"
				},
				{
					"internalType": "uint256",
					"name": "",
					"type": "uint256"
				},
				{
					"internalType": "uint256",
					"name": "",
					"type": "uint256"
				},
				{
					"internalType": "uint256",
					"name": "",
					"type": "uint256"
				}
			],
			"stateMutability": "pure",
			"type": "function"
		}
	]
}