{
	"data": {
		"bytecode": {
			"linkReferences": {},
			"object": "608060405234801561001057600080fd5b50610ad8806100206000396000f3fe608060405234801561001057600080fd5b50600436106100415760003560e01c8063df72cdbf14610046578063e425e07114610064578063f1d064b314610080575b600080fd5b61004e61009e565b60405161005b91906102cb565b60405180910390f35b61007e6004803603810190610079919061046c565b610126565b005b6100886101ad565b6040516100959190610668565b60405180910390f35b600080600080549050116100b157600080fd5b60008060005b60008054905081101561010a57600081815481106100d8576100d761068a565b5b906000526020600020906003020160020154826100f591906106e8565b915080806101029061071c565b9150506100b7565b506000805490508161011c9190610793565b9150819250505090565b60006040518060600160405280848152602001600160008054905061014b91906106e8565b8152602001838152509080600181540180825580915050600190039060005260206000209060030201600090919091909150600082015181600001908161019291906109d0565b50602082015181600101556040820151816002015550505050565b60606000805480602002602001604051908101604052809291908181526020016000905b828210156102a95783829060005260206000209060030201604051806060016040529081600082018054610204906107f3565b80601f0160208091040260200160405190810160405280929190818152602001828054610230906107f3565b801561027d5780601f106102525761010080835404028352916020019161027d565b820191906000526020600020905b81548152906001019060200180831161026057829003601f168201915b5050505050815260200160018201548152602001600282015481525050815260200190600101906101d1565b50505050905090565b6000819050919050565b6102c5816102b2565b82525050565b60006020820190506102e060008301846102bc565b92915050565b6000604051905090565b600080fd5b600080fd5b600080fd5b600080fd5b6000601f19601f8301169050919050565b7f4e487b7100000000000000000000000000000000000000000000000000000000600052604160045260246000fd5b61034d82610304565b810181811067ffffffffffffffff8211171561036c5761036b610315565b5b80604052505050565b600061037f6102e6565b905061038b8282610344565b919050565b600067ffffffffffffffff8211156103ab576103aa610315565b5b6103b482610304565b9050602081019050919050565b82818337600083830152505050565b60006103e36103de84610390565b610375565b9050828152602081018484840111156103ff576103fe6102ff565b5b61040a8482856103c1565b509392505050565b600082601f830112610427576104266102fa565b5b81356104378482602086016103d0565b91505092915050565b610449816102b2565b811461045457600080fd5b50565b60008135905061046681610440565b92915050565b60008060408385031215610483576104826102f0565b5b600083013567ffffffffffffffff8111156104a1576104a06102f5565b5b6104ad85828601610412565b92505060206104be85828601610457565b9150509250929050565b600081519050919050565b600082825260208201905092915050565b6000819050602082019050919050565b600081519050919050565b600082825260208201905092915050565b60005b8381101561052e578082015181840152602081019050610513565b60008484015250505050565b6000610545826104f4565b61054f81856104ff565b935061055f818560208601610510565b61056881610304565b840191505092915050565b61057c816102b2565b82525050565b6000606083016000830151848203600086015261059f828261053a565b91505060208301516105b46020860182610573565b5060408301516105c76040860182610573565b508091505092915050565b60006105de8383610582565b905092915050565b6000602082019050919050565b60006105fe826104c8565b61060881856104d3565b93508360208202850161061a856104e4565b8060005b85811015610656578484038952815161063785826105d2565b9450610642836105e6565b925060208a0199505060018101905061061e565b50829750879550505050505092915050565b6000602082019050818103600083015261068281846105f3565b905092915050565b7f4e487b7100000000000000000000000000000000000000000000000000000000600052603260045260246000fd5b7f4e487b7100000000000000000000000000000000000000000000000000000000600052601160045260246000fd5b60006106f3826102b2565b91506106fe836102b2565b9250828201905080821115610716576107156106b9565b5b92915050565b6000610727826102b2565b91507fffffffffffffffffffffffffffffffffffffffffffffffffffffffffffffffff8203610759576107586106b9565b5b600182019050919050565b7f4e487b7100000000000000000000000000000000000000000000000000000000600052601260045260246000fd5b600061079e826102b2565b91506107a9836102b2565b9250826107b9576107b8610764565b5b828204905092915050565b7f4e487b7100000000000000000000000000000000000000000000000000000000600052602260045260246000fd5b6000600282049050600182168061080b57607f821691505b60208210810361081e5761081d6107c4565b5b50919050565b60008190508160005260206000209050919050565b60006020601f8301049050919050565b600082821b905092915050565b6000600883026108867fffffffffffffffffffffffffffffffffffffffffffffffffffffffffffffffff82610849565b6108908683610849565b95508019841693508086168417925050509392505050565b6000819050919050565b60006108cd6108c86108c3846102b2565b6108a8565b6102b2565b9050919050565b6000819050919050565b6108e7836108b2565b6108fb6108f3826108d4565b848454610856565b825550505050565b600090565b610910610903565b61091b8184846108de565b505050565b5b8181101561093f57610934600082610908565b600181019050610921565b5050565b601f8211156109845761095581610824565b61095e84610839565b8101602085101561096d578190505b61098161097985610839565b830182610920565b50505b505050565b600082821c905092915050565b60006109a760001984600802610989565b1980831691505092915050565b60006109c08383610996565b9150826002028217905092915050565b6109d9826104f4565b67ffffffffffffffff8111156109f2576109f1610315565b5b6109fc82546107f3565b610a07828285610943565b600060209050601f831160018114610a3a5760008415610a28578287015190505b610a3285826109b4565b865550610a9a565b601f198416610a4886610824565b60005b82811015610a7057848901518255600182019150602085019450602081019050610a4b565b86831015610a8d5784890151610a89601f891682610996565b8355505b6001600288020188555050505b50505050505056fea2646970667358221220f99fb7bb9e907b4274d3f03845e089dc48e2fa39bed293751b04756424e0bae564736f6c63430008120033",
			"opcodes": "PUSH1 0x80 PUSH1 0x40 MSTORE CALLVALUE DUP1 ISZERO PUSH2 0x10 JUMPI PUSH1 0x0 DUP1 REVERT JUMPDEST POP PUSH2 0xAD8 DUP1 PUSH2 0x20 PUSH1 0x0 CODECOPY PUSH1 0x0 RETURN INVALID PUSH1 0x80 PUSH1 0x40 MSTORE CALLVALUE DUP1 ISZERO PUSH2 0x10 JUMPI PUSH1 0x0 DUP1 REVERT JUMPDEST POP PUSH1 0x4 CALLDATASIZE LT PUSH2 0x41 JUMPI PUSH1 0x0 CALLDATALOAD PUSH1 0xE0 SHR DUP1 PUSH4 0xDF72CDBF EQ PUSH2 0x46 JUMPI DUP1 PUSH4 0xE425E071 EQ PUSH2 0x64 JUMPI DUP1 PUSH4 0xF1D064B3 EQ PUSH2 0x80 JUMPI JUMPDEST PUSH1 0x0 DUP1 REVERT JUMPDEST PUSH2 0x4E PUSH2 0x9E JUMP JUMPDEST PUSH1 0x40 MLOAD PUSH2 0x5B SWAP2 SWAP1 PUSH2 0x2CB JUMP JUMPDEST PUSH1 0x40 MLOAD DUP1 SWAP2 SUB SWAP1 RETURN JUMPDEST PUSH2 0x7E PUSH1 0x4 DUP1 CALLDATASIZE SUB DUP2 ADD SWAP1 PUSH2 0x79 SWAP2 SWAP1 PUSH2 0x46C JUMP JUMPDEST PUSH2 0x126 JUMP JUMPDEST STOP JUMPDEST PUSH2 0x88 PUSH2 0x1AD JUMP JUMPDEST PUSH1 0x40 MLOAD PUSH2 0x95 SWAP2 SWAP1 PUSH2 0x668 JUMP JUMPDEST PUSH1 0x40 MLOAD DUP1 SWAP2 SUB SWAP1 RETURN JUMPDEST PUSH1 0x0 DUP1 PUSH1 0x0 DUP1 SLOAD SWAP1 POP GT PUSH2 0xB1 JUMPI PUSH1 0x0 DUP1 REVERT JUMPDEST PUSH1 0x0 DUP1 PUSH1 0x0 JUMPDEST PUSH1 0x0 DUP1 SLOAD SWAP1 POP DUP2 LT ISZERO PUSH2 0x10A JUMPI PUSH1 0x0 DUP2 DUP2 SLOAD DUP2 LT PUSH2 0xD8 JUMPI PUSH2 0xD7 PUSH2 0x68A JUMP JUMPDEST JUMPDEST SWAP1 PUSH1 0x0 MSTORE PUSH1 0x20 PUSH1 0x0 KECCAK256 SWAP1 PUSH1 0x3 MUL ADD PUSH1 0x2 ADD SLOAD DUP3 PUSH2 0xF5 SWAP2 SWAP1 PUSH2 0x6E8 JUMP JUMPDEST SWAP2 POP DUP1 DUP1 PUSH2 0x102 SWAP1 PUSH2 0x71C JUMP JUMPDEST SWAP2 POP POP PUSH2 0xB7 JUMP JUMPDEST POP PUSH1 0x0 DUP1 SLOAD SWAP1 POP DUP2 PUSH2 0x11C SWAP2 SWAP1 PUSH2 0x793 JUMP JUMPDEST SWAP2 POP DUP2 SWAP3 POP POP POP SWAP1 JUMP JUMPDEST PUSH1 0x0 PUSH1 0x40 MLOAD DUP1 PUSH1 0x60 ADD PUSH1 0x40 MSTORE DUP1 DUP5 DUP2 MSTORE PUSH1 0x20 ADD PUSH1 0x1 PUSH1 0x0 DUP1 SLOAD SWAP1 POP PUSH2 0x14B SWAP2 SWAP1 PUSH2 0x6E8 JUMP JUMPDEST DUP2 MSTORE PUSH1 0x20 ADD DUP4 DUP2 MSTORE POP SWAP1 DUP1 PUSH1 0x1 DUP2 SLOAD ADD DUP1 DUP3 SSTORE DUP1 SWAP2 POP POP PUSH1 0x1 SWAP1 SUB SWAP1 PUSH1 0x0 MSTORE PUSH1 0x20 PUSH1 0x0 KECCAK256 SWAP1 PUSH1 0x3 MUL ADD PUSH1 0x0 SWAP1 SWAP2 SWAP1 SWAP2 SWAP1 SWAP2 POP PUSH1 0x0 DUP3 ADD MLOAD DUP2 PUSH1 0x0 ADD SWAP1 DUP2 PUSH2 0x192 SWAP2 SWAP1 PUSH2 0x9D0 JUMP JUMPDEST POP PUSH1 0x20 DUP3 ADD MLOAD DUP2 PUSH1 0x1 ADD SSTORE PUSH1 0x40 DUP3 ADD MLOAD DUP2 PUSH1 0x2 ADD SSTORE POP POP POP POP JUMP JUMPDEST PUSH1 0x60 PUSH1 0x0 DUP1 SLOAD DUP1 PUSH1 0x20 MUL PUSH1 0x20 ADD PUSH1 0x40 MLOAD SWAP1 DUP2 ADD PUSH1 0x40 MSTORE DUP1 SWAP3 SWAP2 SWAP1 DUP2 DUP2 MSTORE PUSH1 0x20 ADD PUSH1 0x0 SWAP1 JUMPDEST DUP3 DUP3 LT ISZERO PUSH2 0x2A9 JUMPI DUP4 DUP3 SWAP1 PUSH1 0x0 MSTORE PUSH1 0x20 PUSH1 0x0 KECCAK256 SWAP1 PUSH1 0x3 MUL ADD PUSH1 0x40 MLOAD DUP1 PUSH1 0x60 ADD PUSH1 0x40 MSTORE SWAP1 DUP2 PUSH1 0x0 DUP3 ADD DUP1 SLOAD PUSH2 0x204 SWAP1 PUSH2 0x7F3 JUMP JUMPDEST DUP1 PUSH1 0x1F ADD PUSH1 0x20 DUP1 SWAP2 DIV MUL PUSH1 0x20 ADD PUSH1 0x40 MLOAD SWAP1 DUP2 ADD PUSH1 0x40 MSTORE DUP1 SWAP3 SWAP2 SWAP1 DUP2 DUP2 MSTORE PUSH1 0x20 ADD DUP3 DUP1 SLOAD PUSH2 0x230 SWAP1 PUSH2 0x7F3 JUMP JUMPDEST DUP1 ISZERO PUSH2 0x27D JUMPI DUP1 PUSH1 0x1F LT PUSH2 0x252 JUMPI PUSH2 0x100 DUP1 DUP4 SLOAD DIV MUL DUP4 MSTORE SWAP2 PUSH1 0x20 ADD SWAP2 PUSH2 0x27D JUMP JUMPDEST DUP3 ADD SWAP2 SWAP1 PUSH1 0x0 MSTORE PUSH1 0x20 PUSH1 0x0 KECCAK256 SWAP1 JUMPDEST DUP2 SLOAD DUP2 MSTORE SWAP1 PUSH1 0x1 ADD SWAP1 PUSH1 0x20 ADD DUP1 DUP4 GT PUSH2 0x260 JUMPI DUP3 SWAP1 SUB PUSH1 0x1F AND DUP3 ADD SWAP2 JUMPDEST POP POP POP POP POP DUP2 MSTORE PUSH1 0x20 ADD PUSH1 0x1 DUP3 ADD SLOAD DUP2 MSTORE PUSH1 0x20 ADD PUSH1 0x2 DUP3 ADD SLOAD DUP2 MSTORE POP POP DUP2 MSTORE PUSH1 0x20 ADD SWAP1 PUSH1 0x1 ADD SWAP1 PUSH2 0x1D1 JUMP JUMPDEST POP POP POP POP SWAP1 POP SWAP1 JUMP JUMPDEST PUSH1 0x0 DUP2 SWAP1 POP SWAP2 SWAP1 POP JUMP JUMPDEST PUSH2 0x2C5 DUP2 PUSH2 0x2B2 JUMP JUMPDEST DUP3 MSTORE POP POP JUMP JUMPDEST PUSH1 0x0 PUSH1 0x20 DUP3 ADD SWAP1 POP PUSH2 0x2E0 PUSH1 0x0 DUP4 ADD DUP5 PUSH2 0x2BC JUMP JUMPDEST SWAP3 SWAP2 POP POP JUMP JUMPDEST PUSH1 0x0 PUSH1 0x40 MLOAD SWAP1 POP SWAP1 JUMP JUMPDEST PUSH1 0x0 DUP1 REVERT JUMPDEST PUSH1 0x0 DUP1 REVERT JUMPDEST PUSH1 0x0 DUP1 REVERT JUMPDEST PUSH1 0x0 DUP1 REVERT JUMPDEST PUSH1 0x0 PUSH1 0x1F NOT PUSH1 0x1F DUP4 ADD AND SWAP1 POP SWAP2 SWAP1 POP JUMP JUMPDEST PUSH32 0x4E487B7100000000000000000000000000000000000000000000000000000000 PUSH1 0x0 MSTORE PUSH1 0x41 PUSH1 0x4 MSTORE PUSH1 0x24 PUSH1 0x0 REVERT JUMPDEST PUSH2 0x34D DUP3 PUSH2 0x304 JUMP JUMPDEST DUP2 ADD DUP2 DUP2 LT PUSH8 0xFFFFFFFFFFFFFFFF DUP3 GT OR ISZERO PUSH2 0x36C JUMPI PUSH2 0x36B PUSH2 0x315 JUMP JUMPDEST JUMPDEST DUP1 PUSH1 0x40 MSTORE POP POP POP JUMP JUMPDEST PUSH1 0x0 PUSH2 0x37F PUSH2 0x2E6 JUMP JUMPDEST SWAP1 POP PUSH2 0x38B DUP3 DUP3 PUSH2 0x344 JUMP JUMPDEST SWAP2 SWAP1 POP JUMP JUMPDEST PUSH1 0x0 PUSH8 0xFFFFFFFFFFFFFFFF DUP3 GT ISZERO PUSH2 0x3AB JUMPI PUSH2 0x3AA PUSH2 0x315 JUMP JUMPDEST JUMPDEST PUSH2 0x3B4 DUP3 PUSH2 0x304 JUMP JUMPDEST SWAP1 POP PUSH1 0x20 DUP2 ADD SWAP1 POP SWAP2 SWAP1 POP JUMP JUMPDEST DUP3 DUP2 DUP4 CALLDATACOPY PUSH1 0x0 DUP4 DUP4 ADD MSTORE POP POP POP JUMP JUMPDEST PUSH1 0x0 PUSH2 0x3E3 PUSH2 0x3DE DUP5 PUSH2 0x390 JUMP JUMPDEST PUSH2 0x375 JUMP JUMPDEST SWAP1 POP DUP3 DUP2 MSTORE PUSH1 0x20 DUP2 ADD DUP5 DUP5 DUP5 ADD GT ISZERO PUSH2 0x3FF JUMPI PUSH2 0x3FE PUSH2 0x2FF JUMP JUMPDEST JUMPDEST PUSH2 0x40A DUP5 DUP3 DUP6 PUSH2 0x3C1 JUMP JUMPDEST POP SWAP4 SWAP3 POP POP POP JUMP JUMPDEST PUSH1 0x0 DUP3 PUSH1 0x1F DUP4 ADD SLT PUSH2 0x427 JUMPI PUSH2 0x426 PUSH2 0x2FA JUMP JUMPDEST JUMPDEST DUP2 CALLDATALOAD PUSH2 0x437 DUP5 DUP3 PUSH1 0x20 DUP7 ADD PUSH2 0x3D0 JUMP JUMPDEST SWAP2 POP POP SWAP3 SWAP2 POP POP JUMP JUMPDEST PUSH2 0x449 DUP2 PUSH2 0x2B2 JUMP JUMPDEST DUP2 EQ PUSH2 0x454 JUMPI PUSH1 0x0 DUP1 REVERT JUMPDEST POP JUMP JUMPDEST PUSH1 0x0 DUP2 CALLDATALOAD SWAP1 POP PUSH2 0x466 DUP2 PUSH2 0x440 JUMP JUMPDEST SWAP3 SWAP2 POP POP JUMP JUMPDEST PUSH1 0x0 DUP1 PUSH1 0x40 DUP4 DUP6 SUB SLT ISZERO PUSH2 0x483 JUMPI PUSH2 0x482 PUSH2 0x2F0 JUMP JUMPDEST JUMPDEST PUSH1 0x0 DUP4 ADD CALLDATALOAD PUSH8 0xFFFFFFFFFFFFFFFF DUP2 GT ISZERO PUSH2 0x4A1 JUMPI PUSH2 0x4A0 PUSH2 0x2F5 JUMP JUMPDEST JUMPDEST PUSH2 0x4AD DUP6 DUP3 DUP7 ADD PUSH2 0x412 JUMP JUMPDEST SWAP3 POP POP PUSH1 0x20 PUSH2 0x4BE DUP6 DUP3 DUP7 ADD PUSH2 0x457 JUMP JUMPDEST SWAP2 POP POP SWAP3 POP SWAP3 SWAP1 POP JUMP JUMPDEST PUSH1 0x0 DUP2 MLOAD SWAP1 POP SWAP2 SWAP1 POP JUMP JUMPDEST PUSH1 0x0 DUP3 DUP3 MSTORE PUSH1 0x20 DUP3 ADD SWAP1 POP SWAP3 SWAP2 POP POP JUMP JUMPDEST PUSH1 0x0 DUP2 SWAP1 POP PUSH1 0x20 DUP3 ADD SWAP1 POP SWAP2 SWAP1 POP JUMP JUMPDEST PUSH1 0x0 DUP2 MLOAD SWAP1 POP SWAP2 SWAP1 POP JUMP JUMPDEST PUSH1 0x0 DUP3 DUP3 MSTORE PUSH1 0x20 DUP3 ADD SWAP1 POP SWAP3 SWAP2 POP POP JUMP JUMPDEST PUSH1 0x0 JUMPDEST DUP4 DUP2 LT ISZERO PUSH2 0x52E JUMPI DUP1 DUP3 ADD MLOAD DUP2 DUP5 ADD MSTORE PUSH1 0x20 DUP2 ADD SWAP1 POP PUSH2 0x513 JUMP JUMPDEST PUSH1 0x0 DUP5 DUP5 ADD MSTORE POP POP POP POP JUMP JUMPDEST PUSH1 0x0 PUSH2 0x545 DUP3 PUSH2 0x4F4 JUMP JUMPDEST PUSH2 0x54F DUP2 DUP6 PUSH2 0x4FF JUMP JUMPDEST SWAP4 POP PUSH2 0x55F DUP2 DUP6 PUSH1 0x20 DUP7 ADD PUSH2 0x510 JUMP JUMPDEST PUSH2 0x568 DUP2 PUSH2 0x304 JUMP JUMPDEST DUP5 ADD SWAP2 POP POP SWAP3 SWAP2 POP POP JUMP JUMPDEST PUSH2 0x57C DUP2 PUSH2 0x2B2 JUMP JUMPDEST DUP3 MSTORE POP POP JUMP JUMPDEST PUSH1 0x0 PUSH1 0x60 DUP4 ADD PUSH1 0x0 DUP4 ADD MLOAD DUP5 DUP3 SUB PUSH1 0x0 DUP7 ADD MSTORE PUSH2 0x59F DUP3 DUP3 PUSH2 0x53A JUMP JUMPDEST SWAP2 POP POP PUSH1 0x20 DUP4 ADD MLOAD PUSH2 0x5B4 PUSH1 0x20 DUP7 ADD DUP3 PUSH2 0x573 JUMP JUMPDEST POP PUSH1 0x40 DUP4 ADD MLOAD PUSH2 0x5C7 PUSH1 0x40 DUP7 ADD DUP3 PUSH2 0x573 JUMP JUMPDEST POP DUP1 SWAP2 POP POP SWAP3 SWAP2 POP POP JUMP JUMPDEST PUSH1 0x0 PUSH2 0x5DE DUP4 DUP4 PUSH2 0x582 JUMP JUMPDEST SWAP1 POP SWAP3 SWAP2 POP POP JUMP JUMPDEST PUSH1 0x0 PUSH1 0x20 DUP3 ADD SWAP1 POP SWAP2 SWAP1 POP JUMP JUMPDEST PUSH1 0x0 PUSH2 0x5FE DUP3 PUSH2 0x4C8 JUMP JUMPDEST PUSH2 0x608 DUP2 DUP6 PUSH2 0x4D3 JUMP JUMPDEST SWAP4 POP DUP4 PUSH1 0x20 DUP3 MUL DUP6 ADD PUSH2 0x61A DUP6 PUSH2 0x4E4 JUMP JUMPDEST DUP1 PUSH1 0x0 JUMPDEST DUP6 DUP2 LT ISZERO PUSH2 0x656 JUMPI DUP5 DUP5 SUB DUP10 MSTORE DUP2 MLOAD PUSH2 0x637 DUP6 DUP3 PUSH2 0x5D2 JUMP JUMPDEST SWAP5 POP PUSH2 0x642 DUP4 PUSH2 0x5E6 JUMP JUMPDEST SWAP3 POP PUSH1 0x20 DUP11 ADD SWAP10 POP POP PUSH1 0x1 DUP2 ADD SWAP1 POP PUSH2 0x61E JUMP JUMPDEST POP DUP3 SWAP8 POP DUP8 SWAP6 POP POP POP POP POP POP SWAP3 SWAP2 POP POP JUMP JUMPDEST PUSH1 0x0 PUSH1 0x20 DUP3 ADD SWAP1 POP DUP2 DUP2 SUB PUSH1 0x0 DUP4 ADD MSTORE PUSH2 0x682 DUP2 DUP5 PUSH2 0x5F3 JUMP JUMPDEST SWAP1 POP SWAP3 SWAP2 POP POP JUMP JUMPDEST PUSH32 0x4E487B7100000000000000000000000000000000000000000000000000000000 PUSH1 0x0 MSTORE PUSH1 0x32 PUSH1 0x4 MSTORE PUSH1 0x24 PUSH1 0x0 REVERT JUMPDEST PUSH32 0x4E487B7100000000000000000000000000000000000000000000000000000000 PUSH1 0x0 MSTORE PUSH1 0x11 PUSH1 0x4 MSTORE PUSH1 0x24 PUSH1 0x0 REVERT JUMPDEST PUSH1 0x0 PUSH2 0x6F3 DUP3 PUSH2 0x2B2 JUMP JUMPDEST SWAP2 POP PUSH2 0x6FE DUP4 PUSH2 0x2B2 JUMP JUMPDEST SWAP3 POP DUP3 DUP3 ADD SWAP1 POP DUP1 DUP3 GT ISZERO PUSH2 0x716 JUMPI PUSH2 0x715 PUSH2 0x6B9 JUMP JUMPDEST JUMPDEST SWAP3 SWAP2 POP POP JUMP JUMPDEST PUSH1 0x0 PUSH2 0x727 DUP3 PUSH2 0x2B2 JUMP JUMPDEST SWAP2 POP PUSH32 0xFFFFFFFFFFFFFFFFFFFFFFFFFFFFFFFFFFFFFFFFFFFFFFFFFFFFFFFFFFFFFFFF DUP3 SUB PUSH2 0x759 JUMPI PUSH2 0x758 PUSH2 0x6B9 JUMP JUMPDEST JUMPDEST PUSH1 0x1 DUP3 ADD SWAP1 POP SWAP2 SWAP1 POP JUMP JUMPDEST PUSH32 0x4E487B7100000000000000000000000000000000000000000000000000000000 PUSH1 0x0 MSTORE PUSH1 0x12 PUSH1 0x4 MSTORE PUSH1 0x24 PUSH1 0x0 REVERT JUMPDEST PUSH1 0x0 PUSH2 0x79E DUP3 PUSH2 0x2B2 JUMP JUMPDEST SWAP2 POP PUSH2 0x7A9 DUP4 PUSH2 0x2B2 JUMP JUMPDEST SWAP3 POP DUP3 PUSH2 0x7B9 JUMPI PUSH2 0x7B8 PUSH2 0x764 JUMP JUMPDEST JUMPDEST DUP3 DUP3 DIV SWAP1 POP SWAP3 SWAP2 POP POP JUMP JUMPDEST PUSH32 0x4E487B7100000000000000000000000000000000000000000000000000000000 PUSH1 0x0 MSTORE PUSH1 0x22 PUSH1 0x4 MSTORE PUSH1 0x24 PUSH1 0x0 REVERT JUMPDEST PUSH1 0x0 PUSH1 0x2 DUP3 DIV SWAP1 POP PUSH1 0x1 DUP3 AND DUP1 PUSH2 0x80B JUMPI PUSH1 0x7F DUP3 AND SWAP2 POP JUMPDEST PUSH1 0x20 DUP3 LT DUP2 SUB PUSH2 0x81E JUMPI PUSH2 0x81D PUSH2 0x7C4 JUMP JUMPDEST JUMPDEST POP SWAP2 SWAP1 POP JUMP JUMPDEST PUSH1 0x0 DUP2 SWAP1 POP DUP2 PUSH1 0x0 MSTORE PUSH1 0x20 PUSH1 0x0 KECCAK256 SWAP1 POP SWAP2 SWAP1 POP JUMP JUMPDEST PUSH1 0x0 PUSH1 0x20 PUSH1 0x1F DUP4 ADD DIV SWAP1 POP SWAP2 SWAP1 POP JUMP JUMPDEST PUSH1 0x0 DUP3 DUP3 SHL SWAP1 POP SWAP3 SWAP2 POP POP JUMP JUMPDEST PUSH1 0x0 PUSH1 0x8 DUP4 MUL PUSH2 0x886 PUSH32 0xFFFFFFFFFFFFFFFFFFFFFFFFFFFFFFFFFFFFFFFFFFFFFFFFFFFFFFFFFFFFFFFF DUP3 PUSH2 0x849 JUMP JUMPDEST PUSH2 0x890 DUP7 DUP4 PUSH2 0x849 JUMP JUMPDEST SWAP6 POP DUP1 NOT DUP5 AND SWAP4 POP DUP1 DUP7 AND DUP5 OR SWAP3 POP POP POP SWAP4 SWAP3 POP POP POP JUMP JUMPDEST PUSH1 0x0 DUP2 SWAP1 POP SWAP2 SWAP1 POP JUMP JUMPDEST PUSH1 0x0 PUSH2 0x8CD PUSH2 0x8C8 PUSH2 0x8C3 DUP5 PUSH2 0x2B2 JUMP JUMPDEST PUSH2 0x8A8 JUMP JUMPDEST PUSH2 0x2B2 JUMP JUMPDEST SWAP1 POP SWAP2 SWAP1 POP JUMP JUMPDEST PUSH1 0x0 DUP2 SWAP1 POP SWAP2 SWAP1 POP JUMP JUMPDEST PUSH2 0x8E7 DUP4 PUSH2 0x8B2 JUMP JUMPDEST PUSH2 0x8FB PUSH2 0x8F3 DUP3 PUSH2 0x8D4 JUMP JUMPDEST DUP5 DUP5 SLOAD PUSH2 0x856 JUMP JUMPDEST DUP3 SSTORE POP POP POP POP JUMP JUMPDEST PUSH1 0x0 SWAP1 JUMP JUMPDEST PUSH2 0x910 PUSH2 0x903 JUMP JUMPDEST PUSH2 0x91B DUP2 DUP5 DUP5 PUSH2 0x8DE JUMP JUMPDEST POP POP POP JUMP JUMPDEST JUMPDEST DUP2 DUP2 LT ISZERO PUSH2 0x93F JUMPI PUSH2 0x934 PUSH1 0x0 DUP3 PUSH2 0x908 JUMP JUMPDEST PUSH1 0x1 DUP2 ADD SWAP1 POP PUSH2 0x921 JUMP JUMPDEST POP POP JUMP JUMPDEST PUSH1 0x1F DUP3 GT ISZERO PUSH2 0x984 JUMPI PUSH2 0x955 DUP2 PUSH2 0x824 JUMP JUMPDEST PUSH2 0x95E DUP5 PUSH2 0x839 JUMP JUMPDEST DUP2 ADD PUSH1 0x20 DUP6 LT ISZERO PUSH2 0x96D JUMPI DUP2 SWAP1 POP JUMPDEST PUSH2 0x981 PUSH2 0x979 DUP6 PUSH2 0x839 JUMP JUMPDEST DUP4 ADD DUP3 PUSH2 0x920 JUMP JUMPDEST POP POP JUMPDEST POP POP POP JUMP JUMPDEST PUSH1 0x0 DUP3 DUP3 SHR SWAP1 POP SWAP3 SWAP2 POP POP JUMP JUMPDEST PUSH1 0x0 PUSH2 0x9A7 PUSH1 0x0 NOT DUP5 PUSH1 0x8 MUL PUSH2 0x989 JUMP JUMPDEST NOT DUP1 DUP4 AND SWAP2 POP POP SWAP3 SWAP2 POP POP JUMP JUMPDEST PUSH1 0x0 PUSH2 0x9C0 DUP4 DUP4 PUSH2 0x996 JUMP JUMPDEST SWAP2 POP DUP3 PUSH1 0x2 MUL DUP3 OR SWAP1 POP SWAP3 SWAP2 POP POP JUMP JUMPDEST PUSH2 0x9D9 DUP3 PUSH2 0x4F4 JUMP JUMPDEST PUSH8 0xFFFFFFFFFFFFFFFF DUP2 GT ISZERO PUSH2 0x9F2 JUMPI PUSH2 0x9F1 PUSH2 0x315 JUMP JUMPDEST JUMPDEST PUSH2 0x9FC DUP3 SLOAD PUSH2 0x7F3 JUMP JUMPDEST PUSH2 0xA07 DUP3 DUP3 DUP6 PUSH2 0x943 JUMP JUMPDEST PUSH1 0x0 PUSH1 0x20 SWAP1 POP PUSH1 0x1F DUP4 GT PUSH1 0x1 DUP2 EQ PUSH2 0xA3A JUMPI PUSH1 0x0 DUP5 ISZERO PUSH2 0xA28 JUMPI DUP3 DUP8 ADD MLOAD SWAP1 POP JUMPDEST PUSH2 0xA32 DUP6 DUP3 PUSH2 0x9B4 JUMP JUMPDEST DUP7 SSTORE POP PUSH2 0xA9A JUMP JUMPDEST PUSH1 0x1F NOT DUP5 AND PUSH2 0xA48 DUP7 PUSH2 0x824 JUMP JUMPDEST PUSH1 0x0 JUMPDEST DUP3 DUP2 LT ISZERO PUSH2 0xA70 JUMPI DUP5 DUP10 ADD MLOAD DUP3 SSTORE PUSH1 0x1 DUP3 ADD SWAP2 POP PUSH1 0x20 DUP6 ADD SWAP5 POP PUSH1 0x20 DUP2 ADD SWAP1 POP PUSH2 0xA4B JUMP JUMPDEST DUP7 DUP4 LT ISZERO PUSH2 0xA8D JUMPI DUP5 DUP10 ADD MLOAD PUSH2 0xA89 PUSH1 0x1F DUP10 AND DUP3 PUSH2 0x996 JUMP JUMPDEST DUP4 SSTORE POP JUMPDEST PUSH1 0x1 PUSH1 0x2 DUP9 MUL ADD DUP9 SSTORE POP POP POP JUMPDEST POP POP POP POP POP POP JUMP INVALID LOG2 PUSH5 0x6970667358 0x22 SLT KECCAK256 0xF9 SWAP16 0xB7 0xBB SWAP15 SWAP1 PUSH28 0x4274D3F03845E089DC48E2FA39BED293751B04756424E0BAE564736F PUSH13 0x63430008120033000000000000 "
		},
		"gasEstimates": {
			"creation": {
				"codeDepositCost": "555200",
				"executionCost": "587",
				"totalCost": "555787"
			},
			"external": {
				"getAverageScore()": "infinite",
				"getStudents()": "infinite",
				"setStudents(string,uint256)": "infinite"
			}
		},
		"methodIdentifiers": {
			"getAverageScore()": "df72cdbf",
			"getStudents()": "f1d064b3",
			"setStudents(string,uint256)": "e425e071"
		}
	},
	"abi": [
		{
			"inputs": [],
			"name": "getAverageScore",
			"outputs": [
				{
					"internalType": "uint256",
					"name": "",
					"type": "uint256"
				}
			],
			"stateMutability": "view",
			"type": "function"
		},
		{
			"inputs": [],
			"name": "getStudents",
			"outputs": [
				{
					"components": [
						{
							"internalType": "string",
							"name": "name",
							"type": "string"
						},
						{
							"internalType": "uint256",
							"name": "number",
							"type": "uint256"
						},
						{
							"internalType": "uint256",
							"name": "score",
							"type": "uint256"
						}
					],
					"internalType": "struct Quiz34.student[]",
					"name": "",
					"type": "tuple[]"
				}
			],
			"stateMutability": "view",
			"type": "function"
		},
		{
			"inputs": [
				{
					"internalType": "string",
					"name": "_name",
					"type": "string"
				},
				{
					"internalType": "uint256",
					"name": "_score",
					"type": "uint256"
				}
			],
			"name": "setStudents",
			"outputs": [],
			"stateMutability": "nonpayable",
			"type": "function"
		}
	]
}